{
  "transactions": [
    {
      "hash": "0x805025c87ae884ea23bb72abbc0df0947b1781f195edeba76cb203ada0b4887c",
      "transactionType": "CALL",
      "contractName": null,
      "contractAddress": "0x5402d75d09f893aFC27db89d96021704D5F91dAc",
      "function": "mintFungible(address,uint256,uint256)",
      "arguments": [
        "0xC03F52e87f41f8e2907e2410695ab59492f6aDEf",
        "3",
        "25"
      ],
      "transaction": {
        "type": "0x02",
        "from": "0x42c7ef198f8ac9888e2b1b73e5b71f1d4535194a",
        "to": "0x5402d75d09f893afc27db89d96021704d5f91dac",
        "gas": "0x1a59b",
        "value": "0x0",
        "data": "0x58ea82e6000000000000000000000000c03f52e87f41f8e2907e2410695ab59492f6adef00000000000000000000000000000000000000000000000000000000000000030000000000000000000000000000000000000000000000000000000000000019",
        "nonce": "0x61",
        "accessList": []
      },
      "additionalContracts": [],
      "isFixedGasLimit": false
    },
    {
      "hash": "0xf8ddacf1d4b0d9168efb8f3b78bd4fc9dcce11db5669cce3dc1273e1d66c2913",
      "transactionType": "CALL",
      "contractName": "ERC1155Cloneable",
      "contractAddress": "0x2759A615eF0f0888d70c70d5AAA0Eb22AA7Fa7F6",
      "function": "mintFungible(address,uint256,uint256)",
      "arguments": [
        "0x7618Ce5062b153306284B7267E66526Bf8DBB497",
        "2",
        "50"
      ],
      "transaction": {
        "type": "0x02",
        "from": "0x42c7ef198f8ac9888e2b1b73e5b71f1d4535194a",
        "to": "0x2759a615ef0f0888d70c70d5aaa0eb22aa7fa7f6",
        "gas": "0x188ba",
        "value": "0x0",
        "data": "0x58ea82e60000000000000000000000007618ce5062b153306284b7267e66526bf8dbb49700000000000000000000000000000000000000000000000000000000000000020000000000000000000000000000000000000000000000000000000000000032",
        "nonce": "0x62",
        "accessList": []
      },
      "additionalContracts": [],
      "isFixedGasLimit": false
    }
  ],
  "receipts": [
    {
      "transactionHash": "0x805025c87ae884ea23bb72abbc0df0947b1781f195edeba76cb203ada0b4887c",
      "transactionIndex": "0x0",
      "blockHash": "0x5c4644306b2eccef8873b25189f11c55d8c30285e2a817ad5d312607e048d2a0",
      "blockNumber": "0x3dea07",
      "from": "0x42C7eF198f8aC9888E2B1b73e5B71f1D4535194A",
      "to": "0x5402d75d09f893aFC27db89d96021704D5F91dAc",
      "cumulativeGasUsed": "0x1313d",
      "gasUsed": "0x1313d",
      "contractAddress": null,
      "logs": [
        {
          "address": "0x5402d75d09f893aFC27db89d96021704D5F91dAc",
          "topics": [
            "0xc3d58168c5ae7397731d063d5bbf3d657854427343f4c083240f7aacaa2d0f62",
            "0x00000000000000000000000042c7ef198f8ac9888e2b1b73e5b71f1d4535194a",
            "0x0000000000000000000000000000000000000000000000000000000000000000",
            "0x000000000000000000000000c03f52e87f41f8e2907e2410695ab59492f6adef"
          ],
          "data": "0x00000000000000000000000000000000000000000000000000000000000000030000000000000000000000000000000000000000000000000000000000000019",
          "blockHash": "0x5c4644306b2eccef8873b25189f11c55d8c30285e2a817ad5d312607e048d2a0",
          "blockNumber": "0x3dea07",
          "transactionHash": "0x805025c87ae884ea23bb72abbc0df0947b1781f195edeba76cb203ada0b4887c",
          "transactionIndex": "0x0",
          "logIndex": "0x0",
          "removed": false
        }
      ],
      "status": "0x1",
      "logsBloom": "0x00000000000000000000000000000000000000000000000000400000000000080000000000000000000000000000000000000000000000000000000000002000000000000000000100000000000000000000000000002000000000000000000000000000020000000000000000000800000000000000000000000000000000000000000000000000000000000000000000000000000000000000000000000000000000000000000000800000000000000000008000000000000000000000000000000000010000000000000000000000000000000008000000000000000020000000000000000000000000000400000000000000000000000000180000000000",
      "type": "0x2",
      "effectiveGasPrice": "0xbddb3663"
    },
    {
      "transactionHash": "0xf8ddacf1d4b0d9168efb8f3b78bd4fc9dcce11db5669cce3dc1273e1d66c2913",
      "transactionIndex": "0x1",
      "blockHash": "0x5c4644306b2eccef8873b25189f11c55d8c30285e2a817ad5d312607e048d2a0",
      "blockNumber": "0x3dea07",
      "from": "0x42C7eF198f8aC9888E2B1b73e5B71f1D4535194A",
      "to": "0x2759A615eF0f0888d70c70d5AAA0Eb22AA7Fa7F6",
      "cumulativeGasUsed": "0x24d91",
      "gasUsed": "0x11c54",
      "contractAddress": null,
      "logs": [
        {
          "address": "0x2759A615eF0f0888d70c70d5AAA0Eb22AA7Fa7F6",
          "topics": [
            "0xc3d58168c5ae7397731d063d5bbf3d657854427343f4c083240f7aacaa2d0f62",
            "0x00000000000000000000000042c7ef198f8ac9888e2b1b73e5b71f1d4535194a",
            "0x0000000000000000000000000000000000000000000000000000000000000000",
            "0x0000000000000000000000007618ce5062b153306284b7267e66526bf8dbb497"
          ],
          "data": "0x00000000000000000000000000000000000000000000000000000000000000020000000000000000000000000000000000000000000000000000000000000032",
          "blockHash": "0x5c4644306b2eccef8873b25189f11c55d8c30285e2a817ad5d312607e048d2a0",
          "blockNumber": "0x3dea07",
          "transactionHash": "0xf8ddacf1d4b0d9168efb8f3b78bd4fc9dcce11db5669cce3dc1273e1d66c2913",
          "transactionIndex": "0x1",
          "logIndex": "0x1",
          "removed": false
        }
      ],
      "status": "0x1",
      "logsBloom": "0x00000000000000000000000000000000000000000000000000000000000000000000000000000000000000000000000000000000000000800000000000002000000000000000000100000000000000000000000000000000000000000000000000000000020080000000000000000800000000000000000000000000200000000000000000000000000000000000000000000000000000000000000800000000000000004000000000800000000000000000000000000000000000000000000000000000000000000000000000000000000000001008000000000000000020000000000000000000000000000400000000000000000000000000080000000000",
      "type": "0x2",
      "effectiveGasPrice": "0xbddb3663"
    }
  ],
  "libraries": [],
  "pending": [],
  "returns": {},
  "timestamp": 1691616602,
  "chain": 11155111,
  "multi": false,
  "commit": "af42b49"
}