{
  "transactions": [
    {
      "hash": "0x805025c87ae884ea23bb72abbc0df0947b1781f195edeba76cb203ada0b4887c",
      "transactionType": "CALL",
      "contractName": null,
      "contractAddress": "0x5402d75d09f893aFC27db89d96021704D5F91dAc",
      "function": "mintFungible(address,uint256,uint256)",
      "arguments": [
        "0xC03F52e87f41f8e2907e2410695ab59492f6aDEf",
        "3",
        "25"
      ],
      "transaction": {
        "type": "0x02",
        "from": "0x42c7ef198f8ac9888e2b1b73e5b71f1d4535194a",
        "to": "0x5402d75d09f893afc27db89d96021704d5f91dac",
        "gas": "0x1a59b",
        "value": "0x0",
        "data": "0x58ea82e6000000000000000000000000c03f52e87f41f8e2907e2410695ab59492f6adef00000000000000000000000000000000000000000000000000000000000000030000000000000000000000000000000000000000000000000000000000000019",
        "nonce": "0x61",
        "accessList": []
      },
      "additionalContracts": [],
      "isFixedGasLimit": false
    },
    {
      "hash": "0xf8ddacf1d4b0d9168efb8f3b78bd4fc9dcce11db5669cce3dc1273e1d66c2913",
      "transactionType": "CALL",
      "contractName": "ERC1155Cloneable",
      "contractAddress": "0x2759A615eF0f0888d70c70d5AAA0Eb22AA7Fa7F6",
      "function": "mintFungible(address,uint256,uint256)",
      "arguments": [
        "0x7618Ce5062b153306284B7267E66526Bf8DBB497",
        "2",
        "50"
      ],
      "transaction": {
        "type": "0x02",
        "from": "0x42c7ef198f8ac9888e2b1b73e5b71f1d4535194a",
        "to": "0x2759a615ef0f0888d70c70d5aaa0eb22aa7fa7f6",
        "gas": "0x188ba",
        "value": "0x0",
        "data": "0x58ea82e60000000000000000000000007618ce5062b153306284b7267e66526bf8dbb49700000000000000000000000000000000000000000000000000000000000000020000000000000000000000000000000000000000000000000000000000000032",
        "nonce": "0x62",
        "accessList": []
      },
      "additionalContracts": [],
      "isFixedGasLimit": false
    }
  ],
  "receipts": [],
  "libraries": [],
  "pending": [
    "0x805025c87ae884ea23bb72abbc0df0947b1781f195edeba76cb203ada0b4887c",
    "0xf8ddacf1d4b0d9168efb8f3b78bd4fc9dcce11db5669cce3dc1273e1d66c2913"
  ],
  "returns": {},
  "timestamp": 1691616578,
  "chain": 11155111,
  "multi": false,
  "commit": "af42b49"
}