{
  "transactions": [
    {
      "hash": "0x5804705c2c0bf4cae141db65d86828242de537a2a30b875d019be0f7a85c0fe4",
      "transactionType": "CALL",
      "contractName": "TronicToken",
      "contractAddress": "0x21E92158670054fcace580aFCd18fAC1c4c5472c",
      "function": "mintFungible(address,uint256,uint64)",
      "arguments": [
        "0x03B00190d8E2603B08dA94d8A6E0C8844842499F",
        "0",
        "25"
      ],
      "transaction": {
        "type": "0x02",
        "from": "0x42c7ef198f8ac9888e2b1b73e5b71f1d4535194a",
        "to": "0x21e92158670054fcace580afcd18fac1c4c5472c",
        "gas": "0x1f3d1",
        "value": "0x0",
        "data": "0x6dcb111d00000000000000000000000003b00190d8e2603b08da94d8a6e0c8844842499f00000000000000000000000000000000000000000000000000000000000000000000000000000000000000000000000000000000000000000000000000000019",
        "nonce": "0xaf",
        "accessList": []
      },
      "additionalContracts": [],
      "isFixedGasLimit": false
    },
    {
      "hash": "0x6474636c1f7089bef09256ffcda672d9cf2cbb20563b5f135c7be13c15926e9c",
      "transactionType": "CALL",
      "contractName": "TronicToken",
      "contractAddress": "0x99C5A36f52aeD8c554Ff752D5b48ae506F29C6b1",
      "function": "mintFungible(address,uint256,uint64)",
      "arguments": [
        "0x09422CabAcCecf7b9670575Cb0425a519A713A97",
        "0",
        "50"
      ],
      "transaction": {
        "type": "0x02",
        "from": "0x42c7ef198f8ac9888e2b1b73e5b71f1d4535194a",
        "to": "0x99c5a36f52aed8c554ff752d5b48ae506f29c6b1",
        "gas": "0x1f2c6",
        "value": "0x0",
        "data": "0x6dcb111d00000000000000000000000009422cabaccecf7b9670575cb0425a519a713a9700000000000000000000000000000000000000000000000000000000000000000000000000000000000000000000000000000000000000000000000000000032",
        "nonce": "0xb0",
        "accessList": []
      },
      "additionalContracts": [],
      "isFixedGasLimit": false
    }
  ],
  "receipts": [],
  "libraries": [],
  "pending": [
    "0x5804705c2c0bf4cae141db65d86828242de537a2a30b875d019be0f7a85c0fe4",
    "0x6474636c1f7089bef09256ffcda672d9cf2cbb20563b5f135c7be13c15926e9c"
  ],
  "returns": {},
  "timestamp": 1694135891,
  "chain": 11155111,
  "multi": false,
  "commit": "78fda7f"
}