{
  "transactions": [
    {
      "hash": "0x1cd899b9f77e9fed4282739d9b93996e074be94c4d0bcde4d4c70491f94a4ac0",
      "transactionType": "CALL",
      "contractName": "ERC1155Cloneable",
      "contractAddress": "0xFa2b9fCF23Ab80bDde6f567580f17e00eB22D5C1",
      "function": "createFungibleType(uint256,string)",
      "arguments": [
        "1",
        "https://ipfs.io/ipfs/QmPd3dW1GdemiXM5GcCJe68ykUqGBmG1Q3XshTwzT5zDfJ/1"
      ],
      "transaction": {
        "type": "0x02",
        "from": "0x42c7ef198f8ac9888e2b1b73e5b71f1d4535194a",
        "to": "0xfa2b9fcf23ab80bdde6f567580f17e00eb22d5c1",
        "gas": "0x26c78",
        "value": "0x0",
        "data": "0x21f9577700000000000000000000000000000000000000000000000000000000000000010000000000000000000000000000000000000000000000000000000000000040000000000000000000000000000000000000000000000000000000000000004568747470733a2f2f697066732e696f2f697066732f516d5064336457314764656d69584d354763434a653638796b557147426d4731513358736854777a54357a44664a2f31000000000000000000000000000000000000000000000000000000",
        "nonce": "0x41",
        "accessList": []
      },
      "additionalContracts": [],
      "isFixedGasLimit": false
    },
    {
      "hash": "0x5c8d1a1bec57d6339ad7eca7f4ce60809dd1862babefd9cff75be3539fefd005",
      "transactionType": "CALL",
      "contractName": null,
      "contractAddress": "0x81a71A6DC43395eae7e94df05bD6b54555EAc9c8",
      "function": "mintFungible(address,uint256,uint256)",
      "arguments": [
        "0xb067d2d42a94D43d5e2757fdE4fBE26eA20CA88A",
        "3",
        "25"
      ],
      "transaction": {
        "type": "0x02",
        "from": "0x42c7ef198f8ac9888e2b1b73e5b71f1d4535194a",
        "to": "0x81a71a6dc43395eae7e94df05bd6b54555eac9c8",
        "gas": "0x1a59b",
        "value": "0x0",
        "data": "0x58ea82e6000000000000000000000000b067d2d42a94d43d5e2757fde4fbe26ea20ca88a00000000000000000000000000000000000000000000000000000000000000030000000000000000000000000000000000000000000000000000000000000019",
        "nonce": "0x42",
        "accessList": []
      },
      "additionalContracts": [],
      "isFixedGasLimit": false
    },
    {
      "hash": "0x5fee8654ba714e2fd95bebf9f762b497753639edfbf9c8331ecdd2e11f3c186e",
      "transactionType": "CALL",
      "contractName": "ERC1155Cloneable",
      "contractAddress": "0xFa2b9fCF23Ab80bDde6f567580f17e00eB22D5C1",
      "function": "mintFungible(address,uint256,uint256)",
      "arguments": [
        "0x92a4148F4d957f4A6753AC143D32B5AF390214b3",
        "1",
        "10"
      ],
      "transaction": {
        "type": "0x02",
        "from": "0x42c7ef198f8ac9888e2b1b73e5b71f1d4535194a",
        "to": "0xfa2b9fcf23ab80bdde6f567580f17e00eb22d5c1",
        "gas": "0x188ba",
        "value": "0x0",
        "data": "0x58ea82e600000000000000000000000092a4148f4d957f4a6753ac143d32b5af390214b30000000000000000000000000000000000000000000000000000000000000001000000000000000000000000000000000000000000000000000000000000000a",
        "nonce": "0x43",
        "accessList": []
      },
      "additionalContracts": [],
      "isFixedGasLimit": false
    }
  ],
  "receipts": [],
  "libraries": [],
  "pending": [
    "0x1cd899b9f77e9fed4282739d9b93996e074be94c4d0bcde4d4c70491f94a4ac0",
    "0x5c8d1a1bec57d6339ad7eca7f4ce60809dd1862babefd9cff75be3539fefd005",
    "0x5fee8654ba714e2fd95bebf9f762b497753639edfbf9c8331ecdd2e11f3c186e"
  ],
  "returns": {},
  "timestamp": 1691519216,
  "chain": 11155111,
  "multi": false,
  "commit": "b6d6374"
}