{
  "transactions": [
    {
      "hash": "0xda2d6dc100ee989002978bd18fbc59b1d9d00bff92e127bf0f35549dc1ee434f",
      "transactionType": "CALL",
      "contractName": "TronicToken",
      "contractAddress": "0x21E92158670054fcace580aFCd18fAC1c4c5472c",
      "function": "mintFungible(address,uint256,uint64)",
      "arguments": [
        "0x312a5342d4E1764e2Ca4002Dea30298913fF82eE",
        "0",
        "25"
      ],
      "transaction": {
        "type": "0x02",
        "from": "0x42c7ef198f8ac9888e2b1b73e5b71f1d4535194a",
        "to": "0x21e92158670054fcace580afcd18fac1c4c5472c",
        "gas": "0x1f3e1",
        "value": "0x0",
        "data": "0x6dcb111d000000000000000000000000312a5342d4e1764e2ca4002dea30298913ff82ee00000000000000000000000000000000000000000000000000000000000000000000000000000000000000000000000000000000000000000000000000000019",
        "nonce": "0xb5",
        "accessList": []
      },
      "additionalContracts": [],
      "isFixedGasLimit": false
    },
    {
      "hash": "0x2cdd977f8c1c8b3de11962bb0ea4919ae77667cad623bd113cc13363b87fb23e",
      "transactionType": "CALL",
      "contractName": "TronicToken",
      "contractAddress": "0x99C5A36f52aeD8c554Ff752D5b48ae506F29C6b1",
      "function": "mintFungible(address,uint256,uint64)",
      "arguments": [
        "0x09422CabAcCecf7b9670575Cb0425a519A713A97",
        "0",
        "50"
      ],
      "transaction": {
        "type": "0x02",
        "from": "0x42c7ef198f8ac9888e2b1b73e5b71f1d4535194a",
        "to": "0x99c5a36f52aed8c554ff752d5b48ae506f29c6b1",
        "gas": "0x17acc",
        "value": "0x0",
        "data": "0x6dcb111d00000000000000000000000009422cabaccecf7b9670575cb0425a519a713a9700000000000000000000000000000000000000000000000000000000000000000000000000000000000000000000000000000000000000000000000000000032",
        "nonce": "0xb6",
        "accessList": []
      },
      "additionalContracts": [],
      "isFixedGasLimit": false
    }
  ],
  "receipts": [
    {
      "transactionHash": "0xda2d6dc100ee989002978bd18fbc59b1d9d00bff92e127bf0f35549dc1ee434f",
      "transactionIndex": "0x1",
      "blockHash": "0x9aed83d750524273b62af11f4f1de505805f7dc355d21cacde9e3c34adfb2066",
      "blockNumber": "0x40c86a",
      "from": "0x42C7eF198f8aC9888E2B1b73e5B71f1D4535194A",
      "to": "0x21E92158670054fcace580aFCd18fAC1c4c5472c",
      "cumulativeGasUsed": "0x1bbf0",
      "gasUsed": "0x169e8",
      "contractAddress": null,
      "logs": [
        {
          "address": "0x21E92158670054fcace580aFCd18fAC1c4c5472c",
          "topics": [
            "0xc3d58168c5ae7397731d063d5bbf3d657854427343f4c083240f7aacaa2d0f62",
            "0x00000000000000000000000042c7ef198f8ac9888e2b1b73e5b71f1d4535194a",
            "0x0000000000000000000000000000000000000000000000000000000000000000",
            "0x000000000000000000000000312a5342d4e1764e2ca4002dea30298913ff82ee"
          ],
          "data": "0x00000000000000000000000000000000000000000000000000000000000000000000000000000000000000000000000000000000000000000000000000000019",
          "blockHash": "0x9aed83d750524273b62af11f4f1de505805f7dc355d21cacde9e3c34adfb2066",
          "blockNumber": "0x40c86a",
          "transactionHash": "0xda2d6dc100ee989002978bd18fbc59b1d9d00bff92e127bf0f35549dc1ee434f",
          "transactionIndex": "0x1",
          "logIndex": "0x0",
          "removed": false
        }
      ],
      "status": "0x1",
      "logsBloom": "0x00000000000000000000000000000000000000000000000000000000000000000000008000000000000000000000000000000000000000000000000000002000000000000000000100000040000000000000000000000000000000000000000000000000020000000010000000000800000000000000000000000000000000000000000000000000000000000000000000000000000000000000000000000000000000000000000000800000000000000000000000000000000000000000000000000000000000000000008000000000000000000008000000000000000020000000000000000000000000001400000000000000000000000000180000000000",
      "type": "0x2",
      "effectiveGasPrice": "0xb2d05e0a"
    },
    {
      "transactionHash": "0x2cdd977f8c1c8b3de11962bb0ea4919ae77667cad623bd113cc13363b87fb23e",
      "transactionIndex": "0x2",
      "blockHash": "0x9aed83d750524273b62af11f4f1de505805f7dc355d21cacde9e3c34adfb2066",
      "blockNumber": "0x40c86a",
      "from": "0x42C7eF198f8aC9888E2B1b73e5B71f1D4535194A",
      "to": "0x99C5A36f52aeD8c554Ff752D5b48ae506F29C6b1",
      "cumulativeGasUsed": "0x2ce2f",
      "gasUsed": "0x1123f",
      "contractAddress": null,
      "logs": [
        {
          "address": "0x99C5A36f52aeD8c554Ff752D5b48ae506F29C6b1",
          "topics": [
            "0xc3d58168c5ae7397731d063d5bbf3d657854427343f4c083240f7aacaa2d0f62",
            "0x00000000000000000000000042c7ef198f8ac9888e2b1b73e5b71f1d4535194a",
            "0x0000000000000000000000000000000000000000000000000000000000000000",
            "0x00000000000000000000000009422cabaccecf7b9670575cb0425a519a713a97"
          ],
          "data": "0x00000000000000000000000000000000000000000000000000000000000000000000000000000000000000000000000000000000000000000000000000000032",
          "blockHash": "0x9aed83d750524273b62af11f4f1de505805f7dc355d21cacde9e3c34adfb2066",
          "blockNumber": "0x40c86a",
          "transactionHash": "0x2cdd977f8c1c8b3de11962bb0ea4919ae77667cad623bd113cc13363b87fb23e",
          "transactionIndex": "0x2",
          "logIndex": "0x1",
          "removed": false
        }
      ],
      "status": "0x1",
      "logsBloom": "0x00000000000000000000000000000000000000000000000000000000000000000400000000000000000000000000000000000000000000200000000000002000000000000000000100000000000000000000000000000000000000000200000000000000020000000000000000000800000000000000000000000000000000000000000000000000000000000000000000000000000000000000000000000000000008000000000000800000000000000000000000000000000000000000000010000000000000000000000000000000000000000008000000000000000020000040000000000000000000000400000000000000000000000000080000000000",
      "type": "0x2",
      "effectiveGasPrice": "0xb2d05e0a"
    }
  ],
  "libraries": [],
  "pending": [],
  "returns": {},
  "timestamp": 1694147566,
  "chain": 11155111,
  "multi": false,
  "commit": "8b71fec"
}