{
  "transactions": [
    {
      "hash": "0x8ff54638efa3df1dda98318556b89c1e3867f3174f6c8f8c703b1d57a9b8c122",
      "transactionType": "CALL",
      "contractName": "ERC1155Cloneable",
      "contractAddress": "0x88CDb8f97854F4a389F3482667d57f2B8a223812",
      "function": "mintFungible(address,uint256,uint64)",
      "arguments": [
        "0x03B00190d8E2603B08dA94d8A6E0C8844842499F",
        "0",
        "25"
      ],
      "transaction": {
        "type": "0x02",
        "from": "0x42c7ef198f8ac9888e2b1b73e5b71f1d4535194a",
        "to": "0x88cdb8f97854f4a389f3482667d57f2b8a223812",
        "gas": "0x1f3d1",
        "value": "0x0",
        "data": "0x6dcb111d00000000000000000000000003b00190d8e2603b08da94d8a6e0c8844842499f00000000000000000000000000000000000000000000000000000000000000000000000000000000000000000000000000000000000000000000000000000019",
        "nonce": "0x91",
        "accessList": []
      },
      "additionalContracts": [],
      "isFixedGasLimit": false
    },
    {
      "hash": "0x8d1268719433fd837758039117a58075829c11d35c1774fc34c2e9e45acac4e4",
      "transactionType": "CALL",
      "contractName": "ERC1155Cloneable",
      "contractAddress": "0xEAB7a1e6244Ca96A537823be249B3b7bEfF4117F",
      "function": "mintFungible(address,uint256,uint64)",
      "arguments": [
        "0x23aec166d19e8a11390445479267D7e07D550A66",
        "0",
        "50"
      ],
      "transaction": {
        "type": "0x02",
        "from": "0x42c7ef198f8ac9888e2b1b73e5b71f1d4535194a",
        "to": "0xeab7a1e6244ca96a537823be249b3b7beff4117f",
        "gas": "0x1d6f0",
        "value": "0x0",
        "data": "0x6dcb111d00000000000000000000000023aec166d19e8a11390445479267d7e07d550a6600000000000000000000000000000000000000000000000000000000000000000000000000000000000000000000000000000000000000000000000000000032",
        "nonce": "0x92",
        "accessList": []
      },
      "additionalContracts": [],
      "isFixedGasLimit": false
    }
  ],
  "receipts": [
    {
      "transactionHash": "0x8ff54638efa3df1dda98318556b89c1e3867f3174f6c8f8c703b1d57a9b8c122",
      "transactionIndex": "0x8",
      "blockHash": "0x68d89375d07589663b1843d572ca3269d24e51d79643a2c29a740803bc4500f6",
      "blockNumber": "0x401f27",
      "from": "0x42C7eF198f8aC9888E2B1b73e5B71f1D4535194A",
      "to": "0x88CDb8f97854F4a389F3482667d57f2B8a223812",
      "cumulativeGasUsed": "0x133423",
      "gasUsed": "0x169dd",
      "contractAddress": null,
      "logs": [
        {
          "address": "0x88CDb8f97854F4a389F3482667d57f2B8a223812",
          "topics": [
            "0xc3d58168c5ae7397731d063d5bbf3d657854427343f4c083240f7aacaa2d0f62",
            "0x00000000000000000000000042c7ef198f8ac9888e2b1b73e5b71f1d4535194a",
            "0x0000000000000000000000000000000000000000000000000000000000000000",
            "0x00000000000000000000000003b00190d8e2603b08da94d8a6e0c8844842499f"
          ],
          "data": "0x00000000000000000000000000000000000000000000000000000000000000000000000000000000000000000000000000000000000000000000000000000019",
          "blockHash": "0x68d89375d07589663b1843d572ca3269d24e51d79643a2c29a740803bc4500f6",
          "blockNumber": "0x401f27",
          "transactionHash": "0x8ff54638efa3df1dda98318556b89c1e3867f3174f6c8f8c703b1d57a9b8c122",
          "transactionIndex": "0x8",
          "logIndex": "0x3",
          "removed": false
        }
      ],
      "status": "0x1",
      "logsBloom": "0x00000000000000000000000000000000000000000000000000000000000000000000000000000000004000000000000000000000000000000000000000002800000000000000000100008000000000000000000000000000000000000000000000000000020000000000000000000800000000000000000000000000000000000000000000000000000000000000000000000000000000000000000000000000000000000000000000800000000000000000000000200000000000000000000000000000001000000800000000000000000000000008000000000000000020000000000000000000000000000400000000000000000000000000080000000000",
      "type": "0x2",
      "effectiveGasPrice": "0x21c2808e4"
    },
    {
      "transactionHash": "0x8d1268719433fd837758039117a58075829c11d35c1774fc34c2e9e45acac4e4",
      "transactionIndex": "0x9",
      "blockHash": "0x68d89375d07589663b1843d572ca3269d24e51d79643a2c29a740803bc4500f6",
      "blockNumber": "0x401f27",
      "from": "0x42C7eF198f8aC9888E2B1b73e5B71f1D4535194A",
      "to": "0xEAB7a1e6244Ca96A537823be249B3b7bEfF4117F",
      "cumulativeGasUsed": "0x148917",
      "gasUsed": "0x154f4",
      "contractAddress": null,
      "logs": [
        {
          "address": "0xEAB7a1e6244Ca96A537823be249B3b7bEfF4117F",
          "topics": [
            "0xc3d58168c5ae7397731d063d5bbf3d657854427343f4c083240f7aacaa2d0f62",
            "0x00000000000000000000000042c7ef198f8ac9888e2b1b73e5b71f1d4535194a",
            "0x0000000000000000000000000000000000000000000000000000000000000000",
            "0x00000000000000000000000023aec166d19e8a11390445479267d7e07d550a66"
          ],
          "data": "0x00000000000000000000000000000000000000000000000000000000000000000000000000000000000000000000000000000000000000000000000000000032",
          "blockHash": "0x68d89375d07589663b1843d572ca3269d24e51d79643a2c29a740803bc4500f6",
          "blockNumber": "0x401f27",
          "transactionHash": "0x8d1268719433fd837758039117a58075829c11d35c1774fc34c2e9e45acac4e4",
          "transactionIndex": "0x9",
          "logIndex": "0x4",
          "removed": false
        }
      ],
      "status": "0x1",
      "logsBloom": "0x00000000000000000000000000100000000000000000000001000000000000000000000000000000000000000000000000000000000000000001000000002000000000000000000100000000000000000000000001000000000000000000000000000000020000000000000000000810000000000000000000000000000000000000000000000000000000000000000000000000000000000000040000000000000000000000000000800000000000000000000000000000000000000000000000000000000000000000000000000000000000000008000000000000000020000000000000000000000000000400000000000000000000000000080000000000",
      "type": "0x2",
      "effectiveGasPrice": "0x21c2808e4"
    }
  ],
  "libraries": [],
  "pending": [],
  "returns": {},
  "timestamp": 1693546847,
  "chain": 11155111,
  "multi": false,
  "commit": "11bdc2c"
}