{
  "transactions": [
    {
      "hash": "0x5804705c2c0bf4cae141db65d86828242de537a2a30b875d019be0f7a85c0fe4",
      "transactionType": "CALL",
      "contractName": "TronicToken",
      "contractAddress": "0x21E92158670054fcace580aFCd18fAC1c4c5472c",
      "function": "mintFungible(address,uint256,uint64)",
      "arguments": [
        "0x03B00190d8E2603B08dA94d8A6E0C8844842499F",
        "0",
        "25"
      ],
      "transaction": {
        "type": "0x02",
        "from": "0x42c7ef198f8ac9888e2b1b73e5b71f1d4535194a",
        "to": "0x21e92158670054fcace580afcd18fac1c4c5472c",
        "gas": "0x1f3d1",
        "value": "0x0",
        "data": "0x6dcb111d00000000000000000000000003b00190d8e2603b08da94d8a6e0c8844842499f00000000000000000000000000000000000000000000000000000000000000000000000000000000000000000000000000000000000000000000000000000019",
        "nonce": "0xaf",
        "accessList": []
      },
      "additionalContracts": [],
      "isFixedGasLimit": false
    },
    {
      "hash": "0x6474636c1f7089bef09256ffcda672d9cf2cbb20563b5f135c7be13c15926e9c",
      "transactionType": "CALL",
      "contractName": "TronicToken",
      "contractAddress": "0x99C5A36f52aeD8c554Ff752D5b48ae506F29C6b1",
      "function": "mintFungible(address,uint256,uint64)",
      "arguments": [
        "0x09422CabAcCecf7b9670575Cb0425a519A713A97",
        "0",
        "50"
      ],
      "transaction": {
        "type": "0x02",
        "from": "0x42c7ef198f8ac9888e2b1b73e5b71f1d4535194a",
        "to": "0x99c5a36f52aed8c554ff752d5b48ae506f29c6b1",
        "gas": "0x1f2c6",
        "value": "0x0",
        "data": "0x6dcb111d00000000000000000000000009422cabaccecf7b9670575cb0425a519a713a9700000000000000000000000000000000000000000000000000000000000000000000000000000000000000000000000000000000000000000000000000000032",
        "nonce": "0xb0",
        "accessList": []
      },
      "additionalContracts": [],
      "isFixedGasLimit": false
    }
  ],
  "receipts": [
    {
      "transactionHash": "0x5804705c2c0bf4cae141db65d86828242de537a2a30b875d019be0f7a85c0fe4",
      "transactionIndex": "0x0",
      "blockHash": "0xd48fae60c52ed8da08d3d1fc8f3b43b5e43776ef5050e6a53b9c0b3f699d483b",
      "blockNumber": "0x40c50f",
      "from": "0x42C7eF198f8aC9888E2B1b73e5B71f1D4535194A",
      "to": "0x21E92158670054fcace580aFCd18fAC1c4c5472c",
      "cumulativeGasUsed": "0x169dd",
      "gasUsed": "0x169dd",
      "contractAddress": null,
      "logs": [
        {
          "address": "0x21E92158670054fcace580aFCd18fAC1c4c5472c",
          "topics": [
            "0xc3d58168c5ae7397731d063d5bbf3d657854427343f4c083240f7aacaa2d0f62",
            "0x00000000000000000000000042c7ef198f8ac9888e2b1b73e5b71f1d4535194a",
            "0x0000000000000000000000000000000000000000000000000000000000000000",
            "0x00000000000000000000000003b00190d8e2603b08da94d8a6e0c8844842499f"
          ],
          "data": "0x00000000000000000000000000000000000000000000000000000000000000000000000000000000000000000000000000000000000000000000000000000019",
          "blockHash": "0xd48fae60c52ed8da08d3d1fc8f3b43b5e43776ef5050e6a53b9c0b3f699d483b",
          "blockNumber": "0x40c50f",
          "transactionHash": "0x5804705c2c0bf4cae141db65d86828242de537a2a30b875d019be0f7a85c0fe4",
          "transactionIndex": "0x0",
          "logIndex": "0x0",
          "removed": false
        }
      ],
      "status": "0x1",
      "logsBloom": "0x00000000000000000000000000000000000000000000000000000000000000000000000000000000000000000000000000000000000000000000000000002800000000000000000100008000000000000000000000000000000000000000000000000000020000000010000000000800000000000000000000000000000000000000000000000000000000000000000000000000000000000000000000000000000000000000000000800000000000000000000000000000000000000000000000000000000000000800008000000000000000000008000000000000000020000000000000000000000000000400000000000000000000000000180000000000",
      "type": "0x2",
      "effectiveGasPrice": "0xb2d05e0a"
    },
    {
      "transactionHash": "0x6474636c1f7089bef09256ffcda672d9cf2cbb20563b5f135c7be13c15926e9c",
      "transactionIndex": "0x1",
      "blockHash": "0xd48fae60c52ed8da08d3d1fc8f3b43b5e43776ef5050e6a53b9c0b3f699d483b",
      "blockNumber": "0x40c50f",
      "from": "0x42C7eF198f8aC9888E2B1b73e5B71f1D4535194A",
      "to": "0x99C5A36f52aeD8c554Ff752D5b48ae506F29C6b1",
      "cumulativeGasUsed": "0x2bee8",
      "gasUsed": "0x1550b",
      "contractAddress": null,
      "logs": [
        {
          "address": "0x99C5A36f52aeD8c554Ff752D5b48ae506F29C6b1",
          "topics": [
            "0xc3d58168c5ae7397731d063d5bbf3d657854427343f4c083240f7aacaa2d0f62",
            "0x00000000000000000000000042c7ef198f8ac9888e2b1b73e5b71f1d4535194a",
            "0x0000000000000000000000000000000000000000000000000000000000000000",
            "0x00000000000000000000000009422cabaccecf7b9670575cb0425a519a713a97"
          ],
          "data": "0x00000000000000000000000000000000000000000000000000000000000000000000000000000000000000000000000000000000000000000000000000000032",
          "blockHash": "0xd48fae60c52ed8da08d3d1fc8f3b43b5e43776ef5050e6a53b9c0b3f699d483b",
          "blockNumber": "0x40c50f",
          "transactionHash": "0x6474636c1f7089bef09256ffcda672d9cf2cbb20563b5f135c7be13c15926e9c",
          "transactionIndex": "0x1",
          "logIndex": "0x1",
          "removed": false
        }
      ],
      "status": "0x1",
      "logsBloom": "0x00000000000000000000000000000000000000000000000000000000000000000400000000000000000000000000000000000000000000200000000000002000000000000000000100000000000000000000000000000000000000000200000000000000020000000000000000000800000000000000000000000000000000000000000000000000000000000000000000000000000000000000000000000000000008000000000000800000000000000000000000000000000000000000000010000000000000000000000000000000000000000008000000000000000020000040000000000000000000000400000000000000000000000000080000000000",
      "type": "0x2",
      "effectiveGasPrice": "0xb2d05e0a"
    }
  ],
  "libraries": [],
  "pending": [],
  "returns": {},
  "timestamp": 1694135915,
  "chain": 11155111,
  "multi": false,
  "commit": "78fda7f"
}