{
  "transactions": [
    {
      "hash": "0x894b6f1ac53cc99af811323ae8b66e500e39b8b23feaa278141fae7db9f37f3a",
      "transactionType": "CALL",
      "contractName": "TronicMain",
      "contractAddress": "0xAd707eB7697b40DB481490CcDB3a50eafF6ad3Bc",
      "function": "deployMembership(string,string,string,uint256):(uint256,address,address)",
      "arguments": [
        "Membership X ERC721",
        "MX721",
        "https://ipfs.io/ipfs/QmeYWTXaeTRAhurR55nbW5ma4mJdE3hAxFBYxeZC2wnwVK/",
        "10000"
      ],
      "transaction": {
        "type": "0x02",
        "from": "0x27870dba1e03cfdd24f5658b255c0baac970a19d",
        "to": "0xad707eb7697b40db481490ccdb3a50eaff6ad3bc",
        "gas": "0xd7613",
        "value": "0x0",
        "data": "0x9618fee6000000000000000000000000000000000000000000000000000000000000008000000000000000000000000000000000000000000000000000000000000000c00000000000000000000000000000000000000000000000000000000000000100000000000000000000000000000000000000000000000000000000000000271000000000000000000000000000000000000000000000000000000000000000134d656d626572736869702058204552433732310000000000000000000000000000000000000000000000000000000000000000000000000000000000000000054d58373231000000000000000000000000000000000000000000000000000000000000000000000000000000000000000000000000000000000000000000004468747470733a2f2f697066732e696f2f697066732f516d655957545861655452416875725235356e6257356d61346d4a64453368417846425978655a4332776e77564b2f00000000000000000000000000000000000000000000000000000000",
        "nonce": "0x0",
        "accessList": []
      },
      "additionalContracts": [
        {
          "transactionType": "CREATE",
          "address": "0x0256fAdb74B480aE49F0930a5913466005118f26",
          "initCode": "0x3d602d80600a3d3981f3363d3d373d3d3d363d733c58d516fa4fa46b8efa821af410277b0bd32bd05af43d82803e903d91602b57fd5bf3"
        },
        {
          "transactionType": "CREATE",
          "address": "0xd93937E53d87973435AF7277B8C171CA9BC68769",
          "initCode": "0x3d602d80600a3d3981f3363d3d373d3d3d363d73380f373cacafdd87e9a210cc0ae3db5f8670bf2f5af43d82803e903d91602b57fd5bf3"
        }
      ],
      "isFixedGasLimit": false
    },
    {
      "hash": "0x88385f7df7b03ed7e1424ccd650345cfd44c90ec4979a49638cfa5b6e3f43ed4",
      "transactionType": "CALL",
      "contractName": "TronicMain",
      "contractAddress": "0xAd707eB7697b40DB481490CcDB3a50eafF6ad3Bc",
      "function": "deployMembership(string,string,string,uint256):(uint256,address,address)",
      "arguments": [
        "Membership Y ERC721",
        "MY721",
        "https://ipfs.io/ipfs/QmVDAzpqk83MEhZQp7xK3yeVrrcfg5gPa7uS5JZH9cQtf2/",
        "10000"
      ],
      "transaction": {
        "type": "0x02",
        "from": "0x27870dba1e03cfdd24f5658b255c0baac970a19d",
        "to": "0xad707eb7697b40db481490ccdb3a50eaff6ad3bc",
        "gas": "0xc5a5c",
        "value": "0x0",
        "data": "0x9618fee6000000000000000000000000000000000000000000000000000000000000008000000000000000000000000000000000000000000000000000000000000000c00000000000000000000000000000000000000000000000000000000000000100000000000000000000000000000000000000000000000000000000000000271000000000000000000000000000000000000000000000000000000000000000134d656d626572736869702059204552433732310000000000000000000000000000000000000000000000000000000000000000000000000000000000000000054d59373231000000000000000000000000000000000000000000000000000000000000000000000000000000000000000000000000000000000000000000004468747470733a2f2f697066732e696f2f697066732f516d5644417a70716b38334d45685a517037784b33796556727263666735675061377553354a5a483963517466322f00000000000000000000000000000000000000000000000000000000",
        "nonce": "0x1",
        "accessList": []
      },
      "additionalContracts": [
        {
          "transactionType": "CREATE",
          "address": "0xD01d94073d0aB4Cc5AF318aaF8D67Ee89259f131",
          "initCode": "0x3d602d80600a3d3981f3363d3d373d3d3d363d733c58d516fa4fa46b8efa821af410277b0bd32bd05af43d82803e903d91602b57fd5bf3"
        },
        {
          "transactionType": "CREATE",
          "address": "0xdC4f015d90454600CfB735b8f1f80Bdf1468A900",
          "initCode": "0x3d602d80600a3d3981f3363d3d373d3d3d363d73380f373cacafdd87e9a210cc0ae3db5f8670bf2f5af43d82803e903d91602b57fd5bf3"
        }
      ],
      "isFixedGasLimit": false
    }
  ],
  "receipts": [
    {
      "transactionHash": "0x894b6f1ac53cc99af811323ae8b66e500e39b8b23feaa278141fae7db9f37f3a",
      "transactionIndex": "0x0",
      "blockHash": "0x7b5e0f58aed7d61f6d287b2045230a7b15bc23c75e87b00ec9b798c66cac0aef",
      "blockNumber": "0x40d67a",
      "from": "0x27870DBa1e03CFDD24F5658b255c0BAaC970A19D",
      "to": "0xAd707eB7697b40DB481490CcDB3a50eafF6ad3Bc",
      "cumulativeGasUsed": "0x93453",
      "gasUsed": "0x93453",
      "contractAddress": null,
      "logs": [
        {
          "address": "0x0256fAdb74B480aE49F0930a5913466005118f26",
          "topics": [
            "0xc7f505b2f371ae2175ee4913f4499e1f2633a7b5936321eed1cdaeb6115181d2"
          ],
          "data": "0x0000000000000000000000000000000000000000000000000000000000000001",
          "blockHash": "0x7b5e0f58aed7d61f6d287b2045230a7b15bc23c75e87b00ec9b798c66cac0aef",
          "blockNumber": "0x40d67a",
          "transactionHash": "0x894b6f1ac53cc99af811323ae8b66e500e39b8b23feaa278141fae7db9f37f3a",
          "transactionIndex": "0x0",
          "logIndex": "0x0",
          "removed": false
        },
        {
          "address": "0xd93937E53d87973435AF7277B8C171CA9BC68769",
          "topics": [
            "0xc7f505b2f371ae2175ee4913f4499e1f2633a7b5936321eed1cdaeb6115181d2"
          ],
          "data": "0x0000000000000000000000000000000000000000000000000000000000000001",
          "blockHash": "0x7b5e0f58aed7d61f6d287b2045230a7b15bc23c75e87b00ec9b798c66cac0aef",
          "blockNumber": "0x40d67a",
          "transactionHash": "0x894b6f1ac53cc99af811323ae8b66e500e39b8b23feaa278141fae7db9f37f3a",
          "transactionIndex": "0x0",
          "logIndex": "0x1",
          "removed": false
        },
        {
          "address": "0xAd707eB7697b40DB481490CcDB3a50eafF6ad3Bc",
          "topics": [
            "0x52350853cf11d8d10dce184f63da36faebfcc34d29fd9f625cde2add90fe4aeb",
            "0x0000000000000000000000000000000000000000000000000000000000000000",
            "0x0000000000000000000000000256fadb74b480ae49f0930a5913466005118f26",
            "0x000000000000000000000000d93937e53d87973435af7277b8c171ca9bc68769"
          ],
          "data": "0x",
          "blockHash": "0x7b5e0f58aed7d61f6d287b2045230a7b15bc23c75e87b00ec9b798c66cac0aef",
          "blockNumber": "0x40d67a",
          "transactionHash": "0x894b6f1ac53cc99af811323ae8b66e500e39b8b23feaa278141fae7db9f37f3a",
          "transactionIndex": "0x0",
          "logIndex": "0x2",
          "removed": false
        }
      ],
      "status": "0x1",
      "logsBloom": "0x00000000000000200000000000000000000000000000000000000000100000000000004000000000000000000000000000000000000000000000000000001000000000002000000000000000000000000200000000000040000000000000000000000100020010000000000000000800000000080000800000000100000000000000001000000000000820000000000000000000000080000000000000000000000102000000000000000000000000000000000000000000000000000000000000000000000000000000000000000000000000000004000000080000000020000000000000000000000000000000000040000000000000000000000000000000",
      "type": "0x2",
      "effectiveGasPrice": "0xb2d05e11"
    },
    {
      "transactionHash": "0x88385f7df7b03ed7e1424ccd650345cfd44c90ec4979a49638cfa5b6e3f43ed4",
      "transactionIndex": "0x1",
      "blockHash": "0x7b5e0f58aed7d61f6d287b2045230a7b15bc23c75e87b00ec9b798c66cac0aef",
      "blockNumber": "0x40d67a",
      "from": "0x27870DBa1e03CFDD24F5658b255c0BAaC970A19D",
      "to": "0xAd707eB7697b40DB481490CcDB3a50eafF6ad3Bc",
      "cumulativeGasUsed": "0x1225da",
      "gasUsed": "0x8f187",
      "contractAddress": null,
      "logs": [
        {
          "address": "0xD01d94073d0aB4Cc5AF318aaF8D67Ee89259f131",
          "topics": [
            "0xc7f505b2f371ae2175ee4913f4499e1f2633a7b5936321eed1cdaeb6115181d2"
          ],
          "data": "0x0000000000000000000000000000000000000000000000000000000000000001",
          "blockHash": "0x7b5e0f58aed7d61f6d287b2045230a7b15bc23c75e87b00ec9b798c66cac0aef",
          "blockNumber": "0x40d67a",
          "transactionHash": "0x88385f7df7b03ed7e1424ccd650345cfd44c90ec4979a49638cfa5b6e3f43ed4",
          "transactionIndex": "0x1",
          "logIndex": "0x3",
          "removed": false
        },
        {
          "address": "0xdC4f015d90454600CfB735b8f1f80Bdf1468A900",
          "topics": [
            "0xc7f505b2f371ae2175ee4913f4499e1f2633a7b5936321eed1cdaeb6115181d2"
          ],
          "data": "0x0000000000000000000000000000000000000000000000000000000000000001",
          "blockHash": "0x7b5e0f58aed7d61f6d287b2045230a7b15bc23c75e87b00ec9b798c66cac0aef",
          "blockNumber": "0x40d67a",
          "transactionHash": "0x88385f7df7b03ed7e1424ccd650345cfd44c90ec4979a49638cfa5b6e3f43ed4",
          "transactionIndex": "0x1",
          "logIndex": "0x4",
          "removed": false
        },
        {
          "address": "0xAd707eB7697b40DB481490CcDB3a50eafF6ad3Bc",
          "topics": [
            "0x52350853cf11d8d10dce184f63da36faebfcc34d29fd9f625cde2add90fe4aeb",
            "0x0000000000000000000000000000000000000000000000000000000000000001",
            "0x000000000000000000000000d01d94073d0ab4cc5af318aaf8d67ee89259f131",
            "0x000000000000000000000000dc4f015d90454600cfb735b8f1f80bdf1468a900"
          ],
          "data": "0x",
          "blockHash": "0x7b5e0f58aed7d61f6d287b2045230a7b15bc23c75e87b00ec9b798c66cac0aef",
          "blockNumber": "0x40d67a",
          "transactionHash": "0x88385f7df7b03ed7e1424ccd650345cfd44c90ec4979a49638cfa5b6e3f43ed4",
          "transactionIndex": "0x1",
          "logIndex": "0x5",
          "removed": false
        }
      ],
      "status": "0x1",
      "logsBloom": "0x00000000040000000000000000000000000000000000000000000000000000000000004020000000000000000000000000000000000000000000000000040000000040002000000000000000000000000000000000040000000000001000000000000100000000000000000000000000000000000000000000000100000000000000000000000020000820080000040000000000000080000000000000000000000000000000000000000000000000000000080000000000001000000000000000000000000000000000200000000000000400000004000000000000000040000000000000000000000000000000000040000000000000000000040000000000",
      "type": "0x2",
      "effectiveGasPrice": "0xb2d05e11"
    }
  ],
  "libraries": [],
  "pending": [],
  "returns": {},
  "timestamp": 1694196167,
  "chain": 11155111,
  "multi": false,
  "commit": "f58b456"
}