{
  "transactions": [
    {
      "hash": "0x9581aad925f1ca4bd1166c590ad53a84f97167a4b21ac27b6aeff75d9ab6e190",
      "transactionType": "CALL",
      "contractName": "TronicMain",
      "contractAddress": "0x10900dA08f0515dC93C589169953B5ef87E33adc",
      "function": "deployMembership(string,string,string,uint256):(uint256,address,address)",
      "arguments": [
        "Membership X ERC721",
        "MX721",
        "https://ipfs.io/ipfs/QmeYWTXaeTRAhurR55nbW5ma4mJdE3hAxFBYxeZC2wnwVK/",
        "10000"
      ],
      "transaction": {
        "type": "0x02",
        "from": "0x27870dba1e03cfdd24f5658b255c0baac970a19d",
        "to": "0x10900da08f0515dc93c589169953b5ef87e33adc",
        "gas": "0xcb682",
        "value": "0x0",
        "data": "0x9618fee6000000000000000000000000000000000000000000000000000000000000008000000000000000000000000000000000000000000000000000000000000000c00000000000000000000000000000000000000000000000000000000000000100000000000000000000000000000000000000000000000000000000000000271000000000000000000000000000000000000000000000000000000000000000134d656d626572736869702058204552433732310000000000000000000000000000000000000000000000000000000000000000000000000000000000000000054d58373231000000000000000000000000000000000000000000000000000000000000000000000000000000000000000000000000000000000000000000004468747470733a2f2f697066732e696f2f697066732f516d655957545861655452416875725235356e6257356d61346d4a64453368417846425978655a4332776e77564b2f00000000000000000000000000000000000000000000000000000000",
        "nonce": "0x2",
        "accessList": []
      },
      "additionalContracts": [
        {
          "transactionType": "CREATE",
          "address": "0x21F11833D2450104e5A1Dd3293E0A6c13D4399b0",
          "initCode": "0x3d602d80600a3d3981f3363d3d373d3d3d363d73a23161c76f1f5e91607da899e909a1355c4daacb5af43d82803e903d91602b57fd5bf3"
        },
        {
          "transactionType": "CREATE",
          "address": "0xF4dF35e96EFC1C93052C1dEd5410Ab773f91b3EE",
          "initCode": "0x3d602d80600a3d3981f3363d3d373d3d3d363d73704bb35954f1b425b8d1ca5cd4a8219ac5b1c2e15af43d82803e903d91602b57fd5bf3"
        }
      ],
      "isFixedGasLimit": false
    },
    {
      "hash": "0xaa7a5e29cc631a8eb740912c4fb945c89ee6ad6d1bf1a8c5f90ac966f147f09f",
      "transactionType": "CALL",
      "contractName": "TronicMain",
      "contractAddress": "0x10900dA08f0515dC93C589169953B5ef87E33adc",
      "function": "deployMembership(string,string,string,uint256):(uint256,address,address)",
      "arguments": [
        "Membership Y ERC721",
        "MY721",
        "https://ipfs.io/ipfs/QmVDAzpqk83MEhZQp7xK3yeVrrcfg5gPa7uS5JZH9cQtf2/",
        "10000"
      ],
      "transaction": {
        "type": "0x02",
        "from": "0x27870dba1e03cfdd24f5658b255c0baac970a19d",
        "to": "0x10900da08f0515dc93c589169953b5ef87e33adc",
        "gas": "0xd1443",
        "value": "0x0",
        "data": "0x9618fee6000000000000000000000000000000000000000000000000000000000000008000000000000000000000000000000000000000000000000000000000000000c00000000000000000000000000000000000000000000000000000000000000100000000000000000000000000000000000000000000000000000000000000271000000000000000000000000000000000000000000000000000000000000000134d656d626572736869702059204552433732310000000000000000000000000000000000000000000000000000000000000000000000000000000000000000054d59373231000000000000000000000000000000000000000000000000000000000000000000000000000000000000000000000000000000000000000000004468747470733a2f2f697066732e696f2f697066732f516d5644417a70716b38334d45685a517037784b33796556727263666735675061377553354a5a483963517466322f00000000000000000000000000000000000000000000000000000000",
        "nonce": "0x3",
        "accessList": []
      },
      "additionalContracts": [
        {
          "transactionType": "CREATE",
          "address": "0x461810Fae978FceEC93AD0E064784C273077ecDf",
          "initCode": "0x3d602d80600a3d3981f3363d3d373d3d3d363d73a23161c76f1f5e91607da899e909a1355c4daacb5af43d82803e903d91602b57fd5bf3"
        },
        {
          "transactionType": "CREATE",
          "address": "0x38d9f66AbD4c8Ae50FA578bfA8715B5dBc409B5C",
          "initCode": "0x3d602d80600a3d3981f3363d3d373d3d3d363d73704bb35954f1b425b8d1ca5cd4a8219ac5b1c2e15af43d82803e903d91602b57fd5bf3"
        }
      ],
      "isFixedGasLimit": false
    }
  ],
  "receipts": [
    {
      "transactionHash": "0x9581aad925f1ca4bd1166c590ad53a84f97167a4b21ac27b6aeff75d9ab6e190",
      "transactionIndex": "0x22",
      "blockHash": "0x0994ce177a55d5df3252038f5d0d0e069493db12833cc7a93f5a7fe2caf01ee7",
      "blockNumber": "0x40d6a1",
      "from": "0x27870DBa1e03CFDD24F5658b255c0BAaC970A19D",
      "to": "0x10900dA08f0515dC93C589169953B5ef87E33adc",
      "cumulativeGasUsed": "0x2ceec2",
      "gasUsed": "0x9343d",
      "contractAddress": null,
      "logs": [
        {
          "address": "0x21F11833D2450104e5A1Dd3293E0A6c13D4399b0",
          "topics": [
            "0xc7f505b2f371ae2175ee4913f4499e1f2633a7b5936321eed1cdaeb6115181d2"
          ],
          "data": "0x0000000000000000000000000000000000000000000000000000000000000001",
          "blockHash": "0x0994ce177a55d5df3252038f5d0d0e069493db12833cc7a93f5a7fe2caf01ee7",
          "blockNumber": "0x40d6a1",
          "transactionHash": "0x9581aad925f1ca4bd1166c590ad53a84f97167a4b21ac27b6aeff75d9ab6e190",
          "transactionIndex": "0x22",
          "logIndex": "0x2a",
          "removed": false
        },
        {
          "address": "0xF4dF35e96EFC1C93052C1dEd5410Ab773f91b3EE",
          "topics": [
            "0xc7f505b2f371ae2175ee4913f4499e1f2633a7b5936321eed1cdaeb6115181d2"
          ],
          "data": "0x0000000000000000000000000000000000000000000000000000000000000001",
          "blockHash": "0x0994ce177a55d5df3252038f5d0d0e069493db12833cc7a93f5a7fe2caf01ee7",
          "blockNumber": "0x40d6a1",
          "transactionHash": "0x9581aad925f1ca4bd1166c590ad53a84f97167a4b21ac27b6aeff75d9ab6e190",
          "transactionIndex": "0x22",
          "logIndex": "0x2b",
          "removed": false
        },
        {
          "address": "0x10900dA08f0515dC93C589169953B5ef87E33adc",
          "topics": [
            "0x52350853cf11d8d10dce184f63da36faebfcc34d29fd9f625cde2add90fe4aeb",
            "0x0000000000000000000000000000000000000000000000000000000000000000",
            "0x00000000000000000000000021f11833d2450104e5a1dd3293e0a6c13d4399b0",
            "0x000000000000000000000000f4df35e96efc1c93052c1ded5410ab773f91b3ee"
          ],
          "data": "0x",
          "blockHash": "0x0994ce177a55d5df3252038f5d0d0e069493db12833cc7a93f5a7fe2caf01ee7",
          "blockNumber": "0x40d6a1",
          "transactionHash": "0x9581aad925f1ca4bd1166c590ad53a84f97167a4b21ac27b6aeff75d9ab6e190",
          "transactionIndex": "0x22",
          "logIndex": "0x2c",
          "removed": false
        }
      ],
      "status": "0x1",
      "logsBloom": "0x00000000000000400000200000000000000000000000000000000000000002000000004000000000000000000000000000000000001000040000000000210000000000000000000000000000000000000000000000000000000000000000000000000100020000000000000000000900000000000000000000000000000000000000000000000000000840000000000000002000000080000000000000000000000000000000000000000000000000000000000000000008000000000000000000000000000000000000200000000000000400000004000000000000000020000000000000000000000000000000200040000000000000000000000000000040",
      "type": "0x2",
      "effectiveGasPrice": "0xb2d05e12"
    },
    {
      "transactionHash": "0xaa7a5e29cc631a8eb740912c4fb945c89ee6ad6d1bf1a8c5f90ac966f147f09f",
      "transactionIndex": "0x23",
      "blockHash": "0x0994ce177a55d5df3252038f5d0d0e069493db12833cc7a93f5a7fe2caf01ee7",
      "blockNumber": "0x40d6a1",
      "from": "0x27870DBa1e03CFDD24F5658b255c0BAaC970A19D",
      "to": "0x10900dA08f0515dC93C589169953B5ef87E33adc",
      "cumulativeGasUsed": "0x35e033",
      "gasUsed": "0x8f171",
      "contractAddress": null,
      "logs": [
        {
          "address": "0x461810Fae978FceEC93AD0E064784C273077ecDf",
          "topics": [
            "0xc7f505b2f371ae2175ee4913f4499e1f2633a7b5936321eed1cdaeb6115181d2"
          ],
          "data": "0x0000000000000000000000000000000000000000000000000000000000000001",
          "blockHash": "0x0994ce177a55d5df3252038f5d0d0e069493db12833cc7a93f5a7fe2caf01ee7",
          "blockNumber": "0x40d6a1",
          "transactionHash": "0xaa7a5e29cc631a8eb740912c4fb945c89ee6ad6d1bf1a8c5f90ac966f147f09f",
          "transactionIndex": "0x23",
          "logIndex": "0x2d",
          "removed": false
        },
        {
          "address": "0x38d9f66AbD4c8Ae50FA578bfA8715B5dBc409B5C",
          "topics": [
            "0xc7f505b2f371ae2175ee4913f4499e1f2633a7b5936321eed1cdaeb6115181d2"
          ],
          "data": "0x0000000000000000000000000000000000000000000000000000000000000001",
          "blockHash": "0x0994ce177a55d5df3252038f5d0d0e069493db12833cc7a93f5a7fe2caf01ee7",
          "blockNumber": "0x40d6a1",
          "transactionHash": "0xaa7a5e29cc631a8eb740912c4fb945c89ee6ad6d1bf1a8c5f90ac966f147f09f",
          "transactionIndex": "0x23",
          "logIndex": "0x2e",
          "removed": false
        },
        {
          "address": "0x10900dA08f0515dC93C589169953B5ef87E33adc",
          "topics": [
            "0x52350853cf11d8d10dce184f63da36faebfcc34d29fd9f625cde2add90fe4aeb",
            "0x0000000000000000000000000000000000000000000000000000000000000001",
            "0x000000000000000000000000461810fae978fceec93ad0e064784c273077ecdf",
            "0x00000000000000000000000038d9f66abd4c8ae50fa578bfa8715b5dbc409b5c"
          ],
          "data": "0x",
          "blockHash": "0x0994ce177a55d5df3252038f5d0d0e069493db12833cc7a93f5a7fe2caf01ee7",
          "blockNumber": "0x40d6a1",
          "transactionHash": "0xaa7a5e29cc631a8eb740912c4fb945c89ee6ad6d1bf1a8c5f90ac966f147f09f",
          "transactionIndex": "0x23",
          "logIndex": "0x2f",
          "removed": false
        }
      ],
      "status": "0x1",
      "logsBloom": "0x00000000000000000000000004000000000000000000000000000000004000000000004000000000000000004000000000000000001000000400800000040000000000000000000000000000000000000000000000040000000000000001000000000100000020000000000000000000000000000000000000000000000000000000000000000000000800000000008000000000000080000000000000000000000000000000000000000000000000000000000000000000000000000000000000000000000004000000000000000000000400000004000000802000000040000000000000000000400000000000200040000000000000000000000000000000",
      "type": "0x2",
      "effectiveGasPrice": "0xb2d05e12"
    }
  ],
  "libraries": [],
  "pending": [],
  "returns": {},
  "timestamp": 1694196743,
  "chain": 11155111,
  "multi": false,
  "commit": "f58b456"
}