{
  "transactions": [
    {
      "hash": "0x894b6f1ac53cc99af811323ae8b66e500e39b8b23feaa278141fae7db9f37f3a",
      "transactionType": "CALL",
      "contractName": "TronicMain",
      "contractAddress": "0xAd707eB7697b40DB481490CcDB3a50eafF6ad3Bc",
      "function": "deployMembership(string,string,string,uint256):(uint256,address,address)",
      "arguments": [
        "Membership X ERC721",
        "MX721",
        "https://ipfs.io/ipfs/QmeYWTXaeTRAhurR55nbW5ma4mJdE3hAxFBYxeZC2wnwVK/",
        "10000"
      ],
      "transaction": {
        "type": "0x02",
        "from": "0x27870dba1e03cfdd24f5658b255c0baac970a19d",
        "to": "0xad707eb7697b40db481490ccdb3a50eaff6ad3bc",
        "gas": "0xd7613",
        "value": "0x0",
        "data": "0x9618fee6000000000000000000000000000000000000000000000000000000000000008000000000000000000000000000000000000000000000000000000000000000c00000000000000000000000000000000000000000000000000000000000000100000000000000000000000000000000000000000000000000000000000000271000000000000000000000000000000000000000000000000000000000000000134d656d626572736869702058204552433732310000000000000000000000000000000000000000000000000000000000000000000000000000000000000000054d58373231000000000000000000000000000000000000000000000000000000000000000000000000000000000000000000000000000000000000000000004468747470733a2f2f697066732e696f2f697066732f516d655957545861655452416875725235356e6257356d61346d4a64453368417846425978655a4332776e77564b2f00000000000000000000000000000000000000000000000000000000",
        "nonce": "0x0",
        "accessList": []
      },
      "additionalContracts": [
        {
          "transactionType": "CREATE",
          "address": "0x0256fAdb74B480aE49F0930a5913466005118f26",
          "initCode": "0x3d602d80600a3d3981f3363d3d373d3d3d363d733c58d516fa4fa46b8efa821af410277b0bd32bd05af43d82803e903d91602b57fd5bf3"
        },
        {
          "transactionType": "CREATE",
          "address": "0xd93937E53d87973435AF7277B8C171CA9BC68769",
          "initCode": "0x3d602d80600a3d3981f3363d3d373d3d3d363d73380f373cacafdd87e9a210cc0ae3db5f8670bf2f5af43d82803e903d91602b57fd5bf3"
        }
      ],
      "isFixedGasLimit": false
    },
    {
      "hash": "0x88385f7df7b03ed7e1424ccd650345cfd44c90ec4979a49638cfa5b6e3f43ed4",
      "transactionType": "CALL",
      "contractName": "TronicMain",
      "contractAddress": "0xAd707eB7697b40DB481490CcDB3a50eafF6ad3Bc",
      "function": "deployMembership(string,string,string,uint256):(uint256,address,address)",
      "arguments": [
        "Membership Y ERC721",
        "MY721",
        "https://ipfs.io/ipfs/QmVDAzpqk83MEhZQp7xK3yeVrrcfg5gPa7uS5JZH9cQtf2/",
        "10000"
      ],
      "transaction": {
        "type": "0x02",
        "from": "0x27870dba1e03cfdd24f5658b255c0baac970a19d",
        "to": "0xad707eb7697b40db481490ccdb3a50eaff6ad3bc",
        "gas": "0xc5a5c",
        "value": "0x0",
        "data": "0x9618fee6000000000000000000000000000000000000000000000000000000000000008000000000000000000000000000000000000000000000000000000000000000c00000000000000000000000000000000000000000000000000000000000000100000000000000000000000000000000000000000000000000000000000000271000000000000000000000000000000000000000000000000000000000000000134d656d626572736869702059204552433732310000000000000000000000000000000000000000000000000000000000000000000000000000000000000000054d59373231000000000000000000000000000000000000000000000000000000000000000000000000000000000000000000000000000000000000000000004468747470733a2f2f697066732e696f2f697066732f516d5644417a70716b38334d45685a517037784b33796556727263666735675061377553354a5a483963517466322f00000000000000000000000000000000000000000000000000000000",
        "nonce": "0x1",
        "accessList": []
      },
      "additionalContracts": [
        {
          "transactionType": "CREATE",
          "address": "0xD01d94073d0aB4Cc5AF318aaF8D67Ee89259f131",
          "initCode": "0x3d602d80600a3d3981f3363d3d373d3d3d363d733c58d516fa4fa46b8efa821af410277b0bd32bd05af43d82803e903d91602b57fd5bf3"
        },
        {
          "transactionType": "CREATE",
          "address": "0xdC4f015d90454600CfB735b8f1f80Bdf1468A900",
          "initCode": "0x3d602d80600a3d3981f3363d3d373d3d3d363d73380f373cacafdd87e9a210cc0ae3db5f8670bf2f5af43d82803e903d91602b57fd5bf3"
        }
      ],
      "isFixedGasLimit": false
    }
  ],
  "receipts": [],
  "libraries": [],
  "pending": [
    "0x894b6f1ac53cc99af811323ae8b66e500e39b8b23feaa278141fae7db9f37f3a",
    "0x88385f7df7b03ed7e1424ccd650345cfd44c90ec4979a49638cfa5b6e3f43ed4"
  ],
  "returns": {},
  "timestamp": 1694196155,
  "chain": 11155111,
  "multi": false,
  "commit": "f58b456"
}