{
  "transactions": [
    {
      "hash": "0x1e6f800941e83e3b43e06e1a59805086fece281ef4c1b177ebd1c55a6b62fb47",
      "transactionType": "CALL",
      "contractName": "TronicMembership",
      "contractAddress": "0x3c58d516Fa4Fa46B8eFa821af410277b0bd32Bd0",
      "function": "initialize(address,address,string,string,string,uint256,address)",
      "arguments": [
        "0x2D25602551487C3f3354dD80D76D54383A243358",
        "0x02101dfB77FDE026414827Fdc604ddAF224F0921",
        "Tronic Membership Program",
        "TRONIC",
        "https://ipfs.io/ipfs/QmUkpx1WefuPkanLCb183WpcESf76TPwq3cks5TudvHyHh/",
        "10000",
        "0x27870DBa1e03CFDD24F5658b255c0BAaC970A19D"
      ],
      "transaction": {
        "type": "0x02",
        "from": "0xbbeee9234dce5e4700af3a956204c75297d0f4ff",
        "to": "0x3c58d516fa4fa46b8efa821af410277b0bd32bd0",
        "gas": "0x71763",
        "value": "0x0",
        "data": "0xdd1520020000000000000000000000002d25602551487c3f3354dd80d76d54383a24335800000000000000000000000002101dfb77fde026414827fdc604ddaf224f092100000000000000000000000000000000000000000000000000000000000000e000000000000000000000000000000000000000000000000000000000000001200000000000000000000000000000000000000000000000000000000000000160000000000000000000000000000000000000000000000000000000000000271000000000000000000000000027870dba1e03cfdd24f5658b255c0baac970a19d000000000000000000000000000000000000000000000000000000000000001954726f6e6963204d656d626572736869702050726f6772616d00000000000000000000000000000000000000000000000000000000000000000000000000000654524f4e49430000000000000000000000000000000000000000000000000000000000000000000000000000000000000000000000000000000000000000004468747470733a2f2f697066732e696f2f697066732f516d556b70783157656675506b616e4c436231383357706345536637365450777133636b733554756476487948682f00000000000000000000000000000000000000000000000000000000",
        "nonce": "0x3",
        "accessList": []
      },
      "additionalContracts": [],
      "isFixedGasLimit": false
    },
    {
      "hash": "0x8ba36b7f9f393dbdbec3240b6ae4d674840f2cb9f15927777ae7d56cd1bef5f4",
      "transactionType": "CALL",
      "contractName": "TronicToken",
      "contractAddress": "0x380f373cACaFdd87E9A210CC0AE3DB5f8670BF2F",
      "function": "initialize(address)",
      "arguments": [
        "0x27870DBa1e03CFDD24F5658b255c0BAaC970A19D"
      ],
      "transaction": {
        "type": "0x02",
        "from": "0xbbeee9234dce5e4700af3a956204c75297d0f4ff",
        "to": "0x380f373cacafdd87e9a210cc0ae3db5f8670bf2f",
        "gas": "0x21feb",
        "value": "0x0",
        "data": "0xc4d66de800000000000000000000000027870dba1e03cfdd24f5658b255c0baac970a19d",
        "nonce": "0x4",
        "accessList": []
      },
      "additionalContracts": [],
      "isFixedGasLimit": false
    },
    {
      "hash": "0xcd975b3eda27e5631f02e782fd5a58bc6f9980320b8a5a58e96ab47152ee2cb7",
      "transactionType": "CALL",
      "contractName": "TronicToken",
      "contractAddress": "0x380f373cACaFdd87E9A210CC0AE3DB5f8670BF2F",
      "function": "createFungibleType(uint64,string):(uint256)",
      "arguments": [
        "1000000",
        "https://ipfs.io/ipfs/QmPd3dW1GdemiXM5GcCJe68ykUqGBmG1Q3XshTwzT5zDfJ/1"
      ],
      "transaction": {
        "type": "0x02",
        "from": "0xbbeee9234dce5e4700af3a956204c75297d0f4ff",
        "to": "0x380f373cacafdd87e9a210cc0ae3db5f8670bf2f",
        "gas": "0x3130d",
        "value": "0x0",
        "data": "0x2dfb9ff000000000000000000000000000000000000000000000000000000000000f42400000000000000000000000000000000000000000000000000000000000000040000000000000000000000000000000000000000000000000000000000000004568747470733a2f2f697066732e696f2f697066732f516d5064336457314764656d69584d354763434a653638796b557147426d4731513358736854777a54357a44664a2f31000000000000000000000000000000000000000000000000000000",
        "nonce": "0x5",
        "accessList": []
      },
      "additionalContracts": [],
      "isFixedGasLimit": false
    },
    {
      "hash": "0xea3d3f7e0fb08428834b4646ca898cd9fdd1becf720c1876e421545fb6058261",
      "transactionType": "CALL",
      "contractName": "TronicToken",
      "contractAddress": "0x380f373cACaFdd87E9A210CC0AE3DB5f8670BF2F",
      "function": "createFungibleType(uint64,string):(uint256)",
      "arguments": [
        "500000",
        "https://ipfs.io/ipfs/QmPd3dW1GdemiXM5GcCJe68ykUqGBmG1Q3XshTwzT5zDfJ/2"
      ],
      "transaction": {
        "type": "0x02",
        "from": "0xbbeee9234dce5e4700af3a956204c75297d0f4ff",
        "to": "0x380f373cacafdd87e9a210cc0ae3db5f8670bf2f",
        "gas": "0x3130d",
        "value": "0x0",
        "data": "0x2dfb9ff0000000000000000000000000000000000000000000000000000000000007a1200000000000000000000000000000000000000000000000000000000000000040000000000000000000000000000000000000000000000000000000000000004568747470733a2f2f697066732e696f2f697066732f516d5064336457314764656d69584d354763434a653638796b557147426d4731513358736854777a54357a44664a2f32000000000000000000000000000000000000000000000000000000",
        "nonce": "0x6",
        "accessList": []
      },
      "additionalContracts": [],
      "isFixedGasLimit": false
    },
    {
      "hash": "0x6cb4aca828a72477eb01351c99a1bb3036d08b6929d5788095d81adcd2edcdcc",
      "transactionType": "CALL",
      "contractName": "TronicToken",
      "contractAddress": "0x380f373cACaFdd87E9A210CC0AE3DB5f8670BF2F",
      "function": "createFungibleType(uint64,string):(uint256)",
      "arguments": [
        "250000",
        "https://ipfs.io/ipfs/QmPd3dW1GdemiXM5GcCJe68ykUqGBmG1Q3XshTwzT5zDfJ/3"
      ],
      "transaction": {
        "type": "0x02",
        "from": "0xbbeee9234dce5e4700af3a956204c75297d0f4ff",
        "to": "0x380f373cacafdd87e9a210cc0ae3db5f8670bf2f",
        "gas": "0x3130d",
        "value": "0x0",
        "data": "0x2dfb9ff0000000000000000000000000000000000000000000000000000000000003d0900000000000000000000000000000000000000000000000000000000000000040000000000000000000000000000000000000000000000000000000000000004568747470733a2f2f697066732e696f2f697066732f516d5064336457314764656d69584d354763434a653638796b557147426d4731513358736854777a54357a44664a2f33000000000000000000000000000000000000000000000000000000",
        "nonce": "0x7",
        "accessList": []
      },
      "additionalContracts": [],
      "isFixedGasLimit": false
    },
    {
      "hash": "0x807d962bddf77bbc36efd554726b397919c39356751d2efe9d91714049fc60d7",
      "transactionType": "CALL",
      "contractName": "TronicToken",
      "contractAddress": "0x380f373cACaFdd87E9A210CC0AE3DB5f8670BF2F",
      "function": "createFungibleType(uint64,string):(uint256)",
      "arguments": [
        "125000",
        "https://ipfs.io/ipfs/QmPd3dW1GdemiXM5GcCJe68ykUqGBmG1Q3XshTwzT5zDfJ/4"
      ],
      "transaction": {
        "type": "0x02",
        "from": "0xbbeee9234dce5e4700af3a956204c75297d0f4ff",
        "to": "0x380f373cacafdd87e9a210cc0ae3db5f8670bf2f",
        "gas": "0x3130d",
        "value": "0x0",
        "data": "0x2dfb9ff0000000000000000000000000000000000000000000000000000000000001e8480000000000000000000000000000000000000000000000000000000000000040000000000000000000000000000000000000000000000000000000000000004568747470733a2f2f697066732e696f2f697066732f516d5064336457314764656d69584d354763434a653638796b557147426d4731513358736854777a54357a44664a2f34000000000000000000000000000000000000000000000000000000",
        "nonce": "0x8",
        "accessList": []
      },
      "additionalContracts": [],
      "isFixedGasLimit": false
    }
  ],
  "receipts": [
    {
      "transactionHash": "0x1e6f800941e83e3b43e06e1a59805086fece281ef4c1b177ebd1c55a6b62fb47",
      "transactionIndex": "0x7",
      "blockHash": "0xb303b246e03171a6c7ec277f6f54955efbcd10a00ce689ec439d9e01be6bc413",
      "blockNumber": "0x260e2de",
      "from": "0xbbeee9234DCE5E4700Af3a956204c75297D0f4ff",
      "to": "0x3c58d516Fa4Fa46B8eFa821af410277b0bd32Bd0",
      "cumulativeGasUsed": "0x185a03",
      "gasUsed": "0x4d94b",
      "contractAddress": null,
      "logs": [
        {
          "address": "0x3c58d516Fa4Fa46B8eFa821af410277b0bd32Bd0",
          "topics": [
            "0xc7f505b2f371ae2175ee4913f4499e1f2633a7b5936321eed1cdaeb6115181d2"
          ],
          "data": "0x0000000000000000000000000000000000000000000000000000000000000001",
          "blockHash": "0xb303b246e03171a6c7ec277f6f54955efbcd10a00ce689ec439d9e01be6bc413",
          "blockNumber": "0x260e2de",
          "transactionHash": "0x1e6f800941e83e3b43e06e1a59805086fece281ef4c1b177ebd1c55a6b62fb47",
          "transactionIndex": "0x7",
          "logIndex": "0x29",
          "removed": false
        },
        {
          "address": "0x0000000000000000000000000000000000001010",
          "topics": [
            "0x4dfe1bbbcf077ddc3e01291eea2d5c70c2b422b415d95645b9adcfd678cb1d63",
            "0x0000000000000000000000000000000000000000000000000000000000001010",
            "0x000000000000000000000000bbeee9234dce5e4700af3a956204c75297d0f4ff",
            "0x000000000000000000000000c275dc8be39f50d12f66b6a63629c39da5bae5bd"
          ],
          "data": "0x00000000000000000000000000000000000000000000000000024205a6cf14ba0000000000000000000000000000000000000000000000000dabb5cd9008bc000000000000000000000000000000000000000000000012df8b909aedd51496bf0000000000000000000000000000000000000000000000000da973c7e939a7460000000000000000000000000000000000000000000012df8b92dcf37be3ab79",
          "blockHash": "0xb303b246e03171a6c7ec277f6f54955efbcd10a00ce689ec439d9e01be6bc413",
          "blockNumber": "0x260e2de",
          "transactionHash": "0x1e6f800941e83e3b43e06e1a59805086fece281ef4c1b177ebd1c55a6b62fb47",
          "transactionIndex": "0x7",
          "logIndex": "0x2a",
          "removed": false
        }
      ],
      "status": "0x1",
      "logsBloom": "0x00000000000000000000000000000000000000000000000000000000000000000000000000000000000100000000000000008000002000000000000000000000000000000000000000000000000000800000000000000000040100000000000000000000820000000000000000000000000000000000000080000000000000000000000000000000000800000000000000000000000080000000000000000000200080000000000000000000000000000000000000000000000040000000004000000000000000000001000000000000000080000004000000100000000000000000000000000000000000000000000000000000000000000000000000100000",
      "type": "0x2",
      "effectiveGasPrice": "0x77359400"
    },
    {
      "transactionHash": "0x8ba36b7f9f393dbdbec3240b6ae4d674840f2cb9f15927777ae7d56cd1bef5f4",
      "transactionIndex": "0x8",
      "blockHash": "0xb303b246e03171a6c7ec277f6f54955efbcd10a00ce689ec439d9e01be6bc413",
      "blockNumber": "0x260e2de",
      "from": "0xbbeee9234DCE5E4700Af3a956204c75297D0f4ff",
      "to": "0x380f373cACaFdd87E9A210CC0AE3DB5f8670BF2F",
      "cumulativeGasUsed": "0x19cdec",
      "gasUsed": "0x173e9",
      "contractAddress": null,
      "logs": [
        {
          "address": "0x380f373cACaFdd87E9A210CC0AE3DB5f8670BF2F",
          "topics": [
            "0xc7f505b2f371ae2175ee4913f4499e1f2633a7b5936321eed1cdaeb6115181d2"
          ],
          "data": "0x0000000000000000000000000000000000000000000000000000000000000001",
          "blockHash": "0xb303b246e03171a6c7ec277f6f54955efbcd10a00ce689ec439d9e01be6bc413",
          "blockNumber": "0x260e2de",
          "transactionHash": "0x8ba36b7f9f393dbdbec3240b6ae4d674840f2cb9f15927777ae7d56cd1bef5f4",
          "transactionIndex": "0x8",
          "logIndex": "0x2b",
          "removed": false
        },
        {
          "address": "0x0000000000000000000000000000000000001010",
          "topics": [
            "0x4dfe1bbbcf077ddc3e01291eea2d5c70c2b422b415d95645b9adcfd678cb1d63",
            "0x0000000000000000000000000000000000000000000000000000000000001010",
            "0x000000000000000000000000bbeee9234dce5e4700af3a956204c75297d0f4ff",
            "0x000000000000000000000000c275dc8be39f50d12f66b6a63629c39da5bae5bd"
          ],
          "data": "0x0000000000000000000000000000000000000000000000000000ad2f25258d9e0000000000000000000000000000000000000000000000000da973c7e8e260000000000000000000000000000000000000000000000012df8b92dcf37be3ab790000000000000000000000000000000000000000000000000da8c698c3bcd2620000000000000000000000000000000000000000000012df8b938a22a1093917",
          "blockHash": "0xb303b246e03171a6c7ec277f6f54955efbcd10a00ce689ec439d9e01be6bc413",
          "blockNumber": "0x260e2de",
          "transactionHash": "0x8ba36b7f9f393dbdbec3240b6ae4d674840f2cb9f15927777ae7d56cd1bef5f4",
          "transactionIndex": "0x8",
          "logIndex": "0x2c",
          "removed": false
        }
      ],
      "status": "0x1",
      "logsBloom": "0x00000000000000000000000000000000000000000000000000000000000000100000000000000000000100000000000000008000002000000000000000000000000000000000000000000002000000800000000000000000040100000000000000000000800000000000000000000000000000000000000080000000000000000000000000000000000800000000000000000000000080000000000200000000200000000000000000000000000000000000000000000000000040000000004000000000000000000001000000000000000000000004000000100000000000000000000000000000000000000000000000000000000000000000000000100000",
      "type": "0x2",
      "effectiveGasPrice": "0x77359400"
    },
    {
      "transactionHash": "0xcd975b3eda27e5631f02e782fd5a58bc6f9980320b8a5a58e96ab47152ee2cb7",
      "transactionIndex": "0x9",
      "blockHash": "0xb303b246e03171a6c7ec277f6f54955efbcd10a00ce689ec439d9e01be6bc413",
      "blockNumber": "0x260e2de",
      "from": "0xbbeee9234DCE5E4700Af3a956204c75297D0f4ff",
      "to": "0x380f373cACaFdd87E9A210CC0AE3DB5f8670BF2F",
      "cumulativeGasUsed": "0x1c07bc",
      "gasUsed": "0x239d0",
      "contractAddress": null,
      "logs": [
        {
          "address": "0x380f373cACaFdd87E9A210CC0AE3DB5f8670BF2F",
          "topics": [
            "0xe28e4991719b1a533e2b60fb5ab59fb3c3d1cbc6af8dc954f782a0bf615d200c",
            "0x0000000000000000000000000000000000000000000000000000000000000000"
          ],
          "data": "0x00000000000000000000000000000000000000000000000000000000000f42400000000000000000000000000000000000000000000000000000000000000040000000000000000000000000000000000000000000000000000000000000004568747470733a2f2f697066732e696f2f697066732f516d5064336457314764656d69584d354763434a653638796b557147426d4731513358736854777a54357a44664a2f31000000000000000000000000000000000000000000000000000000",
          "blockHash": "0xb303b246e03171a6c7ec277f6f54955efbcd10a00ce689ec439d9e01be6bc413",
          "blockNumber": "0x260e2de",
          "transactionHash": "0xcd975b3eda27e5631f02e782fd5a58bc6f9980320b8a5a58e96ab47152ee2cb7",
          "transactionIndex": "0x9",
          "logIndex": "0x2d",
          "removed": false
        },
        {
          "address": "0x0000000000000000000000000000000000001010",
          "topics": [
            "0x4dfe1bbbcf077ddc3e01291eea2d5c70c2b422b415d95645b9adcfd678cb1d63",
            "0x0000000000000000000000000000000000000000000000000000000000001010",
            "0x000000000000000000000000bbeee9234dce5e4700af3a956204c75297d0f4ff",
            "0x000000000000000000000000c275dc8be39f50d12f66b6a63629c39da5bae5bd"
          ],
          "data": "0x00000000000000000000000000000000000000000000000000010956f1542f600000000000000000000000000000000000000000000000000da8c698c3a2ac000000000000000000000000000000000000000000000012df8b938a22a10939170000000000000000000000000000000000000000000000000da7bd41d24e7ca00000000000000000000000000000000000000000000012df8b949379925d6877",
          "blockHash": "0xb303b246e03171a6c7ec277f6f54955efbcd10a00ce689ec439d9e01be6bc413",
          "blockNumber": "0x260e2de",
          "transactionHash": "0xcd975b3eda27e5631f02e782fd5a58bc6f9980320b8a5a58e96ab47152ee2cb7",
          "transactionIndex": "0x9",
          "logIndex": "0x2e",
          "removed": false
        }
      ],
      "status": "0x1",
      "logsBloom": "0x00000000000000000000000000000000000000000000000000000000000000100000000000000000000100000000000000008000002000000000000000000000000000000000000000000002000000800000000100000000040100000000000000000000820000000000000000000800000000000000000080000000000000000000000000000000000000000000000000000000000000000002000200000000200000000000000000000000000000000000000000000000000040000000004000000000000000000001000000000000000000000100000000100000000020000000000000000000000000000000000000000000000000000000000000100000",
      "type": "0x2",
      "effectiveGasPrice": "0x77359400"
    },
    {
      "transactionHash": "0xea3d3f7e0fb08428834b4646ca898cd9fdd1becf720c1876e421545fb6058261",
      "transactionIndex": "0xa",
      "blockHash": "0xb303b246e03171a6c7ec277f6f54955efbcd10a00ce689ec439d9e01be6bc413",
      "blockNumber": "0x260e2de",
      "from": "0xbbeee9234DCE5E4700Af3a956204c75297D0f4ff",
      "to": "0x380f373cACaFdd87E9A210CC0AE3DB5f8670BF2F",
      "cumulativeGasUsed": "0x1e418c",
      "gasUsed": "0x239d0",
      "contractAddress": null,
      "logs": [
        {
          "address": "0x380f373cACaFdd87E9A210CC0AE3DB5f8670BF2F",
          "topics": [
            "0xe28e4991719b1a533e2b60fb5ab59fb3c3d1cbc6af8dc954f782a0bf615d200c",
            "0x0000000000000000000000000000000000000000000000000000000000000001"
          ],
          "data": "0x000000000000000000000000000000000000000000000000000000000007a1200000000000000000000000000000000000000000000000000000000000000040000000000000000000000000000000000000000000000000000000000000004568747470733a2f2f697066732e696f2f697066732f516d5064336457314764656d69584d354763434a653638796b557147426d4731513358736854777a54357a44664a2f32000000000000000000000000000000000000000000000000000000",
          "blockHash": "0xb303b246e03171a6c7ec277f6f54955efbcd10a00ce689ec439d9e01be6bc413",
          "blockNumber": "0x260e2de",
          "transactionHash": "0xea3d3f7e0fb08428834b4646ca898cd9fdd1becf720c1876e421545fb6058261",
          "transactionIndex": "0xa",
          "logIndex": "0x2f",
          "removed": false
        },
        {
          "address": "0x0000000000000000000000000000000000001010",
          "topics": [
            "0x4dfe1bbbcf077ddc3e01291eea2d5c70c2b422b415d95645b9adcfd678cb1d63",
            "0x0000000000000000000000000000000000000000000000000000000000001010",
            "0x000000000000000000000000bbeee9234dce5e4700af3a956204c75297d0f4ff",
            "0x000000000000000000000000c275dc8be39f50d12f66b6a63629c39da5bae5bd"
          ],
          "data": "0x00000000000000000000000000000000000000000000000000010956f1542f600000000000000000000000000000000000000000000000000da7bd41d2266c000000000000000000000000000000000000000000000012df8b949379925d68770000000000000000000000000000000000000000000000000da6b3eae0d23ca00000000000000000000000000000000000000000000012df8b959cd083b197d7",
          "blockHash": "0xb303b246e03171a6c7ec277f6f54955efbcd10a00ce689ec439d9e01be6bc413",
          "blockNumber": "0x260e2de",
          "transactionHash": "0xea3d3f7e0fb08428834b4646ca898cd9fdd1becf720c1876e421545fb6058261",
          "transactionIndex": "0xa",
          "logIndex": "0x30",
          "removed": false
        }
      ],
      "status": "0x1",
      "logsBloom": "0x00000000000000000000000000000000000000000000000000000000000000100000000000000000000100000000000000008000002000000000000000040000000000000000000000000002000000800000000100040000040100000000000000000000800000000000000000000000000000000000000080000000000000000000000000000000000000000000000000000000000000000002000200000000200000000000000000000000000000000000000000000000000040000000004000000000000000000001000000000000000000000100000000100000000040000000000000000000000000000000000000000000000000000000000000100000",
      "type": "0x2",
      "effectiveGasPrice": "0x77359400"
    },
    {
      "transactionHash": "0x6cb4aca828a72477eb01351c99a1bb3036d08b6929d5788095d81adcd2edcdcc",
      "transactionIndex": "0xb",
      "blockHash": "0xb303b246e03171a6c7ec277f6f54955efbcd10a00ce689ec439d9e01be6bc413",
      "blockNumber": "0x260e2de",
      "from": "0xbbeee9234DCE5E4700Af3a956204c75297D0f4ff",
      "to": "0x380f373cACaFdd87E9A210CC0AE3DB5f8670BF2F",
      "cumulativeGasUsed": "0x207b5c",
      "gasUsed": "0x239d0",
      "contractAddress": null,
      "logs": [
        {
          "address": "0x380f373cACaFdd87E9A210CC0AE3DB5f8670BF2F",
          "topics": [
            "0xe28e4991719b1a533e2b60fb5ab59fb3c3d1cbc6af8dc954f782a0bf615d200c",
            "0x0000000000000000000000000000000000000000000000000000000000000002"
          ],
          "data": "0x000000000000000000000000000000000000000000000000000000000003d0900000000000000000000000000000000000000000000000000000000000000040000000000000000000000000000000000000000000000000000000000000004568747470733a2f2f697066732e696f2f697066732f516d5064336457314764656d69584d354763434a653638796b557147426d4731513358736854777a54357a44664a2f33000000000000000000000000000000000000000000000000000000",
          "blockHash": "0xb303b246e03171a6c7ec277f6f54955efbcd10a00ce689ec439d9e01be6bc413",
          "blockNumber": "0x260e2de",
          "transactionHash": "0x6cb4aca828a72477eb01351c99a1bb3036d08b6929d5788095d81adcd2edcdcc",
          "transactionIndex": "0xb",
          "logIndex": "0x31",
          "removed": false
        },
        {
          "address": "0x0000000000000000000000000000000000001010",
          "topics": [
            "0x4dfe1bbbcf077ddc3e01291eea2d5c70c2b422b415d95645b9adcfd678cb1d63",
            "0x0000000000000000000000000000000000000000000000000000000000001010",
            "0x000000000000000000000000bbeee9234dce5e4700af3a956204c75297d0f4ff",
            "0x000000000000000000000000c275dc8be39f50d12f66b6a63629c39da5bae5bd"
          ],
          "data": "0x00000000000000000000000000000000000000000000000000010956f1542f600000000000000000000000000000000000000000000000000da6b3eae0aa2c000000000000000000000000000000000000000000000012df8b959cd083b197d70000000000000000000000000000000000000000000000000da5aa93ef55fca00000000000000000000000000000000000000000000012df8b96a6277505c737",
          "blockHash": "0xb303b246e03171a6c7ec277f6f54955efbcd10a00ce689ec439d9e01be6bc413",
          "blockNumber": "0x260e2de",
          "transactionHash": "0x6cb4aca828a72477eb01351c99a1bb3036d08b6929d5788095d81adcd2edcdcc",
          "transactionIndex": "0xb",
          "logIndex": "0x32",
          "removed": false
        }
      ],
      "status": "0x1",
      "logsBloom": "0x04000000000000000000000000000000000000000000000000000000000000100000000000000000000100000000000000008000002000000000000000000000000000000000000000000002000000800000000100000000040100000000000000000000800000000000000000000000000000000000000080000000000000000000000000000000000000000000000000000000000000000002000200000000200000000000000000000100000000000000000000000000000040000000004000000000000000000001000000000000000000000100000000100000000000000000000000000000000000000000000000000000008000000000000000100000",
      "type": "0x2",
      "effectiveGasPrice": "0x77359400"
    },
    {
      "transactionHash": "0x807d962bddf77bbc36efd554726b397919c39356751d2efe9d91714049fc60d7",
      "transactionIndex": "0xc",
      "blockHash": "0xb303b246e03171a6c7ec277f6f54955efbcd10a00ce689ec439d9e01be6bc413",
      "blockNumber": "0x260e2de",
      "from": "0xbbeee9234DCE5E4700Af3a956204c75297D0f4ff",
      "to": "0x380f373cACaFdd87E9A210CC0AE3DB5f8670BF2F",
      "cumulativeGasUsed": "0x22b52c",
      "gasUsed": "0x239d0",
      "contractAddress": null,
      "logs": [
        {
          "address": "0x380f373cACaFdd87E9A210CC0AE3DB5f8670BF2F",
          "topics": [
            "0xe28e4991719b1a533e2b60fb5ab59fb3c3d1cbc6af8dc954f782a0bf615d200c",
            "0x0000000000000000000000000000000000000000000000000000000000000003"
          ],
          "data": "0x000000000000000000000000000000000000000000000000000000000001e8480000000000000000000000000000000000000000000000000000000000000040000000000000000000000000000000000000000000000000000000000000004568747470733a2f2f697066732e696f2f697066732f516d5064336457314764656d69584d354763434a653638796b557147426d4731513358736854777a54357a44664a2f34000000000000000000000000000000000000000000000000000000",
          "blockHash": "0xb303b246e03171a6c7ec277f6f54955efbcd10a00ce689ec439d9e01be6bc413",
          "blockNumber": "0x260e2de",
          "transactionHash": "0x807d962bddf77bbc36efd554726b397919c39356751d2efe9d91714049fc60d7",
          "transactionIndex": "0xc",
          "logIndex": "0x33",
          "removed": false
        },
        {
          "address": "0x0000000000000000000000000000000000001010",
          "topics": [
            "0x4dfe1bbbcf077ddc3e01291eea2d5c70c2b422b415d95645b9adcfd678cb1d63",
            "0x0000000000000000000000000000000000000000000000000000000000001010",
            "0x000000000000000000000000bbeee9234dce5e4700af3a956204c75297d0f4ff",
            "0x000000000000000000000000c275dc8be39f50d12f66b6a63629c39da5bae5bd"
          ],
          "data": "0x00000000000000000000000000000000000000000000000000010956f1542f600000000000000000000000000000000000000000000000000da5aa93ef2dec000000000000000000000000000000000000000000000012df8b96a6277505c7370000000000000000000000000000000000000000000000000da4a13cfdd9bca00000000000000000000000000000000000000000000012df8b97af7e6659f697",
          "blockHash": "0xb303b246e03171a6c7ec277f6f54955efbcd10a00ce689ec439d9e01be6bc413",
          "blockNumber": "0x260e2de",
          "transactionHash": "0x807d962bddf77bbc36efd554726b397919c39356751d2efe9d91714049fc60d7",
          "transactionIndex": "0xc",
          "logIndex": "0x34",
          "removed": false
        }
      ],
      "status": "0x1",
      "logsBloom": "0x00000000000000000000000000000000000000000000000000000000000000100000000000000000000100000000000000008000022000000000000000000000000000000000000000000002000000800000000100000000040100000000000000000000800000000000000000000000000000000000000080000000000000000000000000000000000000000000000000000000000000000002000200000000200000000000000000000000000000000000000000800000000040000000404000000000000000000001000000000000000000000100000000100000000000000000000000000000000000000000000000000000000000000000000000100000",
      "type": "0x2",
      "effectiveGasPrice": "0x77359400"
    }
  ],
  "libraries": [],
  "pending": [],
  "returns": {},
  "timestamp": 1694202134,
  "chain": 80001,
  "multi": false,
  "commit": "88459b2"
}