{
  "transactions": [
    {
      "hash": "0x77bc437899dd8e563dce348aa492ae9dd0346898a7e1aa0266a104ef3c1eec5b",
      "transactionType": "CALL",
      "contractName": "TronicToken",
      "contractAddress": "0xF4dF35e96EFC1C93052C1dEd5410Ab773f91b3EE",
      "function": "mintFungible(address,uint256,uint64)",
      "arguments": [
        "0xb6cC24E5b1c98B767FB743e55168c96C2E13C755",
        "1",
        "100"
      ],
      "transaction": {
        "type": "0x02",
        "from": "0x27870dba1e03cfdd24f5658b255c0baac970a19d",
        "to": "0xf4df35e96efc1c93052c1ded5410ab773f91b3ee",
        "gas": "0x1f403",
        "value": "0x0",
        "data": "0x6dcb111d000000000000000000000000b6cc24e5b1c98b767fb743e55168c96c2e13c75500000000000000000000000000000000000000000000000000000000000000010000000000000000000000000000000000000000000000000000000000000064",
        "nonce": "0xc",
        "accessList": []
      },
      "additionalContracts": [],
      "isFixedGasLimit": false
    },
    {
      "hash": "0x9d3c7411e6c8c4e0297fe4823d468a43a73f02bb9f7edc9d4ecb8f10c7a440d0",
      "transactionType": "CALL",
      "contractName": "TronicToken",
      "contractAddress": "0xF4dF35e96EFC1C93052C1dEd5410Ab773f91b3EE",
      "function": "mintFungible(address,uint256,uint64)",
      "arguments": [
        "0xb6cC24E5b1c98B767FB743e55168c96C2E13C755",
        "2",
        "50"
      ],
      "transaction": {
        "type": "0x02",
        "from": "0x27870dba1e03cfdd24f5658b255c0baac970a19d",
        "to": "0xf4df35e96efc1c93052c1ded5410ab773f91b3ee",
        "gas": "0x1f403",
        "value": "0x0",
        "data": "0x6dcb111d000000000000000000000000b6cc24e5b1c98b767fb743e55168c96c2e13c75500000000000000000000000000000000000000000000000000000000000000020000000000000000000000000000000000000000000000000000000000000032",
        "nonce": "0xd",
        "accessList": []
      },
      "additionalContracts": [],
      "isFixedGasLimit": false
    },
    {
      "hash": "0x08084fe0620d340fd6d06dcf7c576fdccd813eff6d3439bd762d4e8aa03e03da",
      "transactionType": "CALL",
      "contractName": null,
      "contractAddress": "0x38d9f66AbD4c8Ae50FA578bfA8715B5dBc409B5C",
      "function": "mintFungible(address,uint256,uint64)",
      "arguments": [
        "0x7b3BD48f6906Fa4aF24fBE991242039135d180C8",
        "1",
        "100"
      ],
      "transaction": {
        "type": "0x02",
        "from": "0x27870dba1e03cfdd24f5658b255c0baac970a19d",
        "to": "0x38d9f66abd4c8ae50fa578bfa8715b5dbc409b5c",
        "gas": "0x1f403",
        "value": "0x0",
        "data": "0x6dcb111d0000000000000000000000007b3bd48f6906fa4af24fbe991242039135d180c800000000000000000000000000000000000000000000000000000000000000010000000000000000000000000000000000000000000000000000000000000064",
        "nonce": "0xe",
        "accessList": []
      },
      "additionalContracts": [],
      "isFixedGasLimit": false
    },
    {
      "hash": "0x0961df1a07a6cadf66d088ee3cd9ad3eb4182c24fca7b2ecaa17920e443cbd47",
      "transactionType": "CALL",
      "contractName": null,
      "contractAddress": "0x38d9f66AbD4c8Ae50FA578bfA8715B5dBc409B5C",
      "function": "mintFungible(address,uint256,uint64)",
      "arguments": [
        "0x7b3BD48f6906Fa4aF24fBE991242039135d180C8",
        "2",
        "50"
      ],
      "transaction": {
        "type": "0x02",
        "from": "0x27870dba1e03cfdd24f5658b255c0baac970a19d",
        "to": "0x38d9f66abd4c8ae50fa578bfa8715b5dbc409b5c",
        "gas": "0x1f403",
        "value": "0x0",
        "data": "0x6dcb111d0000000000000000000000007b3bd48f6906fa4af24fbe991242039135d180c800000000000000000000000000000000000000000000000000000000000000020000000000000000000000000000000000000000000000000000000000000032",
        "nonce": "0xf",
        "accessList": []
      },
      "additionalContracts": [],
      "isFixedGasLimit": false
    }
  ],
  "receipts": [
    {
      "transactionHash": "0x77bc437899dd8e563dce348aa492ae9dd0346898a7e1aa0266a104ef3c1eec5b",
      "transactionIndex": "0x1",
      "blockHash": "0x0549782e7366eacec43b82511c538ebaa4fba0f139b348ea98fb70869844b4c1",
      "blockNumber": "0x40d6eb",
      "from": "0x27870DBa1e03CFDD24F5658b255c0BAaC970A19D",
      "to": "0xF4dF35e96EFC1C93052C1dEd5410Ab773f91b3EE",
      "cumulativeGasUsed": "0x1bc08",
      "gasUsed": "0x16a00",
      "contractAddress": null,
      "logs": [
        {
          "address": "0xF4dF35e96EFC1C93052C1dEd5410Ab773f91b3EE",
          "topics": [
            "0xc3d58168c5ae7397731d063d5bbf3d657854427343f4c083240f7aacaa2d0f62",
            "0x00000000000000000000000027870dba1e03cfdd24f5658b255c0baac970a19d",
            "0x0000000000000000000000000000000000000000000000000000000000000000",
            "0x000000000000000000000000b6cc24e5b1c98b767fb743e55168c96c2e13c755"
          ],
          "data": "0x00000000000000000000000000000000000000000000000000000000000000010000000000000000000000000000000000000000000000000000000000000064",
          "blockHash": "0x0549782e7366eacec43b82511c538ebaa4fba0f139b348ea98fb70869844b4c1",
          "blockNumber": "0x40d6eb",
          "transactionHash": "0x77bc437899dd8e563dce348aa492ae9dd0346898a7e1aa0266a104ef3c1eec5b",
          "transactionIndex": "0x1",
          "logIndex": "0x0",
          "removed": false
        }
      ],
      "status": "0x1",
      "logsBloom": "0x00000000000000400000000000000000000000000000000000000000000000000000000000000000000000000000000000000000000000000000000000612000000000000000000000000000000000000000000000020000000000000000000001000000020000000000000000000800000000000000000200000000000000000000000000000000000000000000000000000000000000000000000002000000000000000000000000000000000000000000000000000000000000000000000000000000000000000000000000000000000000000008000000000000000020000000000000000000000000000000000000000000000008000000080000000000",
      "type": "0x2",
      "effectiveGasPrice": "0xb2d05e1a"
    },
    {
      "transactionHash": "0x9d3c7411e6c8c4e0297fe4823d468a43a73f02bb9f7edc9d4ecb8f10c7a440d0",
      "transactionIndex": "0x2",
      "blockHash": "0x0549782e7366eacec43b82511c538ebaa4fba0f139b348ea98fb70869844b4c1",
      "blockNumber": "0x40d6eb",
      "from": "0x27870DBa1e03CFDD24F5658b255c0BAaC970A19D",
      "to": "0xF4dF35e96EFC1C93052C1dEd5410Ab773f91b3EE",
      "cumulativeGasUsed": "0x32608",
      "gasUsed": "0x16a00",
      "contractAddress": null,
      "logs": [
        {
          "address": "0xF4dF35e96EFC1C93052C1dEd5410Ab773f91b3EE",
          "topics": [
            "0xc3d58168c5ae7397731d063d5bbf3d657854427343f4c083240f7aacaa2d0f62",
            "0x00000000000000000000000027870dba1e03cfdd24f5658b255c0baac970a19d",
            "0x0000000000000000000000000000000000000000000000000000000000000000",
            "0x000000000000000000000000b6cc24e5b1c98b767fb743e55168c96c2e13c755"
          ],
          "data": "0x00000000000000000000000000000000000000000000000000000000000000020000000000000000000000000000000000000000000000000000000000000032",
          "blockHash": "0x0549782e7366eacec43b82511c538ebaa4fba0f139b348ea98fb70869844b4c1",
          "blockNumber": "0x40d6eb",
          "transactionHash": "0x9d3c7411e6c8c4e0297fe4823d468a43a73f02bb9f7edc9d4ecb8f10c7a440d0",
          "transactionIndex": "0x2",
          "logIndex": "0x1",
          "removed": false
        }
      ],
      "status": "0x1",
      "logsBloom": "0x00000000000000400000000000000000000000000000000000000000000000000000000000000000000000000000000000000000000000000000000000612000000000000000000000000000000000000000000000020000000000000000000001000000020000000000000000000800000000000000000200000000000000000000000000000000000000000000000000000000000000000000000002000000000000000000000000000000000000000000000000000000000000000000000000000000000000000000000000000000000000000008000000000000000020000000000000000000000000000000000000000000000008000000080000000000",
      "type": "0x2",
      "effectiveGasPrice": "0xb2d05e1a"
    },
    {
      "transactionHash": "0x08084fe0620d340fd6d06dcf7c576fdccd813eff6d3439bd762d4e8aa03e03da",
      "transactionIndex": "0x3",
      "blockHash": "0x0549782e7366eacec43b82511c538ebaa4fba0f139b348ea98fb70869844b4c1",
      "blockNumber": "0x40d6eb",
      "from": "0x27870DBa1e03CFDD24F5658b255c0BAaC970A19D",
      "to": "0x38d9f66AbD4c8Ae50FA578bfA8715B5dBc409B5C",
      "cumulativeGasUsed": "0x49008",
      "gasUsed": "0x16a00",
      "contractAddress": null,
      "logs": [
        {
          "address": "0x38d9f66AbD4c8Ae50FA578bfA8715B5dBc409B5C",
          "topics": [
            "0xc3d58168c5ae7397731d063d5bbf3d657854427343f4c083240f7aacaa2d0f62",
            "0x00000000000000000000000027870dba1e03cfdd24f5658b255c0baac970a19d",
            "0x0000000000000000000000000000000000000000000000000000000000000000",
            "0x0000000000000000000000007b3bd48f6906fa4af24fbe991242039135d180c8"
          ],
          "data": "0x00000000000000000000000000000000000000000000000000000000000000010000000000000000000000000000000000000000000000000000000000000064",
          "blockHash": "0x0549782e7366eacec43b82511c538ebaa4fba0f139b348ea98fb70869844b4c1",
          "blockNumber": "0x40d6eb",
          "transactionHash": "0x08084fe0620d340fd6d06dcf7c576fdccd813eff6d3439bd762d4e8aa03e03da",
          "transactionIndex": "0x3",
          "logIndex": "0x2",
          "removed": false
        }
      ],
      "status": "0x1",
      "logsBloom": "0x00000000000000000000000000000000000000000000000000000000000000000000000000000000000000000000000000000000000000000000800000002000000000000000000000000000000000000000000000020000000000000000000001000000020000000000000000000800000000000000000000000000000000000000000000000000000000000000000000000000000000000000000002000800000000000000000000000000000000000000000000000000000000001000000000002000000004000000000000000000000000000008000000000000000020000000000000000000400000000000000000000000000000000000080000000000",
      "type": "0x2",
      "effectiveGasPrice": "0xb2d05e1a"
    },
    {
      "transactionHash": "0x0961df1a07a6cadf66d088ee3cd9ad3eb4182c24fca7b2ecaa17920e443cbd47",
      "transactionIndex": "0x4",
      "blockHash": "0x0549782e7366eacec43b82511c538ebaa4fba0f139b348ea98fb70869844b4c1",
      "blockNumber": "0x40d6eb",
      "from": "0x27870DBa1e03CFDD24F5658b255c0BAaC970A19D",
      "to": "0x38d9f66AbD4c8Ae50FA578bfA8715B5dBc409B5C",
      "cumulativeGasUsed": "0x5fa08",
      "gasUsed": "0x16a00",
      "contractAddress": null,
      "logs": [
        {
          "address": "0x38d9f66AbD4c8Ae50FA578bfA8715B5dBc409B5C",
          "topics": [
            "0xc3d58168c5ae7397731d063d5bbf3d657854427343f4c083240f7aacaa2d0f62",
            "0x00000000000000000000000027870dba1e03cfdd24f5658b255c0baac970a19d",
            "0x0000000000000000000000000000000000000000000000000000000000000000",
            "0x0000000000000000000000007b3bd48f6906fa4af24fbe991242039135d180c8"
          ],
          "data": "0x00000000000000000000000000000000000000000000000000000000000000020000000000000000000000000000000000000000000000000000000000000032",
          "blockHash": "0x0549782e7366eacec43b82511c538ebaa4fba0f139b348ea98fb70869844b4c1",
          "blockNumber": "0x40d6eb",
          "transactionHash": "0x0961df1a07a6cadf66d088ee3cd9ad3eb4182c24fca7b2ecaa17920e443cbd47",
          "transactionIndex": "0x4",
          "logIndex": "0x3",
          "removed": false
        }
      ],
      "status": "0x1",
      "logsBloom": "0x00000000000000000000000000000000000000000000000000000000000000000000000000000000000000000000000000000000000000000000800000002000000000000000000000000000000000000000000000020000000000000000000001000000020000000000000000000800000000000000000000000000000000000000000000000000000000000000000000000000000000000000000002000800000000000000000000000000000000000000000000000000000000001000000000002000000004000000000000000000000000000008000000000000000020000000000000000000400000000000000000000000000000000000080000000000",
      "type": "0x2",
      "effectiveGasPrice": "0xb2d05e1a"
    }
  ],
  "libraries": [],
  "pending": [],
  "returns": {},
  "timestamp": 1694197702,
  "chain": 11155111,
  "multi": false,
  "commit": "f58b456"
}