{
  "transactions": [
    {
      "hash": "0x2681f2ffd927e35db49313cda5eeff7b947db100da2ae3fd32937de7814257c5",
      "transactionType": "CALL",
      "contractName": null,
      "contractAddress": "0x88CDb8f97854F4a389F3482667d57f2B8a223812",
      "function": "mintFungible(address,uint256,uint64)",
      "arguments": [
        "0x03B00190d8E2603B08dA94d8A6E0C8844842499F",
        "1",
        "100"
      ],
      "transaction": {
        "type": "0x02",
        "from": "0x42c7ef198f8ac9888e2b1b73e5b71f1d4535194a",
        "to": "0x88cdb8f97854f4a389f3482667d57f2b8a223812",
        "gas": "0x2114b",
        "value": "0x0",
        "data": "0x6dcb111d00000000000000000000000003b00190d8e2603b08da94d8a6e0c8844842499f00000000000000000000000000000000000000000000000000000000000000010000000000000000000000000000000000000000000000000000000000000064",
        "nonce": "0x8d",
        "accessList": []
      },
      "additionalContracts": [],
      "isFixedGasLimit": false
    },
    {
      "hash": "0x84588aa3b01232035cb65c2b0e2f6fd3334e733687a25a5dbd7df9cf2b6eda73",
      "transactionType": "CALL",
      "contractName": null,
      "contractAddress": "0x88CDb8f97854F4a389F3482667d57f2B8a223812",
      "function": "mintFungible(address,uint256,uint64)",
      "arguments": [
        "0x03B00190d8E2603B08dA94d8A6E0C8844842499F",
        "2",
        "50"
      ],
      "transaction": {
        "type": "0x02",
        "from": "0x42c7ef198f8ac9888e2b1b73e5b71f1d4535194a",
        "to": "0x88cdb8f97854f4a389f3482667d57f2b8a223812",
        "gas": "0x2114b",
        "value": "0x0",
        "data": "0x6dcb111d00000000000000000000000003b00190d8e2603b08da94d8a6e0c8844842499f00000000000000000000000000000000000000000000000000000000000000020000000000000000000000000000000000000000000000000000000000000032",
        "nonce": "0x8e",
        "accessList": []
      },
      "additionalContracts": [],
      "isFixedGasLimit": false
    },
    {
      "hash": "0x0610153e41d65931b5658501618d8210c4e3bb4bd889fc89f8a62e2e12e4e75b",
      "transactionType": "CALL",
      "contractName": "ERC1155Cloneable",
      "contractAddress": "0x7c7f0b8dF108DC8C867016C3b203037d44409C30",
      "function": "mintFungible(address,uint256,uint64)",
      "arguments": [
        "0x7261a238427d054c6Ec6f6b9b62618002a3225D3",
        "1",
        "100"
      ],
      "transaction": {
        "type": "0x02",
        "from": "0x42c7ef198f8ac9888e2b1b73e5b71f1d4535194a",
        "to": "0x7c7f0b8df108dc8c867016c3b203037d44409c30",
        "gas": "0x1f3d1",
        "value": "0x0",
        "data": "0x6dcb111d0000000000000000000000007261a238427d054c6ec6f6b9b62618002a3225d300000000000000000000000000000000000000000000000000000000000000010000000000000000000000000000000000000000000000000000000000000064",
        "nonce": "0x8f",
        "accessList": []
      },
      "additionalContracts": [],
      "isFixedGasLimit": false
    },
    {
      "hash": "0xddea2e120cb52e0fbeb958df2a1b7d55323bbf85140e8e34b39da887cfcb6478",
      "transactionType": "CALL",
      "contractName": "ERC1155Cloneable",
      "contractAddress": "0x7c7f0b8dF108DC8C867016C3b203037d44409C30",
      "function": "mintFungible(address,uint256,uint64)",
      "arguments": [
        "0x7261a238427d054c6Ec6f6b9b62618002a3225D3",
        "2",
        "50"
      ],
      "transaction": {
        "type": "0x02",
        "from": "0x42c7ef198f8ac9888e2b1b73e5b71f1d4535194a",
        "to": "0x7c7f0b8df108dc8c867016c3b203037d44409c30",
        "gas": "0x1f3d1",
        "value": "0x0",
        "data": "0x6dcb111d0000000000000000000000007261a238427d054c6ec6f6b9b62618002a3225d300000000000000000000000000000000000000000000000000000000000000020000000000000000000000000000000000000000000000000000000000000032",
        "nonce": "0x90",
        "accessList": []
      },
      "additionalContracts": [],
      "isFixedGasLimit": false
    }
  ],
  "receipts": [],
  "libraries": [],
  "pending": [
    "0x2681f2ffd927e35db49313cda5eeff7b947db100da2ae3fd32937de7814257c5",
    "0x84588aa3b01232035cb65c2b0e2f6fd3334e733687a25a5dbd7df9cf2b6eda73",
    "0x0610153e41d65931b5658501618d8210c4e3bb4bd889fc89f8a62e2e12e4e75b",
    "0xddea2e120cb52e0fbeb958df2a1b7d55323bbf85140e8e34b39da887cfcb6478"
  ],
  "returns": {},
  "timestamp": 1693546580,
  "chain": 11155111,
  "multi": false,
  "commit": "11bdc2c"
}