{
  "transactions": [
    {
      "hash": "0x12e889255d2752b9e72f8106176e83cb171d68c9b9e19df5dee616424473c752",
      "transactionType": "CALL",
      "contractName": null,
      "contractAddress": "0x5402d75d09f893aFC27db89d96021704D5F91dAc",
      "function": "mintFungible(address,uint256,uint256)",
      "arguments": [
        "0xC03F52e87f41f8e2907e2410695ab59492f6aDEf",
        "1",
        "100"
      ],
      "transaction": {
        "type": "0x02",
        "from": "0x42c7ef198f8ac9888e2b1b73e5b71f1d4535194a",
        "to": "0x5402d75d09f893afc27db89d96021704d5f91dac",
        "gas": "0x1a59b",
        "value": "0x0",
        "data": "0x58ea82e6000000000000000000000000c03f52e87f41f8e2907e2410695ab59492f6adef00000000000000000000000000000000000000000000000000000000000000010000000000000000000000000000000000000000000000000000000000000064",
        "nonce": "0x5d",
        "accessList": []
      },
      "additionalContracts": [],
      "isFixedGasLimit": false
    },
    {
      "hash": "0x206bb9b99b70e6531d057ce21d82c75cfb230e1f8ebf9a7313a89bd0afa2ac94",
      "transactionType": "CALL",
      "contractName": null,
      "contractAddress": "0x5402d75d09f893aFC27db89d96021704D5F91dAc",
      "function": "mintFungible(address,uint256,uint256)",
      "arguments": [
        "0xC03F52e87f41f8e2907e2410695ab59492f6aDEf",
        "2",
        "50"
      ],
      "transaction": {
        "type": "0x02",
        "from": "0x42c7ef198f8ac9888e2b1b73e5b71f1d4535194a",
        "to": "0x5402d75d09f893afc27db89d96021704d5f91dac",
        "gas": "0x1a59b",
        "value": "0x0",
        "data": "0x58ea82e6000000000000000000000000c03f52e87f41f8e2907e2410695ab59492f6adef00000000000000000000000000000000000000000000000000000000000000020000000000000000000000000000000000000000000000000000000000000032",
        "nonce": "0x5e",
        "accessList": []
      },
      "additionalContracts": [],
      "isFixedGasLimit": false
    },
    {
      "hash": "0x9288c3d65cc598520e6f852c938b2d188b805a3e8b4fd517b27720744a3b2b2c",
      "transactionType": "CALL",
      "contractName": null,
      "contractAddress": "0x6bc0BdA0f8bA103059819595a3390AA792C09f81",
      "function": "mintFungible(address,uint256,uint256)",
      "arguments": [
        "0xCc2783D651199EE2D8A8Ed3Ebe26F57C4e5BD362",
        "1",
        "100"
      ],
      "transaction": {
        "type": "0x02",
        "from": "0x42c7ef198f8ac9888e2b1b73e5b71f1d4535194a",
        "to": "0x6bc0bda0f8ba103059819595a3390aa792c09f81",
        "gas": "0x1a59b",
        "value": "0x0",
        "data": "0x58ea82e6000000000000000000000000cc2783d651199ee2d8a8ed3ebe26f57c4e5bd36200000000000000000000000000000000000000000000000000000000000000010000000000000000000000000000000000000000000000000000000000000064",
        "nonce": "0x5f",
        "accessList": []
      },
      "additionalContracts": [],
      "isFixedGasLimit": false
    },
    {
      "hash": "0xd1af387cb964864cdf04ce4e0957fede3499a60fec8a658b284f56298f3941e6",
      "transactionType": "CALL",
      "contractName": null,
      "contractAddress": "0x6bc0BdA0f8bA103059819595a3390AA792C09f81",
      "function": "mintFungible(address,uint256,uint256)",
      "arguments": [
        "0xCc2783D651199EE2D8A8Ed3Ebe26F57C4e5BD362",
        "2",
        "50"
      ],
      "transaction": {
        "type": "0x02",
        "from": "0x42c7ef198f8ac9888e2b1b73e5b71f1d4535194a",
        "to": "0x6bc0bda0f8ba103059819595a3390aa792c09f81",
        "gas": "0x1a59b",
        "value": "0x0",
        "data": "0x58ea82e6000000000000000000000000cc2783d651199ee2d8a8ed3ebe26f57c4e5bd36200000000000000000000000000000000000000000000000000000000000000020000000000000000000000000000000000000000000000000000000000000032",
        "nonce": "0x60",
        "accessList": []
      },
      "additionalContracts": [],
      "isFixedGasLimit": false
    }
  ],
  "receipts": [
    {
      "transactionHash": "0x12e889255d2752b9e72f8106176e83cb171d68c9b9e19df5dee616424473c752",
      "transactionIndex": "0x3",
      "blockHash": "0x40953b163426c5c59fa5adef9edba471a4acd489c0bc1b65fb0c13d17ff6d526",
      "blockNumber": "0x3de9ff",
      "from": "0x42C7eF198f8aC9888E2B1b73e5B71f1D4535194A",
      "to": "0x5402d75d09f893aFC27db89d96021704D5F91dAc",
      "cumulativeGasUsed": "0x13b9eb",
      "gasUsed": "0x1313d",
      "contractAddress": null,
      "logs": [
        {
          "address": "0x5402d75d09f893aFC27db89d96021704D5F91dAc",
          "topics": [
            "0xc3d58168c5ae7397731d063d5bbf3d657854427343f4c083240f7aacaa2d0f62",
            "0x00000000000000000000000042c7ef198f8ac9888e2b1b73e5b71f1d4535194a",
            "0x0000000000000000000000000000000000000000000000000000000000000000",
            "0x000000000000000000000000c03f52e87f41f8e2907e2410695ab59492f6adef"
          ],
          "data": "0x00000000000000000000000000000000000000000000000000000000000000010000000000000000000000000000000000000000000000000000000000000064",
          "blockHash": "0x40953b163426c5c59fa5adef9edba471a4acd489c0bc1b65fb0c13d17ff6d526",
          "blockNumber": "0x3de9ff",
          "transactionHash": "0x12e889255d2752b9e72f8106176e83cb171d68c9b9e19df5dee616424473c752",
          "transactionIndex": "0x3",
          "logIndex": "0x13",
          "removed": false
        }
      ],
      "status": "0x1",
      "logsBloom": "0x00000000000000000000000000000000000000000000000000400000000000080000000000000000000000000000000000000000000000000000000000002000000000000000000100000000000000000000000000002000000000000000000000000000020000000000000000000800000000000000000000000000000000000000000000000000000000000000000000000000000000000000000000000000000000000000000000800000000000000000008000000000000000000000000000000000010000000000000000000000000000000008000000000000000020000000000000000000000000000400000000000000000000000000180000000000",
      "type": "0x2",
      "effectiveGasPrice": "0xbf83cd96"
    },
    {
      "transactionHash": "0x206bb9b99b70e6531d057ce21d82c75cfb230e1f8ebf9a7313a89bd0afa2ac94",
      "transactionIndex": "0x4",
      "blockHash": "0x40953b163426c5c59fa5adef9edba471a4acd489c0bc1b65fb0c13d17ff6d526",
      "blockNumber": "0x3de9ff",
      "from": "0x42C7eF198f8aC9888E2B1b73e5B71f1D4535194A",
      "to": "0x5402d75d09f893aFC27db89d96021704D5F91dAc",
      "cumulativeGasUsed": "0x14eb28",
      "gasUsed": "0x1313d",
      "contractAddress": null,
      "logs": [
        {
          "address": "0x5402d75d09f893aFC27db89d96021704D5F91dAc",
          "topics": [
            "0xc3d58168c5ae7397731d063d5bbf3d657854427343f4c083240f7aacaa2d0f62",
            "0x00000000000000000000000042c7ef198f8ac9888e2b1b73e5b71f1d4535194a",
            "0x0000000000000000000000000000000000000000000000000000000000000000",
            "0x000000000000000000000000c03f52e87f41f8e2907e2410695ab59492f6adef"
          ],
          "data": "0x00000000000000000000000000000000000000000000000000000000000000020000000000000000000000000000000000000000000000000000000000000032",
          "blockHash": "0x40953b163426c5c59fa5adef9edba471a4acd489c0bc1b65fb0c13d17ff6d526",
          "blockNumber": "0x3de9ff",
          "transactionHash": "0x206bb9b99b70e6531d057ce21d82c75cfb230e1f8ebf9a7313a89bd0afa2ac94",
          "transactionIndex": "0x4",
          "logIndex": "0x14",
          "removed": false
        }
      ],
      "status": "0x1",
      "logsBloom": "0x00000000000000000000000000000000000000000000000000400000000000080000000000000000000000000000000000000000000000000000000000002000000000000000000100000000000000000000000000002000000000000000000000000000020000000000000000000800000000000000000000000000000000000000000000000000000000000000000000000000000000000000000000000000000000000000000000800000000000000000008000000000000000000000000000000000010000000000000000000000000000000008000000000000000020000000000000000000000000000400000000000000000000000000180000000000",
      "type": "0x2",
      "effectiveGasPrice": "0xbf83cd96"
    },
    {
      "transactionHash": "0x9288c3d65cc598520e6f852c938b2d188b805a3e8b4fd517b27720744a3b2b2c",
      "transactionIndex": "0x5",
      "blockHash": "0x40953b163426c5c59fa5adef9edba471a4acd489c0bc1b65fb0c13d17ff6d526",
      "blockNumber": "0x3de9ff",
      "from": "0x42C7eF198f8aC9888E2B1b73e5B71f1D4535194A",
      "to": "0x6bc0BdA0f8bA103059819595a3390AA792C09f81",
      "cumulativeGasUsed": "0x161c65",
      "gasUsed": "0x1313d",
      "contractAddress": null,
      "logs": [
        {
          "address": "0x6bc0BdA0f8bA103059819595a3390AA792C09f81",
          "topics": [
            "0xc3d58168c5ae7397731d063d5bbf3d657854427343f4c083240f7aacaa2d0f62",
            "0x00000000000000000000000042c7ef198f8ac9888e2b1b73e5b71f1d4535194a",
            "0x0000000000000000000000000000000000000000000000000000000000000000",
            "0x000000000000000000000000cc2783d651199ee2d8a8ed3ebe26f57c4e5bd362"
          ],
          "data": "0x00000000000000000000000000000000000000000000000000000000000000010000000000000000000000000000000000000000000000000000000000000064",
          "blockHash": "0x40953b163426c5c59fa5adef9edba471a4acd489c0bc1b65fb0c13d17ff6d526",
          "blockNumber": "0x3de9ff",
          "transactionHash": "0x9288c3d65cc598520e6f852c938b2d188b805a3e8b4fd517b27720744a3b2b2c",
          "transactionIndex": "0x5",
          "logIndex": "0x15",
          "removed": false
        }
      ],
      "status": "0x1",
      "logsBloom": "0x00000000000000000000000000000000000000000000000000000000000000000000000000000000000000000000000000000000000000000000002000002000000000000000000100000000000000000000000000000000000000000000000000000000020000000000000000000800000000000000000000000000000000000000000000000000000000000000000000000000000000000000000000000000000000000000000000800000000000000000000002000000000000000000000000000000000000000000000000000100000000000008000000000000000020004000000000000000000100000400000000000002000000000000080000000000",
      "type": "0x2",
      "effectiveGasPrice": "0xbf83cd96"
    },
    {
      "transactionHash": "0xd1af387cb964864cdf04ce4e0957fede3499a60fec8a658b284f56298f3941e6",
      "transactionIndex": "0x6",
      "blockHash": "0x40953b163426c5c59fa5adef9edba471a4acd489c0bc1b65fb0c13d17ff6d526",
      "blockNumber": "0x3de9ff",
      "from": "0x42C7eF198f8aC9888E2B1b73e5B71f1D4535194A",
      "to": "0x6bc0BdA0f8bA103059819595a3390AA792C09f81",
      "cumulativeGasUsed": "0x174da2",
      "gasUsed": "0x1313d",
      "contractAddress": null,
      "logs": [
        {
          "address": "0x6bc0BdA0f8bA103059819595a3390AA792C09f81",
          "topics": [
            "0xc3d58168c5ae7397731d063d5bbf3d657854427343f4c083240f7aacaa2d0f62",
            "0x00000000000000000000000042c7ef198f8ac9888e2b1b73e5b71f1d4535194a",
            "0x0000000000000000000000000000000000000000000000000000000000000000",
            "0x000000000000000000000000cc2783d651199ee2d8a8ed3ebe26f57c4e5bd362"
          ],
          "data": "0x00000000000000000000000000000000000000000000000000000000000000020000000000000000000000000000000000000000000000000000000000000032",
          "blockHash": "0x40953b163426c5c59fa5adef9edba471a4acd489c0bc1b65fb0c13d17ff6d526",
          "blockNumber": "0x3de9ff",
          "transactionHash": "0xd1af387cb964864cdf04ce4e0957fede3499a60fec8a658b284f56298f3941e6",
          "transactionIndex": "0x6",
          "logIndex": "0x16",
          "removed": false
        }
      ],
      "status": "0x1",
      "logsBloom": "0x00000000000000000000000000000000000000000000000000000000000000000000000000000000000000000000000000000000000000000000002000002000000000000000000100000000000000000000000000000000000000000000000000000000020000000000000000000800000000000000000000000000000000000000000000000000000000000000000000000000000000000000000000000000000000000000000000800000000000000000000002000000000000000000000000000000000000000000000000000100000000000008000000000000000020004000000000000000000100000400000000000002000000000000080000000000",
      "type": "0x2",
      "effectiveGasPrice": "0xbf83cd96"
    }
  ],
  "libraries": [],
  "pending": [],
  "returns": {},
  "timestamp": 1691616504,
  "chain": 11155111,
  "multi": false,
  "commit": "af42b49"
}