{
  "transactions": [
    {
      "hash": "0x2681f2ffd927e35db49313cda5eeff7b947db100da2ae3fd32937de7814257c5",
      "transactionType": "CALL",
      "contractName": null,
      "contractAddress": "0x88CDb8f97854F4a389F3482667d57f2B8a223812",
      "function": "mintFungible(address,uint256,uint64)",
      "arguments": [
        "0x03B00190d8E2603B08dA94d8A6E0C8844842499F",
        "1",
        "100"
      ],
      "transaction": {
        "type": "0x02",
        "from": "0x42c7ef198f8ac9888e2b1b73e5b71f1d4535194a",
        "to": "0x88cdb8f97854f4a389f3482667d57f2b8a223812",
        "gas": "0x2114b",
        "value": "0x0",
        "data": "0x6dcb111d00000000000000000000000003b00190d8e2603b08da94d8a6e0c8844842499f00000000000000000000000000000000000000000000000000000000000000010000000000000000000000000000000000000000000000000000000000000064",
        "nonce": "0x8d",
        "accessList": []
      },
      "additionalContracts": [],
      "isFixedGasLimit": false
    },
    {
      "hash": "0x84588aa3b01232035cb65c2b0e2f6fd3334e733687a25a5dbd7df9cf2b6eda73",
      "transactionType": "CALL",
      "contractName": null,
      "contractAddress": "0x88CDb8f97854F4a389F3482667d57f2B8a223812",
      "function": "mintFungible(address,uint256,uint64)",
      "arguments": [
        "0x03B00190d8E2603B08dA94d8A6E0C8844842499F",
        "2",
        "50"
      ],
      "transaction": {
        "type": "0x02",
        "from": "0x42c7ef198f8ac9888e2b1b73e5b71f1d4535194a",
        "to": "0x88cdb8f97854f4a389f3482667d57f2b8a223812",
        "gas": "0x2114b",
        "value": "0x0",
        "data": "0x6dcb111d00000000000000000000000003b00190d8e2603b08da94d8a6e0c8844842499f00000000000000000000000000000000000000000000000000000000000000020000000000000000000000000000000000000000000000000000000000000032",
        "nonce": "0x8e",
        "accessList": []
      },
      "additionalContracts": [],
      "isFixedGasLimit": false
    },
    {
      "hash": "0x0610153e41d65931b5658501618d8210c4e3bb4bd889fc89f8a62e2e12e4e75b",
      "transactionType": "CALL",
      "contractName": "ERC1155Cloneable",
      "contractAddress": "0x7c7f0b8dF108DC8C867016C3b203037d44409C30",
      "function": "mintFungible(address,uint256,uint64)",
      "arguments": [
        "0x7261a238427d054c6Ec6f6b9b62618002a3225D3",
        "1",
        "100"
      ],
      "transaction": {
        "type": "0x02",
        "from": "0x42c7ef198f8ac9888e2b1b73e5b71f1d4535194a",
        "to": "0x7c7f0b8df108dc8c867016c3b203037d44409c30",
        "gas": "0x1f3d1",
        "value": "0x0",
        "data": "0x6dcb111d0000000000000000000000007261a238427d054c6ec6f6b9b62618002a3225d300000000000000000000000000000000000000000000000000000000000000010000000000000000000000000000000000000000000000000000000000000064",
        "nonce": "0x8f",
        "accessList": []
      },
      "additionalContracts": [],
      "isFixedGasLimit": false
    },
    {
      "hash": "0xddea2e120cb52e0fbeb958df2a1b7d55323bbf85140e8e34b39da887cfcb6478",
      "transactionType": "CALL",
      "contractName": "ERC1155Cloneable",
      "contractAddress": "0x7c7f0b8dF108DC8C867016C3b203037d44409C30",
      "function": "mintFungible(address,uint256,uint64)",
      "arguments": [
        "0x7261a238427d054c6Ec6f6b9b62618002a3225D3",
        "2",
        "50"
      ],
      "transaction": {
        "type": "0x02",
        "from": "0x42c7ef198f8ac9888e2b1b73e5b71f1d4535194a",
        "to": "0x7c7f0b8df108dc8c867016c3b203037d44409c30",
        "gas": "0x1f3d1",
        "value": "0x0",
        "data": "0x6dcb111d0000000000000000000000007261a238427d054c6ec6f6b9b62618002a3225d300000000000000000000000000000000000000000000000000000000000000020000000000000000000000000000000000000000000000000000000000000032",
        "nonce": "0x90",
        "accessList": []
      },
      "additionalContracts": [],
      "isFixedGasLimit": false
    }
  ],
  "receipts": [
    {
      "transactionHash": "0x2681f2ffd927e35db49313cda5eeff7b947db100da2ae3fd32937de7814257c5",
      "transactionIndex": "0x10",
      "blockHash": "0xcfdb2e9a99b85d4c7042313a50b120c1745c6b9e14a752342159ea60dc9a14ad",
      "blockNumber": "0x401f13",
      "from": "0x42C7eF198f8aC9888E2B1b73e5B71f1D4535194A",
      "to": "0x88CDb8f97854F4a389F3482667d57f2B8a223812",
      "cumulativeGasUsed": "0x1b1781",
      "gasUsed": "0x169e9",
      "contractAddress": null,
      "logs": [
        {
          "address": "0x88CDb8f97854F4a389F3482667d57f2B8a223812",
          "topics": [
            "0xc3d58168c5ae7397731d063d5bbf3d657854427343f4c083240f7aacaa2d0f62",
            "0x00000000000000000000000042c7ef198f8ac9888e2b1b73e5b71f1d4535194a",
            "0x0000000000000000000000000000000000000000000000000000000000000000",
            "0x00000000000000000000000003b00190d8e2603b08da94d8a6e0c8844842499f"
          ],
          "data": "0x00000000000000000000000000000000000000000000000000000000000000010000000000000000000000000000000000000000000000000000000000000064",
          "blockHash": "0xcfdb2e9a99b85d4c7042313a50b120c1745c6b9e14a752342159ea60dc9a14ad",
          "blockNumber": "0x401f13",
          "transactionHash": "0x2681f2ffd927e35db49313cda5eeff7b947db100da2ae3fd32937de7814257c5",
          "transactionIndex": "0x10",
          "logIndex": "0xa",
          "removed": false
        }
      ],
      "status": "0x1",
      "logsBloom": "0x00000000000000000000000000000000000000000000000000000000000000000000000000000000004000000000000000000000000000000000000000002800000000000000000100008000000000000000000000000000000000000000000000000000020000000000000000000800000000000000000000000000000000000000000000000000000000000000000000000000000000000000000000000000000000000000000000800000000000000000000000200000000000000000000000000000001000000800000000000000000000000008000000000000000020000000000000000000000000000400000000000000000000000000080000000000",
      "type": "0x2",
      "effectiveGasPrice": "0x26ccc5688"
    },
    {
      "transactionHash": "0x84588aa3b01232035cb65c2b0e2f6fd3334e733687a25a5dbd7df9cf2b6eda73",
      "transactionIndex": "0x11",
      "blockHash": "0xcfdb2e9a99b85d4c7042313a50b120c1745c6b9e14a752342159ea60dc9a14ad",
      "blockNumber": "0x401f13",
      "from": "0x42C7eF198f8aC9888E2B1b73e5B71f1D4535194A",
      "to": "0x88CDb8f97854F4a389F3482667d57f2B8a223812",
      "cumulativeGasUsed": "0x1c816a",
      "gasUsed": "0x169e9",
      "contractAddress": null,
      "logs": [
        {
          "address": "0x88CDb8f97854F4a389F3482667d57f2B8a223812",
          "topics": [
            "0xc3d58168c5ae7397731d063d5bbf3d657854427343f4c083240f7aacaa2d0f62",
            "0x00000000000000000000000042c7ef198f8ac9888e2b1b73e5b71f1d4535194a",
            "0x0000000000000000000000000000000000000000000000000000000000000000",
            "0x00000000000000000000000003b00190d8e2603b08da94d8a6e0c8844842499f"
          ],
          "data": "0x00000000000000000000000000000000000000000000000000000000000000020000000000000000000000000000000000000000000000000000000000000032",
          "blockHash": "0xcfdb2e9a99b85d4c7042313a50b120c1745c6b9e14a752342159ea60dc9a14ad",
          "blockNumber": "0x401f13",
          "transactionHash": "0x84588aa3b01232035cb65c2b0e2f6fd3334e733687a25a5dbd7df9cf2b6eda73",
          "transactionIndex": "0x11",
          "logIndex": "0xb",
          "removed": false
        }
      ],
      "status": "0x1",
      "logsBloom": "0x00000000000000000000000000000000000000000000000000000000000000000000000000000000004000000000000000000000000000000000000000002800000000000000000100008000000000000000000000000000000000000000000000000000020000000000000000000800000000000000000000000000000000000000000000000000000000000000000000000000000000000000000000000000000000000000000000800000000000000000000000200000000000000000000000000000001000000800000000000000000000000008000000000000000020000000000000000000000000000400000000000000000000000000080000000000",
      "type": "0x2",
      "effectiveGasPrice": "0x26ccc5688"
    },
    {
      "transactionHash": "0x0610153e41d65931b5658501618d8210c4e3bb4bd889fc89f8a62e2e12e4e75b",
      "transactionIndex": "0x12",
      "blockHash": "0xcfdb2e9a99b85d4c7042313a50b120c1745c6b9e14a752342159ea60dc9a14ad",
      "blockNumber": "0x401f13",
      "from": "0x42C7eF198f8aC9888E2B1b73e5B71f1D4535194A",
      "to": "0x7c7f0b8dF108DC8C867016C3b203037d44409C30",
      "cumulativeGasUsed": "0x1deb47",
      "gasUsed": "0x169dd",
      "contractAddress": null,
      "logs": [
        {
          "address": "0x7c7f0b8dF108DC8C867016C3b203037d44409C30",
          "topics": [
            "0xc3d58168c5ae7397731d063d5bbf3d657854427343f4c083240f7aacaa2d0f62",
            "0x00000000000000000000000042c7ef198f8ac9888e2b1b73e5b71f1d4535194a",
            "0x0000000000000000000000000000000000000000000000000000000000000000",
            "0x0000000000000000000000007261a238427d054c6ec6f6b9b62618002a3225d3"
          ],
          "data": "0x00000000000000000000000000000000000000000000000000000000000000010000000000000000000000000000000000000000000000000000000000000064",
          "blockHash": "0xcfdb2e9a99b85d4c7042313a50b120c1745c6b9e14a752342159ea60dc9a14ad",
          "blockNumber": "0x401f13",
          "transactionHash": "0x0610153e41d65931b5658501618d8210c4e3bb4bd889fc89f8a62e2e12e4e75b",
          "transactionIndex": "0x12",
          "logIndex": "0xc",
          "removed": false
        }
      ],
      "status": "0x1",
      "logsBloom": "0x00000000000000000000000000000000000000000000000000000000000000000000000000000000000000000000000000000000000000000000000000002000000000000000000100000000000000000000000000000000000000000000000000000000020000000000000000000800000000000000000000000000000000000000000000001000000000100000000000010000000000000000000000000000000000000000000000800000000000000000000000000000002000000000000000000000000000000000000000000000000000000008000000000000010020000000000008000000000000000400000000000000000000000000080000000000",
      "type": "0x2",
      "effectiveGasPrice": "0x26ccc5688"
    },
    {
      "transactionHash": "0xddea2e120cb52e0fbeb958df2a1b7d55323bbf85140e8e34b39da887cfcb6478",
      "transactionIndex": "0x13",
      "blockHash": "0xcfdb2e9a99b85d4c7042313a50b120c1745c6b9e14a752342159ea60dc9a14ad",
      "blockNumber": "0x401f13",
      "from": "0x42C7eF198f8aC9888E2B1b73e5B71f1D4535194A",
      "to": "0x7c7f0b8dF108DC8C867016C3b203037d44409C30",
      "cumulativeGasUsed": "0x1f5524",
      "gasUsed": "0x169dd",
      "contractAddress": null,
      "logs": [
        {
          "address": "0x7c7f0b8dF108DC8C867016C3b203037d44409C30",
          "topics": [
            "0xc3d58168c5ae7397731d063d5bbf3d657854427343f4c083240f7aacaa2d0f62",
            "0x00000000000000000000000042c7ef198f8ac9888e2b1b73e5b71f1d4535194a",
            "0x0000000000000000000000000000000000000000000000000000000000000000",
            "0x0000000000000000000000007261a238427d054c6ec6f6b9b62618002a3225d3"
          ],
          "data": "0x00000000000000000000000000000000000000000000000000000000000000020000000000000000000000000000000000000000000000000000000000000032",
          "blockHash": "0xcfdb2e9a99b85d4c7042313a50b120c1745c6b9e14a752342159ea60dc9a14ad",
          "blockNumber": "0x401f13",
          "transactionHash": "0xddea2e120cb52e0fbeb958df2a1b7d55323bbf85140e8e34b39da887cfcb6478",
          "transactionIndex": "0x13",
          "logIndex": "0xd",
          "removed": false
        }
      ],
      "status": "0x1",
      "logsBloom": "0x00000000000000000000000000000000000000000000000000000000000000000000000000000000000000000000000000000000000000000000000000002000000000000000000100000000000000000000000000000000000000000000000000000000020000000000000000000800000000000000000000000000000000000000000000001000000000100000000000010000000000000000000000000000000000000000000000800000000000000000000000000000002000000000000000000000000000000000000000000000000000000008000000000000010020000000000008000000000000000400000000000000000000000000080000000000",
      "type": "0x2",
      "effectiveGasPrice": "0x26ccc5688"
    }
  ],
  "libraries": [],
  "pending": [],
  "returns": {},
  "timestamp": 1693546586,
  "chain": 11155111,
  "multi": false,
  "commit": "11bdc2c"
}