{
  "transactions": [
    {
      "hash": "0xbc72899997819608deaaac5646812af78cd0ace1a4dcabf4c9f0ac53c7178d26",
      "transactionType": "CALL",
      "contractName": null,
      "contractAddress": "0x81a71A6DC43395eae7e94df05bD6b54555EAc9c8",
      "function": "mintFungible(address,uint256,uint256)",
      "arguments": [
        "0xb067d2d42a94D43d5e2757fdE4fBE26eA20CA88A",
        "1",
        "100"
      ],
      "transaction": {
        "type": "0x02",
        "from": "0x42c7ef198f8ac9888e2b1b73e5b71f1d4535194a",
        "to": "0x81a71a6dc43395eae7e94df05bd6b54555eac9c8",
        "gas": "0x1a59b",
        "value": "0x0",
        "data": "0x58ea82e6000000000000000000000000b067d2d42a94d43d5e2757fde4fbe26ea20ca88a00000000000000000000000000000000000000000000000000000000000000010000000000000000000000000000000000000000000000000000000000000064",
        "nonce": "0x3d",
        "accessList": []
      },
      "additionalContracts": [],
      "isFixedGasLimit": false
    },
    {
      "hash": "0x85580c31800e79bebd6729494b4359ec247ded5739b325e7569d8ea258871fb8",
      "transactionType": "CALL",
      "contractName": null,
      "contractAddress": "0x81a71A6DC43395eae7e94df05bD6b54555EAc9c8",
      "function": "mintFungible(address,uint256,uint256)",
      "arguments": [
        "0xb067d2d42a94D43d5e2757fdE4fBE26eA20CA88A",
        "2",
        "50"
      ],
      "transaction": {
        "type": "0x02",
        "from": "0x42c7ef198f8ac9888e2b1b73e5b71f1d4535194a",
        "to": "0x81a71a6dc43395eae7e94df05bd6b54555eac9c8",
        "gas": "0x1a59b",
        "value": "0x0",
        "data": "0x58ea82e6000000000000000000000000b067d2d42a94d43d5e2757fde4fbe26ea20ca88a00000000000000000000000000000000000000000000000000000000000000020000000000000000000000000000000000000000000000000000000000000032",
        "nonce": "0x3e",
        "accessList": []
      },
      "additionalContracts": [],
      "isFixedGasLimit": false
    },
    {
      "hash": "0x30c8d80482de1607d6400b963b324f2d892642048b7f9e895ba3b6b47d6dbbf5",
      "transactionType": "CALL",
      "contractName": null,
      "contractAddress": "0x1b925f96973ecC0bc387E7e64BFCFFE59Bd17E0A",
      "function": "mintFungible(address,uint256,uint256)",
      "arguments": [
        "0xE163F1Ac494862C3a4Dc36528a2C12C1AA0D585d",
        "1",
        "100"
      ],
      "transaction": {
        "type": "0x02",
        "from": "0x42c7ef198f8ac9888e2b1b73e5b71f1d4535194a",
        "to": "0x1b925f96973ecc0bc387e7e64bfcffe59bd17e0a",
        "gas": "0x1a59b",
        "value": "0x0",
        "data": "0x58ea82e6000000000000000000000000e163f1ac494862c3a4dc36528a2c12c1aa0d585d00000000000000000000000000000000000000000000000000000000000000010000000000000000000000000000000000000000000000000000000000000064",
        "nonce": "0x3f",
        "accessList": []
      },
      "additionalContracts": [],
      "isFixedGasLimit": false
    },
    {
      "hash": "0xb73a025e10bec08c16c6879134896898319e266b4edd4fc1a6e84daca389c4d9",
      "transactionType": "CALL",
      "contractName": null,
      "contractAddress": "0x1b925f96973ecC0bc387E7e64BFCFFE59Bd17E0A",
      "function": "mintFungible(address,uint256,uint256)",
      "arguments": [
        "0xE163F1Ac494862C3a4Dc36528a2C12C1AA0D585d",
        "2",
        "50"
      ],
      "transaction": {
        "type": "0x02",
        "from": "0x42c7ef198f8ac9888e2b1b73e5b71f1d4535194a",
        "to": "0x1b925f96973ecc0bc387e7e64bfcffe59bd17e0a",
        "gas": "0x1a59b",
        "value": "0x0",
        "data": "0x58ea82e6000000000000000000000000e163f1ac494862c3a4dc36528a2c12c1aa0d585d00000000000000000000000000000000000000000000000000000000000000020000000000000000000000000000000000000000000000000000000000000032",
        "nonce": "0x40",
        "accessList": []
      },
      "additionalContracts": [],
      "isFixedGasLimit": false
    }
  ],
  "receipts": [
    {
      "transactionHash": "0xbc72899997819608deaaac5646812af78cd0ace1a4dcabf4c9f0ac53c7178d26",
      "transactionIndex": "0x0",
      "blockHash": "0x7270e3e2e30653c88c50c58227043ecb13b312d0a005526f86df9cb7d0f87661",
      "blockNumber": "0x3dcc37",
      "from": "0x42C7eF198f8aC9888E2B1b73e5B71f1D4535194A",
      "to": "0x81a71A6DC43395eae7e94df05bD6b54555EAc9c8",
      "cumulativeGasUsed": "0x1313d",
      "gasUsed": "0x1313d",
      "contractAddress": null,
      "logs": [
        {
          "address": "0x81a71A6DC43395eae7e94df05bD6b54555EAc9c8",
          "topics": [
            "0xc3d58168c5ae7397731d063d5bbf3d657854427343f4c083240f7aacaa2d0f62",
            "0x00000000000000000000000042c7ef198f8ac9888e2b1b73e5b71f1d4535194a",
            "0x0000000000000000000000000000000000000000000000000000000000000000",
            "0x000000000000000000000000b067d2d42a94d43d5e2757fde4fbe26ea20ca88a"
          ],
          "data": "0x00000000000000000000000000000000000000000000000000000000000000010000000000000000000000000000000000000000000000000000000000000064",
          "blockHash": "0x7270e3e2e30653c88c50c58227043ecb13b312d0a005526f86df9cb7d0f87661",
          "blockNumber": "0x3dcc37",
          "transactionHash": "0xbc72899997819608deaaac5646812af78cd0ace1a4dcabf4c9f0ac53c7178d26",
          "transactionIndex": "0x0",
          "logIndex": "0x0",
          "removed": false
        }
      ],
      "status": "0x1",
      "logsBloom": "0x00000000000000000000000000000000000000000000000000000000000000000000000100000000000000000000000000000000000000000000000000002000000000000000000100000000000000000000000000000010000000000400000000000000020000000000000000000800000000000000000000000000000000000000000000000000001000000000000000000000000200000000000000000000000000000000000000800000002000000000000000000000000000000000000000000000000000000000000000000000000000000008000000000000000020000000000000000000000000000400000000000000000000000000080000000000",
      "type": "0x2",
      "effectiveGasPrice": "0xbdb6110f"
    },
    {
      "transactionHash": "0x85580c31800e79bebd6729494b4359ec247ded5739b325e7569d8ea258871fb8",
      "transactionIndex": "0x1",
      "blockHash": "0x7270e3e2e30653c88c50c58227043ecb13b312d0a005526f86df9cb7d0f87661",
      "blockNumber": "0x3dcc37",
      "from": "0x42C7eF198f8aC9888E2B1b73e5B71f1D4535194A",
      "to": "0x81a71A6DC43395eae7e94df05bD6b54555EAc9c8",
      "cumulativeGasUsed": "0x2627a",
      "gasUsed": "0x1313d",
      "contractAddress": null,
      "logs": [
        {
          "address": "0x81a71A6DC43395eae7e94df05bD6b54555EAc9c8",
          "topics": [
            "0xc3d58168c5ae7397731d063d5bbf3d657854427343f4c083240f7aacaa2d0f62",
            "0x00000000000000000000000042c7ef198f8ac9888e2b1b73e5b71f1d4535194a",
            "0x0000000000000000000000000000000000000000000000000000000000000000",
            "0x000000000000000000000000b067d2d42a94d43d5e2757fde4fbe26ea20ca88a"
          ],
          "data": "0x00000000000000000000000000000000000000000000000000000000000000020000000000000000000000000000000000000000000000000000000000000032",
          "blockHash": "0x7270e3e2e30653c88c50c58227043ecb13b312d0a005526f86df9cb7d0f87661",
          "blockNumber": "0x3dcc37",
          "transactionHash": "0x85580c31800e79bebd6729494b4359ec247ded5739b325e7569d8ea258871fb8",
          "transactionIndex": "0x1",
          "logIndex": "0x1",
          "removed": false
        }
      ],
      "status": "0x1",
      "logsBloom": "0x00000000000000000000000000000000000000000000000000000000000000000000000100000000000000000000000000000000000000000000000000002000000000000000000100000000000000000000000000000010000000000400000000000000020000000000000000000800000000000000000000000000000000000000000000000000001000000000000000000000000200000000000000000000000000000000000000800000002000000000000000000000000000000000000000000000000000000000000000000000000000000008000000000000000020000000000000000000000000000400000000000000000000000000080000000000",
      "type": "0x2",
      "effectiveGasPrice": "0xbdb6110f"
    },
    {
      "transactionHash": "0x30c8d80482de1607d6400b963b324f2d892642048b7f9e895ba3b6b47d6dbbf5",
      "transactionIndex": "0x2",
      "blockHash": "0x7270e3e2e30653c88c50c58227043ecb13b312d0a005526f86df9cb7d0f87661",
      "blockNumber": "0x3dcc37",
      "from": "0x42C7eF198f8aC9888E2B1b73e5B71f1D4535194A",
      "to": "0x1b925f96973ecC0bc387E7e64BFCFFE59Bd17E0A",
      "cumulativeGasUsed": "0x393b7",
      "gasUsed": "0x1313d",
      "contractAddress": null,
      "logs": [
        {
          "address": "0x1b925f96973ecC0bc387E7e64BFCFFE59Bd17E0A",
          "topics": [
            "0xc3d58168c5ae7397731d063d5bbf3d657854427343f4c083240f7aacaa2d0f62",
            "0x00000000000000000000000042c7ef198f8ac9888e2b1b73e5b71f1d4535194a",
            "0x0000000000000000000000000000000000000000000000000000000000000000",
            "0x000000000000000000000000e163f1ac494862c3a4dc36528a2c12c1aa0d585d"
          ],
          "data": "0x00000000000000000000000000000000000000000000000000000000000000010000000000000000000000000000000000000000000000000000000000000064",
          "blockHash": "0x7270e3e2e30653c88c50c58227043ecb13b312d0a005526f86df9cb7d0f87661",
          "blockNumber": "0x3dcc37",
          "transactionHash": "0x30c8d80482de1607d6400b963b324f2d892642048b7f9e895ba3b6b47d6dbbf5",
          "transactionIndex": "0x2",
          "logIndex": "0x2",
          "removed": false
        }
      ],
      "status": "0x1",
      "logsBloom": "0x00000000000000000000000000000000000000000000000000000000000000000000000000000000000000000000000000000040000000000000040000002000000000000000000100000000000000010000000000000000000000000002000000000000022000000000000000000800000000000000000000000000000000000000000000000000000000000000000000000000000000000000000000000000000000000000000000800000000000000000000000000000000000000000000000000000000000000000000000000000000000000008000100000000000020000000000000000000000000000400000000000000000000000000080000000000",
      "type": "0x2",
      "effectiveGasPrice": "0xbdb6110f"
    },
    {
      "transactionHash": "0xb73a025e10bec08c16c6879134896898319e266b4edd4fc1a6e84daca389c4d9",
      "transactionIndex": "0x3",
      "blockHash": "0x7270e3e2e30653c88c50c58227043ecb13b312d0a005526f86df9cb7d0f87661",
      "blockNumber": "0x3dcc37",
      "from": "0x42C7eF198f8aC9888E2B1b73e5B71f1D4535194A",
      "to": "0x1b925f96973ecC0bc387E7e64BFCFFE59Bd17E0A",
      "cumulativeGasUsed": "0x4c4f4",
      "gasUsed": "0x1313d",
      "contractAddress": null,
      "logs": [
        {
          "address": "0x1b925f96973ecC0bc387E7e64BFCFFE59Bd17E0A",
          "topics": [
            "0xc3d58168c5ae7397731d063d5bbf3d657854427343f4c083240f7aacaa2d0f62",
            "0x00000000000000000000000042c7ef198f8ac9888e2b1b73e5b71f1d4535194a",
            "0x0000000000000000000000000000000000000000000000000000000000000000",
            "0x000000000000000000000000e163f1ac494862c3a4dc36528a2c12c1aa0d585d"
          ],
          "data": "0x00000000000000000000000000000000000000000000000000000000000000020000000000000000000000000000000000000000000000000000000000000032",
          "blockHash": "0x7270e3e2e30653c88c50c58227043ecb13b312d0a005526f86df9cb7d0f87661",
          "blockNumber": "0x3dcc37",
          "transactionHash": "0xb73a025e10bec08c16c6879134896898319e266b4edd4fc1a6e84daca389c4d9",
          "transactionIndex": "0x3",
          "logIndex": "0x3",
          "removed": false
        }
      ],
      "status": "0x1",
      "logsBloom": "0x00000000000000000000000000000000000000000000000000000000000000000000000000000000000000000000000000000040000000000000040000002000000000000000000100000000000000010000000000000000000000000002000000000000022000000000000000000800000000000000000000000000000000000000000000000000000000000000000000000000000000000000000000000000000000000000000000800000000000000000000000000000000000000000000000000000000000000000000000000000000000000008000100000000000020000000000000000000000000000400000000000000000000000000080000000000",
      "type": "0x2",
      "effectiveGasPrice": "0xbdb6110f"
    }
  ],
  "libraries": [],
  "pending": [],
  "returns": {},
  "timestamp": 1691515756,
  "chain": 11155111,
  "multi": false,
  "commit": "b6d6374"
}