{
  "transactions": [
    {
      "hash": "0x81dcfe5351dd36916fe5a6daf1fcb6ac916e811e20c652e591130bdb0e442e45",
      "transactionType": "CALL",
      "contractName": "ERC721CloneableTBA",
      "contractAddress": "0x15bF9d73af82b13Bb6B27061E577D6De0fB35D31",
      "function": "initialize(address,address,string,string,string,address)",
      "arguments": [
        "0x2D25602551487C3f3354dD80D76D54383A243358",
        "0x02101dfB77FDE026414827Fdc604ddAF224F0921",
        "Tronic Members",
        "TRON",
        "https://ipfs.io/ipfs/QmUkpx1WefuPkanLCb183WpcESf76TPwq3cks5TudvHyHh/",
        "0x42C7eF198f8aC9888E2B1b73e5B71f1D4535194A"
      ],
      "transaction": {
        "type": "0x02",
        "from": "0x42c7ef198f8ac9888e2b1b73e5b71f1d4535194a",
        "to": "0x15bf9d73af82b13bb6b27061e577d6de0fb35d31",
        "gas": "0x5c349",
        "value": "0x0",
        "data": "0x45237f1c0000000000000000000000002d25602551487c3f3354dd80d76d54383a24335800000000000000000000000002101dfb77fde026414827fdc604ddaf224f092100000000000000000000000000000000000000000000000000000000000000c00000000000000000000000000000000000000000000000000000000000000100000000000000000000000000000000000000000000000000000000000000014000000000000000000000000042c7ef198f8ac9888e2b1b73e5b71f1d4535194a000000000000000000000000000000000000000000000000000000000000000e54726f6e6963204d656d62657273000000000000000000000000000000000000000000000000000000000000000000000000000000000000000000000000000454524f4e00000000000000000000000000000000000000000000000000000000000000000000000000000000000000000000000000000000000000000000004468747470733a2f2f697066732e696f2f697066732f516d556b70783157656675506b616e4c436231383357706345536637365450777133636b733554756476487948682f00000000000000000000000000000000000000000000000000000000",
        "nonce": "0x67",
        "accessList": []
      },
      "additionalContracts": [],
      "isFixedGasLimit": false
    },
    {
      "hash": "0x44c04d126a173aa27356dc3f51fe8f6b51258cba399a6614106c3cb8f53c355e",
      "transactionType": "CALL",
      "contractName": "ERC1155Cloneable",
      "contractAddress": "0x23097b0A426Ec8BBF0BEf486767b84ecC27F6A5B",
      "function": "initialize(string,address,string,string)",
      "arguments": [
        "https://ipfs.io/ipfs/QmPd3dW1GdemiXM5GcCJe68ykUqGBmG1Q3XshTwzT5zDfJ/",
        "0x42C7eF198f8aC9888E2B1b73e5B71f1D4535194A",
        "Tronic Rewards",
        "TRONIC"
      ],
      "transaction": {
        "type": "0x02",
        "from": "0x42c7ef198f8ac9888e2b1b73e5b71f1d4535194a",
        "to": "0x23097b0a426ec8bbf0bef486767b84ecc27f6a5b",
        "gas": "0x51890",
        "value": "0x0",
        "data": "0x75fe6882000000000000000000000000000000000000000000000000000000000000008000000000000000000000000042c7ef198f8ac9888e2b1b73e5b71f1d4535194a00000000000000000000000000000000000000000000000000000000000001000000000000000000000000000000000000000000000000000000000000000140000000000000000000000000000000000000000000000000000000000000004468747470733a2f2f697066732e696f2f697066732f516d5064336457314764656d69584d354763434a653638796b557147426d4731513358736854777a54357a44664a2f00000000000000000000000000000000000000000000000000000000000000000000000000000000000000000000000000000000000000000000000e54726f6e69632052657761726473000000000000000000000000000000000000000000000000000000000000000000000000000000000000000000000000000654524f4e49430000000000000000000000000000000000000000000000000000",
        "nonce": "0x68",
        "accessList": []
      },
      "additionalContracts": [],
      "isFixedGasLimit": false
    },
    {
      "hash": "0xb467f1a263fe0e51dbb3e4bd918699e05c8fa269c6b702c80dfc5388042c2ef9",
      "transactionType": "CALL",
      "contractName": "ERC1155Cloneable",
      "contractAddress": "0x23097b0A426Ec8BBF0BEf486767b84ecC27F6A5B",
      "function": "createFungibleType(uint64,string):(uint256)",
      "arguments": [
        "1000000",
        "https://ipfs.io/ipfs/QmPd3dW1GdemiXM5GcCJe68ykUqGBmG1Q3XshTwzT5zDfJ/1"
      ],
      "transaction": {
        "type": "0x02",
        "from": "0x42c7ef198f8ac9888e2b1b73e5b71f1d4535194a",
        "to": "0x23097b0a426ec8bbf0bef486767b84ecc27f6a5b",
        "gas": "0x38fbf",
        "value": "0x0",
        "data": "0x2dfb9ff000000000000000000000000000000000000000000000000000000000000f42400000000000000000000000000000000000000000000000000000000000000040000000000000000000000000000000000000000000000000000000000000004568747470733a2f2f697066732e696f2f697066732f516d5064336457314764656d69584d354763434a653638796b557147426d4731513358736854777a54357a44664a2f31000000000000000000000000000000000000000000000000000000",
        "nonce": "0x69",
        "accessList": []
      },
      "additionalContracts": [],
      "isFixedGasLimit": false
    },
    {
      "hash": "0xf387bb2f6ef559dd42edd352c14c8c1ef91459d2c6812e24d43080066b2963ea",
      "transactionType": "CALL",
      "contractName": "ERC1155Cloneable",
      "contractAddress": "0x23097b0A426Ec8BBF0BEf486767b84ecC27F6A5B",
      "function": "createFungibleType(uint64,string):(uint256)",
      "arguments": [
        "500000",
        "https://ipfs.io/ipfs/QmPd3dW1GdemiXM5GcCJe68ykUqGBmG1Q3XshTwzT5zDfJ/2"
      ],
      "transaction": {
        "type": "0x02",
        "from": "0x42c7ef198f8ac9888e2b1b73e5b71f1d4535194a",
        "to": "0x23097b0a426ec8bbf0bef486767b84ecc27f6a5b",
        "gas": "0x300d4",
        "value": "0x0",
        "data": "0x2dfb9ff0000000000000000000000000000000000000000000000000000000000007a1200000000000000000000000000000000000000000000000000000000000000040000000000000000000000000000000000000000000000000000000000000004568747470733a2f2f697066732e696f2f697066732f516d5064336457314764656d69584d354763434a653638796b557147426d4731513358736854777a54357a44664a2f32000000000000000000000000000000000000000000000000000000",
        "nonce": "0x6a",
        "accessList": []
      },
      "additionalContracts": [],
      "isFixedGasLimit": false
    },
    {
      "hash": "0x7db1979d276414cac3636d4a87150d76a3e0fb31f60f5253c4cca449917e0f7c",
      "transactionType": "CALL",
      "contractName": "ERC1155Cloneable",
      "contractAddress": "0x23097b0A426Ec8BBF0BEf486767b84ecC27F6A5B",
      "function": "createFungibleType(uint64,string):(uint256)",
      "arguments": [
        "250000",
        "https://ipfs.io/ipfs/QmPd3dW1GdemiXM5GcCJe68ykUqGBmG1Q3XshTwzT5zDfJ/3"
      ],
      "transaction": {
        "type": "0x02",
        "from": "0x42c7ef198f8ac9888e2b1b73e5b71f1d4535194a",
        "to": "0x23097b0a426ec8bbf0bef486767b84ecc27f6a5b",
        "gas": "0x300d4",
        "value": "0x0",
        "data": "0x2dfb9ff0000000000000000000000000000000000000000000000000000000000003d0900000000000000000000000000000000000000000000000000000000000000040000000000000000000000000000000000000000000000000000000000000004568747470733a2f2f697066732e696f2f697066732f516d5064336457314764656d69584d354763434a653638796b557147426d4731513358736854777a54357a44664a2f33000000000000000000000000000000000000000000000000000000",
        "nonce": "0x6b",
        "accessList": []
      },
      "additionalContracts": [],
      "isFixedGasLimit": false
    },
    {
      "hash": "0x736e0163e861fc4e82952dd14fd015de1018a337b85a7fab8bff3d1d453d6eeb",
      "transactionType": "CALL",
      "contractName": "ERC1155Cloneable",
      "contractAddress": "0x23097b0A426Ec8BBF0BEf486767b84ecC27F6A5B",
      "function": "createFungibleType(uint64,string):(uint256)",
      "arguments": [
        "125000",
        "https://ipfs.io/ipfs/QmPd3dW1GdemiXM5GcCJe68ykUqGBmG1Q3XshTwzT5zDfJ/4"
      ],
      "transaction": {
        "type": "0x02",
        "from": "0x42c7ef198f8ac9888e2b1b73e5b71f1d4535194a",
        "to": "0x23097b0a426ec8bbf0bef486767b84ecc27f6a5b",
        "gas": "0x300d4",
        "value": "0x0",
        "data": "0x2dfb9ff0000000000000000000000000000000000000000000000000000000000001e8480000000000000000000000000000000000000000000000000000000000000040000000000000000000000000000000000000000000000000000000000000004568747470733a2f2f697066732e696f2f697066732f516d5064336457314764656d69584d354763434a653638796b557147426d4731513358736854777a54357a44664a2f34000000000000000000000000000000000000000000000000000000",
        "nonce": "0x6c",
        "accessList": []
      },
      "additionalContracts": [],
      "isFixedGasLimit": false
    }
  ],
  "receipts": [],
  "libraries": [],
  "pending": [
    "0x81dcfe5351dd36916fe5a6daf1fcb6ac916e811e20c652e591130bdb0e442e45",
    "0x44c04d126a173aa27356dc3f51fe8f6b51258cba399a6614106c3cb8f53c355e",
    "0xb467f1a263fe0e51dbb3e4bd918699e05c8fa269c6b702c80dfc5388042c2ef9",
    "0xf387bb2f6ef559dd42edd352c14c8c1ef91459d2c6812e24d43080066b2963ea",
    "0x7db1979d276414cac3636d4a87150d76a3e0fb31f60f5253c4cca449917e0f7c",
    "0x736e0163e861fc4e82952dd14fd015de1018a337b85a7fab8bff3d1d453d6eeb"
  ],
  "returns": {},
  "timestamp": 1693527968,
  "chain": 11155111,
  "multi": false,
  "commit": "11bdc2c"
}