{
  "transactions": [
    {
      "hash": "0xe69da7fe19454f23777560238df01aaffe4d6038804f2cfc99ad791aa4147880",
      "transactionType": "CALL",
      "contractName": "ERC721CloneableTBA",
      "contractAddress": "0x90247B092feFf3AaB77dE4C9a232c983100c3b84",
      "function": "initialize(address,address,string,string,string,address)",
      "arguments": [
        "0x2D25602551487C3f3354dD80D76D54383A243358",
        "0x02101dfB77FDE026414827Fdc604ddAF224F0921",
        "TronClub",
        "TRNC",
        "https://ipfs.io/ipfs/QmUkpx1WefuPkanLCb183WpcESf76TPwq3cks5TudvHyHh/",
        "0x42C7eF198f8aC9888E2B1b73e5B71f1D4535194A"
      ],
      "transaction": {
        "type": "0x02",
        "from": "0x42c7ef198f8ac9888e2b1b73e5b71f1d4535194a",
        "to": "0x90247b092feff3aab77de4c9a232c983100c3b84",
        "gas": "0x54b77",
        "value": "0x0",
        "data": "0x45237f1c0000000000000000000000002d25602551487c3f3354dd80d76d54383a24335800000000000000000000000002101dfb77fde026414827fdc604ddaf224f092100000000000000000000000000000000000000000000000000000000000000c00000000000000000000000000000000000000000000000000000000000000100000000000000000000000000000000000000000000000000000000000000014000000000000000000000000042c7ef198f8ac9888e2b1b73e5b71f1d4535194a000000000000000000000000000000000000000000000000000000000000000854726f6e436c7562000000000000000000000000000000000000000000000000000000000000000000000000000000000000000000000000000000000000000454524e4300000000000000000000000000000000000000000000000000000000000000000000000000000000000000000000000000000000000000000000004468747470733a2f2f697066732e696f2f697066732f516d556b70783157656675506b616e4c436231383357706345536637365450777133636b733554756476487948682f00000000000000000000000000000000000000000000000000000000",
        "nonce": "0x49",
        "accessList": []
      },
      "additionalContracts": [],
      "isFixedGasLimit": false
    },
    {
      "hash": "0x43a1743e991d60453af7ba1a4f31088ad964c43a5621e1e30025047a0c3ca6d1",
      "transactionType": "CALL",
      "contractName": "ERC1155Cloneable",
      "contractAddress": "0x2759A615eF0f0888d70c70d5AAA0Eb22AA7Fa7F6",
      "function": "initialize(string,address,string,string)",
      "arguments": [
        "https://ipfs.io/ipfs/QmPd3dW1GdemiXM5GcCJe68ykUqGBmG1Q3XshTwzT5zDfJ/",
        "0x42C7eF198f8aC9888E2B1b73e5B71f1D4535194A",
        "TRC CLUB POINTS",
        "TRCP"
      ],
      "transaction": {
        "type": "0x02",
        "from": "0x42c7ef198f8ac9888e2b1b73e5b71f1d4535194a",
        "to": "0x2759a615ef0f0888d70c70d5aaa0eb22aa7fa7f6",
        "gas": "0x45805",
        "value": "0x0",
        "data": "0x75fe6882000000000000000000000000000000000000000000000000000000000000008000000000000000000000000042c7ef198f8ac9888e2b1b73e5b71f1d4535194a00000000000000000000000000000000000000000000000000000000000001000000000000000000000000000000000000000000000000000000000000000140000000000000000000000000000000000000000000000000000000000000004468747470733a2f2f697066732e696f2f697066732f516d5064336457314764656d69584d354763434a653638796b557147426d4731513358736854777a54357a44664a2f00000000000000000000000000000000000000000000000000000000000000000000000000000000000000000000000000000000000000000000000f54524320434c554220504f494e5453000000000000000000000000000000000000000000000000000000000000000000000000000000000000000000000000045452435000000000000000000000000000000000000000000000000000000000",
        "nonce": "0x4a",
        "accessList": []
      },
      "additionalContracts": [],
      "isFixedGasLimit": false
    },
    {
      "hash": "0xd61b5ebd1b33da6d721d5b87e9cf4fec02450f107fa9ea118dc1ef253dc0f171",
      "transactionType": "CALL",
      "contractName": "ERC1155Cloneable",
      "contractAddress": "0x2759A615eF0f0888d70c70d5AAA0Eb22AA7Fa7F6",
      "function": "createFungibleType(uint256,string)",
      "arguments": [
        "1",
        "https://ipfs.io/ipfs/QmPd3dW1GdemiXM5GcCJe68ykUqGBmG1Q3XshTwzT5zDfJ/1"
      ],
      "transaction": {
        "type": "0x02",
        "from": "0x42c7ef198f8ac9888e2b1b73e5b71f1d4535194a",
        "to": "0x2759a615ef0f0888d70c70d5aaa0eb22aa7fa7f6",
        "gas": "0x26c78",
        "value": "0x0",
        "data": "0x21f9577700000000000000000000000000000000000000000000000000000000000000010000000000000000000000000000000000000000000000000000000000000040000000000000000000000000000000000000000000000000000000000000004568747470733a2f2f697066732e696f2f697066732f516d5064336457314764656d69584d354763434a653638796b557147426d4731513358736854777a54357a44664a2f31000000000000000000000000000000000000000000000000000000",
        "nonce": "0x4b",
        "accessList": []
      },
      "additionalContracts": [],
      "isFixedGasLimit": false
    },
    {
      "hash": "0x7eee878040386b6ba4f875c5fba7cbfefbdc74fb0480dcba9148f9e0c9d9ef2e",
      "transactionType": "CALL",
      "contractName": "ERC1155Cloneable",
      "contractAddress": "0x2759A615eF0f0888d70c70d5AAA0Eb22AA7Fa7F6",
      "function": "createFungibleType(uint256,string)",
      "arguments": [
        "2",
        "https://ipfs.io/ipfs/QmPd3dW1GdemiXM5GcCJe68ykUqGBmG1Q3XshTwzT5zDfJ/2"
      ],
      "transaction": {
        "type": "0x02",
        "from": "0x42c7ef198f8ac9888e2b1b73e5b71f1d4535194a",
        "to": "0x2759a615ef0f0888d70c70d5aaa0eb22aa7fa7f6",
        "gas": "0x26c78",
        "value": "0x0",
        "data": "0x21f9577700000000000000000000000000000000000000000000000000000000000000020000000000000000000000000000000000000000000000000000000000000040000000000000000000000000000000000000000000000000000000000000004568747470733a2f2f697066732e696f2f697066732f516d5064336457314764656d69584d354763434a653638796b557147426d4731513358736854777a54357a44664a2f32000000000000000000000000000000000000000000000000000000",
        "nonce": "0x4c",
        "accessList": []
      },
      "additionalContracts": [],
      "isFixedGasLimit": false
    },
    {
      "hash": "0x61e621e07cd8406ba033059f3893217ed6df8b0c2a089cf012f3e02a0c498bc7",
      "transactionType": "CALL",
      "contractName": "ERC1155Cloneable",
      "contractAddress": "0x2759A615eF0f0888d70c70d5AAA0Eb22AA7Fa7F6",
      "function": "createFungibleType(uint256,string)",
      "arguments": [
        "3",
        "https://ipfs.io/ipfs/QmPd3dW1GdemiXM5GcCJe68ykUqGBmG1Q3XshTwzT5zDfJ/3"
      ],
      "transaction": {
        "type": "0x02",
        "from": "0x42c7ef198f8ac9888e2b1b73e5b71f1d4535194a",
        "to": "0x2759a615ef0f0888d70c70d5aaa0eb22aa7fa7f6",
        "gas": "0x26c78",
        "value": "0x0",
        "data": "0x21f9577700000000000000000000000000000000000000000000000000000000000000030000000000000000000000000000000000000000000000000000000000000040000000000000000000000000000000000000000000000000000000000000004568747470733a2f2f697066732e696f2f697066732f516d5064336457314764656d69584d354763434a653638796b557147426d4731513358736854777a54357a44664a2f33000000000000000000000000000000000000000000000000000000",
        "nonce": "0x4d",
        "accessList": []
      },
      "additionalContracts": [],
      "isFixedGasLimit": false
    },
    {
      "hash": "0x2e0610b6c26e75c6d4e11bc3fb1e21cf80d657d256477b822e94856f13c1a254",
      "transactionType": "CALL",
      "contractName": "ERC1155Cloneable",
      "contractAddress": "0x2759A615eF0f0888d70c70d5AAA0Eb22AA7Fa7F6",
      "function": "createFungibleType(uint256,string)",
      "arguments": [
        "4",
        "https://ipfs.io/ipfs/QmPd3dW1GdemiXM5GcCJe68ykUqGBmG1Q3XshTwzT5zDfJ/4"
      ],
      "transaction": {
        "type": "0x02",
        "from": "0x42c7ef198f8ac9888e2b1b73e5b71f1d4535194a",
        "to": "0x2759a615ef0f0888d70c70d5aaa0eb22aa7fa7f6",
        "gas": "0x26c78",
        "value": "0x0",
        "data": "0x21f9577700000000000000000000000000000000000000000000000000000000000000040000000000000000000000000000000000000000000000000000000000000040000000000000000000000000000000000000000000000000000000000000004568747470733a2f2f697066732e696f2f697066732f516d5064336457314764656d69584d354763434a653638796b557147426d4731513358736854777a54357a44664a2f34000000000000000000000000000000000000000000000000000000",
        "nonce": "0x4e",
        "accessList": []
      },
      "additionalContracts": [],
      "isFixedGasLimit": false
    }
  ],
  "receipts": [],
  "libraries": [],
  "pending": [
    "0xe69da7fe19454f23777560238df01aaffe4d6038804f2cfc99ad791aa4147880",
    "0x43a1743e991d60453af7ba1a4f31088ad964c43a5621e1e30025047a0c3ca6d1",
    "0xd61b5ebd1b33da6d721d5b87e9cf4fec02450f107fa9ea118dc1ef253dc0f171",
    "0x7eee878040386b6ba4f875c5fba7cbfefbdc74fb0480dcba9148f9e0c9d9ef2e",
    "0x61e621e07cd8406ba033059f3893217ed6df8b0c2a089cf012f3e02a0c498bc7",
    "0x2e0610b6c26e75c6d4e11bc3fb1e21cf80d657d256477b822e94856f13c1a254"
  ],
  "returns": {},
  "timestamp": 1691615183,
  "chain": 11155111,
  "multi": false,
  "commit": "af42b49"
}