{
  "transactions": [
    {
      "hash": "0x589249ebfd47427209bfe808f81d12363fc7ebc62a8f5b621171a04eec4caf24",
      "transactionType": "CALL",
      "contractName": "ERC721CloneableTBA",
      "contractAddress": "0xE736e095ed70892f8dE175585A844CbBACe9F908",
      "function": "initialize(address,address,string,string,string,address)",
      "arguments": [
        "0x2D25602551487C3f3354dD80D76D54383A243358",
        "0x02101dfB77FDE026414827Fdc604ddAF224F0921",
        "Tronic Members",
        "TRON",
        "https://ipfs.io/ipfs/QmUkpx1WefuPkanLCb183WpcESf76TPwq3cks5TudvHyHh/",
        "0x42C7eF198f8aC9888E2B1b73e5B71f1D4535194A"
      ],
      "transaction": {
        "type": "0x02",
        "from": "0x42c7ef198f8ac9888e2b1b73e5b71f1d4535194a",
        "to": "0xe736e095ed70892f8de175585a844cbbace9f908",
        "gas": "0x5c349",
        "value": "0x0",
        "data": "0x45237f1c0000000000000000000000002d25602551487c3f3354dd80d76d54383a24335800000000000000000000000002101dfb77fde026414827fdc604ddaf224f092100000000000000000000000000000000000000000000000000000000000000c00000000000000000000000000000000000000000000000000000000000000100000000000000000000000000000000000000000000000000000000000000014000000000000000000000000042c7ef198f8ac9888e2b1b73e5b71f1d4535194a000000000000000000000000000000000000000000000000000000000000000e54726f6e6963204d656d62657273000000000000000000000000000000000000000000000000000000000000000000000000000000000000000000000000000454524f4e00000000000000000000000000000000000000000000000000000000000000000000000000000000000000000000000000000000000000000000004468747470733a2f2f697066732e696f2f697066732f516d556b70783157656675506b616e4c436231383357706345536637365450777133636b733554756476487948682f00000000000000000000000000000000000000000000000000000000",
        "nonce": "0x70",
        "accessList": []
      },
      "additionalContracts": [],
      "isFixedGasLimit": false
    },
    {
      "hash": "0xd2c535f73cb0d9bb038e8836be5e106ed8a91bec619cdfb22c9220fe0d5043c2",
      "transactionType": "CALL",
      "contractName": "ERC1155Cloneable",
      "contractAddress": "0x11d885A98df5bd883B37cBcC405006459D476781",
      "function": "initialize(string,address,string,string)",
      "arguments": [
        "https://ipfs.io/ipfs/QmPd3dW1GdemiXM5GcCJe68ykUqGBmG1Q3XshTwzT5zDfJ/",
        "0x42C7eF198f8aC9888E2B1b73e5B71f1D4535194A",
        "Tronic Rewards",
        "TRONIC"
      ],
      "transaction": {
        "type": "0x02",
        "from": "0x42c7ef198f8ac9888e2b1b73e5b71f1d4535194a",
        "to": "0x11d885a98df5bd883b37cbcc405006459d476781",
        "gas": "0x51890",
        "value": "0x0",
        "data": "0x75fe6882000000000000000000000000000000000000000000000000000000000000008000000000000000000000000042c7ef198f8ac9888e2b1b73e5b71f1d4535194a00000000000000000000000000000000000000000000000000000000000001000000000000000000000000000000000000000000000000000000000000000140000000000000000000000000000000000000000000000000000000000000004468747470733a2f2f697066732e696f2f697066732f516d5064336457314764656d69584d354763434a653638796b557147426d4731513358736854777a54357a44664a2f00000000000000000000000000000000000000000000000000000000000000000000000000000000000000000000000000000000000000000000000e54726f6e69632052657761726473000000000000000000000000000000000000000000000000000000000000000000000000000000000000000000000000000654524f4e49430000000000000000000000000000000000000000000000000000",
        "nonce": "0x71",
        "accessList": []
      },
      "additionalContracts": [],
      "isFixedGasLimit": false
    },
    {
      "hash": "0x41e22b487a68539d6cf54a2b5944dc3c57ddf73a279f3f37996db535c3a8c297",
      "transactionType": "CALL",
      "contractName": "ERC1155Cloneable",
      "contractAddress": "0x11d885A98df5bd883B37cBcC405006459D476781",
      "function": "createFungibleType(uint64,string):(uint256)",
      "arguments": [
        "1000000",
        "https://ipfs.io/ipfs/QmPd3dW1GdemiXM5GcCJe68ykUqGBmG1Q3XshTwzT5zDfJ/1"
      ],
      "transaction": {
        "type": "0x02",
        "from": "0x42c7ef198f8ac9888e2b1b73e5b71f1d4535194a",
        "to": "0x11d885a98df5bd883b37cbcc405006459d476781",
        "gas": "0x38fbf",
        "value": "0x0",
        "data": "0x2dfb9ff000000000000000000000000000000000000000000000000000000000000f42400000000000000000000000000000000000000000000000000000000000000040000000000000000000000000000000000000000000000000000000000000004568747470733a2f2f697066732e696f2f697066732f516d5064336457314764656d69584d354763434a653638796b557147426d4731513358736854777a54357a44664a2f31000000000000000000000000000000000000000000000000000000",
        "nonce": "0x72",
        "accessList": []
      },
      "additionalContracts": [],
      "isFixedGasLimit": false
    },
    {
      "hash": "0x4b7f6ec0676132b633e7d195a27c2a3a44b9144826ff078b26df2267c5254586",
      "transactionType": "CALL",
      "contractName": "ERC1155Cloneable",
      "contractAddress": "0x11d885A98df5bd883B37cBcC405006459D476781",
      "function": "createFungibleType(uint64,string):(uint256)",
      "arguments": [
        "500000",
        "https://ipfs.io/ipfs/QmPd3dW1GdemiXM5GcCJe68ykUqGBmG1Q3XshTwzT5zDfJ/2"
      ],
      "transaction": {
        "type": "0x02",
        "from": "0x42c7ef198f8ac9888e2b1b73e5b71f1d4535194a",
        "to": "0x11d885a98df5bd883b37cbcc405006459d476781",
        "gas": "0x300d4",
        "value": "0x0",
        "data": "0x2dfb9ff0000000000000000000000000000000000000000000000000000000000007a1200000000000000000000000000000000000000000000000000000000000000040000000000000000000000000000000000000000000000000000000000000004568747470733a2f2f697066732e696f2f697066732f516d5064336457314764656d69584d354763434a653638796b557147426d4731513358736854777a54357a44664a2f32000000000000000000000000000000000000000000000000000000",
        "nonce": "0x73",
        "accessList": []
      },
      "additionalContracts": [],
      "isFixedGasLimit": false
    },
    {
      "hash": "0x8a07009fc2cf6186d9f4ae03b222c24c4e5a1457ced52adf1c60e6bf2f0ff340",
      "transactionType": "CALL",
      "contractName": "ERC1155Cloneable",
      "contractAddress": "0x11d885A98df5bd883B37cBcC405006459D476781",
      "function": "createFungibleType(uint64,string):(uint256)",
      "arguments": [
        "250000",
        "https://ipfs.io/ipfs/QmPd3dW1GdemiXM5GcCJe68ykUqGBmG1Q3XshTwzT5zDfJ/3"
      ],
      "transaction": {
        "type": "0x02",
        "from": "0x42c7ef198f8ac9888e2b1b73e5b71f1d4535194a",
        "to": "0x11d885a98df5bd883b37cbcc405006459d476781",
        "gas": "0x300d4",
        "value": "0x0",
        "data": "0x2dfb9ff0000000000000000000000000000000000000000000000000000000000003d0900000000000000000000000000000000000000000000000000000000000000040000000000000000000000000000000000000000000000000000000000000004568747470733a2f2f697066732e696f2f697066732f516d5064336457314764656d69584d354763434a653638796b557147426d4731513358736854777a54357a44664a2f33000000000000000000000000000000000000000000000000000000",
        "nonce": "0x74",
        "accessList": []
      },
      "additionalContracts": [],
      "isFixedGasLimit": false
    },
    {
      "hash": "0xba49116817daef33e033e7ea5d89a227924a8c8d298bb8300e831b5693648c10",
      "transactionType": "CALL",
      "contractName": "ERC1155Cloneable",
      "contractAddress": "0x11d885A98df5bd883B37cBcC405006459D476781",
      "function": "createFungibleType(uint64,string):(uint256)",
      "arguments": [
        "125000",
        "https://ipfs.io/ipfs/QmPd3dW1GdemiXM5GcCJe68ykUqGBmG1Q3XshTwzT5zDfJ/4"
      ],
      "transaction": {
        "type": "0x02",
        "from": "0x42c7ef198f8ac9888e2b1b73e5b71f1d4535194a",
        "to": "0x11d885a98df5bd883b37cbcc405006459d476781",
        "gas": "0x300d4",
        "value": "0x0",
        "data": "0x2dfb9ff0000000000000000000000000000000000000000000000000000000000001e8480000000000000000000000000000000000000000000000000000000000000040000000000000000000000000000000000000000000000000000000000000004568747470733a2f2f697066732e696f2f697066732f516d5064336457314764656d69584d354763434a653638796b557147426d4731513358736854777a54357a44664a2f34000000000000000000000000000000000000000000000000000000",
        "nonce": "0x75",
        "accessList": []
      },
      "additionalContracts": [],
      "isFixedGasLimit": false
    }
  ],
  "receipts": [
    {
      "transactionHash": "0x589249ebfd47427209bfe808f81d12363fc7ebc62a8f5b621171a04eec4caf24",
      "transactionIndex": "0xc",
      "blockHash": "0x358fff5082dd9c7520d361f65a0803865a799c502dbde31f6f3413ccb09099f4",
      "blockNumber": "0x4019f7",
      "from": "0x42C7eF198f8aC9888E2B1b73e5B71f1D4535194A",
      "to": "0xE736e095ed70892f8dE175585A844CbBACe9F908",
      "cumulativeGasUsed": "0x196f42",
      "gasUsed": "0x42c15",
      "contractAddress": null,
      "logs": [
        {
          "address": "0xE736e095ed70892f8dE175585A844CbBACe9F908",
          "topics": [
            "0xc7f505b2f371ae2175ee4913f4499e1f2633a7b5936321eed1cdaeb6115181d2"
          ],
          "data": "0x0000000000000000000000000000000000000000000000000000000000000001",
          "blockHash": "0x358fff5082dd9c7520d361f65a0803865a799c502dbde31f6f3413ccb09099f4",
          "blockNumber": "0x4019f7",
          "transactionHash": "0x589249ebfd47427209bfe808f81d12363fc7ebc62a8f5b621171a04eec4caf24",
          "transactionIndex": "0xc",
          "logIndex": "0xa",
          "removed": false
        }
      ],
      "status": "0x1",
      "logsBloom": "0x00000000000000000000000000000000000000000000000000000000000000000000000000000000000000000000000000000000000000000100000000000000000000000000000000000000000000000000000000000000000000000000000000000000000000000000000000000000000000000000000000000000000000000000000000000000000800000000000000000000000088000000000000000000000000000000000000000000000000000000000000000000000000001000000000000000000000000000000000000000000000000004000000000000000000000000000000000000000000000000000000000000000000000000000000000000",
      "type": "0x2",
      "effectiveGasPrice": "0x1994f0241"
    },
    {
      "transactionHash": "0xd2c535f73cb0d9bb038e8836be5e106ed8a91bec619cdfb22c9220fe0d5043c2",
      "transactionIndex": "0xd",
      "blockHash": "0x358fff5082dd9c7520d361f65a0803865a799c502dbde31f6f3413ccb09099f4",
      "blockNumber": "0x4019f7",
      "from": "0x42C7eF198f8aC9888E2B1b73e5B71f1D4535194A",
      "to": "0x11d885A98df5bd883B37cBcC405006459D476781",
      "cumulativeGasUsed": "0x1ceb45",
      "gasUsed": "0x37c03",
      "contractAddress": null,
      "logs": [
        {
          "address": "0x11d885A98df5bd883B37cBcC405006459D476781",
          "topics": [
            "0xc7f505b2f371ae2175ee4913f4499e1f2633a7b5936321eed1cdaeb6115181d2"
          ],
          "data": "0x0000000000000000000000000000000000000000000000000000000000000001",
          "blockHash": "0x358fff5082dd9c7520d361f65a0803865a799c502dbde31f6f3413ccb09099f4",
          "blockNumber": "0x4019f7",
          "transactionHash": "0xd2c535f73cb0d9bb038e8836be5e106ed8a91bec619cdfb22c9220fe0d5043c2",
          "transactionIndex": "0xd",
          "logIndex": "0xb",
          "removed": false
        }
      ],
      "status": "0x1",
      "logsBloom": "0x00000000000000000000000000000000000000000000000000000000000000000000000000000000000000000002000000000000000000000000000000000000000000000000000000000000000000000000000000000000000000000000000000000000000000000000000000000000000000000000000000000000000000000000000000000000000800000000000000000000000080000000000000000000000000000000000000000000000000000000000000000000000000000000000000000000000000000000000000000000000000000004000000000000000000000040001000000000000000000000000000000000000000000000000000000000",
      "type": "0x2",
      "effectiveGasPrice": "0x1994f0241"
    },
    {
      "transactionHash": "0x41e22b487a68539d6cf54a2b5944dc3c57ddf73a279f3f37996db535c3a8c297",
      "transactionIndex": "0xe",
      "blockHash": "0x358fff5082dd9c7520d361f65a0803865a799c502dbde31f6f3413ccb09099f4",
      "blockNumber": "0x4019f7",
      "from": "0x42C7eF198f8aC9888E2B1b73e5B71f1D4535194A",
      "to": "0x11d885A98df5bd883B37cBcC405006459D476781",
      "cumulativeGasUsed": "0x1f5ab0",
      "gasUsed": "0x26f6b",
      "contractAddress": null,
      "logs": [],
      "status": "0x1",
      "logsBloom": "0x00000000000000000000000000000000000000000000000000000000000000000000000000000000000000000000000000000000000000000000000000000000000000000000000000000000000000000000000000000000000000000000000000000000000000000000000000000000000000000000000000000000000000000000000000000000000000000000000000000000000000000000000000000000000000000000000000000000000000000000000000000000000000000000000000000000000000000000000000000000000000000000000000000000000000000000000000000000000000000000000000000000000000000000000000000000",
      "type": "0x2",
      "effectiveGasPrice": "0x1994f0241"
    },
    {
      "transactionHash": "0x4b7f6ec0676132b633e7d195a27c2a3a44b9144826ff078b26df2267c5254586",
      "transactionIndex": "0xf",
      "blockHash": "0x358fff5082dd9c7520d361f65a0803865a799c502dbde31f6f3413ccb09099f4",
      "blockNumber": "0x4019f7",
      "from": "0x42C7eF198f8aC9888E2B1b73e5B71f1D4535194A",
      "to": "0x11d885A98df5bd883B37cBcC405006459D476781",
      "cumulativeGasUsed": "0x21874f",
      "gasUsed": "0x22c9f",
      "contractAddress": null,
      "logs": [],
      "status": "0x1",
      "logsBloom": "0x00000000000000000000000000000000000000000000000000000000000000000000000000000000000000000000000000000000000000000000000000000000000000000000000000000000000000000000000000000000000000000000000000000000000000000000000000000000000000000000000000000000000000000000000000000000000000000000000000000000000000000000000000000000000000000000000000000000000000000000000000000000000000000000000000000000000000000000000000000000000000000000000000000000000000000000000000000000000000000000000000000000000000000000000000000000",
      "type": "0x2",
      "effectiveGasPrice": "0x1994f0241"
    },
    {
      "transactionHash": "0x8a07009fc2cf6186d9f4ae03b222c24c4e5a1457ced52adf1c60e6bf2f0ff340",
      "transactionIndex": "0x10",
      "blockHash": "0x358fff5082dd9c7520d361f65a0803865a799c502dbde31f6f3413ccb09099f4",
      "blockNumber": "0x4019f7",
      "from": "0x42C7eF198f8aC9888E2B1b73e5B71f1D4535194A",
      "to": "0x11d885A98df5bd883B37cBcC405006459D476781",
      "cumulativeGasUsed": "0x23b3ee",
      "gasUsed": "0x22c9f",
      "contractAddress": null,
      "logs": [],
      "status": "0x1",
      "logsBloom": "0x00000000000000000000000000000000000000000000000000000000000000000000000000000000000000000000000000000000000000000000000000000000000000000000000000000000000000000000000000000000000000000000000000000000000000000000000000000000000000000000000000000000000000000000000000000000000000000000000000000000000000000000000000000000000000000000000000000000000000000000000000000000000000000000000000000000000000000000000000000000000000000000000000000000000000000000000000000000000000000000000000000000000000000000000000000000",
      "type": "0x2",
      "effectiveGasPrice": "0x1994f0241"
    },
    {
      "transactionHash": "0xba49116817daef33e033e7ea5d89a227924a8c8d298bb8300e831b5693648c10",
      "transactionIndex": "0x11",
      "blockHash": "0x358fff5082dd9c7520d361f65a0803865a799c502dbde31f6f3413ccb09099f4",
      "blockNumber": "0x4019f7",
      "from": "0x42C7eF198f8aC9888E2B1b73e5B71f1D4535194A",
      "to": "0x11d885A98df5bd883B37cBcC405006459D476781",
      "cumulativeGasUsed": "0x25e08d",
      "gasUsed": "0x22c9f",
      "contractAddress": null,
      "logs": [],
      "status": "0x1",
      "logsBloom": "0x00000000000000000000000000000000000000000000000000000000000000000000000000000000000000000000000000000000000000000000000000000000000000000000000000000000000000000000000000000000000000000000000000000000000000000000000000000000000000000000000000000000000000000000000000000000000000000000000000000000000000000000000000000000000000000000000000000000000000000000000000000000000000000000000000000000000000000000000000000000000000000000000000000000000000000000000000000000000000000000000000000000000000000000000000000000",
      "type": "0x2",
      "effectiveGasPrice": "0x1994f0241"
    }
  ],
  "libraries": [],
  "pending": [],
  "returns": {},
  "timestamp": 1693529173,
  "chain": 11155111,
  "multi": false,
  "commit": "11bdc2c"
}