{
  "transactions": [
    {
      "hash": "0xba4ebf27ce4dd17eb54d73fada54ffe9ff7abd1bae7db9522dd5491598544835",
      "transactionType": "CALL",
      "contractName": "CloneFactory",
      "contractAddress": "0x8Cd4382eFC7A2033dc69d6A45406620dECe2bc71",
      "function": "cloneERC1155(string,address,string,string):(address)",
      "arguments": [
        "https://ipfs.io/ipfs/QmdFRfXc7gmqYv61ywsFdWkUuVktccZ1jkH8eNUBsyCBPf/",
        "0x42C7eF198f8aC9888E2B1b73e5B71f1D4535194A",
        "Project X Clone ERC1155",
        "PX1155"
      ],
      "transaction": {
        "type": "0x02",
        "from": "0x42c7ef198f8ac9888e2b1b73e5b71f1d4535194a",
        "to": "0x8cd4382efc7a2033dc69d6a45406620dece2bc71",
        "gas": "0x66c5c",
        "value": "0x0",
        "data": "0xc2ff6fd2000000000000000000000000000000000000000000000000000000000000008000000000000000000000000042c7ef198f8ac9888e2b1b73e5b71f1d4535194a00000000000000000000000000000000000000000000000000000000000001000000000000000000000000000000000000000000000000000000000000000140000000000000000000000000000000000000000000000000000000000000004468747470733a2f2f697066732e696f2f697066732f516d64465266586337676d71597636317977734664576b5575566b7463635a316a6b4838654e55427379434250662f00000000000000000000000000000000000000000000000000000000000000000000000000000000000000000000000000000000000000000000001750726f6a656374205820436c6f6e65204552433131353500000000000000000000000000000000000000000000000000000000000000000000000000000000065058313135350000000000000000000000000000000000000000000000000000",
        "nonce": "0xe0",
        "accessList": []
      },
      "additionalContracts": [
        {
          "transactionType": "CREATE",
          "address": "0x197179FD63926FfD46F874F9561E2af34549DeeD",
          "initCode": "3d602d80600a3d3981f3363d3d373d3d3d363d736e2a39419e786d7543922fdf75c1fe05d4f32c0f5af43d82803e903d91602b57fd5bf3"
        }
      ],
      "isFixedGasLimit": false
    },
    {
      "hash": "0xb84aee24964fe5e746fdd978437822812c804b80b9b345f85cbbcb594e2ef792",
      "transactionType": "CALL",
      "contractName": null,
      "contractAddress": "0x197179FD63926FfD46F874F9561E2af34549DeeD",
      "function": "createFungibleType(uint256,string)",
      "arguments": [
        "1",
        "https://ipfs.io/ipfs/QmdFRfXc7gmqYv61ywsFdWkUuVktccZ1jkH8eNUBsyCBPf/1"
      ],
      "transaction": {
        "type": "0x02",
        "from": "0x42c7ef198f8ac9888e2b1b73e5b71f1d4535194a",
        "to": "0x197179fd63926ffd46f874f9561e2af34549deed",
        "gas": "0x2a063",
        "value": "0x0",
        "data": "0x21f9577700000000000000000000000000000000000000000000000000000000000000010000000000000000000000000000000000000000000000000000000000000040000000000000000000000000000000000000000000000000000000000000004568747470733a2f2f697066732e696f2f697066732f516d64465266586337676d71597636317977734664576b5575566b7463635a316a6b4838654e55427379434250662f31000000000000000000000000000000000000000000000000000000",
        "nonce": "0xe1",
        "accessList": []
      },
      "additionalContracts": [],
      "isFixedGasLimit": false
    },
    {
      "hash": "0xd0300c7a188d72d3e1b2de78e5140d7a666001bea225edbb2c0a1487ef39e8cc",
      "transactionType": "CALL",
      "contractName": null,
      "contractAddress": "0x197179FD63926FfD46F874F9561E2af34549DeeD",
      "function": "createFungibleType(uint256,string)",
      "arguments": [
        "2",
        "https://ipfs.io/ipfs/QmdFRfXc7gmqYv61ywsFdWkUuVktccZ1jkH8eNUBsyCBPf/2"
      ],
      "transaction": {
        "type": "0x02",
        "from": "0x42c7ef198f8ac9888e2b1b73e5b71f1d4535194a",
        "to": "0x197179fd63926ffd46f874f9561e2af34549deed",
        "gas": "0x2a063",
        "value": "0x0",
        "data": "0x21f9577700000000000000000000000000000000000000000000000000000000000000020000000000000000000000000000000000000000000000000000000000000040000000000000000000000000000000000000000000000000000000000000004568747470733a2f2f697066732e696f2f697066732f516d64465266586337676d71597636317977734664576b5575566b7463635a316a6b4838654e55427379434250662f32000000000000000000000000000000000000000000000000000000",
        "nonce": "0xe2",
        "accessList": []
      },
      "additionalContracts": [],
      "isFixedGasLimit": false
    },
    {
      "hash": "0x4f739a8cb7c4e58a7f43673c6f3ccc0c00867cf5a94a0c6d41c4201bbec72561",
      "transactionType": "CALL",
      "contractName": null,
      "contractAddress": "0x197179FD63926FfD46F874F9561E2af34549DeeD",
      "function": "createFungibleType(uint256,string)",
      "arguments": [
        "3",
        "https://ipfs.io/ipfs/QmdFRfXc7gmqYv61ywsFdWkUuVktccZ1jkH8eNUBsyCBPf/3"
      ],
      "transaction": {
        "type": "0x02",
        "from": "0x42c7ef198f8ac9888e2b1b73e5b71f1d4535194a",
        "to": "0x197179fd63926ffd46f874f9561e2af34549deed",
        "gas": "0x2a063",
        "value": "0x0",
        "data": "0x21f9577700000000000000000000000000000000000000000000000000000000000000030000000000000000000000000000000000000000000000000000000000000040000000000000000000000000000000000000000000000000000000000000004568747470733a2f2f697066732e696f2f697066732f516d64465266586337676d71597636317977734664576b5575566b7463635a316a6b4838654e55427379434250662f33000000000000000000000000000000000000000000000000000000",
        "nonce": "0xe3",
        "accessList": []
      },
      "additionalContracts": [],
      "isFixedGasLimit": false
    }
  ],
  "receipts": [
    {
      "transactionHash": "0xba4ebf27ce4dd17eb54d73fada54ffe9ff7abd1bae7db9522dd5491598544835",
      "transactionIndex": "0x4",
      "blockHash": "0x31561a89dd92bef2946c39966bcb5967558f4a3fec4b346c3d4eacff85777ad7",
      "blockNumber": "0x907814",
      "from": "0x42C7eF198f8aC9888E2B1b73e5B71f1D4535194A",
      "to": "0x8Cd4382eFC7A2033dc69d6A45406620dECe2bc71",
      "cumulativeGasUsed": "0xd10ff",
      "gasUsed": "0x4a682",
      "contractAddress": null,
      "logs": [
        {
          "address": "0x197179FD63926FfD46F874F9561E2af34549DeeD",
          "topics": [
            "0x7f26b83ff96e1f2b6a682f133852f6798a09c465da95921460cefb3847402498"
          ],
          "data": "0x0000000000000000000000000000000000000000000000000000000000000001",
          "blockHash": "0x31561a89dd92bef2946c39966bcb5967558f4a3fec4b346c3d4eacff85777ad7",
          "blockNumber": "0x907814",
          "transactionHash": "0xba4ebf27ce4dd17eb54d73fada54ffe9ff7abd1bae7db9522dd5491598544835",
          "transactionIndex": "0x4",
          "logIndex": "0x8",
          "removed": false
        },
        {
          "address": "0x8Cd4382eFC7A2033dc69d6A45406620dECe2bc71",
          "topics": [
            "0x3de89afa7ff3be26a41aef997a053b6c635a410036dbe09cbc2394014f034e3a"
          ],
          "data": "0x000000000000000000000000197179fd63926ffd46f874f9561e2af34549deed0000000000000000000000000000000000000000000000000000000000000040000000000000000000000000000000000000000000000000000000000000004468747470733a2f2f697066732e696f2f697066732f516d64465266586337676d71597636317977734664576b5575566b7463635a316a6b4838654e55427379434250662f00000000000000000000000000000000000000000000000000000000",
          "blockHash": "0x31561a89dd92bef2946c39966bcb5967558f4a3fec4b346c3d4eacff85777ad7",
          "blockNumber": "0x907814",
          "transactionHash": "0xba4ebf27ce4dd17eb54d73fada54ffe9ff7abd1bae7db9522dd5491598544835",
          "transactionIndex": "0x4",
          "logIndex": "0x9",
          "removed": false
        }
      ],
      "status": "0x1",
      "logsBloom": "0x00000000000000000000000000000000000000000000000000000000000000000000000000000000000010000001000000000000000000000000000000000010000000000000000000000000000000000000000000000000000000000100000000000000000000000000000000000000000000000000000000000000000000000000000000000000000000000000000000000000000080000004000000000000000000000004000000000000000400000000000000000000000000000000000001000000000000000000000000040000000000000000000000000000000000000000000000000000000000000000000000000000000000020000080000000000",
      "type": "0x2",
      "effectiveGasPrice": "0xb2d05e1a"
    },
    {
      "transactionHash": "0xb84aee24964fe5e746fdd978437822812c804b80b9b345f85cbbcb594e2ef792",
      "transactionIndex": "0x5",
      "blockHash": "0x31561a89dd92bef2946c39966bcb5967558f4a3fec4b346c3d4eacff85777ad7",
      "blockNumber": "0x907814",
      "from": "0x42C7eF198f8aC9888E2B1b73e5B71f1D4535194A",
      "to": "0x197179FD63926FfD46F874F9561E2af34549DeeD",
      "cumulativeGasUsed": "0xedcc0",
      "gasUsed": "0x1cbc1",
      "contractAddress": null,
      "logs": [],
      "status": "0x1",
      "logsBloom": "0x00000000000000000000000000000000000000000000000000000000000000000000000000000000000000000000000000000000000000000000000000000000000000000000000000000000000000000000000000000000000000000000000000000000000000000000000000000000000000000000000000000000000000000000000000000000000000000000000000000000000000000000000000000000000000000000000000000000000000000000000000000000000000000000000000000000000000000000000000000000000000000000000000000000000000000000000000000000000000000000000000000000000000000000000000000000",
      "type": "0x2",
      "effectiveGasPrice": "0xb2d05e1a"
    },
    {
      "transactionHash": "0xd0300c7a188d72d3e1b2de78e5140d7a666001bea225edbb2c0a1487ef39e8cc",
      "transactionIndex": "0x6",
      "blockHash": "0x31561a89dd92bef2946c39966bcb5967558f4a3fec4b346c3d4eacff85777ad7",
      "blockNumber": "0x907814",
      "from": "0x42C7eF198f8aC9888E2B1b73e5B71f1D4535194A",
      "to": "0x197179FD63926FfD46F874F9561E2af34549DeeD",
      "cumulativeGasUsed": "0x10a881",
      "gasUsed": "0x1cbc1",
      "contractAddress": null,
      "logs": [],
      "status": "0x1",
      "logsBloom": "0x00000000000000000000000000000000000000000000000000000000000000000000000000000000000000000000000000000000000000000000000000000000000000000000000000000000000000000000000000000000000000000000000000000000000000000000000000000000000000000000000000000000000000000000000000000000000000000000000000000000000000000000000000000000000000000000000000000000000000000000000000000000000000000000000000000000000000000000000000000000000000000000000000000000000000000000000000000000000000000000000000000000000000000000000000000000",
      "type": "0x2",
      "effectiveGasPrice": "0xb2d05e1a"
    },
    {
      "transactionHash": "0x4f739a8cb7c4e58a7f43673c6f3ccc0c00867cf5a94a0c6d41c4201bbec72561",
      "transactionIndex": "0x7",
      "blockHash": "0x31561a89dd92bef2946c39966bcb5967558f4a3fec4b346c3d4eacff85777ad7",
      "blockNumber": "0x907814",
      "from": "0x42C7eF198f8aC9888E2B1b73e5B71f1D4535194A",
      "to": "0x197179FD63926FfD46F874F9561E2af34549DeeD",
      "cumulativeGasUsed": "0x127442",
      "gasUsed": "0x1cbc1",
      "contractAddress": null,
      "logs": [],
      "status": "0x1",
      "logsBloom": "0x00000000000000000000000000000000000000000000000000000000000000000000000000000000000000000000000000000000000000000000000000000000000000000000000000000000000000000000000000000000000000000000000000000000000000000000000000000000000000000000000000000000000000000000000000000000000000000000000000000000000000000000000000000000000000000000000000000000000000000000000000000000000000000000000000000000000000000000000000000000000000000000000000000000000000000000000000000000000000000000000000000000000000000000000000000000",
      "type": "0x2",
      "effectiveGasPrice": "0xb2d05e1a"
    }
  ],
  "libraries": [],
  "pending": [],
  "returns": {},
  "timestamp": 1691259514,
  "chain": 5,
  "multi": false,
  "commit": "e1e2596"
}