{
  "transactions": [
    {
      "hash": "0x6bea0c6be743dab8a475bd19ca64c75b8606bfd400fd56e5aa473338fa4315ec",
      "transactionType": "CALL",
      "contractName": "ERC721CloneableTBA",
      "contractAddress": "0xFe7c64f016A6bD0D83e39D3382541b3d4058Ad15",
      "function": "mint(address,uint256):(address)",
      "arguments": [
        "0x42C7eF198f8aC9888E2B1b73e5B71f1D4535194A",
        "2"
      ],
      "transaction": {
        "type": "0x02",
        "from": "0x42c7ef198f8ac9888e2b1b73e5b71f1d4535194a",
        "to": "0xfe7c64f016a6bd0d83e39d3382541b3d4058ad15",
        "gas": "0x4d572",
        "value": "0x0",
        "data": "0x40c10f1900000000000000000000000042c7ef198f8ac9888e2b1b73e5b71f1d4535194a0000000000000000000000000000000000000000000000000000000000000002",
        "nonce": "0x44",
        "accessList": []
      },
      "additionalContracts": [
        {
          "transactionType": "CREATE2",
          "address": "0xea2340b709Df34102aa66873412E1a18a596e71E",
          "initCode": "3d60ad80600a3d3981f3363d3d373d3d3d363d732d25602551487c3f3354dd80d76d54383a2433585af43d82803e903d91602b57fd5bf300000000000000000000000000000000000000000000000000000000000000000000000000000000000000000000000000000000000000000000000000aa36a7000000000000000000000000fe7c64f016a6bd0d83e39d3382541b3d4058ad150000000000000000000000000000000000000000000000000000000000000002"
        }
      ],
      "isFixedGasLimit": false
    }
  ],
  "receipts": [
    {
      "transactionHash": "0x6bea0c6be743dab8a475bd19ca64c75b8606bfd400fd56e5aa473338fa4315ec",
      "transactionIndex": "0x3",
      "blockHash": "0xac4c20655b1807bf353e8f17217b49414594e795df4569310628d57fccc52e17",
      "blockNumber": "0x3de93e",
      "from": "0x42C7eF198f8aC9888E2B1b73e5B71f1D4535194A",
      "to": "0xFe7c64f016A6bD0D83e39D3382541b3d4058Ad15",
      "cumulativeGasUsed": "0x9a505",
      "gasUsed": "0x37ff0",
      "contractAddress": null,
      "logs": [
        {
          "address": "0x02101dfB77FDE026414827Fdc604ddAF224F0921",
          "topics": [
            "0x07fba7bba1191da7ee1155dcfa0030701c9c9a9cc34a93b991fc6fd0c9268d8f"
          ],
          "data": "0x000000000000000000000000ea2340b709df34102aa66873412e1a18a596e71e0000000000000000000000002d25602551487c3f3354dd80d76d54383a2433580000000000000000000000000000000000000000000000000000000000aa36a7000000000000000000000000fe7c64f016a6bd0d83e39d3382541b3d4058ad1500000000000000000000000000000000000000000000000000000000000000020000000000000000000000000000000000000000000000000000000000000000",
          "blockHash": "0xac4c20655b1807bf353e8f17217b49414594e795df4569310628d57fccc52e17",
          "blockNumber": "0x3de93e",
          "transactionHash": "0x6bea0c6be743dab8a475bd19ca64c75b8606bfd400fd56e5aa473338fa4315ec",
          "transactionIndex": "0x3",
          "logIndex": "0x1",
          "removed": false
        },
        {
          "address": "0xFe7c64f016A6bD0D83e39D3382541b3d4058Ad15",
          "topics": [
            "0xddf252ad1be2c89b69c2b068fc378daa952ba7f163c4a11628f55a4df523b3ef",
            "0x0000000000000000000000000000000000000000000000000000000000000000",
            "0x00000000000000000000000042c7ef198f8ac9888e2b1b73e5b71f1d4535194a",
            "0x0000000000000000000000000000000000000000000000000000000000000002"
          ],
          "data": "0x",
          "blockHash": "0xac4c20655b1807bf353e8f17217b49414594e795df4569310628d57fccc52e17",
          "blockNumber": "0x3de93e",
          "transactionHash": "0x6bea0c6be743dab8a475bd19ca64c75b8606bfd400fd56e5aa473338fa4315ec",
          "transactionIndex": "0x3",
          "logIndex": "0x2",
          "removed": false
        }
      ],
      "status": "0x1",
      "logsBloom": "0x04000000000000000000000000000000000040000000000000000000000000000000000000000000000000000000000000000000000000000000000000000002000000000000000100000008000000000000000000000000000000100000800000000000020000000000000000000800000000000000000000000010000000000000000000000000000000000200000000000000000000000000000000000000000000000000000000800100000000000000000000000000000000000000000000000002000000000000000000000000000000000000000000080000000020000000001000000000000000000400000000000000008000000000002000000000",
      "type": "0x2",
      "effectiveGasPrice": "0xbe55430e"
    }
  ],
  "libraries": [],
  "pending": [],
  "returns": {},
  "timestamp": 1691613844,
  "chain": 11155111,
  "multi": false,
  "commit": "af42b49"
}