{
  "transactions": [
    {
      "hash": "0x76c35fcab02159f1f98a2b9af2376fe5d32040e4bf4908e655ab6d8abf90d306",
      "transactionType": "CALL",
      "contractName": "TronicMembership",
      "contractAddress": "0x4fc90cca78D6971be88E444DF9e58376BcFe9663",
      "function": "mint(address):(address)",
      "arguments": [
        "0x42C7eF198f8aC9888E2B1b73e5B71f1D4535194A"
      ],
      "transaction": {
        "type": "0x02",
        "from": "0x42c7ef198f8ac9888e2b1b73e5b71f1d4535194a",
        "to": "0x4fc90cca78d6971be88e444df9e58376bcfe9663",
        "gas": "0x5db6c",
        "value": "0x0",
        "data": "0x6a62784200000000000000000000000042c7ef198f8ac9888e2b1b73e5b71f1d4535194a",
        "nonce": "0xa7",
        "accessList": []
      },
      "additionalContracts": [
        {
          "transactionType": "CREATE2",
          "address": "0x09422CabAcCecf7b9670575Cb0425a519A713A97",
          "initCode": "0x3d60ad80600a3d3981f3363d3d373d3d3d363d732d25602551487c3f3354dd80d76d54383a2433585af43d82803e903d91602b57fd5bf300000000000000000000000000000000000000000000000000000000000000000000000000000000000000000000000000000000000000000000000000aa36a70000000000000000000000004fc90cca78d6971be88e444df9e58376bcfe96630000000000000000000000000000000000000000000000000000000000000001"
        }
      ],
      "isFixedGasLimit": false
    },
    {
      "hash": "0x7e8c3e0e55b1e213da75eb00385623ef51847c57b9a98907ca938f9129f5c0f5",
      "transactionType": "CALL",
      "contractName": "TronicToken",
      "contractAddress": "0x99C5A36f52aeD8c554Ff752D5b48ae506F29C6b1",
      "function": "mintFungible(address,uint256,uint64)",
      "arguments": [
        "0x09422CabAcCecf7b9670575Cb0425a519A713A97",
        "1",
        "1000"
      ],
      "transaction": {
        "type": "0x02",
        "from": "0x42c7ef198f8ac9888e2b1b73e5b71f1d4535194a",
        "to": "0x99c5a36f52aed8c554ff752d5b48ae506f29c6b1",
        "gas": "0x1f2e9",
        "value": "0x0",
        "data": "0x6dcb111d00000000000000000000000009422cabaccecf7b9670575cb0425a519a713a97000000000000000000000000000000000000000000000000000000000000000100000000000000000000000000000000000000000000000000000000000003e8",
        "nonce": "0xa8",
        "accessList": []
      },
      "additionalContracts": [],
      "isFixedGasLimit": false
    }
  ],
  "receipts": [
    {
      "transactionHash": "0x76c35fcab02159f1f98a2b9af2376fe5d32040e4bf4908e655ab6d8abf90d306",
      "transactionIndex": "0x0",
      "blockHash": "0xd078c4b789cf1b15e48547474439e12a255729a9385f39e19aec38c5d1d8e0a3",
      "blockNumber": "0x40c4fa",
      "from": "0x42C7eF198f8aC9888E2B1b73e5B71f1D4535194A",
      "to": "0x4fc90cca78D6971be88E444DF9e58376BcFe9663",
      "cumulativeGasUsed": "0x43d9b",
      "gasUsed": "0x43d9b",
      "contractAddress": null,
      "logs": [
        {
          "address": "0x02101dfB77FDE026414827Fdc604ddAF224F0921",
          "topics": [
            "0x07fba7bba1191da7ee1155dcfa0030701c9c9a9cc34a93b991fc6fd0c9268d8f"
          ],
          "data": "0x00000000000000000000000009422cabaccecf7b9670575cb0425a519a713a970000000000000000000000002d25602551487c3f3354dd80d76d54383a2433580000000000000000000000000000000000000000000000000000000000aa36a70000000000000000000000004fc90cca78d6971be88e444df9e58376bcfe966300000000000000000000000000000000000000000000000000000000000000010000000000000000000000000000000000000000000000000000000000000000",
          "blockHash": "0xd078c4b789cf1b15e48547474439e12a255729a9385f39e19aec38c5d1d8e0a3",
          "blockNumber": "0x40c4fa",
          "transactionHash": "0x76c35fcab02159f1f98a2b9af2376fe5d32040e4bf4908e655ab6d8abf90d306",
          "transactionIndex": "0x0",
          "logIndex": "0x0",
          "removed": false
        },
        {
          "address": "0x09422CabAcCecf7b9670575Cb0425a519A713A97",
          "topics": [
            "0xbc7cd75a20ee27fd9adebab32041f755214dbc6bffa90cc0225b39da2e5c2d3b",
            "0x0000000000000000000000001a0e97dae78590b7e967e725a5c848ed034f5510"
          ],
          "data": "0x",
          "blockHash": "0xd078c4b789cf1b15e48547474439e12a255729a9385f39e19aec38c5d1d8e0a3",
          "blockNumber": "0x40c4fa",
          "transactionHash": "0x76c35fcab02159f1f98a2b9af2376fe5d32040e4bf4908e655ab6d8abf90d306",
          "transactionIndex": "0x0",
          "logIndex": "0x1",
          "removed": false
        },
        {
          "address": "0x4fc90cca78D6971be88E444DF9e58376BcFe9663",
          "topics": [
            "0xddf252ad1be2c89b69c2b068fc378daa952ba7f163c4a11628f55a4df523b3ef",
            "0x0000000000000000000000000000000000000000000000000000000000000000",
            "0x00000000000000000000000042c7ef198f8ac9888e2b1b73e5b71f1d4535194a",
            "0x0000000000000000000000000000000000000000000000000000000000000001"
          ],
          "data": "0x",
          "blockHash": "0xd078c4b789cf1b15e48547474439e12a255729a9385f39e19aec38c5d1d8e0a3",
          "blockNumber": "0x40c4fa",
          "transactionHash": "0x76c35fcab02159f1f98a2b9af2376fe5d32040e4bf4908e655ab6d8abf90d306",
          "transactionIndex": "0x0",
          "logIndex": "0x2",
          "removed": false
        }
      ],
      "status": "0x1",
      "logsBloom": "0x00000000000000000000000000000000400000000020000000000000000000000000000000000000000000000000000000001000000000000000000000040002000000000000000100000008000002000000000000040000000000000000800000000000020000000000000000000800000000000000000000000010008000000000000008000040000000000200000000000000000000000000000000000000000200000000000400800000000000000000000000000000000000000000000000000022000000000000000000000000000000000000000000080040000060000000001000000000000000000400000001000000000000000000002000000000",
      "type": "0x2",
      "effectiveGasPrice": "0xb2d05e0a"
    },
    {
      "transactionHash": "0x7e8c3e0e55b1e213da75eb00385623ef51847c57b9a98907ca938f9129f5c0f5",
      "transactionIndex": "0x1",
      "blockHash": "0xd078c4b789cf1b15e48547474439e12a255729a9385f39e19aec38c5d1d8e0a3",
      "blockNumber": "0x40c4fa",
      "from": "0x42C7eF198f8aC9888E2B1b73e5B71f1D4535194A",
      "to": "0x99C5A36f52aeD8c554Ff752D5b48ae506F29C6b1",
      "cumulativeGasUsed": "0x592be",
      "gasUsed": "0x15523",
      "contractAddress": null,
      "logs": [
        {
          "address": "0x99C5A36f52aeD8c554Ff752D5b48ae506F29C6b1",
          "topics": [
            "0xc3d58168c5ae7397731d063d5bbf3d657854427343f4c083240f7aacaa2d0f62",
            "0x00000000000000000000000042c7ef198f8ac9888e2b1b73e5b71f1d4535194a",
            "0x0000000000000000000000000000000000000000000000000000000000000000",
            "0x00000000000000000000000009422cabaccecf7b9670575cb0425a519a713a97"
          ],
          "data": "0x000000000000000000000000000000000000000000000000000000000000000100000000000000000000000000000000000000000000000000000000000003e8",
          "blockHash": "0xd078c4b789cf1b15e48547474439e12a255729a9385f39e19aec38c5d1d8e0a3",
          "blockNumber": "0x40c4fa",
          "transactionHash": "0x7e8c3e0e55b1e213da75eb00385623ef51847c57b9a98907ca938f9129f5c0f5",
          "transactionIndex": "0x1",
          "logIndex": "0x3",
          "removed": false
        }
      ],
      "status": "0x1",
      "logsBloom": "0x00000000000000000000000000000000000000000000000000000000000000000400000000000000000000000000000000000000000000200000000000002000000000000000000100000000000000000000000000000000000000000200000000000000020000000000000000000800000000000000000000000000000000000000000000000000000000000000000000000000000000000000000000000000000008000000000000800000000000000000000000000000000000000000000010000000000000000000000000000000000000000008000000000000000020000040000000000000000000000400000000000000000000000000080000000000",
      "type": "0x2",
      "effectiveGasPrice": "0xb2d05e0a"
    }
  ],
  "libraries": [],
  "pending": [],
  "returns": {},
  "timestamp": 1694135651,
  "chain": 11155111,
  "multi": false,
  "commit": "78fda7f"
}