{
  "transactions": [
    {
      "hash": "0xfb88a4f48a6256d25ce9ffb7ceae5e7012b02884cda8325db0868f6cf6772d17",
      "transactionType": "CALL",
      "contractName": "ERC721CloneableTBA",
      "contractAddress": "0x381BE1c4765AEe02Fc3cC86c700Ab1c4a30fc7c9",
      "function": "mint(address,uint256):(address)",
      "arguments": [
        "0x42C7eF198f8aC9888E2B1b73e5B71f1D4535194A",
        "1"
      ],
      "transaction": {
        "type": "0x02",
        "from": "0x42c7ef198f8ac9888e2b1b73e5b71f1d4535194a",
        "to": "0x381be1c4765aee02fc3cc86c700ab1c4a30fc7c9",
        "gas": "0x4fe2f",
        "value": "0x0",
        "data": "0x40c10f1900000000000000000000000042c7ef198f8ac9888e2b1b73e5b71f1d4535194a0000000000000000000000000000000000000000000000000000000000000001",
        "nonce": "0xf",
        "accessList": []
      },
      "additionalContracts": [
        {
          "transactionType": "CREATE2",
          "address": "0x9BD63Cb55B822785Cdc6aF5704f20425255C0c60",
          "initCode": "3d60ad80600a3d3981f3363d3d373d3d3d363d731a0e97dae78590b7e967e725a5c848ed034f55105af43d82803e903d91602b57fd5bf300000000000000000000000000000000000000000000000000000000000000000000000000000000000000000000000000000000000000000000000000aa36a7000000000000000000000000381be1c4765aee02fc3cc86c700ab1c4a30fc7c90000000000000000000000000000000000000000000000000000000000000001"
        }
      ],
      "isFixedGasLimit": false
    }
  ],
  "receipts": [
    {
      "transactionHash": "0xfb88a4f48a6256d25ce9ffb7ceae5e7012b02884cda8325db0868f6cf6772d17",
      "transactionIndex": "0x3",
      "blockHash": "0x2b30b65b8f5f6aa2f76f409ba349803cd63f99a8821b19451a9d203b28f238d5",
      "blockNumber": "0x3dc991",
      "from": "0x42C7eF198f8aC9888E2B1b73e5B71f1D4535194A",
      "to": "0x381BE1c4765AEe02Fc3cC86c700Ab1c4a30fc7c9",
      "cumulativeGasUsed": "0xb4855",
      "gasUsed": "0x36a05",
      "contractAddress": null,
      "logs": [
        {
          "address": "0x02101dfB77FDE026414827Fdc604ddAF224F0921",
          "topics": [
            "0x07fba7bba1191da7ee1155dcfa0030701c9c9a9cc34a93b991fc6fd0c9268d8f"
          ],
          "data": "0x0000000000000000000000009bd63cb55b822785cdc6af5704f20425255c0c600000000000000000000000001a0e97dae78590b7e967e725a5c848ed034f55100000000000000000000000000000000000000000000000000000000000aa36a7000000000000000000000000381be1c4765aee02fc3cc86c700ab1c4a30fc7c900000000000000000000000000000000000000000000000000000000000000010000000000000000000000000000000000000000000000000000000000000000",
          "blockHash": "0x2b30b65b8f5f6aa2f76f409ba349803cd63f99a8821b19451a9d203b28f238d5",
          "blockNumber": "0x3dc991",
          "transactionHash": "0xfb88a4f48a6256d25ce9ffb7ceae5e7012b02884cda8325db0868f6cf6772d17",
          "transactionIndex": "0x3",
          "logIndex": "0x6",
          "removed": false
        },
        {
          "address": "0x381BE1c4765AEe02Fc3cC86c700Ab1c4a30fc7c9",
          "topics": [
            "0xddf252ad1be2c89b69c2b068fc378daa952ba7f163c4a11628f55a4df523b3ef",
            "0x0000000000000000000000000000000000000000000000000000000000000000",
            "0x00000000000000000000000042c7ef198f8ac9888e2b1b73e5b71f1d4535194a",
            "0x0000000000000000000000000000000000000000000000000000000000000001"
          ],
          "data": "0x",
          "blockHash": "0x2b30b65b8f5f6aa2f76f409ba349803cd63f99a8821b19451a9d203b28f238d5",
          "blockNumber": "0x3dc991",
          "transactionHash": "0xfb88a4f48a6256d25ce9ffb7ceae5e7012b02884cda8325db0868f6cf6772d17",
          "transactionIndex": "0x3",
          "logIndex": "0x7",
          "removed": false
        }
      ],
      "status": "0x1",
      "logsBloom": "0x00000000000000000000000000000000000000000000000000000000000000000000000000000000000000000000000000000000000000000000000000040002000000000000000100000008000000000000000000040000000000000000800000000000020000000000000000000800000000000000000000000010000000000000000000000000000000000200000000000020000000080000000000000000000000000000000000800000000000000000000000000000000000000000000000000002000000000000000000000000000000000000000000080000000062000000001000000000000000000400000000000000000000000000002000000000",
      "type": "0x2",
      "effectiveGasPrice": "0xbc5bd870"
    }
  ],
  "libraries": [],
  "pending": [],
  "returns": {},
  "timestamp": 1691506874,
  "chain": 11155111,
  "multi": false,
  "commit": "c4f8c93"
}