{
  "transactions": [
    {
      "hash": "0x621a112468f6de06bcc156e82ee736a25ef2b80858f6844c04955c7969f6162d",
      "transactionType": "CALL",
      "contractName": "ERC721CloneableTBA",
      "contractAddress": "0xC1CB9608d159112c6A95e6a4d896B2Ba9f966705",
      "function": "mint(address,uint256):(address)",
      "arguments": [
        "0x42C7eF198f8aC9888E2B1b73e5B71f1D4535194A",
        "1"
      ],
      "transaction": {
        "type": "0x02",
        "from": "0x42c7ef198f8ac9888e2b1b73e5b71f1d4535194a",
        "to": "0xc1cb9608d159112c6a95e6a4d896b2ba9f966705",
        "gas": "0x5a858",
        "value": "0x0",
        "data": "0x40c10f1900000000000000000000000042c7ef198f8ac9888e2b1b73e5b71f1d4535194a0000000000000000000000000000000000000000000000000000000000000001",
        "nonce": "0x89",
        "accessList": []
      },
      "additionalContracts": [
        {
          "transactionType": "CREATE2",
          "address": "0x23aec166d19e8a11390445479267D7e07D550A66",
          "initCode": "0x3d60ad80600a3d3981f3363d3d373d3d3d363d732d25602551487c3f3354dd80d76d54383a2433585af43d82803e903d91602b57fd5bf300000000000000000000000000000000000000000000000000000000000000000000000000000000000000000000000000000000000000000000000000aa36a7000000000000000000000000c1cb9608d159112c6a95e6a4d896b2ba9f9667050000000000000000000000000000000000000000000000000000000000000001"
        }
      ],
      "isFixedGasLimit": false
    },
    {
      "hash": "0x40daed36e8b80990376b2a3f0dcf7ab9fef76c9cdbbd42b0bb2206215e2194e3",
      "transactionType": "CALL",
      "contractName": "ERC1155Cloneable",
      "contractAddress": "0xEAB7a1e6244Ca96A537823be249B3b7bEfF4117F",
      "function": "mintFungible(address,uint256,uint64)",
      "arguments": [
        "0x23aec166d19e8a11390445479267D7e07D550A66",
        "1",
        "1000"
      ],
      "transaction": {
        "type": "0x02",
        "from": "0x42c7ef198f8ac9888e2b1b73e5b71f1d4535194a",
        "to": "0xeab7a1e6244ca96a537823be249b3b7beff4117f",
        "gas": "0x1d711",
        "value": "0x0",
        "data": "0x6dcb111d00000000000000000000000023aec166d19e8a11390445479267d7e07d550a66000000000000000000000000000000000000000000000000000000000000000100000000000000000000000000000000000000000000000000000000000003e8",
        "nonce": "0x8a",
        "accessList": []
      },
      "additionalContracts": [],
      "isFixedGasLimit": false
    }
  ],
  "receipts": [],
  "libraries": [],
  "pending": [
    "0x621a112468f6de06bcc156e82ee736a25ef2b80858f6844c04955c7969f6162d",
    "0x40daed36e8b80990376b2a3f0dcf7ab9fef76c9cdbbd42b0bb2206215e2194e3"
  ],
  "returns": {},
  "timestamp": 1693545896,
  "chain": 11155111,
  "multi": false,
  "commit": "11bdc2c"
}