{
  "transactions": [
    {
      "hash": "0x208f3c4a45decf21349a0694903d8f24de158d4ebd65d224ef60f1a28bdcca08",
      "transactionType": "CALL",
      "contractName": "ERC721CloneableTBA",
      "contractAddress": "0xFe7c64f016A6bD0D83e39D3382541b3d4058Ad15",
      "function": "mint(address,uint256):(address)",
      "arguments": [
        "0x42C7eF198f8aC9888E2B1b73e5B71f1D4535194A",
        "1"
      ],
      "transaction": {
        "type": "0x02",
        "from": "0x42c7ef198f8ac9888e2b1b73e5b71f1d4535194a",
        "to": "0xfe7c64f016a6bd0d83e39d3382541b3d4058ad15",
        "gas": "0x4b73b",
        "value": "0x0",
        "data": "0x40c10f1900000000000000000000000042c7ef198f8ac9888e2b1b73e5b71f1d4535194a0000000000000000000000000000000000000000000000000000000000000001",
        "nonce": "0x37",
        "accessList": []
      },
      "additionalContracts": [
        {
          "transactionType": "CREATE2",
          "address": "0x92a4148F4d957f4A6753AC143D32B5AF390214b3",
          "initCode": "3d60ad80600a3d3981f3363d3d373d3d3d363d732d25602551487c3f3354dd80d76d54383a2433585af43d82803e903d91602b57fd5bf300000000000000000000000000000000000000000000000000000000000000000000000000000000000000000000000000000000000000000000000000aa36a7000000000000000000000000fe7c64f016a6bd0d83e39d3382541b3d4058ad150000000000000000000000000000000000000000000000000000000000000001"
        }
      ],
      "isFixedGasLimit": false
    }
  ],
  "receipts": [],
  "libraries": [],
  "pending": [
    "0x208f3c4a45decf21349a0694903d8f24de158d4ebd65d224ef60f1a28bdcca08"
  ],
  "returns": {},
  "timestamp": 1691512721,
  "chain": 11155111,
  "multi": false,
  "commit": "b6d6374"
}