{
  "transactions": [
    {
      "hash": "0x26e536d6abcb356c6abc860ed0b0693dddf7e88f011d07f127a3d1a136654ab7",
      "transactionType": "CALL",
      "contractName": "ERC721CloneableTBA",
      "contractAddress": "0x90247B092feFf3AaB77dE4C9a232c983100c3b84",
      "function": "mint(address,uint256):(address)",
      "arguments": [
        "0x42C7eF198f8aC9888E2B1b73e5B71f1D4535194A",
        "1"
      ],
      "transaction": {
        "type": "0x02",
        "from": "0x42c7ef198f8ac9888e2b1b73e5b71f1d4535194a",
        "to": "0x90247b092feff3aab77de4c9a232c983100c3b84",
        "gas": "0x557ae",
        "value": "0x0",
        "data": "0x40c10f1900000000000000000000000042c7ef198f8ac9888e2b1b73e5b71f1d4535194a0000000000000000000000000000000000000000000000000000000000000001",
        "nonce": "0x59",
        "accessList": []
      },
      "additionalContracts": [
        {
          "transactionType": "CREATE2",
          "address": "0x7618Ce5062b153306284B7267E66526Bf8DBB497",
          "initCode": "3d60ad80600a3d3981f3363d3d373d3d3d363d732d25602551487c3f3354dd80d76d54383a2433585af43d82803e903d91602b57fd5bf300000000000000000000000000000000000000000000000000000000000000000000000000000000000000000000000000000000000000000000000000aa36a700000000000000000000000090247b092feff3aab77de4c9a232c983100c3b840000000000000000000000000000000000000000000000000000000000000001"
        }
      ],
      "isFixedGasLimit": false
    },
    {
      "hash": "0xaa47f670996dea01702d457e4d1b03dc63036a04ce16377eb48475962776ec7a",
      "transactionType": "CALL",
      "contractName": "ERC1155Cloneable",
      "contractAddress": "0x2759A615eF0f0888d70c70d5AAA0Eb22AA7Fa7F6",
      "function": "mintFungible(address,uint256,uint256)",
      "arguments": [
        "0x7618Ce5062b153306284B7267E66526Bf8DBB497",
        "1",
        "1000"
      ],
      "transaction": {
        "type": "0x02",
        "from": "0x42c7ef198f8ac9888e2b1b73e5b71f1d4535194a",
        "to": "0x2759a615ef0f0888d70c70d5aaa0eb22aa7fa7f6",
        "gas": "0x188cb",
        "value": "0x0",
        "data": "0x58ea82e60000000000000000000000007618ce5062b153306284b7267e66526bf8dbb497000000000000000000000000000000000000000000000000000000000000000100000000000000000000000000000000000000000000000000000000000003e8",
        "nonce": "0x5a",
        "accessList": []
      },
      "additionalContracts": [],
      "isFixedGasLimit": false
    }
  ],
  "receipts": [
    {
      "transactionHash": "0x26e536d6abcb356c6abc860ed0b0693dddf7e88f011d07f127a3d1a136654ab7",
      "transactionIndex": "0x1",
      "blockHash": "0x2e3d2a9a9a02504ea140857d9d2c153e3135bc091a5f2095e534787ecba3e969",
      "blockNumber": "0x3de9ce",
      "from": "0x42C7eF198f8aC9888E2B1b73e5B71f1D4535194A",
      "to": "0x90247B092feFf3AaB77dE4C9a232c983100c3b84",
      "cumulativeGasUsed": "0x5b83b",
      "gasUsed": "0x3de3a",
      "contractAddress": null,
      "logs": [
        {
          "address": "0x02101dfB77FDE026414827Fdc604ddAF224F0921",
          "topics": [
            "0x07fba7bba1191da7ee1155dcfa0030701c9c9a9cc34a93b991fc6fd0c9268d8f"
          ],
          "data": "0x0000000000000000000000007618ce5062b153306284b7267e66526bf8dbb4970000000000000000000000002d25602551487c3f3354dd80d76d54383a2433580000000000000000000000000000000000000000000000000000000000aa36a700000000000000000000000090247b092feff3aab77de4c9a232c983100c3b8400000000000000000000000000000000000000000000000000000000000000010000000000000000000000000000000000000000000000000000000000000000",
          "blockHash": "0x2e3d2a9a9a02504ea140857d9d2c153e3135bc091a5f2095e534787ecba3e969",
          "blockNumber": "0x3de9ce",
          "transactionHash": "0x26e536d6abcb356c6abc860ed0b0693dddf7e88f011d07f127a3d1a136654ab7",
          "transactionIndex": "0x1",
          "logIndex": "0x3",
          "removed": false
        },
        {
          "address": "0x7618Ce5062b153306284B7267E66526Bf8DBB497",
          "topics": [
            "0xbc7cd75a20ee27fd9adebab32041f755214dbc6bffa90cc0225b39da2e5c2d3b",
            "0x0000000000000000000000001a0e97dae78590b7e967e725a5c848ed034f5510"
          ],
          "data": "0x",
          "blockHash": "0x2e3d2a9a9a02504ea140857d9d2c153e3135bc091a5f2095e534787ecba3e969",
          "blockNumber": "0x3de9ce",
          "transactionHash": "0x26e536d6abcb356c6abc860ed0b0693dddf7e88f011d07f127a3d1a136654ab7",
          "transactionIndex": "0x1",
          "logIndex": "0x4",
          "removed": false
        },
        {
          "address": "0x90247B092feFf3AaB77dE4C9a232c983100c3b84",
          "topics": [
            "0xddf252ad1be2c89b69c2b068fc378daa952ba7f163c4a11628f55a4df523b3ef",
            "0x0000000000000000000000000000000000000000000000000000000000000000",
            "0x00000000000000000000000042c7ef198f8ac9888e2b1b73e5b71f1d4535194a",
            "0x0000000000000000000000000000000000000000000000000000000000000001"
          ],
          "data": "0x",
          "blockHash": "0x2e3d2a9a9a02504ea140857d9d2c153e3135bc091a5f2095e534787ecba3e969",
          "blockNumber": "0x3de9ce",
          "transactionHash": "0x26e536d6abcb356c6abc860ed0b0693dddf7e88f011d07f127a3d1a136654ab7",
          "transactionIndex": "0x1",
          "logIndex": "0x5",
          "removed": false
        }
      ],
      "status": "0x1",
      "logsBloom": "0x000000000000000000000000000000004000000000200000000000000000000000000000000000000000000000000000000010000400000000000000000400020000000000000005000000080000020200000008000400000000000000008000000000000200000000000000000008000000000000000000000000100080000000000000000000000000000002000000000000000000000000000000000000000000000000000000008000000000000000000000000000000000000000000000000000220000000000000000000000000000000000000000000a0000000060000000001000000000000000000400000000000000000000000000002000000000",
      "type": "0x2",
      "effectiveGasPrice": "0xbfd13174"
    },
    {
      "transactionHash": "0xaa47f670996dea01702d457e4d1b03dc63036a04ce16377eb48475962776ec7a",
      "transactionIndex": "0x2",
      "blockHash": "0x2e3d2a9a9a02504ea140857d9d2c153e3135bc091a5f2095e534787ecba3e969",
      "blockNumber": "0x3de9ce",
      "from": "0x42C7eF198f8aC9888E2B1b73e5B71f1D4535194A",
      "to": "0x2759A615eF0f0888d70c70d5AAA0Eb22AA7Fa7F6",
      "cumulativeGasUsed": "0x6d49b",
      "gasUsed": "0x11c60",
      "contractAddress": null,
      "logs": [
        {
          "address": "0x2759A615eF0f0888d70c70d5AAA0Eb22AA7Fa7F6",
          "topics": [
            "0xc3d58168c5ae7397731d063d5bbf3d657854427343f4c083240f7aacaa2d0f62",
            "0x00000000000000000000000042c7ef198f8ac9888e2b1b73e5b71f1d4535194a",
            "0x0000000000000000000000000000000000000000000000000000000000000000",
            "0x0000000000000000000000007618ce5062b153306284b7267e66526bf8dbb497"
          ],
          "data": "0x000000000000000000000000000000000000000000000000000000000000000100000000000000000000000000000000000000000000000000000000000003e8",
          "blockHash": "0x2e3d2a9a9a02504ea140857d9d2c153e3135bc091a5f2095e534787ecba3e969",
          "blockNumber": "0x3de9ce",
          "transactionHash": "0xaa47f670996dea01702d457e4d1b03dc63036a04ce16377eb48475962776ec7a",
          "transactionIndex": "0x2",
          "logIndex": "0x6",
          "removed": false
        }
      ],
      "status": "0x1",
      "logsBloom": "0x00000000000000000000000000000000000000000000000000000000000000000000000000000000000000000000000000000000000000800000000000002000000000000000000100000000000000000000000000000000000000000000000000000000020080000000000000000800000000000000000000000000200000000000000000000000000000000000000000000000000000000000000800000000000000004000000000800000000000000000000000000000000000000000000000000000000000000000000000000000000000001008000000000000000020000000000000000000000000000400000000000000000000000000080000000000",
      "type": "0x2",
      "effectiveGasPrice": "0xbfd13174"
    }
  ],
  "libraries": [],
  "pending": [],
  "returns": {},
  "timestamp": 1691615778,
  "chain": 11155111,
  "multi": false,
  "commit": "af42b49"
}