{
  "transactions": [
    {
      "hash": "0xfb88a4f48a6256d25ce9ffb7ceae5e7012b02884cda8325db0868f6cf6772d17",
      "transactionType": "CALL",
      "contractName": "ERC721CloneableTBA",
      "contractAddress": "0x381BE1c4765AEe02Fc3cC86c700Ab1c4a30fc7c9",
      "function": "mint(address,uint256):(address)",
      "arguments": [
        "0x42C7eF198f8aC9888E2B1b73e5B71f1D4535194A",
        "1"
      ],
      "transaction": {
        "type": "0x02",
        "from": "0x42c7ef198f8ac9888e2b1b73e5b71f1d4535194a",
        "to": "0x381be1c4765aee02fc3cc86c700ab1c4a30fc7c9",
        "gas": "0x4fe2f",
        "value": "0x0",
        "data": "0x40c10f1900000000000000000000000042c7ef198f8ac9888e2b1b73e5b71f1d4535194a0000000000000000000000000000000000000000000000000000000000000001",
        "nonce": "0xf",
        "accessList": []
      },
      "additionalContracts": [
        {
          "transactionType": "CREATE2",
          "address": "0x9BD63Cb55B822785Cdc6aF5704f20425255C0c60",
          "initCode": "3d60ad80600a3d3981f3363d3d373d3d3d363d731a0e97dae78590b7e967e725a5c848ed034f55105af43d82803e903d91602b57fd5bf300000000000000000000000000000000000000000000000000000000000000000000000000000000000000000000000000000000000000000000000000aa36a7000000000000000000000000381be1c4765aee02fc3cc86c700ab1c4a30fc7c90000000000000000000000000000000000000000000000000000000000000001"
        }
      ],
      "isFixedGasLimit": false
    }
  ],
  "receipts": [],
  "libraries": [],
  "pending": [
    "0xfb88a4f48a6256d25ce9ffb7ceae5e7012b02884cda8325db0868f6cf6772d17"
  ],
  "returns": {},
  "timestamp": 1691506862,
  "chain": 11155111,
  "multi": false,
  "commit": "c4f8c93"
}