{
  "transactions": [
    {
      "hash": "0x26e536d6abcb356c6abc860ed0b0693dddf7e88f011d07f127a3d1a136654ab7",
      "transactionType": "CALL",
      "contractName": "ERC721CloneableTBA",
      "contractAddress": "0x90247B092feFf3AaB77dE4C9a232c983100c3b84",
      "function": "mint(address,uint256):(address)",
      "arguments": [
        "0x42C7eF198f8aC9888E2B1b73e5B71f1D4535194A",
        "1"
      ],
      "transaction": {
        "type": "0x02",
        "from": "0x42c7ef198f8ac9888e2b1b73e5b71f1d4535194a",
        "to": "0x90247b092feff3aab77de4c9a232c983100c3b84",
        "gas": "0x557ae",
        "value": "0x0",
        "data": "0x40c10f1900000000000000000000000042c7ef198f8ac9888e2b1b73e5b71f1d4535194a0000000000000000000000000000000000000000000000000000000000000001",
        "nonce": "0x59",
        "accessList": []
      },
      "additionalContracts": [
        {
          "transactionType": "CREATE2",
          "address": "0x7618Ce5062b153306284B7267E66526Bf8DBB497",
          "initCode": "3d60ad80600a3d3981f3363d3d373d3d3d363d732d25602551487c3f3354dd80d76d54383a2433585af43d82803e903d91602b57fd5bf300000000000000000000000000000000000000000000000000000000000000000000000000000000000000000000000000000000000000000000000000aa36a700000000000000000000000090247b092feff3aab77de4c9a232c983100c3b840000000000000000000000000000000000000000000000000000000000000001"
        }
      ],
      "isFixedGasLimit": false
    },
    {
      "hash": "0xaa47f670996dea01702d457e4d1b03dc63036a04ce16377eb48475962776ec7a",
      "transactionType": "CALL",
      "contractName": "ERC1155Cloneable",
      "contractAddress": "0x2759A615eF0f0888d70c70d5AAA0Eb22AA7Fa7F6",
      "function": "mintFungible(address,uint256,uint256)",
      "arguments": [
        "0x7618Ce5062b153306284B7267E66526Bf8DBB497",
        "1",
        "1000"
      ],
      "transaction": {
        "type": "0x02",
        "from": "0x42c7ef198f8ac9888e2b1b73e5b71f1d4535194a",
        "to": "0x2759a615ef0f0888d70c70d5aaa0eb22aa7fa7f6",
        "gas": "0x188cb",
        "value": "0x0",
        "data": "0x58ea82e60000000000000000000000007618ce5062b153306284b7267e66526bf8dbb497000000000000000000000000000000000000000000000000000000000000000100000000000000000000000000000000000000000000000000000000000003e8",
        "nonce": "0x5a",
        "accessList": []
      },
      "additionalContracts": [],
      "isFixedGasLimit": false
    }
  ],
  "receipts": [],
  "libraries": [],
  "pending": [
    "0x26e536d6abcb356c6abc860ed0b0693dddf7e88f011d07f127a3d1a136654ab7",
    "0xaa47f670996dea01702d457e4d1b03dc63036a04ce16377eb48475962776ec7a"
  ],
  "returns": {},
  "timestamp": 1691615759,
  "chain": 11155111,
  "multi": false,
  "commit": "af42b49"
}