{
  "transactions": [
    {
      "hash": "0x208f3c4a45decf21349a0694903d8f24de158d4ebd65d224ef60f1a28bdcca08",
      "transactionType": "CALL",
      "contractName": "ERC721CloneableTBA",
      "contractAddress": "0xFe7c64f016A6bD0D83e39D3382541b3d4058Ad15",
      "function": "mint(address,uint256):(address)",
      "arguments": [
        "0x42C7eF198f8aC9888E2B1b73e5B71f1D4535194A",
        "1"
      ],
      "transaction": {
        "type": "0x02",
        "from": "0x42c7ef198f8ac9888e2b1b73e5b71f1d4535194a",
        "to": "0xfe7c64f016a6bd0d83e39d3382541b3d4058ad15",
        "gas": "0x4b73b",
        "value": "0x0",
        "data": "0x40c10f1900000000000000000000000042c7ef198f8ac9888e2b1b73e5b71f1d4535194a0000000000000000000000000000000000000000000000000000000000000001",
        "nonce": "0x37",
        "accessList": []
      },
      "additionalContracts": [
        {
          "transactionType": "CREATE2",
          "address": "0x92a4148F4d957f4A6753AC143D32B5AF390214b3",
          "initCode": "3d60ad80600a3d3981f3363d3d373d3d3d363d732d25602551487c3f3354dd80d76d54383a2433585af43d82803e903d91602b57fd5bf300000000000000000000000000000000000000000000000000000000000000000000000000000000000000000000000000000000000000000000000000aa36a7000000000000000000000000fe7c64f016a6bd0d83e39d3382541b3d4058ad150000000000000000000000000000000000000000000000000000000000000001"
        }
      ],
      "isFixedGasLimit": false
    }
  ],
  "receipts": [
    {
      "transactionHash": "0x208f3c4a45decf21349a0694903d8f24de158d4ebd65d224ef60f1a28bdcca08",
      "transactionIndex": "0x3",
      "blockHash": "0xf5df305cff999910c0eef145e9f678eb592d4be05631dd64cc2c78a5eabae0da",
      "blockNumber": "0x3dcb4f",
      "from": "0x42C7eF198f8aC9888E2B1b73e5B71f1D4535194A",
      "to": "0xFe7c64f016A6bD0D83e39D3382541b3d4058Ad15",
      "cumulativeGasUsed": "0x7ef40",
      "gasUsed": "0x36a10",
      "contractAddress": null,
      "logs": [
        {
          "address": "0x02101dfB77FDE026414827Fdc604ddAF224F0921",
          "topics": [
            "0x07fba7bba1191da7ee1155dcfa0030701c9c9a9cc34a93b991fc6fd0c9268d8f"
          ],
          "data": "0x00000000000000000000000092a4148f4d957f4a6753ac143d32b5af390214b30000000000000000000000002d25602551487c3f3354dd80d76d54383a2433580000000000000000000000000000000000000000000000000000000000aa36a7000000000000000000000000fe7c64f016a6bd0d83e39d3382541b3d4058ad1500000000000000000000000000000000000000000000000000000000000000010000000000000000000000000000000000000000000000000000000000000000",
          "blockHash": "0xf5df305cff999910c0eef145e9f678eb592d4be05631dd64cc2c78a5eabae0da",
          "blockNumber": "0x3dcb4f",
          "transactionHash": "0x208f3c4a45decf21349a0694903d8f24de158d4ebd65d224ef60f1a28bdcca08",
          "transactionIndex": "0x3",
          "logIndex": "0x1",
          "removed": false
        },
        {
          "address": "0xFe7c64f016A6bD0D83e39D3382541b3d4058Ad15",
          "topics": [
            "0xddf252ad1be2c89b69c2b068fc378daa952ba7f163c4a11628f55a4df523b3ef",
            "0x0000000000000000000000000000000000000000000000000000000000000000",
            "0x00000000000000000000000042c7ef198f8ac9888e2b1b73e5b71f1d4535194a",
            "0x0000000000000000000000000000000000000000000000000000000000000001"
          ],
          "data": "0x",
          "blockHash": "0xf5df305cff999910c0eef145e9f678eb592d4be05631dd64cc2c78a5eabae0da",
          "blockNumber": "0x3dcb4f",
          "transactionHash": "0x208f3c4a45decf21349a0694903d8f24de158d4ebd65d224ef60f1a28bdcca08",
          "transactionIndex": "0x3",
          "logIndex": "0x2",
          "removed": false
        }
      ],
      "status": "0x1",
      "logsBloom": "0x00000000000000000000000000000000000040000000000000000000000000000000000000000000000000000000000000000000000000000000000000040002000000000000000100000008000000000000000000040000000000100000800000000000020000000000000000000800000000000000000000000010000000000000000000000000000000000200000000000000000000000000000000000000000000000000000000800000000000000000000000000000000000000000000000000002000000000000000000000000000000000000000000080000000060000000001000000000000000000400000000000000000000000000002000000000",
      "type": "0x2",
      "effectiveGasPrice": "0xbeb799fc"
    }
  ],
  "libraries": [],
  "pending": [],
  "returns": {},
  "timestamp": 1691512733,
  "chain": 11155111,
  "multi": false,
  "commit": "b6d6374"
}