{
  "transactions": [
    {
      "hash": "0x6bea0c6be743dab8a475bd19ca64c75b8606bfd400fd56e5aa473338fa4315ec",
      "transactionType": "CALL",
      "contractName": "ERC721CloneableTBA",
      "contractAddress": "0xFe7c64f016A6bD0D83e39D3382541b3d4058Ad15",
      "function": "mint(address,uint256):(address)",
      "arguments": [
        "0x42C7eF198f8aC9888E2B1b73e5B71f1D4535194A",
        "2"
      ],
      "transaction": {
        "type": "0x02",
        "from": "0x42c7ef198f8ac9888e2b1b73e5b71f1d4535194a",
        "to": "0xfe7c64f016a6bd0d83e39d3382541b3d4058ad15",
        "gas": "0x4d572",
        "value": "0x0",
        "data": "0x40c10f1900000000000000000000000042c7ef198f8ac9888e2b1b73e5b71f1d4535194a0000000000000000000000000000000000000000000000000000000000000002",
        "nonce": "0x44",
        "accessList": []
      },
      "additionalContracts": [
        {
          "transactionType": "CREATE2",
          "address": "0xea2340b709Df34102aa66873412E1a18a596e71E",
          "initCode": "3d60ad80600a3d3981f3363d3d373d3d3d363d732d25602551487c3f3354dd80d76d54383a2433585af43d82803e903d91602b57fd5bf300000000000000000000000000000000000000000000000000000000000000000000000000000000000000000000000000000000000000000000000000aa36a7000000000000000000000000fe7c64f016a6bd0d83e39d3382541b3d4058ad150000000000000000000000000000000000000000000000000000000000000002"
        }
      ],
      "isFixedGasLimit": false
    }
  ],
  "receipts": [],
  "libraries": [],
  "pending": [
    "0x6bea0c6be743dab8a475bd19ca64c75b8606bfd400fd56e5aa473338fa4315ec"
  ],
  "returns": {},
  "timestamp": 1691613832,
  "chain": 11155111,
  "multi": false,
  "commit": "af42b49"
}