{
  "transactions": [
    {
      "hash": "0x621a112468f6de06bcc156e82ee736a25ef2b80858f6844c04955c7969f6162d",
      "transactionType": "CALL",
      "contractName": "ERC721CloneableTBA",
      "contractAddress": "0xC1CB9608d159112c6A95e6a4d896B2Ba9f966705",
      "function": "mint(address,uint256):(address)",
      "arguments": [
        "0x42C7eF198f8aC9888E2B1b73e5B71f1D4535194A",
        "1"
      ],
      "transaction": {
        "type": "0x02",
        "from": "0x42c7ef198f8ac9888e2b1b73e5b71f1d4535194a",
        "to": "0xc1cb9608d159112c6a95e6a4d896b2ba9f966705",
        "gas": "0x5a858",
        "value": "0x0",
        "data": "0x40c10f1900000000000000000000000042c7ef198f8ac9888e2b1b73e5b71f1d4535194a0000000000000000000000000000000000000000000000000000000000000001",
        "nonce": "0x89",
        "accessList": []
      },
      "additionalContracts": [
        {
          "transactionType": "CREATE2",
          "address": "0x23aec166d19e8a11390445479267D7e07D550A66",
          "initCode": "0x3d60ad80600a3d3981f3363d3d373d3d3d363d732d25602551487c3f3354dd80d76d54383a2433585af43d82803e903d91602b57fd5bf300000000000000000000000000000000000000000000000000000000000000000000000000000000000000000000000000000000000000000000000000aa36a7000000000000000000000000c1cb9608d159112c6a95e6a4d896b2ba9f9667050000000000000000000000000000000000000000000000000000000000000001"
        }
      ],
      "isFixedGasLimit": false
    },
    {
      "hash": "0x40daed36e8b80990376b2a3f0dcf7ab9fef76c9cdbbd42b0bb2206215e2194e3",
      "transactionType": "CALL",
      "contractName": "ERC1155Cloneable",
      "contractAddress": "0xEAB7a1e6244Ca96A537823be249B3b7bEfF4117F",
      "function": "mintFungible(address,uint256,uint64)",
      "arguments": [
        "0x23aec166d19e8a11390445479267D7e07D550A66",
        "1",
        "1000"
      ],
      "transaction": {
        "type": "0x02",
        "from": "0x42c7ef198f8ac9888e2b1b73e5b71f1d4535194a",
        "to": "0xeab7a1e6244ca96a537823be249b3b7beff4117f",
        "gas": "0x1d711",
        "value": "0x0",
        "data": "0x6dcb111d00000000000000000000000023aec166d19e8a11390445479267d7e07d550a66000000000000000000000000000000000000000000000000000000000000000100000000000000000000000000000000000000000000000000000000000003e8",
        "nonce": "0x8a",
        "accessList": []
      },
      "additionalContracts": [],
      "isFixedGasLimit": false
    }
  ],
  "receipts": [
    {
      "transactionHash": "0x621a112468f6de06bcc156e82ee736a25ef2b80858f6844c04955c7969f6162d",
      "transactionIndex": "0x9",
      "blockHash": "0xc418f65919c8617f74295a2e0ab9fbaa975ee0ad1be1a33e7f54f1327955706a",
      "blockNumber": "0x401edf",
      "from": "0x42C7eF198f8aC9888E2B1b73e5B71f1D4535194A",
      "to": "0xC1CB9608d159112c6A95e6a4d896B2Ba9f966705",
      "cumulativeGasUsed": "0x133307",
      "gasUsed": "0x3de5f",
      "contractAddress": null,
      "logs": [
        {
          "address": "0x02101dfB77FDE026414827Fdc604ddAF224F0921",
          "topics": [
            "0x07fba7bba1191da7ee1155dcfa0030701c9c9a9cc34a93b991fc6fd0c9268d8f"
          ],
          "data": "0x00000000000000000000000023aec166d19e8a11390445479267d7e07d550a660000000000000000000000002d25602551487c3f3354dd80d76d54383a2433580000000000000000000000000000000000000000000000000000000000aa36a7000000000000000000000000c1cb9608d159112c6a95e6a4d896b2ba9f96670500000000000000000000000000000000000000000000000000000000000000010000000000000000000000000000000000000000000000000000000000000000",
          "blockHash": "0xc418f65919c8617f74295a2e0ab9fbaa975ee0ad1be1a33e7f54f1327955706a",
          "blockNumber": "0x401edf",
          "transactionHash": "0x621a112468f6de06bcc156e82ee736a25ef2b80858f6844c04955c7969f6162d",
          "transactionIndex": "0x9",
          "logIndex": "0x3",
          "removed": false
        },
        {
          "address": "0x23aec166d19e8a11390445479267D7e07D550A66",
          "topics": [
            "0xbc7cd75a20ee27fd9adebab32041f755214dbc6bffa90cc0225b39da2e5c2d3b",
            "0x0000000000000000000000001a0e97dae78590b7e967e725a5c848ed034f5510"
          ],
          "data": "0x",
          "blockHash": "0xc418f65919c8617f74295a2e0ab9fbaa975ee0ad1be1a33e7f54f1327955706a",
          "blockNumber": "0x401edf",
          "transactionHash": "0x621a112468f6de06bcc156e82ee736a25ef2b80858f6844c04955c7969f6162d",
          "transactionIndex": "0x9",
          "logIndex": "0x4",
          "removed": false
        },
        {
          "address": "0xC1CB9608d159112c6A95e6a4d896B2Ba9f966705",
          "topics": [
            "0xddf252ad1be2c89b69c2b068fc378daa952ba7f163c4a11628f55a4df523b3ef",
            "0x0000000000000000000000000000000000000000000000000000000000000000",
            "0x00000000000000000000000042c7ef198f8ac9888e2b1b73e5b71f1d4535194a",
            "0x0000000000000000000000000000000000000000000000000000000000000001"
          ],
          "data": "0x",
          "blockHash": "0xc418f65919c8617f74295a2e0ab9fbaa975ee0ad1be1a33e7f54f1327955706a",
          "blockNumber": "0x401edf",
          "transactionHash": "0x621a112468f6de06bcc156e82ee736a25ef2b80858f6844c04955c7969f6162d",
          "transactionIndex": "0x9",
          "logIndex": "0x5",
          "removed": false
        }
      ],
      "status": "0x1",
      "logsBloom": "0x00000000000000000000000000000000400000000020000000000000000000000000000000040000000000000000000000001000000000000000000000040002000000000000000100000008000002000000000000041000000000000000800000000000220000000000000000000800000000000000000000000010008000000000000000000000000000000200000000000000000000001000000000000000000000000000000000800000000000000000000000000000000000000000000000000022000000000000000000002000000000000000000000080000000060000000001000000000000000000400000000000000000000000000002200000000",
      "type": "0x2",
      "effectiveGasPrice": "0x342ee0983"
    },
    {
      "transactionHash": "0x40daed36e8b80990376b2a3f0dcf7ab9fef76c9cdbbd42b0bb2206215e2194e3",
      "transactionIndex": "0xa",
      "blockHash": "0xc418f65919c8617f74295a2e0ab9fbaa975ee0ad1be1a33e7f54f1327955706a",
      "blockNumber": "0x401edf",
      "from": "0x42C7eF198f8aC9888E2B1b73e5B71f1D4535194A",
      "to": "0xEAB7a1e6244Ca96A537823be249B3b7bEfF4117F",
      "cumulativeGasUsed": "0x148813",
      "gasUsed": "0x1550c",
      "contractAddress": null,
      "logs": [
        {
          "address": "0xEAB7a1e6244Ca96A537823be249B3b7bEfF4117F",
          "topics": [
            "0xc3d58168c5ae7397731d063d5bbf3d657854427343f4c083240f7aacaa2d0f62",
            "0x00000000000000000000000042c7ef198f8ac9888e2b1b73e5b71f1d4535194a",
            "0x0000000000000000000000000000000000000000000000000000000000000000",
            "0x00000000000000000000000023aec166d19e8a11390445479267d7e07d550a66"
          ],
          "data": "0x000000000000000000000000000000000000000000000000000000000000000100000000000000000000000000000000000000000000000000000000000003e8",
          "blockHash": "0xc418f65919c8617f74295a2e0ab9fbaa975ee0ad1be1a33e7f54f1327955706a",
          "blockNumber": "0x401edf",
          "transactionHash": "0x40daed36e8b80990376b2a3f0dcf7ab9fef76c9cdbbd42b0bb2206215e2194e3",
          "transactionIndex": "0xa",
          "logIndex": "0x6",
          "removed": false
        }
      ],
      "status": "0x1",
      "logsBloom": "0x00000000000000000000000000100000000000000000000001000000000000000000000000000000000000000000000000000000000000000001000000002000000000000000000100000000000000000000000001000000000000000000000000000000020000000000000000000810000000000000000000000000000000000000000000000000000000000000000000000000000000000000040000000000000000000000000000800000000000000000000000000000000000000000000000000000000000000000000000000000000000000008000000000000000020000000000000000000000000000400000000000000000000000000080000000000",
      "type": "0x2",
      "effectiveGasPrice": "0x342ee0983"
    }
  ],
  "libraries": [],
  "pending": [],
  "returns": {},
  "timestamp": 1693545902,
  "chain": 11155111,
  "multi": false,
  "commit": "11bdc2c"
}