{
  "transactions": [
    {
      "hash": "0x38558fc7b80f7c85437d5ffd70d5aad107c3de79e1abcabb37cdb2af4bb21d8a",
      "transactionType": "CALL",
      "contractName": "TronicMembership",
      "contractAddress": "0x4fc90cca78D6971be88E444DF9e58376BcFe9663",
      "function": "initialize(address,address,string,string,string,uint256,address)",
      "arguments": [
        "0x2D25602551487C3f3354dD80D76D54383A243358",
        "0x02101dfB77FDE026414827Fdc604ddAF224F0921",
        "Tronic Members",
        "TRON",
        "https://ipfs.io/ipfs/QmUkpx1WefuPkanLCb183WpcESf76TPwq3cks5TudvHyHh/",
        "10000",
        "0x42C7eF198f8aC9888E2B1b73e5B71f1D4535194A"
      ],
      "transaction": {
        "type": "0x02",
        "from": "0x42c7ef198f8ac9888e2b1b73e5b71f1d4535194a",
        "to": "0x4fc90cca78d6971be88e444df9e58376bcfe9663",
        "gas": "0x69962",
        "value": "0x0",
        "data": "0xdd1520020000000000000000000000002d25602551487c3f3354dd80d76d54383a24335800000000000000000000000002101dfb77fde026414827fdc604ddaf224f092100000000000000000000000000000000000000000000000000000000000000e000000000000000000000000000000000000000000000000000000000000001200000000000000000000000000000000000000000000000000000000000000160000000000000000000000000000000000000000000000000000000000000271000000000000000000000000042c7ef198f8ac9888e2b1b73e5b71f1d4535194a000000000000000000000000000000000000000000000000000000000000000e54726f6e6963204d656d62657273000000000000000000000000000000000000000000000000000000000000000000000000000000000000000000000000000454524f4e00000000000000000000000000000000000000000000000000000000000000000000000000000000000000000000000000000000000000000000004468747470733a2f2f697066732e696f2f697066732f516d556b70783157656675506b616e4c436231383357706345536637365450777133636b733554756476487948682f00000000000000000000000000000000000000000000000000000000",
        "nonce": "0x99",
        "accessList": []
      },
      "additionalContracts": [],
      "isFixedGasLimit": false
    },
    {
      "hash": "0xa90a02694a48ca962f96d02921aa70fdfb43d4c768d588d0dc276d973a0dc25a",
      "transactionType": "CALL",
      "contractName": "TronicToken",
      "contractAddress": "0x99C5A36f52aeD8c554Ff752D5b48ae506F29C6b1",
      "function": "initialize(address)",
      "arguments": [
        "0x42C7eF198f8aC9888E2B1b73e5B71f1D4535194A"
      ],
      "transaction": {
        "type": "0x02",
        "from": "0x42c7ef198f8ac9888e2b1b73e5b71f1d4535194a",
        "to": "0x99c5a36f52aed8c554ff752d5b48ae506f29c6b1",
        "gas": "0x18b89",
        "value": "0x0",
        "data": "0xc4d66de800000000000000000000000042c7ef198f8ac9888e2b1b73e5b71f1d4535194a",
        "nonce": "0x9a",
        "accessList": []
      },
      "additionalContracts": [],
      "isFixedGasLimit": false
    },
    {
      "hash": "0xf3677eb0fee0dc07c7a595214c71882365854c238e464fd2b4a13e3fa6b03487",
      "transactionType": "CALL",
      "contractName": "TronicToken",
      "contractAddress": "0x99C5A36f52aeD8c554Ff752D5b48ae506F29C6b1",
      "function": "createFungibleType(uint64,string):(uint256)",
      "arguments": [
        "1000000",
        "https://ipfs.io/ipfs/QmPd3dW1GdemiXM5GcCJe68ykUqGBmG1Q3XshTwzT5zDfJ/1"
      ],
      "transaction": {
        "type": "0x02",
        "from": "0x42c7ef198f8ac9888e2b1b73e5b71f1d4535194a",
        "to": "0x99c5a36f52aed8c554ff752d5b48ae506f29c6b1",
        "gas": "0x3130d",
        "value": "0x0",
        "data": "0x2dfb9ff000000000000000000000000000000000000000000000000000000000000f42400000000000000000000000000000000000000000000000000000000000000040000000000000000000000000000000000000000000000000000000000000004568747470733a2f2f697066732e696f2f697066732f516d5064336457314764656d69584d354763434a653638796b557147426d4731513358736854777a54357a44664a2f31000000000000000000000000000000000000000000000000000000",
        "nonce": "0x9b",
        "accessList": []
      },
      "additionalContracts": [],
      "isFixedGasLimit": false
    },
    {
      "hash": "0x898dfa04c3ae8d8d2bae9ecc52443cc5bd9b68aec9d8078a2172953bca80e74d",
      "transactionType": "CALL",
      "contractName": "TronicToken",
      "contractAddress": "0x99C5A36f52aeD8c554Ff752D5b48ae506F29C6b1",
      "function": "createFungibleType(uint64,string):(uint256)",
      "arguments": [
        "500000",
        "https://ipfs.io/ipfs/QmPd3dW1GdemiXM5GcCJe68ykUqGBmG1Q3XshTwzT5zDfJ/2"
      ],
      "transaction": {
        "type": "0x02",
        "from": "0x42c7ef198f8ac9888e2b1b73e5b71f1d4535194a",
        "to": "0x99c5a36f52aed8c554ff752d5b48ae506f29c6b1",
        "gas": "0x3130d",
        "value": "0x0",
        "data": "0x2dfb9ff0000000000000000000000000000000000000000000000000000000000007a1200000000000000000000000000000000000000000000000000000000000000040000000000000000000000000000000000000000000000000000000000000004568747470733a2f2f697066732e696f2f697066732f516d5064336457314764656d69584d354763434a653638796b557147426d4731513358736854777a54357a44664a2f32000000000000000000000000000000000000000000000000000000",
        "nonce": "0x9c",
        "accessList": []
      },
      "additionalContracts": [],
      "isFixedGasLimit": false
    },
    {
      "hash": "0xb42b663eb3f412c555b7911c9b88a83df0b409ec6951f3203a44c04d083d2c8b",
      "transactionType": "CALL",
      "contractName": "TronicToken",
      "contractAddress": "0x99C5A36f52aeD8c554Ff752D5b48ae506F29C6b1",
      "function": "createFungibleType(uint64,string):(uint256)",
      "arguments": [
        "250000",
        "https://ipfs.io/ipfs/QmPd3dW1GdemiXM5GcCJe68ykUqGBmG1Q3XshTwzT5zDfJ/3"
      ],
      "transaction": {
        "type": "0x02",
        "from": "0x42c7ef198f8ac9888e2b1b73e5b71f1d4535194a",
        "to": "0x99c5a36f52aed8c554ff752d5b48ae506f29c6b1",
        "gas": "0x3130d",
        "value": "0x0",
        "data": "0x2dfb9ff0000000000000000000000000000000000000000000000000000000000003d0900000000000000000000000000000000000000000000000000000000000000040000000000000000000000000000000000000000000000000000000000000004568747470733a2f2f697066732e696f2f697066732f516d5064336457314764656d69584d354763434a653638796b557147426d4731513358736854777a54357a44664a2f33000000000000000000000000000000000000000000000000000000",
        "nonce": "0x9d",
        "accessList": []
      },
      "additionalContracts": [],
      "isFixedGasLimit": false
    },
    {
      "hash": "0x2cc7d8a6e233de8b881acd50f7da3ccdcb263d5d720cf556f6649de0bd4fc6e2",
      "transactionType": "CALL",
      "contractName": "TronicToken",
      "contractAddress": "0x99C5A36f52aeD8c554Ff752D5b48ae506F29C6b1",
      "function": "createFungibleType(uint64,string):(uint256)",
      "arguments": [
        "125000",
        "https://ipfs.io/ipfs/QmPd3dW1GdemiXM5GcCJe68ykUqGBmG1Q3XshTwzT5zDfJ/4"
      ],
      "transaction": {
        "type": "0x02",
        "from": "0x42c7ef198f8ac9888e2b1b73e5b71f1d4535194a",
        "to": "0x99c5a36f52aed8c554ff752d5b48ae506f29c6b1",
        "gas": "0x3130d",
        "value": "0x0",
        "data": "0x2dfb9ff0000000000000000000000000000000000000000000000000000000000001e8480000000000000000000000000000000000000000000000000000000000000040000000000000000000000000000000000000000000000000000000000000004568747470733a2f2f697066732e696f2f697066732f516d5064336457314764656d69584d354763434a653638796b557147426d4731513358736854777a54357a44664a2f34000000000000000000000000000000000000000000000000000000",
        "nonce": "0x9e",
        "accessList": []
      },
      "additionalContracts": [],
      "isFixedGasLimit": false
    }
  ],
  "receipts": [],
  "libraries": [],
  "pending": [
    "0x38558fc7b80f7c85437d5ffd70d5aad107c3de79e1abcabb37cdb2af4bb21d8a",
    "0xa90a02694a48ca962f96d02921aa70fdfb43d4c768d588d0dc276d973a0dc25a",
    "0xf3677eb0fee0dc07c7a595214c71882365854c238e464fd2b4a13e3fa6b03487",
    "0x898dfa04c3ae8d8d2bae9ecc52443cc5bd9b68aec9d8078a2172953bca80e74d",
    "0xb42b663eb3f412c555b7911c9b88a83df0b409ec6951f3203a44c04d083d2c8b",
    "0x2cc7d8a6e233de8b881acd50f7da3ccdcb263d5d720cf556f6649de0bd4fc6e2"
  ],
  "returns": {},
  "timestamp": 1694134894,
  "chain": 11155111,
  "multi": false,
  "commit": "78fda7f"
}