{
  "transactions": [
    {
      "hash": "0x75b84c08bdb3319a9eb5c69e1a07ae187f2302b80384fdcd04d5a663dea35027",
      "transactionType": "CALL",
      "contractName": "TronicMembership",
      "contractAddress": "0xa23161C76f1f5E91607Da899e909A1355C4dAAcb",
      "function": "initialize(address,address,string,string,string,uint256,address)",
      "arguments": [
        "0x2D25602551487C3f3354dD80D76D54383A243358",
        "0x02101dfB77FDE026414827Fdc604ddAF224F0921",
        "Tronic Membership Program",
        "TRONIC",
        "https://ipfs.io/ipfs/QmUkpx1WefuPkanLCb183WpcESf76TPwq3cks5TudvHyHh/",
        "10000",
        "0x27870DBa1e03CFDD24F5658b255c0BAaC970A19D"
      ],
      "transaction": {
        "type": "0x02",
        "from": "0xbbeee9234dce5e4700af3a956204c75297d0f4ff",
        "to": "0xa23161c76f1f5e91607da899e909a1355c4daacb",
        "gas": "0x71763",
        "value": "0x0",
        "data": "0xdd1520020000000000000000000000002d25602551487c3f3354dd80d76d54383a24335800000000000000000000000002101dfb77fde026414827fdc604ddaf224f092100000000000000000000000000000000000000000000000000000000000000e000000000000000000000000000000000000000000000000000000000000001200000000000000000000000000000000000000000000000000000000000000160000000000000000000000000000000000000000000000000000000000000271000000000000000000000000027870dba1e03cfdd24f5658b255c0baac970a19d000000000000000000000000000000000000000000000000000000000000001954726f6e6963204d656d626572736869702050726f6772616d00000000000000000000000000000000000000000000000000000000000000000000000000000654524f4e49430000000000000000000000000000000000000000000000000000000000000000000000000000000000000000000000000000000000000000004468747470733a2f2f697066732e696f2f697066732f516d556b70783157656675506b616e4c436231383357706345536637365450777133636b733554756476487948682f00000000000000000000000000000000000000000000000000000000",
        "nonce": "0xc",
        "accessList": []
      },
      "additionalContracts": [],
      "isFixedGasLimit": false
    },
    {
      "hash": "0x2556a023c9bb275ade59a372e94d22d2d72d44e7bc33a7d25bef6e3f1b4f569f",
      "transactionType": "CALL",
      "contractName": "TronicToken",
      "contractAddress": "0x704Bb35954f1b425B8D1Ca5cD4a8219ac5B1C2E1",
      "function": "initialize(address)",
      "arguments": [
        "0x27870DBa1e03CFDD24F5658b255c0BAaC970A19D"
      ],
      "transaction": {
        "type": "0x02",
        "from": "0xbbeee9234dce5e4700af3a956204c75297d0f4ff",
        "to": "0x704bb35954f1b425b8d1ca5cd4a8219ac5b1c2e1",
        "gas": "0x21feb",
        "value": "0x0",
        "data": "0xc4d66de800000000000000000000000027870dba1e03cfdd24f5658b255c0baac970a19d",
        "nonce": "0xd",
        "accessList": []
      },
      "additionalContracts": [],
      "isFixedGasLimit": false
    },
    {
      "hash": "0x6b93a9531d5b8d3fd04c8598b9a9bf3c1e1c9d261a74e22bdfe187aafdc98406",
      "transactionType": "CALL",
      "contractName": "TronicToken",
      "contractAddress": "0x704Bb35954f1b425B8D1Ca5cD4a8219ac5B1C2E1",
      "function": "createFungibleType(uint64,string):(uint256)",
      "arguments": [
        "1000000",
        "https://ipfs.io/ipfs/QmPd3dW1GdemiXM5GcCJe68ykUqGBmG1Q3XshTwzT5zDfJ/1"
      ],
      "transaction": {
        "type": "0x02",
        "from": "0xbbeee9234dce5e4700af3a956204c75297d0f4ff",
        "to": "0x704bb35954f1b425b8d1ca5cd4a8219ac5b1c2e1",
        "gas": "0x3130d",
        "value": "0x0",
        "data": "0x2dfb9ff000000000000000000000000000000000000000000000000000000000000f42400000000000000000000000000000000000000000000000000000000000000040000000000000000000000000000000000000000000000000000000000000004568747470733a2f2f697066732e696f2f697066732f516d5064336457314764656d69584d354763434a653638796b557147426d4731513358736854777a54357a44664a2f31000000000000000000000000000000000000000000000000000000",
        "nonce": "0xe",
        "accessList": []
      },
      "additionalContracts": [],
      "isFixedGasLimit": false
    },
    {
      "hash": "0x3abaafcb5f8aefae993050d6ce5b3ceb35b082a744e2dd479e85349a4c567577",
      "transactionType": "CALL",
      "contractName": "TronicToken",
      "contractAddress": "0x704Bb35954f1b425B8D1Ca5cD4a8219ac5B1C2E1",
      "function": "createFungibleType(uint64,string):(uint256)",
      "arguments": [
        "500000",
        "https://ipfs.io/ipfs/QmPd3dW1GdemiXM5GcCJe68ykUqGBmG1Q3XshTwzT5zDfJ/2"
      ],
      "transaction": {
        "type": "0x02",
        "from": "0xbbeee9234dce5e4700af3a956204c75297d0f4ff",
        "to": "0x704bb35954f1b425b8d1ca5cd4a8219ac5b1c2e1",
        "gas": "0x3130d",
        "value": "0x0",
        "data": "0x2dfb9ff0000000000000000000000000000000000000000000000000000000000007a1200000000000000000000000000000000000000000000000000000000000000040000000000000000000000000000000000000000000000000000000000000004568747470733a2f2f697066732e696f2f697066732f516d5064336457314764656d69584d354763434a653638796b557147426d4731513358736854777a54357a44664a2f32000000000000000000000000000000000000000000000000000000",
        "nonce": "0xf",
        "accessList": []
      },
      "additionalContracts": [],
      "isFixedGasLimit": false
    },
    {
      "hash": "0x9951a4755f12ac591a93602cd4beee648a308581d5cefac0e820f3cd53427977",
      "transactionType": "CALL",
      "contractName": "TronicToken",
      "contractAddress": "0x704Bb35954f1b425B8D1Ca5cD4a8219ac5B1C2E1",
      "function": "createFungibleType(uint64,string):(uint256)",
      "arguments": [
        "250000",
        "https://ipfs.io/ipfs/QmPd3dW1GdemiXM5GcCJe68ykUqGBmG1Q3XshTwzT5zDfJ/3"
      ],
      "transaction": {
        "type": "0x02",
        "from": "0xbbeee9234dce5e4700af3a956204c75297d0f4ff",
        "to": "0x704bb35954f1b425b8d1ca5cd4a8219ac5b1c2e1",
        "gas": "0x3130d",
        "value": "0x0",
        "data": "0x2dfb9ff0000000000000000000000000000000000000000000000000000000000003d0900000000000000000000000000000000000000000000000000000000000000040000000000000000000000000000000000000000000000000000000000000004568747470733a2f2f697066732e696f2f697066732f516d5064336457314764656d69584d354763434a653638796b557147426d4731513358736854777a54357a44664a2f33000000000000000000000000000000000000000000000000000000",
        "nonce": "0x10",
        "accessList": []
      },
      "additionalContracts": [],
      "isFixedGasLimit": false
    },
    {
      "hash": "0xd246f053e58619466933b994420ac7b084cc091c8fb0535088a34afbaa25a3d3",
      "transactionType": "CALL",
      "contractName": "TronicToken",
      "contractAddress": "0x704Bb35954f1b425B8D1Ca5cD4a8219ac5B1C2E1",
      "function": "createFungibleType(uint64,string):(uint256)",
      "arguments": [
        "125000",
        "https://ipfs.io/ipfs/QmPd3dW1GdemiXM5GcCJe68ykUqGBmG1Q3XshTwzT5zDfJ/4"
      ],
      "transaction": {
        "type": "0x02",
        "from": "0xbbeee9234dce5e4700af3a956204c75297d0f4ff",
        "to": "0x704bb35954f1b425b8d1ca5cd4a8219ac5b1c2e1",
        "gas": "0x3130d",
        "value": "0x0",
        "data": "0x2dfb9ff0000000000000000000000000000000000000000000000000000000000001e8480000000000000000000000000000000000000000000000000000000000000040000000000000000000000000000000000000000000000000000000000000004568747470733a2f2f697066732e696f2f697066732f516d5064336457314764656d69584d354763434a653638796b557147426d4731513358736854777a54357a44664a2f34000000000000000000000000000000000000000000000000000000",
        "nonce": "0x11",
        "accessList": []
      },
      "additionalContracts": [],
      "isFixedGasLimit": false
    }
  ],
  "receipts": [],
  "libraries": [],
  "pending": [
    "0x75b84c08bdb3319a9eb5c69e1a07ae187f2302b80384fdcd04d5a663dea35027",
    "0x2556a023c9bb275ade59a372e94d22d2d72d44e7bc33a7d25bef6e3f1b4f569f",
    "0x6b93a9531d5b8d3fd04c8598b9a9bf3c1e1c9d261a74e22bdfe187aafdc98406",
    "0x3abaafcb5f8aefae993050d6ce5b3ceb35b082a744e2dd479e85349a4c567577",
    "0x9951a4755f12ac591a93602cd4beee648a308581d5cefac0e820f3cd53427977",
    "0xd246f053e58619466933b994420ac7b084cc091c8fb0535088a34afbaa25a3d3"
  ],
  "returns": {},
  "timestamp": 1694196661,
  "chain": 11155111,
  "multi": false,
  "commit": "f58b456"
}