{
  "transactions": [
    {
      "hash": "0x884648896b7191420e37fd399140c93bd3e3d8eb3afea82da24cd25c419e8476",
      "transactionType": "CALL",
      "contractName": "TronicMembership",
      "contractAddress": "0x3c58d516Fa4Fa46B8eFa821af410277b0bd32Bd0",
      "function": "initialize(address,address,string,string,string,uint256,address)",
      "arguments": [
        "0x2D25602551487C3f3354dD80D76D54383A243358",
        "0x02101dfB77FDE026414827Fdc604ddAF224F0921",
        "Tronic Membership Program",
        "TRONIC",
        "https://ipfs.io/ipfs/QmUkpx1WefuPkanLCb183WpcESf76TPwq3cks5TudvHyHh/",
        "10000",
        "0x27870DBa1e03CFDD24F5658b255c0BAaC970A19D"
      ],
      "transaction": {
        "type": "0x02",
        "from": "0xbbeee9234dce5e4700af3a956204c75297d0f4ff",
        "to": "0x3c58d516fa4fa46b8efa821af410277b0bd32bd0",
        "gas": "0x71763",
        "value": "0x0",
        "data": "0xdd1520020000000000000000000000002d25602551487c3f3354dd80d76d54383a24335800000000000000000000000002101dfb77fde026414827fdc604ddaf224f092100000000000000000000000000000000000000000000000000000000000000e000000000000000000000000000000000000000000000000000000000000001200000000000000000000000000000000000000000000000000000000000000160000000000000000000000000000000000000000000000000000000000000271000000000000000000000000027870dba1e03cfdd24f5658b255c0baac970a19d000000000000000000000000000000000000000000000000000000000000001954726f6e6963204d656d626572736869702050726f6772616d00000000000000000000000000000000000000000000000000000000000000000000000000000654524f4e49430000000000000000000000000000000000000000000000000000000000000000000000000000000000000000000000000000000000000000004468747470733a2f2f697066732e696f2f697066732f516d556b70783157656675506b616e4c436231383357706345536637365450777133636b733554756476487948682f00000000000000000000000000000000000000000000000000000000",
        "nonce": "0x3",
        "accessList": []
      },
      "additionalContracts": [],
      "isFixedGasLimit": false
    },
    {
      "hash": "0x9d3887e1d605f126ebab1821faae984fa68f7e747480cad6cc7881221808da56",
      "transactionType": "CALL",
      "contractName": "TronicToken",
      "contractAddress": "0x380f373cACaFdd87E9A210CC0AE3DB5f8670BF2F",
      "function": "initialize(address)",
      "arguments": [
        "0x27870DBa1e03CFDD24F5658b255c0BAaC970A19D"
      ],
      "transaction": {
        "type": "0x02",
        "from": "0xbbeee9234dce5e4700af3a956204c75297d0f4ff",
        "to": "0x380f373cacafdd87e9a210cc0ae3db5f8670bf2f",
        "gas": "0x21feb",
        "value": "0x0",
        "data": "0xc4d66de800000000000000000000000027870dba1e03cfdd24f5658b255c0baac970a19d",
        "nonce": "0x4",
        "accessList": []
      },
      "additionalContracts": [],
      "isFixedGasLimit": false
    },
    {
      "hash": "0x5cdf4d39d5ba5d24c921c97280feab7a87e98b31bd8878210280b8285ba1e298",
      "transactionType": "CALL",
      "contractName": "TronicToken",
      "contractAddress": "0x380f373cACaFdd87E9A210CC0AE3DB5f8670BF2F",
      "function": "createFungibleType(uint64,string):(uint256)",
      "arguments": [
        "1000000",
        "https://ipfs.io/ipfs/QmPd3dW1GdemiXM5GcCJe68ykUqGBmG1Q3XshTwzT5zDfJ/1"
      ],
      "transaction": {
        "type": "0x02",
        "from": "0xbbeee9234dce5e4700af3a956204c75297d0f4ff",
        "to": "0x380f373cacafdd87e9a210cc0ae3db5f8670bf2f",
        "gas": "0x3130d",
        "value": "0x0",
        "data": "0x2dfb9ff000000000000000000000000000000000000000000000000000000000000f42400000000000000000000000000000000000000000000000000000000000000040000000000000000000000000000000000000000000000000000000000000004568747470733a2f2f697066732e696f2f697066732f516d5064336457314764656d69584d354763434a653638796b557147426d4731513358736854777a54357a44664a2f31000000000000000000000000000000000000000000000000000000",
        "nonce": "0x5",
        "accessList": []
      },
      "additionalContracts": [],
      "isFixedGasLimit": false
    },
    {
      "hash": "0x1f40ab9ec8d8212d1e23415b6ea3dbad610bf1cffa11e75ece78e2a6e185a7cb",
      "transactionType": "CALL",
      "contractName": "TronicToken",
      "contractAddress": "0x380f373cACaFdd87E9A210CC0AE3DB5f8670BF2F",
      "function": "createFungibleType(uint64,string):(uint256)",
      "arguments": [
        "500000",
        "https://ipfs.io/ipfs/QmPd3dW1GdemiXM5GcCJe68ykUqGBmG1Q3XshTwzT5zDfJ/2"
      ],
      "transaction": {
        "type": "0x02",
        "from": "0xbbeee9234dce5e4700af3a956204c75297d0f4ff",
        "to": "0x380f373cacafdd87e9a210cc0ae3db5f8670bf2f",
        "gas": "0x3130d",
        "value": "0x0",
        "data": "0x2dfb9ff0000000000000000000000000000000000000000000000000000000000007a1200000000000000000000000000000000000000000000000000000000000000040000000000000000000000000000000000000000000000000000000000000004568747470733a2f2f697066732e696f2f697066732f516d5064336457314764656d69584d354763434a653638796b557147426d4731513358736854777a54357a44664a2f32000000000000000000000000000000000000000000000000000000",
        "nonce": "0x6",
        "accessList": []
      },
      "additionalContracts": [],
      "isFixedGasLimit": false
    },
    {
      "hash": "0x3fb9a376b0788b1a1f4c1b37a173bd2536cf4fa53b54089b54fc8273bc81ee64",
      "transactionType": "CALL",
      "contractName": "TronicToken",
      "contractAddress": "0x380f373cACaFdd87E9A210CC0AE3DB5f8670BF2F",
      "function": "createFungibleType(uint64,string):(uint256)",
      "arguments": [
        "250000",
        "https://ipfs.io/ipfs/QmPd3dW1GdemiXM5GcCJe68ykUqGBmG1Q3XshTwzT5zDfJ/3"
      ],
      "transaction": {
        "type": "0x02",
        "from": "0xbbeee9234dce5e4700af3a956204c75297d0f4ff",
        "to": "0x380f373cacafdd87e9a210cc0ae3db5f8670bf2f",
        "gas": "0x3130d",
        "value": "0x0",
        "data": "0x2dfb9ff0000000000000000000000000000000000000000000000000000000000003d0900000000000000000000000000000000000000000000000000000000000000040000000000000000000000000000000000000000000000000000000000000004568747470733a2f2f697066732e696f2f697066732f516d5064336457314764656d69584d354763434a653638796b557147426d4731513358736854777a54357a44664a2f33000000000000000000000000000000000000000000000000000000",
        "nonce": "0x7",
        "accessList": []
      },
      "additionalContracts": [],
      "isFixedGasLimit": false
    },
    {
      "hash": "0x0442ea836c4e9cc9c1629a1c339a3dd75ef6f36e812e23fc10c97aa76606fe95",
      "transactionType": "CALL",
      "contractName": "TronicToken",
      "contractAddress": "0x380f373cACaFdd87E9A210CC0AE3DB5f8670BF2F",
      "function": "createFungibleType(uint64,string):(uint256)",
      "arguments": [
        "125000",
        "https://ipfs.io/ipfs/QmPd3dW1GdemiXM5GcCJe68ykUqGBmG1Q3XshTwzT5zDfJ/4"
      ],
      "transaction": {
        "type": "0x02",
        "from": "0xbbeee9234dce5e4700af3a956204c75297d0f4ff",
        "to": "0x380f373cacafdd87e9a210cc0ae3db5f8670bf2f",
        "gas": "0x3130d",
        "value": "0x0",
        "data": "0x2dfb9ff0000000000000000000000000000000000000000000000000000000000001e8480000000000000000000000000000000000000000000000000000000000000040000000000000000000000000000000000000000000000000000000000000004568747470733a2f2f697066732e696f2f697066732f516d5064336457314764656d69584d354763434a653638796b557147426d4731513358736854777a54357a44664a2f34000000000000000000000000000000000000000000000000000000",
        "nonce": "0x8",
        "accessList": []
      },
      "additionalContracts": [],
      "isFixedGasLimit": false
    }
  ],
  "receipts": [],
  "libraries": [],
  "pending": [
    "0x884648896b7191420e37fd399140c93bd3e3d8eb3afea82da24cd25c419e8476",
    "0x9d3887e1d605f126ebab1821faae984fa68f7e747480cad6cc7881221808da56",
    "0x5cdf4d39d5ba5d24c921c97280feab7a87e98b31bd8878210280b8285ba1e298",
    "0x1f40ab9ec8d8212d1e23415b6ea3dbad610bf1cffa11e75ece78e2a6e185a7cb",
    "0x3fb9a376b0788b1a1f4c1b37a173bd2536cf4fa53b54089b54fc8273bc81ee64",
    "0x0442ea836c4e9cc9c1629a1c339a3dd75ef6f36e812e23fc10c97aa76606fe95"
  ],
  "returns": {},
  "timestamp": 1694195980,
  "chain": 11155111,
  "multi": false,
  "commit": "f58b456"
}