{
  "transactions": [
    {
      "hash": "0x6947dae9f18375a61050297e517403099216265bc3ec648295a5e82bb9f33082",
      "transactionType": "CALL",
      "contractName": "TronicMembership",
      "contractAddress": "0x3c58d516Fa4Fa46B8eFa821af410277b0bd32Bd0",
      "function": "mint(address):(address)",
      "arguments": [
        "0xcadAc3602811E55dc75CF283eE0e66Da87f7E80C"
      ],
      "transaction": {
        "type": "0x02",
        "from": "0x27870dba1e03cfdd24f5658b255c0baac970a19d",
        "to": "0x3c58d516fa4fa46b8efa821af410277b0bd32bd0",
        "gas": "0x5db6c",
        "value": "0x0",
        "data": "0x6a627842000000000000000000000000cadac3602811e55dc75cf283ee0e66da87f7e80c",
        "nonce": "0x8",
        "accessList": []
      },
      "additionalContracts": [
        {
          "transactionType": "CREATE2",
          "address": "0x5B095fA9f69062Ed7ed78e436075555ad4c4d555",
          "initCode": "0x3d60ad80600a3d3981f3363d3d373d3d3d363d732d25602551487c3f3354dd80d76d54383a2433585af43d82803e903d91602b57fd5bf3000000000000000000000000000000000000000000000000000000000000000000000000000000000000000000000000000000000000000000000000000138810000000000000000000000003c58d516fa4fa46b8efa821af410277b0bd32bd00000000000000000000000000000000000000000000000000000000000000001"
        }
      ],
      "isFixedGasLimit": false
    },
    {
      "hash": "0x4b8b674e9c866afb67aa93304ed6672f11eef4e4064691ad818945fc86b77538",
      "transactionType": "CALL",
      "contractName": null,
      "contractAddress": "0x380f373cACaFdd87E9A210CC0AE3DB5f8670BF2F",
      "function": null,
      "arguments": null,
      "transaction": {
        "type": "0x02",
        "from": "0x27870dba1e03cfdd24f5658b255c0baac970a19d",
        "to": "0x380f373cacafdd87e9a210cc0ae3db5f8670bf2f",
        "gas": "0x1f2e9",
        "value": "0x0",
        "data": "0x6dcb111d0000000000000000000000005b095fa9f69062ed7ed78e436075555ad4c4d555000000000000000000000000000000000000000000000000000000000000000100000000000000000000000000000000000000000000000000000000000003e8",
        "nonce": "0x9",
        "accessList": []
      },
      "additionalContracts": [],
      "isFixedGasLimit": false
    }
  ],
  "receipts": [
    {
      "transactionHash": "0x6947dae9f18375a61050297e517403099216265bc3ec648295a5e82bb9f33082",
      "transactionIndex": "0x13",
      "blockHash": "0x545a763a3142f178498d9b090b9bb53bb15c8964308f3736db8e7392bbf4c853",
      "blockNumber": "0x260e3b2",
      "from": "0x27870DBa1e03CFDD24F5658b255c0BAaC970A19D",
      "to": "0x3c58d516Fa4Fa46B8eFa821af410277b0bd32Bd0",
      "cumulativeGasUsed": "0x3be09f",
      "gasUsed": "0x43d8f",
      "contractAddress": null,
      "logs": [
        {
          "address": "0x02101dfB77FDE026414827Fdc604ddAF224F0921",
          "topics": [
            "0x07fba7bba1191da7ee1155dcfa0030701c9c9a9cc34a93b991fc6fd0c9268d8f"
          ],
          "data": "0x0000000000000000000000005b095fa9f69062ed7ed78e436075555ad4c4d5550000000000000000000000002d25602551487c3f3354dd80d76d54383a24335800000000000000000000000000000000000000000000000000000000000138810000000000000000000000003c58d516fa4fa46b8efa821af410277b0bd32bd000000000000000000000000000000000000000000000000000000000000000010000000000000000000000000000000000000000000000000000000000000000",
          "blockHash": "0x545a763a3142f178498d9b090b9bb53bb15c8964308f3736db8e7392bbf4c853",
          "blockNumber": "0x260e3b2",
          "transactionHash": "0x6947dae9f18375a61050297e517403099216265bc3ec648295a5e82bb9f33082",
          "transactionIndex": "0x13",
          "logIndex": "0x67",
          "removed": false
        },
        {
          "address": "0x5B095fA9f69062Ed7ed78e436075555ad4c4d555",
          "topics": [
            "0xbc7cd75a20ee27fd9adebab32041f755214dbc6bffa90cc0225b39da2e5c2d3b",
            "0x0000000000000000000000001a0e97dae78590b7e967e725a5c848ed034f5510"
          ],
          "data": "0x",
          "blockHash": "0x545a763a3142f178498d9b090b9bb53bb15c8964308f3736db8e7392bbf4c853",
          "blockNumber": "0x260e3b2",
          "transactionHash": "0x6947dae9f18375a61050297e517403099216265bc3ec648295a5e82bb9f33082",
          "transactionIndex": "0x13",
          "logIndex": "0x68",
          "removed": false
        },
        {
          "address": "0x3c58d516Fa4Fa46B8eFa821af410277b0bd32Bd0",
          "topics": [
            "0xddf252ad1be2c89b69c2b068fc378daa952ba7f163c4a11628f55a4df523b3ef",
            "0x0000000000000000000000000000000000000000000000000000000000000000",
            "0x000000000000000000000000cadac3602811e55dc75cf283ee0e66da87f7e80c",
            "0x0000000000000000000000000000000000000000000000000000000000000001"
          ],
          "data": "0x",
          "blockHash": "0x545a763a3142f178498d9b090b9bb53bb15c8964308f3736db8e7392bbf4c853",
          "blockNumber": "0x260e3b2",
          "transactionHash": "0x6947dae9f18375a61050297e517403099216265bc3ec648295a5e82bb9f33082",
          "transactionIndex": "0x13",
          "logIndex": "0x69",
          "removed": false
        },
        {
          "address": "0x0000000000000000000000000000000000001010",
          "topics": [
            "0x4dfe1bbbcf077ddc3e01291eea2d5c70c2b422b415d95645b9adcfd678cb1d63",
            "0x0000000000000000000000000000000000000000000000000000000000001010",
            "0x00000000000000000000000027870dba1e03cfdd24f5658b255c0baac970a19d",
            "0x0000000000000000000000005082f249cdb2f2c1ee035e4f423c46ea2dab3ab1"
          ],
          "data": "0x0000000000000000000000000000000000000000000000000001f980aae11a6300000000000000000000000000000000000000000000000006e1928a2452980000000000000000000000000000000000000000000000012603c9e5d4f55c8ce000000000000000000000000000000000000000000000000006df990979717d9d00000000000000000000000000000000000000000000012603cbdf55a03da743",
          "blockHash": "0x545a763a3142f178498d9b090b9bb53bb15c8964308f3736db8e7392bbf4c853",
          "blockNumber": "0x260e3b2",
          "transactionHash": "0x6947dae9f18375a61050297e517403099216265bc3ec648295a5e82bb9f33082",
          "transactionIndex": "0x13",
          "logIndex": "0x6a",
          "removed": false
        }
      ],
      "status": "0x1",
      "logsBloom": "0x00000000000000000000000000000800400000008020000000000000020000000000000002000000800000000000000000009000000000000000000000040002000000000000000000000008000002800040000000060000000100000000800001000000020000000000000000000800000000000000000080000010008000000000000000000000000000000200000000000000000000000000000002000000200081000000000000000000000000000000000000000000000000000000004000000022000000000001000000000000000080000000000000180000000060000000001020000080000000000000000000000000000000000000002000100000",
      "type": "0x2",
      "effectiveGasPrice": "0x77359400"
    },
    {
      "transactionHash": "0x4b8b674e9c866afb67aa93304ed6672f11eef4e4064691ad818945fc86b77538",
      "transactionIndex": "0x14",
      "blockHash": "0x545a763a3142f178498d9b090b9bb53bb15c8964308f3736db8e7392bbf4c853",
      "blockNumber": "0x260e3b2",
      "from": "0x27870DBa1e03CFDD24F5658b255c0BAaC970A19D",
      "to": "0x380f373cACaFdd87E9A210CC0AE3DB5f8670BF2F",
      "cumulativeGasUsed": "0x3d35c2",
      "gasUsed": "0x15523",
      "contractAddress": null,
      "logs": [
        {
          "address": "0x380f373cACaFdd87E9A210CC0AE3DB5f8670BF2F",
          "topics": [
            "0xc3d58168c5ae7397731d063d5bbf3d657854427343f4c083240f7aacaa2d0f62",
            "0x00000000000000000000000027870dba1e03cfdd24f5658b255c0baac970a19d",
            "0x0000000000000000000000000000000000000000000000000000000000000000",
            "0x0000000000000000000000005b095fa9f69062ed7ed78e436075555ad4c4d555"
          ],
          "data": "0x000000000000000000000000000000000000000000000000000000000000000100000000000000000000000000000000000000000000000000000000000003e8",
          "blockHash": "0x545a763a3142f178498d9b090b9bb53bb15c8964308f3736db8e7392bbf4c853",
          "blockNumber": "0x260e3b2",
          "transactionHash": "0x4b8b674e9c866afb67aa93304ed6672f11eef4e4064691ad818945fc86b77538",
          "transactionIndex": "0x14",
          "logIndex": "0x6b",
          "removed": false
        },
        {
          "address": "0x0000000000000000000000000000000000001010",
          "topics": [
            "0x4dfe1bbbcf077ddc3e01291eea2d5c70c2b422b415d95645b9adcfd678cb1d63",
            "0x0000000000000000000000000000000000000000000000000000000000001010",
            "0x00000000000000000000000027870dba1e03cfdd24f5658b255c0baac970a19d",
            "0x0000000000000000000000005082f249cdb2f2c1ee035e4f423c46ea2dab3ab1"
          ],
          "data": "0x00000000000000000000000000000000000000000000000000009edaaa5dea6700000000000000000000000000000000000000000000000006df99097920ec0000000000000000000000000000000000000000000000012603cbdf55a03da74300000000000000000000000000000000000000000000000006defa2ecec3019900000000000000000000000000000000000000000000012603cc7e304a9b91aa",
          "blockHash": "0x545a763a3142f178498d9b090b9bb53bb15c8964308f3736db8e7392bbf4c853",
          "blockNumber": "0x260e3b2",
          "transactionHash": "0x4b8b674e9c866afb67aa93304ed6672f11eef4e4064691ad818945fc86b77538",
          "transactionIndex": "0x14",
          "logIndex": "0x6c",
          "removed": false
        }
      ],
      "status": "0x1",
      "logsBloom": "0x00000000000000000000000000000000000000000000000000000000020000100000000002000000000000000000000000008000000000000000000000002000000000000000000000000002000000800000000000020000000100000000000001000000020000000000000000000800000080000000000080000000000000000000000000000000000000000000000000000000000000000000000202000000200000000000000000000000000000000000000000000000000000000000004000000000000000000001000000000000000000000008000000100000000020000000000000002080000400000000000000000000000000000000080000100000",
      "type": "0x2",
      "effectiveGasPrice": "0x77359400"
    }
  ],
  "libraries": [],
  "pending": [],
  "returns": {},
  "timestamp": 1694202619,
  "chain": 80001,
  "multi": false,
  "commit": "88459b2"
}