{
  "transactions": [
    {
      "hash": "0xb749b5960d1baaf472365fe745be7e7a1f6039ee94105caf7e17061bd9d90975",
      "transactionType": "CALL",
      "contractName": "TronicMembership",
      "contractAddress": "0xB5c837FD932FBED9Ef38203AaD6F07dc5A35272C",
      "function": "mint(address):(address)",
      "arguments": [
        "0x1f2c1e4E9C77667920c920C91BF33a27c1662508"
      ],
      "transaction": {
        "type": "0x02",
        "from": "0xddddf33b5301b9479cdcbcfff22946e9b54ea76d",
        "to": "0xb5c837fd932fbed9ef38203aad6f07dc5a35272c",
        "gas": "0x49a77",
        "value": "0x0",
        "data": "0x6a6278420000000000000000000000001f2c1e4e9c77667920c920c91bf33a27c1662508",
        "nonce": "0x16",
        "accessList": []
      },
      "additionalContracts": [
        {
          "transactionType": "CREATE2",
          "address": "0x36a0f8A50A27F08812dD64f975b2C2D71C6F895A",
          "initCode": "0x3d60ad80600a3d3981f3363d3d373d3d3d363d732d25602551487c3f3354dd80d76d54383a2433585af43d82803e903d91602b57fd5bf300000000000000000000000000000000000000000000000000000000000000000000000000000000000000000000000000000000000000000000000000013881000000000000000000000000b5c837fd932fbed9ef38203aad6f07dc5a35272c0000000000000000000000000000000000000000000000000000000000000001"
        }
      ],
      "isFixedGasLimit": false
    },
    {
      "hash": "0x7fff10df20f1b25f3ecbe4091204f36df1b6db8e4b781c9544d83acf8370425b",
      "transactionType": "CALL",
      "contractName": "TronicToken",
      "contractAddress": "0xdb02312EF6d6ec9c24Fc77A18d1F91A7Ef796A07",
      "function": "mintFungible(address,uint256,uint64)",
      "arguments": [
        "0x36a0f8A50A27F08812dD64f975b2C2D71C6F895A",
        "1",
        "1000"
      ],
      "transaction": {
        "type": "0x02",
        "from": "0xddddf33b5301b9479cdcbcfff22946e9b54ea76d",
        "to": "0xdb02312ef6d6ec9c24fc77a18d1f91a7ef796a07",
        "gas": "0x1d74e",
        "value": "0x0",
        "data": "0x6dcb111d00000000000000000000000036a0f8a50a27f08812dd64f975b2c2d71c6f895a000000000000000000000000000000000000000000000000000000000000000100000000000000000000000000000000000000000000000000000000000003e8",
        "nonce": "0x17",
        "accessList": []
      },
      "additionalContracts": [],
      "isFixedGasLimit": false
    }
  ],
  "receipts": [
    {
      "transactionHash": "0xb749b5960d1baaf472365fe745be7e7a1f6039ee94105caf7e17061bd9d90975",
      "transactionIndex": "0x0",
      "blockHash": "0xf0e7b746de460958a04bba82626faa79c4fa6bb1f67ef761f0e4b73115111ab6",
      "blockNumber": "0x26abd78",
      "from": "0xdddDF33B5301b9479cdcbCfff22946E9B54eA76d",
      "to": "0xB5c837FD932FBED9Ef38203AaD6F07dc5A35272C",
      "cumulativeGasUsed": "0x325ca",
      "gasUsed": "0x325ca",
      "contractAddress": null,
      "logs": [
        {
          "address": "0x02101dfB77FDE026414827Fdc604ddAF224F0921",
          "topics": [
            "0x07fba7bba1191da7ee1155dcfa0030701c9c9a9cc34a93b991fc6fd0c9268d8f"
          ],
          "data": "0x00000000000000000000000036a0f8a50a27f08812dd64f975b2c2d71c6f895a0000000000000000000000002d25602551487c3f3354dd80d76d54383a2433580000000000000000000000000000000000000000000000000000000000013881000000000000000000000000b5c837fd932fbed9ef38203aad6f07dc5a35272c00000000000000000000000000000000000000000000000000000000000000010000000000000000000000000000000000000000000000000000000000000000",
          "blockHash": "0xf0e7b746de460958a04bba82626faa79c4fa6bb1f67ef761f0e4b73115111ab6",
          "blockNumber": "0x26abd78",
          "transactionHash": "0xb749b5960d1baaf472365fe745be7e7a1f6039ee94105caf7e17061bd9d90975",
          "transactionIndex": "0x0",
          "logIndex": "0x0",
          "removed": false
        },
        {
          "address": "0x36a0f8A50A27F08812dD64f975b2C2D71C6F895A",
          "topics": [
            "0xbc7cd75a20ee27fd9adebab32041f755214dbc6bffa90cc0225b39da2e5c2d3b",
            "0x0000000000000000000000001a0e97dae78590b7e967e725a5c848ed034f5510"
          ],
          "data": "0x",
          "blockHash": "0xf0e7b746de460958a04bba82626faa79c4fa6bb1f67ef761f0e4b73115111ab6",
          "blockNumber": "0x26abd78",
          "transactionHash": "0xb749b5960d1baaf472365fe745be7e7a1f6039ee94105caf7e17061bd9d90975",
          "transactionIndex": "0x0",
          "logIndex": "0x1",
          "removed": false
        },
        {
          "address": "0xB5c837FD932FBED9Ef38203AaD6F07dc5A35272C",
          "topics": [
            "0xddf252ad1be2c89b69c2b068fc378daa952ba7f163c4a11628f55a4df523b3ef",
            "0x0000000000000000000000000000000000000000000000000000000000000000",
            "0x0000000000000000000000001f2c1e4e9c77667920c920c91bf33a27c1662508",
            "0x0000000000000000000000000000000000000000000000000000000000000001"
          ],
          "data": "0x",
          "blockHash": "0xf0e7b746de460958a04bba82626faa79c4fa6bb1f67ef761f0e4b73115111ab6",
          "blockNumber": "0x26abd78",
          "transactionHash": "0xb749b5960d1baaf472365fe745be7e7a1f6039ee94105caf7e17061bd9d90975",
          "transactionIndex": "0x0",
          "logIndex": "0x2",
          "removed": false
        },
        {
          "address": "0x0000000000000000000000000000000000001010",
          "topics": [
            "0x4dfe1bbbcf077ddc3e01291eea2d5c70c2b422b415d95645b9adcfd678cb1d63",
            "0x0000000000000000000000000000000000000000000000000000000000001010",
            "0x000000000000000000000000ddddf33b5301b9479cdcbcfff22946e9b54ea76d",
            "0x000000000000000000000000f903ba9e006193c1527bfbe65fe2123704ea3f99"
          ],
          "data": "0x000000000000000000000000000000000000000000000000000177398a7b912a0000000000000000000000000000000000000000000000000db40595f9c9d0000000000000000000000000000000000000000000000011675a0b8dc7464c44ca0000000000000000000000000000000000000000000000000db28e5c6f4e3ed60000000000000000000000000000000000000000000011675a0d0500d0c7d5f4",
          "blockHash": "0xf0e7b746de460958a04bba82626faa79c4fa6bb1f67ef761f0e4b73115111ab6",
          "blockNumber": "0x26abd78",
          "transactionHash": "0xb749b5960d1baaf472365fe745be7e7a1f6039ee94105caf7e17061bd9d90975",
          "transactionIndex": "0x0",
          "logIndex": "0x3",
          "removed": false
        }
      ],
      "status": "0x1",
      "logsBloom": "0x00000000000000000000001000000000400000000020000000000010020000000000800000040020000000000000000000009000020000000000000000040002000000000000000000000008000002800000000000040000000100000000800000000000820000000000000000000800000000000000000080000010008000000000000000000000000000000200000000000000000000000000000000000000200000000000000000000000000000000000002000000000000000000000004000000022040000000001000000000040000000000100000000180000001060000000001000000200000000000000000200000000000000000000002000100000",
      "type": "0x2",
      "effectiveGasPrice": "0x77359400"
    },
    {
      "transactionHash": "0x7fff10df20f1b25f3ecbe4091204f36df1b6db8e4b781c9544d83acf8370425b",
      "transactionIndex": "0x1",
      "blockHash": "0xf0e7b746de460958a04bba82626faa79c4fa6bb1f67ef761f0e4b73115111ab6",
      "blockNumber": "0x26abd78",
      "from": "0xdddDF33B5301b9479cdcbCfff22946E9B54eA76d",
      "to": "0xdb02312EF6d6ec9c24Fc77A18d1F91A7Ef796A07",
      "cumulativeGasUsed": "0x47b02",
      "gasUsed": "0x15538",
      "contractAddress": null,
      "logs": [
        {
          "address": "0xdb02312EF6d6ec9c24Fc77A18d1F91A7Ef796A07",
          "topics": [
            "0xc3d58168c5ae7397731d063d5bbf3d657854427343f4c083240f7aacaa2d0f62",
            "0x000000000000000000000000ddddf33b5301b9479cdcbcfff22946e9b54ea76d",
            "0x0000000000000000000000000000000000000000000000000000000000000000",
            "0x00000000000000000000000036a0f8a50a27f08812dd64f975b2c2d71c6f895a"
          ],
          "data": "0x000000000000000000000000000000000000000000000000000000000000000100000000000000000000000000000000000000000000000000000000000003e8",
          "blockHash": "0xf0e7b746de460958a04bba82626faa79c4fa6bb1f67ef761f0e4b73115111ab6",
          "blockNumber": "0x26abd78",
          "transactionHash": "0x7fff10df20f1b25f3ecbe4091204f36df1b6db8e4b781c9544d83acf8370425b",
          "transactionIndex": "0x1",
          "logIndex": "0x4",
          "removed": false
        },
        {
          "address": "0x0000000000000000000000000000000000001010",
          "topics": [
            "0x4dfe1bbbcf077ddc3e01291eea2d5c70c2b422b415d95645b9adcfd678cb1d63",
            "0x0000000000000000000000000000000000000000000000000000000000001010",
            "0x000000000000000000000000ddddf33b5301b9479cdcbcfff22946e9b54ea76d",
            "0x000000000000000000000000f903ba9e006193c1527bfbe65fe2123704ea3f99"
          ],
          "data": "0x00000000000000000000000000000000000000000000000000009ee471c861b80000000000000000000000000000000000000000000000000db28e5c6f1f08000000000000000000000000000000000000000000000011675a0d0500d0c7d5f40000000000000000000000000000000000000000000000000db1ef77fd56a6480000000000000000000000000000000000000000000011675a0da3e5429037ac",
          "blockHash": "0xf0e7b746de460958a04bba82626faa79c4fa6bb1f67ef761f0e4b73115111ab6",
          "blockNumber": "0x26abd78",
          "transactionHash": "0x7fff10df20f1b25f3ecbe4091204f36df1b6db8e4b781c9544d83acf8370425b",
          "transactionIndex": "0x1",
          "logIndex": "0x5",
          "removed": false
        }
      ],
      "status": "0x1",
      "logsBloom": "0x00000000000000000000080000000000000000000000000000000010020000000000000000000020000400000000000000008000000000000000000000002000000000000000000000000000000000800000000000000000000100000000000000000000020000000000000800000800000000000000000080000000000000000000000000000000000000000000000000000000000000000000000000000000200000000000000000000000000000000000000000000000000000000000084000000000000000000001000000000040000000000108000000100000001020000000000000000000010000000000000000000004000000000000080000100000",
      "type": "0x2",
      "effectiveGasPrice": "0x77359400"
    }
  ],
  "libraries": [],
  "pending": [],
  "returns": {},
  "timestamp": 1695758686,
  "chain": 80001,
  "multi": false,
  "commit": "04215ea"
}