{
  "transactions": [
    {
      "hash": "0x6947dae9f18375a61050297e517403099216265bc3ec648295a5e82bb9f33082",
      "transactionType": "CALL",
      "contractName": "TronicMembership",
      "contractAddress": "0x3c58d516Fa4Fa46B8eFa821af410277b0bd32Bd0",
      "function": "mint(address):(address)",
      "arguments": [
        "0xcadAc3602811E55dc75CF283eE0e66Da87f7E80C"
      ],
      "transaction": {
        "type": "0x02",
        "from": "0x27870dba1e03cfdd24f5658b255c0baac970a19d",
        "to": "0x3c58d516fa4fa46b8efa821af410277b0bd32bd0",
        "gas": "0x5db6c",
        "value": "0x0",
        "data": "0x6a627842000000000000000000000000cadac3602811e55dc75cf283ee0e66da87f7e80c",
        "nonce": "0x8",
        "accessList": []
      },
      "additionalContracts": [
        {
          "transactionType": "CREATE2",
          "address": "0x5B095fA9f69062Ed7ed78e436075555ad4c4d555",
          "initCode": "0x3d60ad80600a3d3981f3363d3d373d3d3d363d732d25602551487c3f3354dd80d76d54383a2433585af43d82803e903d91602b57fd5bf3000000000000000000000000000000000000000000000000000000000000000000000000000000000000000000000000000000000000000000000000000138810000000000000000000000003c58d516fa4fa46b8efa821af410277b0bd32bd00000000000000000000000000000000000000000000000000000000000000001"
        }
      ],
      "isFixedGasLimit": false
    },
    {
      "hash": "0x4b8b674e9c866afb67aa93304ed6672f11eef4e4064691ad818945fc86b77538",
      "transactionType": "CALL",
      "contractName": null,
      "contractAddress": "0x380f373cACaFdd87E9A210CC0AE3DB5f8670BF2F",
      "function": null,
      "arguments": null,
      "transaction": {
        "type": "0x02",
        "from": "0x27870dba1e03cfdd24f5658b255c0baac970a19d",
        "to": "0x380f373cacafdd87e9a210cc0ae3db5f8670bf2f",
        "gas": "0x1f2e9",
        "value": "0x0",
        "data": "0x6dcb111d0000000000000000000000005b095fa9f69062ed7ed78e436075555ad4c4d555000000000000000000000000000000000000000000000000000000000000000100000000000000000000000000000000000000000000000000000000000003e8",
        "nonce": "0x9",
        "accessList": []
      },
      "additionalContracts": [],
      "isFixedGasLimit": false
    }
  ],
  "receipts": [],
  "libraries": [],
  "pending": [
    "0x6947dae9f18375a61050297e517403099216265bc3ec648295a5e82bb9f33082",
    "0x4b8b674e9c866afb67aa93304ed6672f11eef4e4064691ad818945fc86b77538"
  ],
  "returns": {},
  "timestamp": 1694202613,
  "chain": 80001,
  "multi": false,
  "commit": "88459b2"
}