{
  "transactions": [
    {
      "hash": "0x0fc0509b01bdcd8e20ffc575a1cdc51cce143ba030deec43eec5a220e3af336f",
      "transactionType": "CALL",
      "contractName": null,
      "contractAddress": "0xE2d112D8f629031822135939Eb20Ca798eb5127C",
      "function": "mint(address,uint256):(address)",
      "arguments": [
        "0x7618Ce5062b153306284B7267E66526Bf8DBB497",
        "1"
      ],
      "transaction": {
        "type": "0x02",
        "from": "0x42c7ef198f8ac9888e2b1b73e5b71f1d4535194a",
        "to": "0xe2d112d8f629031822135939eb20ca798eb5127c",
        "gas": "0x56622",
        "value": "0x0",
        "data": "0x40c10f190000000000000000000000007618ce5062b153306284b7267e66526bf8dbb4970000000000000000000000000000000000000000000000000000000000000001",
        "nonce": "0x5b",
        "accessList": []
      },
      "additionalContracts": [
        {
          "transactionType": "CREATE2",
          "address": "0xC03F52e87f41f8e2907e2410695ab59492f6aDEf",
          "initCode": "3d60ad80600a3d3981f3363d3d373d3d3d363d732d25602551487c3f3354dd80d76d54383a2433585af43d82803e903d91602b57fd5bf300000000000000000000000000000000000000000000000000000000000000000000000000000000000000000000000000000000000000000000000000aa36a7000000000000000000000000e2d112d8f629031822135939eb20ca798eb5127c0000000000000000000000000000000000000000000000000000000000000001"
        }
      ],
      "isFixedGasLimit": false
    },
    {
      "hash": "0x227c9c9d7673e4144a37747998982667625414463417c29065614b57cc23a02e",
      "transactionType": "CALL",
      "contractName": null,
      "contractAddress": "0x44C3D436f99E11C453d23A0ae80CB2e0269dF3Dc",
      "function": "mint(address,uint256):(address)",
      "arguments": [
        "0x7618Ce5062b153306284B7267E66526Bf8DBB497",
        "1"
      ],
      "transaction": {
        "type": "0x02",
        "from": "0x42c7ef198f8ac9888e2b1b73e5b71f1d4535194a",
        "to": "0x44c3d436f99e11c453d23a0ae80cb2e0269df3dc",
        "gas": "0x56622",
        "value": "0x0",
        "data": "0x40c10f190000000000000000000000007618ce5062b153306284b7267e66526bf8dbb4970000000000000000000000000000000000000000000000000000000000000001",
        "nonce": "0x5c",
        "accessList": []
      },
      "additionalContracts": [
        {
          "transactionType": "CREATE2",
          "address": "0xCc2783D651199EE2D8A8Ed3Ebe26F57C4e5BD362",
          "initCode": "3d60ad80600a3d3981f3363d3d373d3d3d363d732d25602551487c3f3354dd80d76d54383a2433585af43d82803e903d91602b57fd5bf300000000000000000000000000000000000000000000000000000000000000000000000000000000000000000000000000000000000000000000000000aa36a700000000000000000000000044c3d436f99e11c453d23a0ae80cb2e0269df3dc0000000000000000000000000000000000000000000000000000000000000001"
        }
      ],
      "isFixedGasLimit": false
    }
  ],
  "receipts": [
    {
      "transactionHash": "0x0fc0509b01bdcd8e20ffc575a1cdc51cce143ba030deec43eec5a220e3af336f",
      "transactionIndex": "0x3",
      "blockHash": "0x092f7e878aa78a770f58700795abbfca3170590d236f60c537ede8a569a4df21",
      "blockNumber": "0x3de9eb",
      "from": "0x42C7eF198f8aC9888E2B1b73e5B71f1D4535194A",
      "to": "0xE2d112D8f629031822135939Eb20Ca798eb5127C",
      "cumulativeGasUsed": "0x8a6e4",
      "gasUsed": "0x3e8b0",
      "contractAddress": null,
      "logs": [
        {
          "address": "0x02101dfB77FDE026414827Fdc604ddAF224F0921",
          "topics": [
            "0x07fba7bba1191da7ee1155dcfa0030701c9c9a9cc34a93b991fc6fd0c9268d8f"
          ],
          "data": "0x000000000000000000000000c03f52e87f41f8e2907e2410695ab59492f6adef0000000000000000000000002d25602551487c3f3354dd80d76d54383a2433580000000000000000000000000000000000000000000000000000000000aa36a7000000000000000000000000e2d112d8f629031822135939eb20ca798eb5127c00000000000000000000000000000000000000000000000000000000000000010000000000000000000000000000000000000000000000000000000000000000",
          "blockHash": "0x092f7e878aa78a770f58700795abbfca3170590d236f60c537ede8a569a4df21",
          "blockNumber": "0x3de9eb",
          "transactionHash": "0x0fc0509b01bdcd8e20ffc575a1cdc51cce143ba030deec43eec5a220e3af336f",
          "transactionIndex": "0x3",
          "logIndex": "0x0",
          "removed": false
        },
        {
          "address": "0xC03F52e87f41f8e2907e2410695ab59492f6aDEf",
          "topics": [
            "0xbc7cd75a20ee27fd9adebab32041f755214dbc6bffa90cc0225b39da2e5c2d3b",
            "0x0000000000000000000000001a0e97dae78590b7e967e725a5c848ed034f5510"
          ],
          "data": "0x",
          "blockHash": "0x092f7e878aa78a770f58700795abbfca3170590d236f60c537ede8a569a4df21",
          "blockNumber": "0x3de9eb",
          "transactionHash": "0x0fc0509b01bdcd8e20ffc575a1cdc51cce143ba030deec43eec5a220e3af336f",
          "transactionIndex": "0x3",
          "logIndex": "0x1",
          "removed": false
        },
        {
          "address": "0xE2d112D8f629031822135939Eb20Ca798eb5127C",
          "topics": [
            "0xddf252ad1be2c89b69c2b068fc378daa952ba7f163c4a11628f55a4df523b3ef",
            "0x0000000000000000000000000000000000000000000000000000000000000000",
            "0x0000000000000000000000007618ce5062b153306284b7267e66526bf8dbb497",
            "0x0000000000000000000000000000000000000000000000000000000000000001"
          ],
          "data": "0x",
          "blockHash": "0x092f7e878aa78a770f58700795abbfca3170590d236f60c537ede8a569a4df21",
          "blockNumber": "0x3de9eb",
          "transactionHash": "0x0fc0509b01bdcd8e20ffc575a1cdc51cce143ba030deec43eec5a220e3af336f",
          "transactionIndex": "0x3",
          "logIndex": "0x2",
          "removed": false
        }
      ],
      "status": "0x1",
      "logsBloom": "0x00000000000000000000000000000000400000000020000000000000000000000000000000000000000000000000000000001000000000800000000000040002000000000000000000000008000002000000000000040020000000000000800000000000020000000000000000000800000000000000000000000010248000000000000000800000000000000200000000000000000000000000000800000000000000000000000000000000000000000000000000000000000000000000000000000022020000000000000000000000000000000000000000080000000060000000001000000000000000000000000000800000000000000000002000000000",
      "type": "0x2",
      "effectiveGasPrice": "0xbe2ecda5"
    },
    {
      "transactionHash": "0x227c9c9d7673e4144a37747998982667625414463417c29065614b57cc23a02e",
      "transactionIndex": "0x4",
      "blockHash": "0x092f7e878aa78a770f58700795abbfca3170590d236f60c537ede8a569a4df21",
      "blockNumber": "0x3de9eb",
      "from": "0x42C7eF198f8aC9888E2B1b73e5B71f1D4535194A",
      "to": "0x44C3D436f99E11C453d23A0ae80CB2e0269dF3Dc",
      "cumulativeGasUsed": "0xc8f94",
      "gasUsed": "0x3e8b0",
      "contractAddress": null,
      "logs": [
        {
          "address": "0x02101dfB77FDE026414827Fdc604ddAF224F0921",
          "topics": [
            "0x07fba7bba1191da7ee1155dcfa0030701c9c9a9cc34a93b991fc6fd0c9268d8f"
          ],
          "data": "0x000000000000000000000000cc2783d651199ee2d8a8ed3ebe26f57c4e5bd3620000000000000000000000002d25602551487c3f3354dd80d76d54383a2433580000000000000000000000000000000000000000000000000000000000aa36a700000000000000000000000044c3d436f99e11c453d23a0ae80cb2e0269df3dc00000000000000000000000000000000000000000000000000000000000000010000000000000000000000000000000000000000000000000000000000000000",
          "blockHash": "0x092f7e878aa78a770f58700795abbfca3170590d236f60c537ede8a569a4df21",
          "blockNumber": "0x3de9eb",
          "transactionHash": "0x227c9c9d7673e4144a37747998982667625414463417c29065614b57cc23a02e",
          "transactionIndex": "0x4",
          "logIndex": "0x3",
          "removed": false
        },
        {
          "address": "0xCc2783D651199EE2D8A8Ed3Ebe26F57C4e5BD362",
          "topics": [
            "0xbc7cd75a20ee27fd9adebab32041f755214dbc6bffa90cc0225b39da2e5c2d3b",
            "0x0000000000000000000000001a0e97dae78590b7e967e725a5c848ed034f5510"
          ],
          "data": "0x",
          "blockHash": "0x092f7e878aa78a770f58700795abbfca3170590d236f60c537ede8a569a4df21",
          "blockNumber": "0x3de9eb",
          "transactionHash": "0x227c9c9d7673e4144a37747998982667625414463417c29065614b57cc23a02e",
          "transactionIndex": "0x4",
          "logIndex": "0x4",
          "removed": false
        },
        {
          "address": "0x44C3D436f99E11C453d23A0ae80CB2e0269dF3Dc",
          "topics": [
            "0xddf252ad1be2c89b69c2b068fc378daa952ba7f163c4a11628f55a4df523b3ef",
            "0x0000000000000000000000000000000000000000000000000000000000000000",
            "0x0000000000000000000000007618ce5062b153306284b7267e66526bf8dbb497",
            "0x0000000000000000000000000000000000000000000000000000000000000001"
          ],
          "data": "0x",
          "blockHash": "0x092f7e878aa78a770f58700795abbfca3170590d236f60c537ede8a569a4df21",
          "blockNumber": "0x3de9eb",
          "transactionHash": "0x227c9c9d7673e4144a37747998982667625414463417c29065614b57cc23a02e",
          "transactionIndex": "0x4",
          "logIndex": "0x5",
          "removed": false
        }
      ],
      "status": "0x1",
      "logsBloom": "0x00000000000000000000000000000000400000000020000000000000000000000000000000000000000000000000000000001000000000800000000004040002000000000000000020000008000002000000000000040000000000000000800000000000020000000000000000000800000000000000000000000010208000000000000000000000000000000300000000000000000000000000000800000000000000000000000040000000000000000000000000000000000000000000000000000022000000000000000000000000000000000020000000080000000060000000001000000000000000000000000000000000000008000000002000000000",
      "type": "0x2",
      "effectiveGasPrice": "0xbe2ecda5"
    }
  ],
  "libraries": [],
  "pending": [],
  "returns": {},
  "timestamp": 1691616196,
  "chain": 11155111,
  "multi": false,
  "commit": "af42b49"
}