{
  "transactions": [
    {
      "hash": "0x3baf805e24e845a942327af49115eb356d362312b9d04437c097f869dfb53cc9",
      "transactionType": "CALL",
      "contractName": "TronicMembership",
      "contractAddress": "0xe95784D2C873687f5BC987bEaaa4df93E4EE7F2E",
      "function": "mint(address):(address)",
      "arguments": [
        "0x09422CabAcCecf7b9670575Cb0425a519A713A97"
      ],
      "transaction": {
        "type": "0x02",
        "from": "0x42c7ef198f8ac9888e2b1b73e5b71f1d4535194a",
        "to": "0xe95784d2c873687f5bc987beaaa4df93e4ee7f2e",
        "gas": "0x5e9d7",
        "value": "0x0",
        "data": "0x6a62784200000000000000000000000009422cabaccecf7b9670575cb0425a519a713a97",
        "nonce": "0xa9",
        "accessList": []
      },
      "additionalContracts": [
        {
          "transactionType": "CREATE2",
          "address": "0x312a5342d4E1764e2Ca4002Dea30298913fF82eE",
          "initCode": "0x3d60ad80600a3d3981f3363d3d373d3d3d363d732d25602551487c3f3354dd80d76d54383a2433585af43d82803e903d91602b57fd5bf300000000000000000000000000000000000000000000000000000000000000000000000000000000000000000000000000000000000000000000000000aa36a7000000000000000000000000e95784d2c873687f5bc987beaaa4df93e4ee7f2e0000000000000000000000000000000000000000000000000000000000000001"
        }
      ],
      "isFixedGasLimit": false
    },
    {
      "hash": "0x85c66e12a575a05b4b1ec127b794daa35182022c38801ff8221bff2b574e5d22",
      "transactionType": "CALL",
      "contractName": "TronicMembership",
      "contractAddress": "0x82056c913Cfb1C4092EF8d81e6BEF18417f1c3da",
      "function": "mint(address):(address)",
      "arguments": [
        "0x09422CabAcCecf7b9670575Cb0425a519A713A97"
      ],
      "transaction": {
        "type": "0x02",
        "from": "0x42c7ef198f8ac9888e2b1b73e5b71f1d4535194a",
        "to": "0x82056c913cfb1c4092ef8d81e6bef18417f1c3da",
        "gas": "0x5e9d7",
        "value": "0x0",
        "data": "0x6a62784200000000000000000000000009422cabaccecf7b9670575cb0425a519a713a97",
        "nonce": "0xaa",
        "accessList": []
      },
      "additionalContracts": [
        {
          "transactionType": "CREATE2",
          "address": "0xA906EE08b03EC0C3065a6bb5339eFFc7EC59655F",
          "initCode": "0x3d60ad80600a3d3981f3363d3d373d3d3d363d732d25602551487c3f3354dd80d76d54383a2433585af43d82803e903d91602b57fd5bf300000000000000000000000000000000000000000000000000000000000000000000000000000000000000000000000000000000000000000000000000aa36a700000000000000000000000082056c913cfb1c4092ef8d81e6bef18417f1c3da0000000000000000000000000000000000000000000000000000000000000001"
        }
      ],
      "isFixedGasLimit": false
    }
  ],
  "receipts": [
    {
      "transactionHash": "0x3baf805e24e845a942327af49115eb356d362312b9d04437c097f869dfb53cc9",
      "transactionIndex": "0x1",
      "blockHash": "0xfc799eb616e349d4f73d41bafd11d7926f93c8f388c834552fde3382b126a7fd",
      "blockNumber": "0x40c507",
      "from": "0x42C7eF198f8aC9888E2B1b73e5B71f1D4535194A",
      "to": "0xe95784D2C873687f5BC987bEaaa4df93E4EE7F2E",
      "cumulativeGasUsed": "0x49a13",
      "gasUsed": "0x4480b",
      "contractAddress": null,
      "logs": [
        {
          "address": "0x02101dfB77FDE026414827Fdc604ddAF224F0921",
          "topics": [
            "0x07fba7bba1191da7ee1155dcfa0030701c9c9a9cc34a93b991fc6fd0c9268d8f"
          ],
          "data": "0x000000000000000000000000312a5342d4e1764e2ca4002dea30298913ff82ee0000000000000000000000002d25602551487c3f3354dd80d76d54383a2433580000000000000000000000000000000000000000000000000000000000aa36a7000000000000000000000000e95784d2c873687f5bc987beaaa4df93e4ee7f2e00000000000000000000000000000000000000000000000000000000000000010000000000000000000000000000000000000000000000000000000000000000",
          "blockHash": "0xfc799eb616e349d4f73d41bafd11d7926f93c8f388c834552fde3382b126a7fd",
          "blockNumber": "0x40c507",
          "transactionHash": "0x3baf805e24e845a942327af49115eb356d362312b9d04437c097f869dfb53cc9",
          "transactionIndex": "0x1",
          "logIndex": "0x0",
          "removed": false
        },
        {
          "address": "0x312a5342d4E1764e2Ca4002Dea30298913fF82eE",
          "topics": [
            "0xbc7cd75a20ee27fd9adebab32041f755214dbc6bffa90cc0225b39da2e5c2d3b",
            "0x0000000000000000000000001a0e97dae78590b7e967e725a5c848ed034f5510"
          ],
          "data": "0x",
          "blockHash": "0xfc799eb616e349d4f73d41bafd11d7926f93c8f388c834552fde3382b126a7fd",
          "blockNumber": "0x40c507",
          "transactionHash": "0x3baf805e24e845a942327af49115eb356d362312b9d04437c097f869dfb53cc9",
          "transactionIndex": "0x1",
          "logIndex": "0x1",
          "removed": false
        },
        {
          "address": "0xe95784D2C873687f5BC987bEaaa4df93E4EE7F2E",
          "topics": [
            "0xddf252ad1be2c89b69c2b068fc378daa952ba7f163c4a11628f55a4df523b3ef",
            "0x0000000000000000000000000000000000000000000000000000000000000000",
            "0x00000000000000000000000009422cabaccecf7b9670575cb0425a519a713a97",
            "0x0000000000000000000000000000000000000000000000000000000000000001"
          ],
          "data": "0x",
          "blockHash": "0xfc799eb616e349d4f73d41bafd11d7926f93c8f388c834552fde3382b126a7fd",
          "blockNumber": "0x40c507",
          "transactionHash": "0x3baf805e24e845a942327af49115eb356d362312b9d04437c097f869dfb53cc9",
          "transactionIndex": "0x1",
          "logIndex": "0x2",
          "removed": false
        }
      ],
      "status": "0x1",
      "logsBloom": "0x00000000000000000000000000000000400000000020000000000800000000000000000000000000000000000000000000001000000000200000000000040002000000000000000000000008000202000000000000040000000000000200800000000000020000400000000000400800000000000000000000000010008000000000000000000000000000000200000000000000000000000000000000000000000000000000040000000000000000000000000000000000000000000000000010000022000000000000000000000000000000000000000000080000000060000000001000000000000000800000000000000000000000000000002000000000",
      "type": "0x2",
      "effectiveGasPrice": "0xb2d05e0b"
    },
    {
      "transactionHash": "0x85c66e12a575a05b4b1ec127b794daa35182022c38801ff8221bff2b574e5d22",
      "transactionIndex": "0x2",
      "blockHash": "0xfc799eb616e349d4f73d41bafd11d7926f93c8f388c834552fde3382b126a7fd",
      "blockNumber": "0x40c507",
      "from": "0x42C7eF198f8aC9888E2B1b73e5B71f1D4535194A",
      "to": "0x82056c913Cfb1C4092EF8d81e6BEF18417f1c3da",
      "cumulativeGasUsed": "0x8e21e",
      "gasUsed": "0x4480b",
      "contractAddress": null,
      "logs": [
        {
          "address": "0x02101dfB77FDE026414827Fdc604ddAF224F0921",
          "topics": [
            "0x07fba7bba1191da7ee1155dcfa0030701c9c9a9cc34a93b991fc6fd0c9268d8f"
          ],
          "data": "0x000000000000000000000000a906ee08b03ec0c3065a6bb5339effc7ec59655f0000000000000000000000002d25602551487c3f3354dd80d76d54383a2433580000000000000000000000000000000000000000000000000000000000aa36a700000000000000000000000082056c913cfb1c4092ef8d81e6bef18417f1c3da00000000000000000000000000000000000000000000000000000000000000010000000000000000000000000000000000000000000000000000000000000000",
          "blockHash": "0xfc799eb616e349d4f73d41bafd11d7926f93c8f388c834552fde3382b126a7fd",
          "blockNumber": "0x40c507",
          "transactionHash": "0x85c66e12a575a05b4b1ec127b794daa35182022c38801ff8221bff2b574e5d22",
          "transactionIndex": "0x2",
          "logIndex": "0x3",
          "removed": false
        },
        {
          "address": "0xA906EE08b03EC0C3065a6bb5339eFFc7EC59655F",
          "topics": [
            "0xbc7cd75a20ee27fd9adebab32041f755214dbc6bffa90cc0225b39da2e5c2d3b",
            "0x0000000000000000000000001a0e97dae78590b7e967e725a5c848ed034f5510"
          ],
          "data": "0x",
          "blockHash": "0xfc799eb616e349d4f73d41bafd11d7926f93c8f388c834552fde3382b126a7fd",
          "blockNumber": "0x40c507",
          "transactionHash": "0x85c66e12a575a05b4b1ec127b794daa35182022c38801ff8221bff2b574e5d22",
          "transactionIndex": "0x2",
          "logIndex": "0x4",
          "removed": false
        },
        {
          "address": "0x82056c913Cfb1C4092EF8d81e6BEF18417f1c3da",
          "topics": [
            "0xddf252ad1be2c89b69c2b068fc378daa952ba7f163c4a11628f55a4df523b3ef",
            "0x0000000000000000000000000000000000000000000000000000000000000000",
            "0x00000000000000000000000009422cabaccecf7b9670575cb0425a519a713a97",
            "0x0000000000000000000000000000000000000000000000000000000000000001"
          ],
          "data": "0x",
          "blockHash": "0xfc799eb616e349d4f73d41bafd11d7926f93c8f388c834552fde3382b126a7fd",
          "blockNumber": "0x40c507",
          "transactionHash": "0x85c66e12a575a05b4b1ec127b794daa35182022c38801ff8221bff2b574e5d22",
          "transactionIndex": "0x2",
          "logIndex": "0x5",
          "removed": false
        }
      ],
      "status": "0x1",
      "logsBloom": "0x00000000000000000040000000000000400000000020000000000000000000000000000000000000000000000000000000001000000000200000000000040002000000000000000000000008000002000000000000040000000000001200800000000000020000000000000000000800000000000000000000000010008000000000001000000000000000000a00000000000000000000000000000000000000000000000000000000000000000000000000000000000000000000000000040010000022000000000000000000000000000000000000000100080000000060000000001000000000000000000000000000000000000000000000002000000000",
      "type": "0x2",
      "effectiveGasPrice": "0xb2d05e0b"
    }
  ],
  "libraries": [],
  "pending": [],
  "returns": {},
  "timestamp": 1694135821,
  "chain": 11155111,
  "multi": false,
  "commit": "78fda7f"
}