{
  "transactions": [
    {
      "hash": "0x3baf805e24e845a942327af49115eb356d362312b9d04437c097f869dfb53cc9",
      "transactionType": "CALL",
      "contractName": "TronicMembership",
      "contractAddress": "0xe95784D2C873687f5BC987bEaaa4df93E4EE7F2E",
      "function": "mint(address):(address)",
      "arguments": [
        "0x09422CabAcCecf7b9670575Cb0425a519A713A97"
      ],
      "transaction": {
        "type": "0x02",
        "from": "0x42c7ef198f8ac9888e2b1b73e5b71f1d4535194a",
        "to": "0xe95784d2c873687f5bc987beaaa4df93e4ee7f2e",
        "gas": "0x5e9d7",
        "value": "0x0",
        "data": "0x6a62784200000000000000000000000009422cabaccecf7b9670575cb0425a519a713a97",
        "nonce": "0xa9",
        "accessList": []
      },
      "additionalContracts": [
        {
          "transactionType": "CREATE2",
          "address": "0x312a5342d4E1764e2Ca4002Dea30298913fF82eE",
          "initCode": "0x3d60ad80600a3d3981f3363d3d373d3d3d363d732d25602551487c3f3354dd80d76d54383a2433585af43d82803e903d91602b57fd5bf300000000000000000000000000000000000000000000000000000000000000000000000000000000000000000000000000000000000000000000000000aa36a7000000000000000000000000e95784d2c873687f5bc987beaaa4df93e4ee7f2e0000000000000000000000000000000000000000000000000000000000000001"
        }
      ],
      "isFixedGasLimit": false
    },
    {
      "hash": "0x85c66e12a575a05b4b1ec127b794daa35182022c38801ff8221bff2b574e5d22",
      "transactionType": "CALL",
      "contractName": "TronicMembership",
      "contractAddress": "0x82056c913Cfb1C4092EF8d81e6BEF18417f1c3da",
      "function": "mint(address):(address)",
      "arguments": [
        "0x09422CabAcCecf7b9670575Cb0425a519A713A97"
      ],
      "transaction": {
        "type": "0x02",
        "from": "0x42c7ef198f8ac9888e2b1b73e5b71f1d4535194a",
        "to": "0x82056c913cfb1c4092ef8d81e6bef18417f1c3da",
        "gas": "0x5e9d7",
        "value": "0x0",
        "data": "0x6a62784200000000000000000000000009422cabaccecf7b9670575cb0425a519a713a97",
        "nonce": "0xaa",
        "accessList": []
      },
      "additionalContracts": [
        {
          "transactionType": "CREATE2",
          "address": "0xA906EE08b03EC0C3065a6bb5339eFFc7EC59655F",
          "initCode": "0x3d60ad80600a3d3981f3363d3d373d3d3d363d732d25602551487c3f3354dd80d76d54383a2433585af43d82803e903d91602b57fd5bf300000000000000000000000000000000000000000000000000000000000000000000000000000000000000000000000000000000000000000000000000aa36a700000000000000000000000082056c913cfb1c4092ef8d81e6bef18417f1c3da0000000000000000000000000000000000000000000000000000000000000001"
        }
      ],
      "isFixedGasLimit": false
    }
  ],
  "receipts": [],
  "libraries": [],
  "pending": [
    "0x3baf805e24e845a942327af49115eb356d362312b9d04437c097f869dfb53cc9",
    "0x85c66e12a575a05b4b1ec127b794daa35182022c38801ff8221bff2b574e5d22"
  ],
  "returns": {},
  "timestamp": 1694135808,
  "chain": 11155111,
  "multi": false,
  "commit": "78fda7f"
}