{
  "transactions": [
    {
      "hash": "0x250959f1aa29cc6b7258c34e6e1f89dfcc3dda8662a397d8d98afc253f488a25",
      "transactionType": "CALL",
      "contractName": "TronicMembership",
      "contractAddress": "0x21F11833D2450104e5A1Dd3293E0A6c13D4399b0",
      "function": "mint(address):(address)",
      "arguments": [
        "0xd457c3844F38A971933120AcfE9Eaf132FEFa011"
      ],
      "transaction": {
        "type": "0x02",
        "from": "0x27870dba1e03cfdd24f5658b255c0baac970a19d",
        "to": "0x21f11833d2450104e5a1dd3293e0a6c13d4399b0",
        "gas": "0x5e9d7",
        "value": "0x0",
        "data": "0x6a627842000000000000000000000000d457c3844f38a971933120acfe9eaf132fefa011",
        "nonce": "0xa",
        "accessList": []
      },
      "additionalContracts": [
        {
          "transactionType": "CREATE2",
          "address": "0xb6cC24E5b1c98B767FB743e55168c96C2E13C755",
          "initCode": "0x3d60ad80600a3d3981f3363d3d373d3d3d363d732d25602551487c3f3354dd80d76d54383a2433585af43d82803e903d91602b57fd5bf300000000000000000000000000000000000000000000000000000000000000000000000000000000000000000000000000000000000000000000000000aa36a700000000000000000000000021f11833d2450104e5a1dd3293e0a6c13d4399b00000000000000000000000000000000000000000000000000000000000000001"
        }
      ],
      "isFixedGasLimit": false
    },
    {
      "hash": "0x1a95ea90710b5e68b877abd12af079a997515969a9be08dc47006a6e762cfc4f",
      "transactionType": "CALL",
      "contractName": "TronicMembership",
      "contractAddress": "0x461810Fae978FceEC93AD0E064784C273077ecDf",
      "function": "mint(address):(address)",
      "arguments": [
        "0xd457c3844F38A971933120AcfE9Eaf132FEFa011"
      ],
      "transaction": {
        "type": "0x02",
        "from": "0x27870dba1e03cfdd24f5658b255c0baac970a19d",
        "to": "0x461810fae978fceec93ad0e064784c273077ecdf",
        "gas": "0x5e9d7",
        "value": "0x0",
        "data": "0x6a627842000000000000000000000000d457c3844f38a971933120acfe9eaf132fefa011",
        "nonce": "0xb",
        "accessList": []
      },
      "additionalContracts": [
        {
          "transactionType": "CREATE2",
          "address": "0x7b3BD48f6906Fa4aF24fBE991242039135d180C8",
          "initCode": "0x3d60ad80600a3d3981f3363d3d373d3d3d363d732d25602551487c3f3354dd80d76d54383a2433585af43d82803e903d91602b57fd5bf300000000000000000000000000000000000000000000000000000000000000000000000000000000000000000000000000000000000000000000000000aa36a7000000000000000000000000461810fae978fceec93ad0e064784c273077ecdf0000000000000000000000000000000000000000000000000000000000000001"
        }
      ],
      "isFixedGasLimit": false
    }
  ],
  "receipts": [],
  "libraries": [],
  "pending": [
    "0x250959f1aa29cc6b7258c34e6e1f89dfcc3dda8662a397d8d98afc253f488a25",
    "0x1a95ea90710b5e68b877abd12af079a997515969a9be08dc47006a6e762cfc4f"
  ],
  "returns": {},
  "timestamp": 1694197494,
  "chain": 11155111,
  "multi": false,
  "commit": "f58b456"
}