{
  "transactions": [
    {
      "hash": "0x34b0e4fc902f4155f4778dab788208fefa0f71669a2a6b1c44c26ed14c4e2cfd",
      "transactionType": "CALL",
      "contractName": "ERC721CloneableTBA",
      "contractAddress": "0x952aA94B09ed02f3ae86b0EfD5427CE8B311B2cA",
      "function": "mint(address,uint256):(address)",
      "arguments": [
        "0x23aec166d19e8a11390445479267D7e07D550A66",
        "1"
      ],
      "transaction": {
        "type": "0x02",
        "from": "0x42c7ef198f8ac9888e2b1b73e5b71f1d4535194a",
        "to": "0x952aa94b09ed02f3ae86b0efd5427ce8b311b2ca",
        "gas": "0x5b7a5",
        "value": "0x0",
        "data": "0x40c10f1900000000000000000000000023aec166d19e8a11390445479267d7e07d550a660000000000000000000000000000000000000000000000000000000000000001",
        "nonce": "0x8b",
        "accessList": []
      },
      "additionalContracts": [
        {
          "transactionType": "CREATE2",
          "address": "0x03B00190d8E2603B08dA94d8A6E0C8844842499F",
          "initCode": "0x3d60ad80600a3d3981f3363d3d373d3d3d363d732d25602551487c3f3354dd80d76d54383a2433585af43d82803e903d91602b57fd5bf300000000000000000000000000000000000000000000000000000000000000000000000000000000000000000000000000000000000000000000000000aa36a7000000000000000000000000952aa94b09ed02f3ae86b0efd5427ce8b311b2ca0000000000000000000000000000000000000000000000000000000000000001"
        }
      ],
      "isFixedGasLimit": false
    },
    {
      "hash": "0xa7607a5e7400a8ede5ac45e227222a3b757800241abff90c660b4458db3b2530",
      "transactionType": "CALL",
      "contractName": "ERC721CloneableTBA",
      "contractAddress": "0xD06b9E6fa7234dF521d3ecC6E5987AD0449bfeb5",
      "function": "mint(address,uint256):(address)",
      "arguments": [
        "0x23aec166d19e8a11390445479267D7e07D550A66",
        "1"
      ],
      "transaction": {
        "type": "0x02",
        "from": "0x42c7ef198f8ac9888e2b1b73e5b71f1d4535194a",
        "to": "0xd06b9e6fa7234df521d3ecc6e5987ad0449bfeb5",
        "gas": "0x5b7a5",
        "value": "0x0",
        "data": "0x40c10f1900000000000000000000000023aec166d19e8a11390445479267d7e07d550a660000000000000000000000000000000000000000000000000000000000000001",
        "nonce": "0x8c",
        "accessList": []
      },
      "additionalContracts": [
        {
          "transactionType": "CREATE2",
          "address": "0x7261a238427d054c6Ec6f6b9b62618002a3225D3",
          "initCode": "0x3d60ad80600a3d3981f3363d3d373d3d3d363d732d25602551487c3f3354dd80d76d54383a2433585af43d82803e903d91602b57fd5bf300000000000000000000000000000000000000000000000000000000000000000000000000000000000000000000000000000000000000000000000000aa36a7000000000000000000000000d06b9e6fa7234df521d3ecc6e5987ad0449bfeb50000000000000000000000000000000000000000000000000000000000000001"
        }
      ],
      "isFixedGasLimit": false
    }
  ],
  "receipts": [
    {
      "transactionHash": "0x34b0e4fc902f4155f4778dab788208fefa0f71669a2a6b1c44c26ed14c4e2cfd",
      "transactionIndex": "0x3",
      "blockHash": "0xfbee582938be382e1a52ebc226040fcabe320b9d00b52d42294cadcc3c8954ad",
      "blockNumber": "0x401ef6",
      "from": "0x42C7eF198f8aC9888E2B1b73e5B71f1D4535194A",
      "to": "0x952aA94B09ed02f3ae86b0EfD5427CE8B311B2cA",
      "cumulativeGasUsed": "0x61312",
      "gasUsed": "0x3e8d5",
      "contractAddress": null,
      "logs": [
        {
          "address": "0x02101dfB77FDE026414827Fdc604ddAF224F0921",
          "topics": [
            "0x07fba7bba1191da7ee1155dcfa0030701c9c9a9cc34a93b991fc6fd0c9268d8f"
          ],
          "data": "0x00000000000000000000000003b00190d8e2603b08da94d8a6e0c8844842499f0000000000000000000000002d25602551487c3f3354dd80d76d54383a2433580000000000000000000000000000000000000000000000000000000000aa36a7000000000000000000000000952aa94b09ed02f3ae86b0efd5427ce8b311b2ca00000000000000000000000000000000000000000000000000000000000000010000000000000000000000000000000000000000000000000000000000000000",
          "blockHash": "0xfbee582938be382e1a52ebc226040fcabe320b9d00b52d42294cadcc3c8954ad",
          "blockNumber": "0x401ef6",
          "transactionHash": "0x34b0e4fc902f4155f4778dab788208fefa0f71669a2a6b1c44c26ed14c4e2cfd",
          "transactionIndex": "0x3",
          "logIndex": "0x1",
          "removed": false
        },
        {
          "address": "0x03B00190d8E2603B08dA94d8A6E0C8844842499F",
          "topics": [
            "0xbc7cd75a20ee27fd9adebab32041f755214dbc6bffa90cc0225b39da2e5c2d3b",
            "0x0000000000000000000000001a0e97dae78590b7e967e725a5c848ed034f5510"
          ],
          "data": "0x",
          "blockHash": "0xfbee582938be382e1a52ebc226040fcabe320b9d00b52d42294cadcc3c8954ad",
          "blockNumber": "0x401ef6",
          "transactionHash": "0x34b0e4fc902f4155f4778dab788208fefa0f71669a2a6b1c44c26ed14c4e2cfd",
          "transactionIndex": "0x3",
          "logIndex": "0x2",
          "removed": false
        },
        {
          "address": "0x952aA94B09ed02f3ae86b0EfD5427CE8B311B2cA",
          "topics": [
            "0xddf252ad1be2c89b69c2b068fc378daa952ba7f163c4a11628f55a4df523b3ef",
            "0x0000000000000000000000000000000000000000000000000000000000000000",
            "0x00000000000000000000000023aec166d19e8a11390445479267d7e07d550a66",
            "0x0000000000000000000000000000000000000000000000000000000000000001"
          ],
          "data": "0x",
          "blockHash": "0xfbee582938be382e1a52ebc226040fcabe320b9d00b52d42294cadcc3c8954ad",
          "blockNumber": "0x401ef6",
          "transactionHash": "0x34b0e4fc902f4155f4778dab788208fefa0f71669a2a6b1c44c26ed14c4e2cfd",
          "transactionIndex": "0x3",
          "logIndex": "0x3",
          "removed": false
        }
      ],
      "status": "0x1",
      "logsBloom": "0x00000000000000000000004000000000400000000020000000000000000000000000000000000000000000000000000000001000000000000000000000040006000000000000000000000008000002000000000001040000000000000000800000000000020000000000000000000810000000000000000000000010008000000000000000000000000000000200000000000000000000000000040000000000000000000000000000000000000000000000000000000000000000000000000400000022000000000000000004000008000000000000000000080000010060000000001000000000000000000000000000000000000000000000002000000000",
      "type": "0x2",
      "effectiveGasPrice": "0x38789e549"
    },
    {
      "transactionHash": "0xa7607a5e7400a8ede5ac45e227222a3b757800241abff90c660b4458db3b2530",
      "transactionIndex": "0x4",
      "blockHash": "0xfbee582938be382e1a52ebc226040fcabe320b9d00b52d42294cadcc3c8954ad",
      "blockNumber": "0x401ef6",
      "from": "0x42C7eF198f8aC9888E2B1b73e5B71f1D4535194A",
      "to": "0xD06b9E6fa7234dF521d3ecC6E5987AD0449bfeb5",
      "cumulativeGasUsed": "0x9fbe7",
      "gasUsed": "0x3e8d5",
      "contractAddress": null,
      "logs": [
        {
          "address": "0x02101dfB77FDE026414827Fdc604ddAF224F0921",
          "topics": [
            "0x07fba7bba1191da7ee1155dcfa0030701c9c9a9cc34a93b991fc6fd0c9268d8f"
          ],
          "data": "0x0000000000000000000000007261a238427d054c6ec6f6b9b62618002a3225d30000000000000000000000002d25602551487c3f3354dd80d76d54383a2433580000000000000000000000000000000000000000000000000000000000aa36a7000000000000000000000000d06b9e6fa7234df521d3ecc6e5987ad0449bfeb500000000000000000000000000000000000000000000000000000000000000010000000000000000000000000000000000000000000000000000000000000000",
          "blockHash": "0xfbee582938be382e1a52ebc226040fcabe320b9d00b52d42294cadcc3c8954ad",
          "blockNumber": "0x401ef6",
          "transactionHash": "0xa7607a5e7400a8ede5ac45e227222a3b757800241abff90c660b4458db3b2530",
          "transactionIndex": "0x4",
          "logIndex": "0x4",
          "removed": false
        },
        {
          "address": "0x7261a238427d054c6Ec6f6b9b62618002a3225D3",
          "topics": [
            "0xbc7cd75a20ee27fd9adebab32041f755214dbc6bffa90cc0225b39da2e5c2d3b",
            "0x0000000000000000000000001a0e97dae78590b7e967e725a5c848ed034f5510"
          ],
          "data": "0x",
          "blockHash": "0xfbee582938be382e1a52ebc226040fcabe320b9d00b52d42294cadcc3c8954ad",
          "blockNumber": "0x401ef6",
          "transactionHash": "0xa7607a5e7400a8ede5ac45e227222a3b757800241abff90c660b4458db3b2530",
          "transactionIndex": "0x4",
          "logIndex": "0x5",
          "removed": false
        },
        {
          "address": "0xD06b9E6fa7234dF521d3ecC6E5987AD0449bfeb5",
          "topics": [
            "0xddf252ad1be2c89b69c2b068fc378daa952ba7f163c4a11628f55a4df523b3ef",
            "0x0000000000000000000000000000000000000000000000000000000000000000",
            "0x00000000000000000000000023aec166d19e8a11390445479267d7e07d550a66",
            "0x0000000000000000000000000000000000000000000000000000000000000001"
          ],
          "data": "0x",
          "blockHash": "0xfbee582938be382e1a52ebc226040fcabe320b9d00b52d42294cadcc3c8954ad",
          "blockNumber": "0x401ef6",
          "transactionHash": "0xa7607a5e7400a8ede5ac45e227222a3b757800241abff90c660b4458db3b2530",
          "transactionIndex": "0x4",
          "logIndex": "0x6",
          "removed": false
        }
      ],
      "status": "0x1",
      "logsBloom": "0x00000000000000000000000000000000400000000020000000000000000000000000000000000000090000000000000000001000000000000000000000040002000000000000000000000008000002000000000001040000000000000000800000000000020000000000000000000810000000000000000000000010008000000000000000000000000000000200000000000000000000000000040000000000000020000000000000000000000000000201000000000000000000020000000000000022000000000000000000000000000000000000000000080000000060000000001000000000000000000000000000000000000000000000002000000000",
      "type": "0x2",
      "effectiveGasPrice": "0x38789e549"
    }
  ],
  "libraries": [],
  "pending": [],
  "returns": {},
  "timestamp": 1693546202,
  "chain": 11155111,
  "multi": false,
  "commit": "11bdc2c"
}