{
  "transactions": [
    {
      "hash": "0x250959f1aa29cc6b7258c34e6e1f89dfcc3dda8662a397d8d98afc253f488a25",
      "transactionType": "CALL",
      "contractName": "TronicMembership",
      "contractAddress": "0x21F11833D2450104e5A1Dd3293E0A6c13D4399b0",
      "function": "mint(address):(address)",
      "arguments": [
        "0xd457c3844F38A971933120AcfE9Eaf132FEFa011"
      ],
      "transaction": {
        "type": "0x02",
        "from": "0x27870dba1e03cfdd24f5658b255c0baac970a19d",
        "to": "0x21f11833d2450104e5a1dd3293e0a6c13d4399b0",
        "gas": "0x5e9d7",
        "value": "0x0",
        "data": "0x6a627842000000000000000000000000d457c3844f38a971933120acfe9eaf132fefa011",
        "nonce": "0xa",
        "accessList": []
      },
      "additionalContracts": [
        {
          "transactionType": "CREATE2",
          "address": "0xb6cC24E5b1c98B767FB743e55168c96C2E13C755",
          "initCode": "0x3d60ad80600a3d3981f3363d3d373d3d3d363d732d25602551487c3f3354dd80d76d54383a2433585af43d82803e903d91602b57fd5bf300000000000000000000000000000000000000000000000000000000000000000000000000000000000000000000000000000000000000000000000000aa36a700000000000000000000000021f11833d2450104e5a1dd3293e0a6c13d4399b00000000000000000000000000000000000000000000000000000000000000001"
        }
      ],
      "isFixedGasLimit": false
    },
    {
      "hash": "0x1a95ea90710b5e68b877abd12af079a997515969a9be08dc47006a6e762cfc4f",
      "transactionType": "CALL",
      "contractName": "TronicMembership",
      "contractAddress": "0x461810Fae978FceEC93AD0E064784C273077ecDf",
      "function": "mint(address):(address)",
      "arguments": [
        "0xd457c3844F38A971933120AcfE9Eaf132FEFa011"
      ],
      "transaction": {
        "type": "0x02",
        "from": "0x27870dba1e03cfdd24f5658b255c0baac970a19d",
        "to": "0x461810fae978fceec93ad0e064784c273077ecdf",
        "gas": "0x5e9d7",
        "value": "0x0",
        "data": "0x6a627842000000000000000000000000d457c3844f38a971933120acfe9eaf132fefa011",
        "nonce": "0xb",
        "accessList": []
      },
      "additionalContracts": [
        {
          "transactionType": "CREATE2",
          "address": "0x7b3BD48f6906Fa4aF24fBE991242039135d180C8",
          "initCode": "0x3d60ad80600a3d3981f3363d3d373d3d3d363d732d25602551487c3f3354dd80d76d54383a2433585af43d82803e903d91602b57fd5bf300000000000000000000000000000000000000000000000000000000000000000000000000000000000000000000000000000000000000000000000000aa36a7000000000000000000000000461810fae978fceec93ad0e064784c273077ecdf0000000000000000000000000000000000000000000000000000000000000001"
        }
      ],
      "isFixedGasLimit": false
    }
  ],
  "receipts": [
    {
      "transactionHash": "0x250959f1aa29cc6b7258c34e6e1f89dfcc3dda8662a397d8d98afc253f488a25",
      "transactionIndex": "0x0",
      "blockHash": "0x274bd8e8f77b6d54b78fc46c9af50afb8ded6966d7d04626aa9385548961ab4b",
      "blockNumber": "0x40d6db",
      "from": "0x27870DBa1e03CFDD24F5658b255c0BAaC970A19D",
      "to": "0x21F11833D2450104e5A1Dd3293E0A6c13D4399b0",
      "cumulativeGasUsed": "0x4480b",
      "gasUsed": "0x4480b",
      "contractAddress": null,
      "logs": [
        {
          "address": "0x02101dfB77FDE026414827Fdc604ddAF224F0921",
          "topics": [
            "0x07fba7bba1191da7ee1155dcfa0030701c9c9a9cc34a93b991fc6fd0c9268d8f"
          ],
          "data": "0x000000000000000000000000b6cc24e5b1c98b767fb743e55168c96c2e13c7550000000000000000000000002d25602551487c3f3354dd80d76d54383a2433580000000000000000000000000000000000000000000000000000000000aa36a700000000000000000000000021f11833d2450104e5a1dd3293e0a6c13d4399b000000000000000000000000000000000000000000000000000000000000000010000000000000000000000000000000000000000000000000000000000000000",
          "blockHash": "0x274bd8e8f77b6d54b78fc46c9af50afb8ded6966d7d04626aa9385548961ab4b",
          "blockNumber": "0x40d6db",
          "transactionHash": "0x250959f1aa29cc6b7258c34e6e1f89dfcc3dda8662a397d8d98afc253f488a25",
          "transactionIndex": "0x0",
          "logIndex": "0x0",
          "removed": false
        },
        {
          "address": "0xb6cC24E5b1c98B767FB743e55168c96C2E13C755",
          "topics": [
            "0xbc7cd75a20ee27fd9adebab32041f755214dbc6bffa90cc0225b39da2e5c2d3b",
            "0x0000000000000000000000001a0e97dae78590b7e967e725a5c848ed034f5510"
          ],
          "data": "0x",
          "blockHash": "0x274bd8e8f77b6d54b78fc46c9af50afb8ded6966d7d04626aa9385548961ab4b",
          "blockNumber": "0x40d6db",
          "transactionHash": "0x250959f1aa29cc6b7258c34e6e1f89dfcc3dda8662a397d8d98afc253f488a25",
          "transactionIndex": "0x0",
          "logIndex": "0x1",
          "removed": false
        },
        {
          "address": "0x21F11833D2450104e5A1Dd3293E0A6c13D4399b0",
          "topics": [
            "0xddf252ad1be2c89b69c2b068fc378daa952ba7f163c4a11628f55a4df523b3ef",
            "0x0000000000000000000000000000000000000000000000000000000000000000",
            "0x000000000000000000000000d457c3844f38a971933120acfe9eaf132fefa011",
            "0x0000000000000000000000000000000000000000000000000000000000000001"
          ],
          "data": "0x",
          "blockHash": "0x274bd8e8f77b6d54b78fc46c9af50afb8ded6966d7d04626aa9385548961ab4b",
          "blockNumber": "0x40d6db",
          "transactionHash": "0x250959f1aa29cc6b7258c34e6e1f89dfcc3dda8662a397d8d98afc253f488a25",
          "transactionIndex": "0x0",
          "logIndex": "0x2",
          "removed": false
        }
      ],
      "status": "0x1",
      "logsBloom": "0x00000000000000000000000000000000400000000020000000000000000000000000000000000000000000000000000000051000000000040000000000040002000000000000000000000008000002000000000000040000000000000000800000800000020000000000000000000800000010000000000000000010008000000000000000000000010000000200000000002000000000000000000000000000000000000000000000000000000000000000000000000008000000000000000000000022200000000000000000000000000000000000000000080000000060000000001000000000000000000000000000000000000000000000002000000000",
      "type": "0x2",
      "effectiveGasPrice": "0xb2d05e10"
    },
    {
      "transactionHash": "0x1a95ea90710b5e68b877abd12af079a997515969a9be08dc47006a6e762cfc4f",
      "transactionIndex": "0x1",
      "blockHash": "0x274bd8e8f77b6d54b78fc46c9af50afb8ded6966d7d04626aa9385548961ab4b",
      "blockNumber": "0x40d6db",
      "from": "0x27870DBa1e03CFDD24F5658b255c0BAaC970A19D",
      "to": "0x461810Fae978FceEC93AD0E064784C273077ecDf",
      "cumulativeGasUsed": "0x89016",
      "gasUsed": "0x4480b",
      "contractAddress": null,
      "logs": [
        {
          "address": "0x02101dfB77FDE026414827Fdc604ddAF224F0921",
          "topics": [
            "0x07fba7bba1191da7ee1155dcfa0030701c9c9a9cc34a93b991fc6fd0c9268d8f"
          ],
          "data": "0x0000000000000000000000007b3bd48f6906fa4af24fbe991242039135d180c80000000000000000000000002d25602551487c3f3354dd80d76d54383a2433580000000000000000000000000000000000000000000000000000000000aa36a7000000000000000000000000461810fae978fceec93ad0e064784c273077ecdf00000000000000000000000000000000000000000000000000000000000000010000000000000000000000000000000000000000000000000000000000000000",
          "blockHash": "0x274bd8e8f77b6d54b78fc46c9af50afb8ded6966d7d04626aa9385548961ab4b",
          "blockNumber": "0x40d6db",
          "transactionHash": "0x1a95ea90710b5e68b877abd12af079a997515969a9be08dc47006a6e762cfc4f",
          "transactionIndex": "0x1",
          "logIndex": "0x3",
          "removed": false
        },
        {
          "address": "0x7b3BD48f6906Fa4aF24fBE991242039135d180C8",
          "topics": [
            "0xbc7cd75a20ee27fd9adebab32041f755214dbc6bffa90cc0225b39da2e5c2d3b",
            "0x0000000000000000000000001a0e97dae78590b7e967e725a5c848ed034f5510"
          ],
          "data": "0x",
          "blockHash": "0x274bd8e8f77b6d54b78fc46c9af50afb8ded6966d7d04626aa9385548961ab4b",
          "blockNumber": "0x40d6db",
          "transactionHash": "0x1a95ea90710b5e68b877abd12af079a997515969a9be08dc47006a6e762cfc4f",
          "transactionIndex": "0x1",
          "logIndex": "0x4",
          "removed": false
        },
        {
          "address": "0x461810Fae978FceEC93AD0E064784C273077ecDf",
          "topics": [
            "0xddf252ad1be2c89b69c2b068fc378daa952ba7f163c4a11628f55a4df523b3ef",
            "0x0000000000000000000000000000000000000000000000000000000000000000",
            "0x000000000000000000000000d457c3844f38a971933120acfe9eaf132fefa011",
            "0x0000000000000000000000000000000000000000000000000000000000000001"
          ],
          "data": "0x",
          "blockHash": "0x274bd8e8f77b6d54b78fc46c9af50afb8ded6966d7d04626aa9385548961ab4b",
          "blockNumber": "0x40d6db",
          "transactionHash": "0x1a95ea90710b5e68b877abd12af079a997515969a9be08dc47006a6e762cfc4f",
          "transactionIndex": "0x1",
          "logIndex": "0x5",
          "removed": false
        }
      ],
      "status": "0x1",
      "logsBloom": "0x00000000000000800000000000000000400000000020000000000000004000000000000000000000000000004000000000011000000000000000000000040002000000000000000000000008000002000000000000040000000000000000800000800000020000000000000000000800000000000000000000000010008000000000000000000000000000000200000000000000000000000000000000000000000000000000000000000000000000000000000000000000000000000000000000000022200000000000000000000000000000002000000000880000000060000000001000000000000000000000000000000000000000008000002000000000",
      "type": "0x2",
      "effectiveGasPrice": "0xb2d05e10"
    }
  ],
  "libraries": [],
  "pending": [],
  "returns": {},
  "timestamp": 1694197501,
  "chain": 11155111,
  "multi": false,
  "commit": "f58b456"
}