{
  "transactions": [
    {
      "hash": "0x34b0e4fc902f4155f4778dab788208fefa0f71669a2a6b1c44c26ed14c4e2cfd",
      "transactionType": "CALL",
      "contractName": "ERC721CloneableTBA",
      "contractAddress": "0x952aA94B09ed02f3ae86b0EfD5427CE8B311B2cA",
      "function": "mint(address,uint256):(address)",
      "arguments": [
        "0x23aec166d19e8a11390445479267D7e07D550A66",
        "1"
      ],
      "transaction": {
        "type": "0x02",
        "from": "0x42c7ef198f8ac9888e2b1b73e5b71f1d4535194a",
        "to": "0x952aa94b09ed02f3ae86b0efd5427ce8b311b2ca",
        "gas": "0x5b7a5",
        "value": "0x0",
        "data": "0x40c10f1900000000000000000000000023aec166d19e8a11390445479267d7e07d550a660000000000000000000000000000000000000000000000000000000000000001",
        "nonce": "0x8b",
        "accessList": []
      },
      "additionalContracts": [
        {
          "transactionType": "CREATE2",
          "address": "0x03B00190d8E2603B08dA94d8A6E0C8844842499F",
          "initCode": "0x3d60ad80600a3d3981f3363d3d373d3d3d363d732d25602551487c3f3354dd80d76d54383a2433585af43d82803e903d91602b57fd5bf300000000000000000000000000000000000000000000000000000000000000000000000000000000000000000000000000000000000000000000000000aa36a7000000000000000000000000952aa94b09ed02f3ae86b0efd5427ce8b311b2ca0000000000000000000000000000000000000000000000000000000000000001"
        }
      ],
      "isFixedGasLimit": false
    },
    {
      "hash": "0xa7607a5e7400a8ede5ac45e227222a3b757800241abff90c660b4458db3b2530",
      "transactionType": "CALL",
      "contractName": "ERC721CloneableTBA",
      "contractAddress": "0xD06b9E6fa7234dF521d3ecC6E5987AD0449bfeb5",
      "function": "mint(address,uint256):(address)",
      "arguments": [
        "0x23aec166d19e8a11390445479267D7e07D550A66",
        "1"
      ],
      "transaction": {
        "type": "0x02",
        "from": "0x42c7ef198f8ac9888e2b1b73e5b71f1d4535194a",
        "to": "0xd06b9e6fa7234df521d3ecc6e5987ad0449bfeb5",
        "gas": "0x5b7a5",
        "value": "0x0",
        "data": "0x40c10f1900000000000000000000000023aec166d19e8a11390445479267d7e07d550a660000000000000000000000000000000000000000000000000000000000000001",
        "nonce": "0x8c",
        "accessList": []
      },
      "additionalContracts": [
        {
          "transactionType": "CREATE2",
          "address": "0x7261a238427d054c6Ec6f6b9b62618002a3225D3",
          "initCode": "0x3d60ad80600a3d3981f3363d3d373d3d3d363d732d25602551487c3f3354dd80d76d54383a2433585af43d82803e903d91602b57fd5bf300000000000000000000000000000000000000000000000000000000000000000000000000000000000000000000000000000000000000000000000000aa36a7000000000000000000000000d06b9e6fa7234df521d3ecc6e5987ad0449bfeb50000000000000000000000000000000000000000000000000000000000000001"
        }
      ],
      "isFixedGasLimit": false
    }
  ],
  "receipts": [],
  "libraries": [],
  "pending": [
    "0x34b0e4fc902f4155f4778dab788208fefa0f71669a2a6b1c44c26ed14c4e2cfd",
    "0xa7607a5e7400a8ede5ac45e227222a3b757800241abff90c660b4458db3b2530"
  ],
  "returns": {},
  "timestamp": 1693546196,
  "chain": 11155111,
  "multi": false,
  "commit": "11bdc2c"
}