{
  "transactions": [
    {
      "hash": "0xfd6b4aa35c1281fa6fe8e2f8e048391aaa437bf3e00983a49fff733e3a4e53d2",
      "transactionType": "CALL",
      "contractName": null,
      "contractAddress": "0xeCcFD42a53045D704a7B97E74ab477bd748BA156",
      "function": "mint(address,uint256):(address)",
      "arguments": [
        "0x92a4148F4d957f4A6753AC143D32B5AF390214b3",
        "1"
      ],
      "transaction": {
        "type": "0x02",
        "from": "0x42c7ef198f8ac9888e2b1b73e5b71f1d4535194a",
        "to": "0xeccfd42a53045d704a7b97e74ab477bd748ba156",
        "gas": "0x50d8b",
        "value": "0x0",
        "data": "0x40c10f1900000000000000000000000092a4148f4d957f4a6753ac143d32b5af390214b30000000000000000000000000000000000000000000000000000000000000001",
        "nonce": "0x38",
        "accessList": []
      },
      "additionalContracts": [
        {
          "transactionType": "CREATE2",
          "address": "0xb067d2d42a94D43d5e2757fdE4fBE26eA20CA88A",
          "initCode": "3d60ad80600a3d3981f3363d3d373d3d3d363d732d25602551487c3f3354dd80d76d54383a2433585af43d82803e903d91602b57fd5bf300000000000000000000000000000000000000000000000000000000000000000000000000000000000000000000000000000000000000000000000000aa36a7000000000000000000000000eccfd42a53045d704a7b97e74ab477bd748ba1560000000000000000000000000000000000000000000000000000000000000001"
        }
      ],
      "isFixedGasLimit": false
    },
    {
      "hash": "0x73ae0489c6b0220f94c48a974c24f9684bd99189d19f46e21c3d3535b2fa4a02",
      "transactionType": "CALL",
      "contractName": null,
      "contractAddress": "0x0518b4D2EB57E51F71dc0e892a729d31413c6d6A",
      "function": "mint(address,uint256):(address)",
      "arguments": [
        "0x92a4148F4d957f4A6753AC143D32B5AF390214b3",
        "1"
      ],
      "transaction": {
        "type": "0x02",
        "from": "0x42c7ef198f8ac9888e2b1b73e5b71f1d4535194a",
        "to": "0x0518b4d2eb57e51f71dc0e892a729d31413c6d6a",
        "gas": "0x50d8b",
        "value": "0x0",
        "data": "0x40c10f1900000000000000000000000092a4148f4d957f4a6753ac143d32b5af390214b30000000000000000000000000000000000000000000000000000000000000001",
        "nonce": "0x39",
        "accessList": []
      },
      "additionalContracts": [
        {
          "transactionType": "CREATE2",
          "address": "0xE163F1Ac494862C3a4Dc36528a2C12C1AA0D585d",
          "initCode": "3d60ad80600a3d3981f3363d3d373d3d3d363d732d25602551487c3f3354dd80d76d54383a2433585af43d82803e903d91602b57fd5bf300000000000000000000000000000000000000000000000000000000000000000000000000000000000000000000000000000000000000000000000000aa36a70000000000000000000000000518b4d2eb57e51f71dc0e892a729d31413c6d6a0000000000000000000000000000000000000000000000000000000000000001"
        }
      ],
      "isFixedGasLimit": false
    }
  ],
  "receipts": [
    {
      "transactionHash": "0xfd6b4aa35c1281fa6fe8e2f8e048391aaa437bf3e00983a49fff733e3a4e53d2",
      "transactionIndex": "0x2",
      "blockHash": "0xecaf2805913f9699d85af096ec18199b8068e3c4b98a8360c43fecc19fc7eae3",
      "blockNumber": "0x3dcb7f",
      "from": "0x42C7eF198f8aC9888E2B1b73e5B71f1D4535194A",
      "to": "0xeCcFD42a53045D704a7B97E74ab477bd748BA156",
      "cumulativeGasUsed": "0x7a7ae",
      "gasUsed": "0x37486",
      "contractAddress": null,
      "logs": [
        {
          "address": "0x02101dfB77FDE026414827Fdc604ddAF224F0921",
          "topics": [
            "0x07fba7bba1191da7ee1155dcfa0030701c9c9a9cc34a93b991fc6fd0c9268d8f"
          ],
          "data": "0x000000000000000000000000b067d2d42a94d43d5e2757fde4fbe26ea20ca88a0000000000000000000000002d25602551487c3f3354dd80d76d54383a2433580000000000000000000000000000000000000000000000000000000000aa36a7000000000000000000000000eccfd42a53045d704a7b97e74ab477bd748ba15600000000000000000000000000000000000000000000000000000000000000010000000000000000000000000000000000000000000000000000000000000000",
          "blockHash": "0xecaf2805913f9699d85af096ec18199b8068e3c4b98a8360c43fecc19fc7eae3",
          "blockNumber": "0x3dcb7f",
          "transactionHash": "0xfd6b4aa35c1281fa6fe8e2f8e048391aaa437bf3e00983a49fff733e3a4e53d2",
          "transactionIndex": "0x2",
          "logIndex": "0x1",
          "removed": false
        },
        {
          "address": "0xeCcFD42a53045D704a7B97E74ab477bd748BA156",
          "topics": [
            "0xddf252ad1be2c89b69c2b068fc378daa952ba7f163c4a11628f55a4df523b3ef",
            "0x0000000000000000000000000000000000000000000000000000000000000000",
            "0x00000000000000000000000092a4148f4d957f4a6753ac143d32b5af390214b3",
            "0x0000000000000000000000000000000000000000000000000000000000000001"
          ],
          "data": "0x",
          "blockHash": "0xecaf2805913f9699d85af096ec18199b8068e3c4b98a8360c43fecc19fc7eae3",
          "blockNumber": "0x3dcb7f",
          "transactionHash": "0xfd6b4aa35c1281fa6fe8e2f8e048391aaa437bf3e00983a49fff733e3a4e53d2",
          "transactionIndex": "0x2",
          "logIndex": "0x2",
          "removed": false
        }
      ],
      "status": "0x1",
      "logsBloom": "0x00000000000000000000000000000000000000000000000000000000000000000000000000000004000000000000000000000000000000800000000000040002000000000000000000000008080000000000000000040000000000000000800000000000020000000000000000000800200000000000000000000010000000000000000000000000000000000200000000000000000000000000000000000010000000000000000000000000000000000000000000000000000000000000000000000002000000000000000000000000000000000000000000080000000060000000001001000000000000000000000000000000000000000000002000000000",
      "type": "0x2",
      "effectiveGasPrice": "0xbf1792bc"
    },
    {
      "transactionHash": "0x73ae0489c6b0220f94c48a974c24f9684bd99189d19f46e21c3d3535b2fa4a02",
      "transactionIndex": "0x3",
      "blockHash": "0xecaf2805913f9699d85af096ec18199b8068e3c4b98a8360c43fecc19fc7eae3",
      "blockNumber": "0x3dcb7f",
      "from": "0x42C7eF198f8aC9888E2B1b73e5B71f1D4535194A",
      "to": "0x0518b4D2EB57E51F71dc0e892a729d31413c6d6A",
      "cumulativeGasUsed": "0xb1c34",
      "gasUsed": "0x37486",
      "contractAddress": null,
      "logs": [
        {
          "address": "0x02101dfB77FDE026414827Fdc604ddAF224F0921",
          "topics": [
            "0x07fba7bba1191da7ee1155dcfa0030701c9c9a9cc34a93b991fc6fd0c9268d8f"
          ],
          "data": "0x000000000000000000000000e163f1ac494862c3a4dc36528a2c12c1aa0d585d0000000000000000000000002d25602551487c3f3354dd80d76d54383a2433580000000000000000000000000000000000000000000000000000000000aa36a70000000000000000000000000518b4d2eb57e51f71dc0e892a729d31413c6d6a00000000000000000000000000000000000000000000000000000000000000010000000000000000000000000000000000000000000000000000000000000000",
          "blockHash": "0xecaf2805913f9699d85af096ec18199b8068e3c4b98a8360c43fecc19fc7eae3",
          "blockNumber": "0x3dcb7f",
          "transactionHash": "0x73ae0489c6b0220f94c48a974c24f9684bd99189d19f46e21c3d3535b2fa4a02",
          "transactionIndex": "0x3",
          "logIndex": "0x3",
          "removed": false
        },
        {
          "address": "0x0518b4D2EB57E51F71dc0e892a729d31413c6d6A",
          "topics": [
            "0xddf252ad1be2c89b69c2b068fc378daa952ba7f163c4a11628f55a4df523b3ef",
            "0x0000000000000000000000000000000000000000000000000000000000000000",
            "0x00000000000000000000000092a4148f4d957f4a6753ac143d32b5af390214b3",
            "0x0000000000000000000000000000000000000000000000000000000000000001"
          ],
          "data": "0x",
          "blockHash": "0xecaf2805913f9699d85af096ec18199b8068e3c4b98a8360c43fecc19fc7eae3",
          "blockNumber": "0x3dcb7f",
          "transactionHash": "0x73ae0489c6b0220f94c48a974c24f9684bd99189d19f46e21c3d3535b2fa4a02",
          "transactionIndex": "0x3",
          "logIndex": "0x4",
          "removed": false
        }
      ],
      "status": "0x1",
      "logsBloom": "0x00400000000000000000000000000000000000000000000000000000000000000000000000000004000000000000000000000000000000800000000000040002000000000000000000000008000000000000000000040000000000000000800000000000020000000000000000000800000000000000000000000010000000000000000000000000000000000200000000000000000000000000000000000010000000000000000000000000000000000000000100000000000000000000000000000802000000000000000000000000000000000000000000080000000060000000001000000000000000000000000000000000000000000000002000000000",
      "type": "0x2",
      "effectiveGasPrice": "0xbf1792bc"
    }
  ],
  "libraries": [],
  "pending": [],
  "returns": {},
  "timestamp": 1691513368,
  "chain": 11155111,
  "multi": false,
  "commit": "b6d6374"
}