{
  "transactions": [
    {
      "hash": "0x8e3fb2e606606f23d4c1221db7cee384fc7a35e634d3912bc5eb41c74aba4395",
      "transactionType": "CALL",
      "contractName": null,
      "contractAddress": "0x4ade2b208E780D5a8C60B3D5A4F9D8Bfa2760FB5",
      "function": "mint(address,uint256):(address)",
      "arguments": [
        "0x9BD63Cb55B822785Cdc6aF5704f20425255C0c60",
        "1"
      ],
      "transaction": {
        "type": "0x02",
        "from": "0x42c7ef198f8ac9888e2b1b73e5b71f1d4535194a",
        "to": "0x4ade2b208e780d5a8c60b3d5a4f9d8bfa2760fb5",
        "gas": "0x4c59e",
        "value": "0x0",
        "data": "0x40c10f190000000000000000000000009bd63cb55b822785cdc6af5704f20425255c0c600000000000000000000000000000000000000000000000000000000000000001",
        "nonce": "0x10",
        "accessList": []
      },
      "additionalContracts": [
        {
          "transactionType": "CREATE2",
          "address": "0xCB53f7a3FB5F68715CEB14688BeCda1B9063b809",
          "initCode": "3d60ad80600a3d3981f3363d3d373d3d3d363d731a0e97dae78590b7e967e725a5c848ed034f55105af43d82803e903d91602b57fd5bf300000000000000000000000000000000000000000000000000000000000000000000000000000000000000000000000000000000000000000000000000aa36a70000000000000000000000004ade2b208e780d5a8c60b3d5a4f9d8bfa2760fb50000000000000000000000000000000000000000000000000000000000000001"
        }
      ],
      "isFixedGasLimit": false
    },
    {
      "hash": "0x901683656b1dcc2ae77588f28a891e94ddb978b8d6856c11a2505f6dd968f574",
      "transactionType": "CALL",
      "contractName": null,
      "contractAddress": "0x6D3aEC6195fc0106322e1d959ebAD8eaEc86122b",
      "function": "mint(address,uint256):(address)",
      "arguments": [
        "0x9BD63Cb55B822785Cdc6aF5704f20425255C0c60",
        "1"
      ],
      "transaction": {
        "type": "0x02",
        "from": "0x42c7ef198f8ac9888e2b1b73e5b71f1d4535194a",
        "to": "0x6d3aec6195fc0106322e1d959ebad8eaec86122b",
        "gas": "0x4c59e",
        "value": "0x0",
        "data": "0x40c10f190000000000000000000000009bd63cb55b822785cdc6af5704f20425255c0c600000000000000000000000000000000000000000000000000000000000000001",
        "nonce": "0x11",
        "accessList": []
      },
      "additionalContracts": [
        {
          "transactionType": "CREATE2",
          "address": "0x784aB2CCb0e259FBd13De78bEa3Fce02Eeb599D2",
          "initCode": "3d60ad80600a3d3981f3363d3d373d3d3d363d731a0e97dae78590b7e967e725a5c848ed034f55105af43d82803e903d91602b57fd5bf300000000000000000000000000000000000000000000000000000000000000000000000000000000000000000000000000000000000000000000000000aa36a70000000000000000000000006d3aec6195fc0106322e1d959ebad8eaec86122b0000000000000000000000000000000000000000000000000000000000000001"
        }
      ],
      "isFixedGasLimit": false
    },
    {
      "hash": "0x6b4145b54c18a3475b8e4a59b17fbb00ea51a0588e2ce5ba94d4e80a7355dd41",
      "transactionType": "CALL",
      "contractName": null,
      "contractAddress": "0x119B25FCF4E418F4B11210bB89300B2bd4e750cb",
      "function": "mintFungible(address,uint256,uint256)",
      "arguments": [
        "0xCB53f7a3FB5F68715CEB14688BeCda1B9063b809",
        "1",
        "100"
      ],
      "transaction": {
        "type": "0x02",
        "from": "0x42c7ef198f8ac9888e2b1b73e5b71f1d4535194a",
        "to": "0x119b25fcf4e418f4b11210bb89300b2bd4e750cb",
        "gas": "0x1a1eb",
        "value": "0x0",
        "data": "0x58ea82e6000000000000000000000000cb53f7a3fb5f68715ceb14688becda1b9063b80900000000000000000000000000000000000000000000000000000000000000010000000000000000000000000000000000000000000000000000000000000064",
        "nonce": "0x12",
        "accessList": []
      },
      "additionalContracts": [],
      "isFixedGasLimit": false
    },
    {
      "hash": "0xc5447cfe23244cb2c57d470afb989c7f76e8aa27ecadf7d4d71184865f84eae4",
      "transactionType": "CALL",
      "contractName": null,
      "contractAddress": "0x119B25FCF4E418F4B11210bB89300B2bd4e750cb",
      "function": "mintFungible(address,uint256,uint256)",
      "arguments": [
        "0xCB53f7a3FB5F68715CEB14688BeCda1B9063b809",
        "2",
        "50"
      ],
      "transaction": {
        "type": "0x02",
        "from": "0x42c7ef198f8ac9888e2b1b73e5b71f1d4535194a",
        "to": "0x119b25fcf4e418f4b11210bb89300b2bd4e750cb",
        "gas": "0x1a1eb",
        "value": "0x0",
        "data": "0x58ea82e6000000000000000000000000cb53f7a3fb5f68715ceb14688becda1b9063b80900000000000000000000000000000000000000000000000000000000000000020000000000000000000000000000000000000000000000000000000000000032",
        "nonce": "0x13",
        "accessList": []
      },
      "additionalContracts": [],
      "isFixedGasLimit": false
    },
    {
      "hash": "0x25075a613bf42e225cfd3c61915c447c6290971531de293e2845022bd98fa35d",
      "transactionType": "CALL",
      "contractName": null,
      "contractAddress": "0xDc41aF1F0368f34dB6e07C2Ea76d8519E5e3004d",
      "function": "mintFungible(address,uint256,uint256)",
      "arguments": [
        "0x784aB2CCb0e259FBd13De78bEa3Fce02Eeb599D2",
        "1",
        "100"
      ],
      "transaction": {
        "type": "0x02",
        "from": "0x42c7ef198f8ac9888e2b1b73e5b71f1d4535194a",
        "to": "0xdc41af1f0368f34db6e07c2ea76d8519e5e3004d",
        "gas": "0x1a1eb",
        "value": "0x0",
        "data": "0x58ea82e6000000000000000000000000784ab2ccb0e259fbd13de78bea3fce02eeb599d200000000000000000000000000000000000000000000000000000000000000010000000000000000000000000000000000000000000000000000000000000064",
        "nonce": "0x14",
        "accessList": []
      },
      "additionalContracts": [],
      "isFixedGasLimit": false
    },
    {
      "hash": "0x335e5f5c1a969a5069f09eda7fdda37a44508f9027c4a2f6408d7ba33e3353ac",
      "transactionType": "CALL",
      "contractName": null,
      "contractAddress": "0xDc41aF1F0368f34dB6e07C2Ea76d8519E5e3004d",
      "function": "mintFungible(address,uint256,uint256)",
      "arguments": [
        "0x784aB2CCb0e259FBd13De78bEa3Fce02Eeb599D2",
        "2",
        "50"
      ],
      "transaction": {
        "type": "0x02",
        "from": "0x42c7ef198f8ac9888e2b1b73e5b71f1d4535194a",
        "to": "0xdc41af1f0368f34db6e07c2ea76d8519e5e3004d",
        "gas": "0x1a1eb",
        "value": "0x0",
        "data": "0x58ea82e6000000000000000000000000784ab2ccb0e259fbd13de78bea3fce02eeb599d200000000000000000000000000000000000000000000000000000000000000020000000000000000000000000000000000000000000000000000000000000032",
        "nonce": "0x15",
        "accessList": []
      },
      "additionalContracts": [],
      "isFixedGasLimit": false
    }
  ],
  "receipts": [
    {
      "transactionHash": "0x8e3fb2e606606f23d4c1221db7cee384fc7a35e634d3912bc5eb41c74aba4395",
      "transactionIndex": "0x0",
      "blockHash": "0x9e62fab58dfcd06db983cdc0c129446a410e0bf7706e32e06c82937d5507e97b",
      "blockNumber": "0x3dca40",
      "from": "0x42C7eF198f8aC9888E2B1b73e5B71f1D4535194A",
      "to": "0x4ade2b208E780D5a8C60B3D5A4F9D8Bfa2760FB5",
      "cumulativeGasUsed": "0x3747b",
      "gasUsed": "0x3747b",
      "contractAddress": null,
      "logs": [
        {
          "address": "0x02101dfB77FDE026414827Fdc604ddAF224F0921",
          "topics": [
            "0x07fba7bba1191da7ee1155dcfa0030701c9c9a9cc34a93b991fc6fd0c9268d8f"
          ],
          "data": "0x000000000000000000000000cb53f7a3fb5f68715ceb14688becda1b9063b8090000000000000000000000001a0e97dae78590b7e967e725a5c848ed034f55100000000000000000000000000000000000000000000000000000000000aa36a70000000000000000000000004ade2b208e780d5a8c60b3d5a4f9d8bfa2760fb500000000000000000000000000000000000000000000000000000000000000010000000000000000000000000000000000000000000000000000000000000000",
          "blockHash": "0x9e62fab58dfcd06db983cdc0c129446a410e0bf7706e32e06c82937d5507e97b",
          "blockNumber": "0x3dca40",
          "transactionHash": "0x8e3fb2e606606f23d4c1221db7cee384fc7a35e634d3912bc5eb41c74aba4395",
          "transactionIndex": "0x0",
          "logIndex": "0x0",
          "removed": false
        },
        {
          "address": "0x4ade2b208E780D5a8C60B3D5A4F9D8Bfa2760FB5",
          "topics": [
            "0xddf252ad1be2c89b69c2b068fc378daa952ba7f163c4a11628f55a4df523b3ef",
            "0x0000000000000000000000000000000000000000000000000000000000000000",
            "0x0000000000000000000000009bd63cb55b822785cdc6af5704f20425255c0c60",
            "0x0000000000000000000000000000000000000000000000000000000000000001"
          ],
          "data": "0x",
          "blockHash": "0x9e62fab58dfcd06db983cdc0c129446a410e0bf7706e32e06c82937d5507e97b",
          "blockNumber": "0x3dca40",
          "transactionHash": "0x8e3fb2e606606f23d4c1221db7cee384fc7a35e634d3912bc5eb41c74aba4395",
          "transactionIndex": "0x0",
          "logIndex": "0x1",
          "removed": false
        }
      ],
      "status": "0x1",
      "logsBloom": "0x00000000000000000000000000040000000000000000000000000000000000000000000000000000000000000000000000000000000000000000010000040002000000000000000000000008000000000000000000040000000000000000800000000000020000000000000000000800000000000000000000000010000000000000000000000000800000000200000000000000000000000000000000000000000400000000000000000000000000000000000000000000000000000000000000000002000000000000000000000000000000000000000000080000000060000000001000000080008000000000000000000000000000000000002000000000",
      "type": "0x2",
      "effectiveGasPrice": "0xbf0c4606"
    },
    {
      "transactionHash": "0x901683656b1dcc2ae77588f28a891e94ddb978b8d6856c11a2505f6dd968f574",
      "transactionIndex": "0x1",
      "blockHash": "0x9e62fab58dfcd06db983cdc0c129446a410e0bf7706e32e06c82937d5507e97b",
      "blockNumber": "0x3dca40",
      "from": "0x42C7eF198f8aC9888E2B1b73e5B71f1D4535194A",
      "to": "0x6D3aEC6195fc0106322e1d959ebAD8eaEc86122b",
      "cumulativeGasUsed": "0x6e8f6",
      "gasUsed": "0x3747b",
      "contractAddress": null,
      "logs": [
        {
          "address": "0x02101dfB77FDE026414827Fdc604ddAF224F0921",
          "topics": [
            "0x07fba7bba1191da7ee1155dcfa0030701c9c9a9cc34a93b991fc6fd0c9268d8f"
          ],
          "data": "0x000000000000000000000000784ab2ccb0e259fbd13de78bea3fce02eeb599d20000000000000000000000001a0e97dae78590b7e967e725a5c848ed034f55100000000000000000000000000000000000000000000000000000000000aa36a70000000000000000000000006d3aec6195fc0106322e1d959ebad8eaec86122b00000000000000000000000000000000000000000000000000000000000000010000000000000000000000000000000000000000000000000000000000000000",
          "blockHash": "0x9e62fab58dfcd06db983cdc0c129446a410e0bf7706e32e06c82937d5507e97b",
          "blockNumber": "0x3dca40",
          "transactionHash": "0x901683656b1dcc2ae77588f28a891e94ddb978b8d6856c11a2505f6dd968f574",
          "transactionIndex": "0x1",
          "logIndex": "0x2",
          "removed": false
        },
        {
          "address": "0x6D3aEC6195fc0106322e1d959ebAD8eaEc86122b",
          "topics": [
            "0xddf252ad1be2c89b69c2b068fc378daa952ba7f163c4a11628f55a4df523b3ef",
            "0x0000000000000000000000000000000000000000000000000000000000000000",
            "0x0000000000000000000000009bd63cb55b822785cdc6af5704f20425255c0c60",
            "0x0000000000000000000000000000000000000000000000000000000000000001"
          ],
          "data": "0x",
          "blockHash": "0x9e62fab58dfcd06db983cdc0c129446a410e0bf7706e32e06c82937d5507e97b",
          "blockNumber": "0x3dca40",
          "transactionHash": "0x901683656b1dcc2ae77588f28a891e94ddb978b8d6856c11a2505f6dd968f574",
          "transactionIndex": "0x1",
          "logIndex": "0x3",
          "removed": false
        }
      ],
      "status": "0x1",
      "logsBloom": "0x00000000000000000000000000000000000000000000000000000000000000000000000000000000000000000000000000000010000000010000000000040002000000000000000000000008000000000000000000040000000000000000800000000000020000000000000000000800000000000000000000000010000000000000000000000000000000000200000000000000000000000000000000000000000400000000000000000000000000000000000000000000000000000000000000000002000000000000000000000000000000000000000000080000000060000000001000000080008000000000000000000000000000000000012000000000",
      "type": "0x2",
      "effectiveGasPrice": "0xbf0c4606"
    },
    {
      "transactionHash": "0x6b4145b54c18a3475b8e4a59b17fbb00ea51a0588e2ce5ba94d4e80a7355dd41",
      "transactionIndex": "0x2",
      "blockHash": "0x9e62fab58dfcd06db983cdc0c129446a410e0bf7706e32e06c82937d5507e97b",
      "blockNumber": "0x3dca40",
      "from": "0x42C7eF198f8aC9888E2B1b73e5B71f1D4535194A",
      "to": "0x119B25FCF4E418F4B11210bB89300B2bd4e750cb",
      "cumulativeGasUsed": "0x806b8",
      "gasUsed": "0x11dc2",
      "contractAddress": null,
      "logs": [
        {
          "address": "0x119B25FCF4E418F4B11210bB89300B2bd4e750cb",
          "topics": [
            "0xc3d58168c5ae7397731d063d5bbf3d657854427343f4c083240f7aacaa2d0f62",
            "0x00000000000000000000000042c7ef198f8ac9888e2b1b73e5b71f1d4535194a",
            "0x0000000000000000000000000000000000000000000000000000000000000000",
            "0x000000000000000000000000cb53f7a3fb5f68715ceb14688becda1b9063b809"
          ],
          "data": "0x00000000000000000000000000000000000000000000000000000000000000010000000000000000000000000000000000000000000000000000000000000064",
          "blockHash": "0x9e62fab58dfcd06db983cdc0c129446a410e0bf7706e32e06c82937d5507e97b",
          "blockNumber": "0x3dca40",
          "transactionHash": "0x6b4145b54c18a3475b8e4a59b17fbb00ea51a0588e2ce5ba94d4e80a7355dd41",
          "transactionIndex": "0x2",
          "logIndex": "0x4",
          "removed": false
        }
      ],
      "status": "0x1",
      "logsBloom": "0x00000000000000000000000000000000000000000000000000000000000000000000000000000000000000000000000000000000000000000000000000002000000000000000000100000001000000000000000000008000000000000400000080000000020000000000000000000800000000000000000000000000000000001000000000000000000000000000000000000000000000000000000000000000000000000000000000800000000000000000000000000000000000000000000000000000000000000000000000000000000000000008000004000000000020000000000000000000000000000400000000000000000000000000080000000000",
      "type": "0x2",
      "effectiveGasPrice": "0xbf0c4606"
    },
    {
      "transactionHash": "0xc5447cfe23244cb2c57d470afb989c7f76e8aa27ecadf7d4d71184865f84eae4",
      "transactionIndex": "0x3",
      "blockHash": "0x9e62fab58dfcd06db983cdc0c129446a410e0bf7706e32e06c82937d5507e97b",
      "blockNumber": "0x3dca40",
      "from": "0x42C7eF198f8aC9888E2B1b73e5B71f1D4535194A",
      "to": "0x119B25FCF4E418F4B11210bB89300B2bd4e750cb",
      "cumulativeGasUsed": "0x9247a",
      "gasUsed": "0x11dc2",
      "contractAddress": null,
      "logs": [
        {
          "address": "0x119B25FCF4E418F4B11210bB89300B2bd4e750cb",
          "topics": [
            "0xc3d58168c5ae7397731d063d5bbf3d657854427343f4c083240f7aacaa2d0f62",
            "0x00000000000000000000000042c7ef198f8ac9888e2b1b73e5b71f1d4535194a",
            "0x0000000000000000000000000000000000000000000000000000000000000000",
            "0x000000000000000000000000cb53f7a3fb5f68715ceb14688becda1b9063b809"
          ],
          "data": "0x00000000000000000000000000000000000000000000000000000000000000020000000000000000000000000000000000000000000000000000000000000032",
          "blockHash": "0x9e62fab58dfcd06db983cdc0c129446a410e0bf7706e32e06c82937d5507e97b",
          "blockNumber": "0x3dca40",
          "transactionHash": "0xc5447cfe23244cb2c57d470afb989c7f76e8aa27ecadf7d4d71184865f84eae4",
          "transactionIndex": "0x3",
          "logIndex": "0x5",
          "removed": false
        }
      ],
      "status": "0x1",
      "logsBloom": "0x00000000000000000000000000000000000000000000000000000000000000000000000000000000000000000000000000000000000000000000000000002000000000000000000100000001000000000000000000008000000000000400000080000000020000000000000000000800000000000000000000000000000000001000000000000000000000000000000000000000000000000000000000000000000000000000000000800000000000000000000000000000000000000000000000000000000000000000000000000000000000000008000004000000000020000000000000000000000000000400000000000000000000000000080000000000",
      "type": "0x2",
      "effectiveGasPrice": "0xbf0c4606"
    },
    {
      "transactionHash": "0x25075a613bf42e225cfd3c61915c447c6290971531de293e2845022bd98fa35d",
      "transactionIndex": "0x4",
      "blockHash": "0x9e62fab58dfcd06db983cdc0c129446a410e0bf7706e32e06c82937d5507e97b",
      "blockNumber": "0x3dca40",
      "from": "0x42C7eF198f8aC9888E2B1b73e5B71f1D4535194A",
      "to": "0xDc41aF1F0368f34dB6e07C2Ea76d8519E5e3004d",
      "cumulativeGasUsed": "0xa423c",
      "gasUsed": "0x11dc2",
      "contractAddress": null,
      "logs": [
        {
          "address": "0xDc41aF1F0368f34dB6e07C2Ea76d8519E5e3004d",
          "topics": [
            "0xc3d58168c5ae7397731d063d5bbf3d657854427343f4c083240f7aacaa2d0f62",
            "0x00000000000000000000000042c7ef198f8ac9888e2b1b73e5b71f1d4535194a",
            "0x0000000000000000000000000000000000000000000000000000000000000000",
            "0x000000000000000000000000784ab2ccb0e259fbd13de78bea3fce02eeb599d2"
          ],
          "data": "0x00000000000000000000000000000000000000000000000000000000000000010000000000000000000000000000000000000000000000000000000000000064",
          "blockHash": "0x9e62fab58dfcd06db983cdc0c129446a410e0bf7706e32e06c82937d5507e97b",
          "blockNumber": "0x3dca40",
          "transactionHash": "0x25075a613bf42e225cfd3c61915c447c6290971531de293e2845022bd98fa35d",
          "transactionIndex": "0x4",
          "logIndex": "0x6",
          "removed": false
        }
      ],
      "status": "0x1",
      "logsBloom": "0x00040000000000000000000400000000000000000000000000000000000000000000000000000000000000001400000000000000000000000000000000002000000000000000000100000000000000000004000000000000000000000000000000000000020000000000000000000800000000000000000000000000000000000000000000000000000000000000000000000000000000000000010000000000000000000000000000800000000000000000000000000000000000000000000000000000000000000000000000000000000000000008000000000000000020000000000000000000000000000400000000000000000000000000080000000000",
      "type": "0x2",
      "effectiveGasPrice": "0xbf0c4606"
    },
    {
      "transactionHash": "0x335e5f5c1a969a5069f09eda7fdda37a44508f9027c4a2f6408d7ba33e3353ac",
      "transactionIndex": "0x5",
      "blockHash": "0x9e62fab58dfcd06db983cdc0c129446a410e0bf7706e32e06c82937d5507e97b",
      "blockNumber": "0x3dca40",
      "from": "0x42C7eF198f8aC9888E2B1b73e5B71f1D4535194A",
      "to": "0xDc41aF1F0368f34dB6e07C2Ea76d8519E5e3004d",
      "cumulativeGasUsed": "0xb5ffe",
      "gasUsed": "0x11dc2",
      "contractAddress": null,
      "logs": [
        {
          "address": "0xDc41aF1F0368f34dB6e07C2Ea76d8519E5e3004d",
          "topics": [
            "0xc3d58168c5ae7397731d063d5bbf3d657854427343f4c083240f7aacaa2d0f62",
            "0x00000000000000000000000042c7ef198f8ac9888e2b1b73e5b71f1d4535194a",
            "0x0000000000000000000000000000000000000000000000000000000000000000",
            "0x000000000000000000000000784ab2ccb0e259fbd13de78bea3fce02eeb599d2"
          ],
          "data": "0x00000000000000000000000000000000000000000000000000000000000000020000000000000000000000000000000000000000000000000000000000000032",
          "blockHash": "0x9e62fab58dfcd06db983cdc0c129446a410e0bf7706e32e06c82937d5507e97b",
          "blockNumber": "0x3dca40",
          "transactionHash": "0x335e5f5c1a969a5069f09eda7fdda37a44508f9027c4a2f6408d7ba33e3353ac",
          "transactionIndex": "0x5",
          "logIndex": "0x7",
          "removed": false
        }
      ],
      "status": "0x1",
      "logsBloom": "0x00040000000000000000000400000000000000000000000000000000000000000000000000000000000000001400000000000000000000000000000000002000000000000000000100000000000000000004000000000000000000000000000000000000020000000000000000000800000000000000000000000000000000000000000000000000000000000000000000000000000000000000010000000000000000000000000000800000000000000000000000000000000000000000000000000000000000000000000000000000000000000008000000000000000020000000000000000000000000000400000000000000000000000000080000000000",
      "type": "0x2",
      "effectiveGasPrice": "0xbf0c4606"
    }
  ],
  "libraries": [],
  "pending": [],
  "returns": {},
  "timestamp": 1691509176,
  "chain": 11155111,
  "multi": false,
  "commit": "c4f8c93"
}