{
  "transactions": [
    {
      "hash": "0xade20b805b1c618853cec64cfa6964db1571b2bc2708266897f9f4dd8b0d537d",
      "transactionType": "CALL",
      "contractName": "ERC721CloneableTBA",
      "contractAddress": "0x381BE1c4765AEe02Fc3cC86c700Ab1c4a30fc7c9",
      "function": "initialize(address,address,string,string,string,address)",
      "arguments": [
        "0x1a0E97Dae78590b7E967E725a5c848eD034f5510",
        "0x02101dfB77FDE026414827Fdc604ddAF224F0921",
        "TronClub",
        "TRNC",
        "https://ipfs.io/ipfs/QmUkpx1WefuPkanLCb183WpcESf76TPwq3cks5TudvHyHh/",
        "0x42C7eF198f8aC9888E2B1b73e5B71f1D4535194A"
      ],
      "transaction": {
        "type": "0x02",
        "from": "0x42c7ef198f8ac9888e2b1b73e5b71f1d4535194a",
        "to": "0x381be1c4765aee02fc3cc86c700ab1c4a30fc7c9",
        "gas": "0x4ee07",
        "value": "0x0",
        "data": "0x45237f1c0000000000000000000000001a0e97dae78590b7e967e725a5c848ed034f551000000000000000000000000002101dfb77fde026414827fdc604ddaf224f092100000000000000000000000000000000000000000000000000000000000000c00000000000000000000000000000000000000000000000000000000000000100000000000000000000000000000000000000000000000000000000000000014000000000000000000000000042c7ef198f8ac9888e2b1b73e5b71f1d4535194a000000000000000000000000000000000000000000000000000000000000000854726f6e436c7562000000000000000000000000000000000000000000000000000000000000000000000000000000000000000000000000000000000000000454524e4300000000000000000000000000000000000000000000000000000000000000000000000000000000000000000000000000000000000000000000004468747470733a2f2f697066732e696f2f697066732f516d556b70783157656675506b616e4c436231383357706345536637365450777133636b733554756476487948682f00000000000000000000000000000000000000000000000000000000",
        "nonce": "0x2",
        "accessList": []
      },
      "additionalContracts": [],
      "isFixedGasLimit": false
    },
    {
      "hash": "0xef73b47dbb95336a657433c87c20e5ded24db43c15aafe3088d582d02f730dcd",
      "transactionType": "CALL",
      "contractName": "ERC1155Cloneable",
      "contractAddress": "0xCa9F4A29Fc0076A9Fd643B549Fc760995b47E6f8",
      "function": "initialize(string,address,string,string)",
      "arguments": [
        "https://ipfs.io/ipfs/QmPd3dW1GdemiXM5GcCJe68ykUqGBmG1Q3XshTwzT5zDfJ/",
        "0x1a0E97Dae78590b7E967E725a5c848eD034f5510",
        "TRC CLUB POINTS",
        "TRCP"
      ],
      "transaction": {
        "type": "0x02",
        "from": "0x42c7ef198f8ac9888e2b1b73e5b71f1d4535194a",
        "to": "0xca9f4a29fc0076a9fd643b549fc760995b47e6f8",
        "gas": "0x45805",
        "value": "0x0",
        "data": "0x75fe688200000000000000000000000000000000000000000000000000000000000000800000000000000000000000001a0e97dae78590b7e967e725a5c848ed034f551000000000000000000000000000000000000000000000000000000000000001000000000000000000000000000000000000000000000000000000000000000140000000000000000000000000000000000000000000000000000000000000004468747470733a2f2f697066732e696f2f697066732f516d5064336457314764656d69584d354763434a653638796b557147426d4731513358736854777a54357a44664a2f00000000000000000000000000000000000000000000000000000000000000000000000000000000000000000000000000000000000000000000000f54524320434c554220504f494e5453000000000000000000000000000000000000000000000000000000000000000000000000000000000000000000000000045452435000000000000000000000000000000000000000000000000000000000",
        "nonce": "0x3",
        "accessList": []
      },
      "additionalContracts": [],
      "isFixedGasLimit": false
    },
    {
      "hash": "0x8de3e79d004c5ea00a909dfe1db0f3054690fbd959d1c98f223ebcf1caa55d6f",
      "transactionType": "CREATE",
      "contractName": "CloneFactory",
      "contractAddress": "0xfFc708e5eE0e1c5643c131906f187f3A49f67976",
      "function": null,
      "arguments": [
        "0x42C7eF198f8aC9888E2B1b73e5B71f1D4535194A",
        "0x381BE1c4765AEe02Fc3cC86c700Ab1c4a30fc7c9",
        "0xCa9F4A29Fc0076A9Fd643B549Fc760995b47E6f8",
        "0x02101dfB77FDE026414827Fdc604ddAF224F0921",
        "0x1a0E97Dae78590b7E967E725a5c848eD034f5510"
      ],
      "transaction": {
        "type": "0x02",
        "from": "0x42c7ef198f8ac9888e2b1b73e5b71f1d4535194a",
        "gas": "0x1106a9",
        "value": "0x0",
        "data": "0x608060405234801561001057600080fd5b50604051610d36380380610d3683398101604081905261002f916100b7565b60038054336001600160a01b0319918216179091556002805482166001600160a01b03958616179055600180548216958516959095179094556004805485169584169590951790945560008054841691831691909117905560058054909216921691909117905561011c565b80516001600160a01b03811681146100b257600080fd5b919050565b600080600080600060a086880312156100cf57600080fd5b6100d88661009b565b94506100e66020870161009b565b93506100f46040870161009b565b92506101026060870161009b565b91506101106080870161009b565b90509295509295909350565b610c0b8061012b6000396000f3fe608060405234801561001057600080fd5b50600436106101215760003560e01c80634b0172e6116100ad5780637d2405bb116100715780637d2405bb1461029b5780638da5cb5b146102ae578063a91ee0dc146102c1578063a95a1e46146102d4578063c2ff6fd2146102e757600080fd5b80634b0172e6146102485780634d5ecf671461025a578063641254bd1461026d5780637a138b7b146102805780637b1039991461028857600080fd5b80631b268a57116100f45780631b268a57146101a75780632174a6a5146101d05780632429801e146101e35780632abcc1a41461020c5780634a80a3191461023557600080fd5b80630515583e1461012657806306a3013d1461016c57806309766da21461017f57806311464fbe14610194575b600080fd5b61014f610134366004610825565b6000908152600860205260409020546001600160a01b031690565b6040516001600160a01b0390911681526020015b60405180910390f35b60045461014f906001600160a01b031681565b61019261018d366004610856565b6102fa565b005b60055461014f906001600160a01b031681565b61014f6101b5366004610825565b6000908152600960205260409020546001600160a01b031690565b61014f6101de36600461091d565b61034f565b61014f6101f1366004610825565b6009602052600090815260409020546001600160a01b031681565b61014f61021a366004610825565b6008602052600090815260409020546001600160a01b031681565b60015461014f906001600160a01b031681565b6006545b604051908152602001610163565b610192610268366004610856565b6104b7565b61019261027b366004610856565b61055d565b60075461024c565b60005461014f906001600160a01b031681565b6101926102a9366004610856565b6105a9565b60035461014f906001600160a01b031681565b6101926102cf366004610856565b6105f5565b60025461014f906001600160a01b031681565b61014f6102f53660046109b8565b610641565b6003546001600160a01b0316331461032d5760405162461bcd60e51b815260040161032490610a55565b60405180910390fd5b600580546001600160a01b0319166001600160a01b0392909216919091179055565b6004546000906001600160a01b031633146103ac5760405162461bcd60e51b815260206004820152601a60248201527f43616c6c6572206973206e6f742054726f6e69632061646d696e0000000000006044820152606401610324565b6001546103c1906001600160a01b031661078b565b600554600054604051631148dfc760e21b815292935083926001600160a01b03808516936345237f1c93610405939183169216908b908b908b908b90600401610ac8565b600060405180830381600087803b15801561041f57600080fd5b505af1158015610433573d6000803e3d6000fd5b505060078054600090815260096020526040812080546001600160a01b0319166001600160a01b0388161790558154935090915061047083610b2f565b91905055507f3de89afa7ff3be26a41aef997a053b6c635a410036dbe09cbc2394014f034e3a82856040516104a6929190610b56565b60405180910390a150949350505050565b6003546001600160a01b031633146104e15760405162461bcd60e51b815260040161032490610a55565b6004546001600160a01b0316331461053b5760405162461bcd60e51b815260206004820152601d60248201527f43616c6c6572206973206e6f74207468652074726f6e696341646d696e0000006044820152606401610324565b600480546001600160a01b0319166001600160a01b0392909216919091179055565b6003546001600160a01b031633146105875760405162461bcd60e51b815260040161032490610a55565b600180546001600160a01b0319166001600160a01b0392909216919091179055565b6003546001600160a01b031633146105d35760405162461bcd60e51b815260040161032490610a55565b600280546001600160a01b0319166001600160a01b0392909216919091179055565b6003546001600160a01b0316331461061f5760405162461bcd60e51b815260040161032490610a55565b600080546001600160a01b0319166001600160a01b0392909216919091179055565b6004546000906001600160a01b0316331461069e5760405162461bcd60e51b815260206004820152601a60248201527f43616c6c6572206973206e6f742054726f6e69632061646d696e0000000000006044820152606401610324565b6002546106b3906001600160a01b031661078b565b604051633aff344160e11b815290915081906001600160a01b038216906375fe6882906106ea908990899089908990600401610b82565b600060405180830381600087803b15801561070457600080fd5b505af1158015610718573d6000803e3d6000fd5b505060068054600090815260086020526040812080546001600160a01b0319166001600160a01b0388161790558154935090915061075583610b2f565b91905055507f3de89afa7ff3be26a41aef997a053b6c635a410036dbe09cbc2394014f034e3a82876040516104a6929190610b56565b6000763d602d80600a3d3981f3363d3d373d3d3d363d730000008260601b60e81c176000526e5af43d82803e903d91602b57fd5bf38260781b17602052603760096000f090506001600160a01b0381166108205760405162461bcd60e51b8152602060048201526016602482015275115490cc4c4d8dce8818dc99585d194819985a5b195960521b6044820152606401610324565b919050565b60006020828403121561083757600080fd5b5035919050565b6001600160a01b038116811461085357600080fd5b50565b60006020828403121561086857600080fd5b81356108738161083e565b9392505050565b634e487b7160e01b600052604160045260246000fd5b600082601f8301126108a157600080fd5b813567ffffffffffffffff808211156108bc576108bc61087a565b604051601f8301601f19908116603f011681019082821181831017156108e4576108e461087a565b816040528381528660208588010111156108fd57600080fd5b836020870160208301376000602085830101528094505050505092915050565b6000806000806080858703121561093357600080fd5b843567ffffffffffffffff8082111561094b57600080fd5b61095788838901610890565b9550602087013591508082111561096d57600080fd5b61097988838901610890565b9450604087013591508082111561098f57600080fd5b5061099c87828801610890565b92505060608501356109ad8161083e565b939692955090935050565b600080600080608085870312156109ce57600080fd5b843567ffffffffffffffff808211156109e657600080fd5b6109f288838901610890565b955060208701359150610a048261083e565b90935060408601359080821115610a1a57600080fd5b610a2688838901610890565b93506060870135915080821115610a3c57600080fd5b50610a4987828801610890565b91505092959194509250565b60208082526013908201527221b0b63632b91034b9903737ba1037bbb732b960691b604082015260600190565b6000815180845260005b81811015610aa857602081850181015186830182015201610a8c565b506000602082860101526020601f19601f83011685010191505092915050565b600060018060a01b038089168352808816602084015260c06040840152610af260c0840188610a82565b8381036060850152610b048188610a82565b90508381036080850152610b188187610a82565b92505080841660a084015250979650505050505050565b600060018201610b4f57634e487b7160e01b600052601160045260246000fd5b5060010190565b6001600160a01b0383168152604060208201819052600090610b7a90830184610a82565b949350505050565b608081526000610b956080830187610a82565b6001600160a01b03861660208401528281036040840152610bb68186610a82565b90508281036060840152610bca8185610a82565b97965050505050505056fea26469706673582212203256b06687d363d04fc51af2b7dbed73b25b5601b9a2423399c90f3d7a383ca164736f6c6343000813003300000000000000000000000042c7ef198f8ac9888e2b1b73e5b71f1d4535194a000000000000000000000000381be1c4765aee02fc3cc86c700ab1c4a30fc7c9000000000000000000000000ca9f4a29fc0076a9fd643b549fc760995b47e6f800000000000000000000000002101dfb77fde026414827fdc604ddaf224f09210000000000000000000000001a0e97dae78590b7e967e725a5c848ed034f5510",
        "nonce": "0x4",
        "accessList": []
      },
      "additionalContracts": [],
      "isFixedGasLimit": false
    }
  ],
  "receipts": [
    {
      "transactionHash": "0xade20b805b1c618853cec64cfa6964db1571b2bc2708266897f9f4dd8b0d537d",
      "transactionIndex": "0x4",
      "blockHash": "0xf48ec25df85127047417444f1467a3a1ff5cd50279fa0a7210f213591205ae92",
      "blockNumber": "0x3dc85c",
      "from": "0x42C7eF198f8aC9888E2B1b73e5B71f1D4535194A",
      "to": "0x381BE1c4765AEe02Fc3cC86c700Ab1c4a30fc7c9",
      "cumulativeGasUsed": "0x15bd8a",
      "gasUsed": "0x391b0",
      "contractAddress": null,
      "logs": [
        {
          "address": "0x381BE1c4765AEe02Fc3cC86c700Ab1c4a30fc7c9",
          "topics": [
            "0x7f26b83ff96e1f2b6a682f133852f6798a09c465da95921460cefb3847402498"
          ],
          "data": "0x0000000000000000000000000000000000000000000000000000000000000001",
          "blockHash": "0xf48ec25df85127047417444f1467a3a1ff5cd50279fa0a7210f213591205ae92",
          "blockNumber": "0x3dc85c",
          "transactionHash": "0xade20b805b1c618853cec64cfa6964db1571b2bc2708266897f9f4dd8b0d537d",
          "transactionIndex": "0x4",
          "logIndex": "0xe",
          "removed": false
        }
      ],
      "status": "0x1",
      "logsBloom": "0x00000000000000000000000000000000000000000000000000000000000000000000000000000000000000000000000000000000000000000000000000000000000000000000000000000000000000000000000000000000000000000000000000000000000000000000000000000000000000000000000000000000000000000000000000000000000000000000000000000020000080080000000000000000000000000000000000000000000400000000000000000000000000000000000000000000000000000000000000040000000000000000000000000000000002000000000000000000000000000000000000000000000000000000000000000000",
      "type": "0x2",
      "effectiveGasPrice": "0xbe19868e"
    },
    {
      "transactionHash": "0xef73b47dbb95336a657433c87c20e5ded24db43c15aafe3088d582d02f730dcd",
      "transactionIndex": "0x5",
      "blockHash": "0xf48ec25df85127047417444f1467a3a1ff5cd50279fa0a7210f213591205ae92",
      "blockNumber": "0x3dc85c",
      "from": "0x42C7eF198f8aC9888E2B1b73e5B71f1D4535194A",
      "to": "0xCa9F4A29Fc0076A9Fd643B549Fc760995b47E6f8",
      "cumulativeGasUsed": "0x18e2a0",
      "gasUsed": "0x32516",
      "contractAddress": null,
      "logs": [
        {
          "address": "0xCa9F4A29Fc0076A9Fd643B549Fc760995b47E6f8",
          "topics": [
            "0x7f26b83ff96e1f2b6a682f133852f6798a09c465da95921460cefb3847402498"
          ],
          "data": "0x0000000000000000000000000000000000000000000000000000000000000001",
          "blockHash": "0xf48ec25df85127047417444f1467a3a1ff5cd50279fa0a7210f213591205ae92",
          "blockNumber": "0x3dc85c",
          "transactionHash": "0xef73b47dbb95336a657433c87c20e5ded24db43c15aafe3088d582d02f730dcd",
          "transactionIndex": "0x5",
          "logIndex": "0xf",
          "removed": false
        }
      ],
      "status": "0x1",
      "logsBloom": "0x00000000000000000000000000000000000000000000000000000000000000000000000000000000000000000000000000000000000000000000000000000000000000000000000000000000000000000000000200000000000000000000000000000000000000000000000000000000001000000000000000000000000000000000000000000000000000000000000000000000000080000000000000000000000000000000000000000000000400000000000000000000000000000000000000000000000000000000000000040000000000000000000000001000000000000000000000000000000000000000000000000000000000000000000000000000",
      "type": "0x2",
      "effectiveGasPrice": "0xbe19868e"
    },
    {
      "transactionHash": "0x8de3e79d004c5ea00a909dfe1db0f3054690fbd959d1c98f223ebcf1caa55d6f",
      "transactionIndex": "0x6",
      "blockHash": "0xf48ec25df85127047417444f1467a3a1ff5cd50279fa0a7210f213591205ae92",
      "blockNumber": "0x3dc85c",
      "from": "0x42C7eF198f8aC9888E2B1b73e5B71f1D4535194A",
      "to": null,
      "cumulativeGasUsed": "0x25fc4f",
      "gasUsed": "0xd19af",
      "contractAddress": "0xfFc708e5eE0e1c5643c131906f187f3A49f67976",
      "logs": [],
      "status": "0x1",
      "logsBloom": "0x00000000000000000000000000000000000000000000000000000000000000000000000000000000000000000000000000000000000000000000000000000000000000000000000000000000000000000000000000000000000000000000000000000000000000000000000000000000000000000000000000000000000000000000000000000000000000000000000000000000000000000000000000000000000000000000000000000000000000000000000000000000000000000000000000000000000000000000000000000000000000000000000000000000000000000000000000000000000000000000000000000000000000000000000000000000",
      "type": "0x2",
      "effectiveGasPrice": "0xbe19868e"
    }
  ],
  "libraries": [],
  "pending": [],
  "returns": {},
  "timestamp": 1691502905,
  "chain": 11155111,
  "multi": false,
  "commit": "c4f8c93"
}