{
  "transactions": [
    {
      "hash": "0xc11079d4316456d66df5cfdb76c86ee7329b5e1fbd4072a3bf89586e8aae10cb",
      "transactionType": "CALL",
      "contractName": "TronicMembership",
      "contractAddress": "0x0256fAdb74B480aE49F0930a5913466005118f26",
      "function": "mint(address):(address)",
      "arguments": [
        "0x5B095fA9f69062Ed7ed78e436075555ad4c4d555"
      ],
      "transaction": {
        "type": "0x02",
        "from": "0x27870dba1e03cfdd24f5658b255c0baac970a19d",
        "to": "0x0256fadb74b480ae49f0930a5913466005118f26",
        "gas": "0x5e9d7",
        "value": "0x0",
        "data": "0x6a6278420000000000000000000000005b095fa9f69062ed7ed78e436075555ad4c4d555",
        "nonce": "0xa",
        "accessList": []
      },
      "additionalContracts": [
        {
          "transactionType": "CREATE2",
          "address": "0xd0030707C2853261F0829e3915b3b16B94ba6429",
          "initCode": "0x3d60ad80600a3d3981f3363d3d373d3d3d363d732d25602551487c3f3354dd80d76d54383a2433585af43d82803e903d91602b57fd5bf3000000000000000000000000000000000000000000000000000000000000000000000000000000000000000000000000000000000000000000000000000138810000000000000000000000000256fadb74b480ae49f0930a5913466005118f260000000000000000000000000000000000000000000000000000000000000001"
        }
      ],
      "isFixedGasLimit": false
    },
    {
      "hash": "0x28354c628b2a65734bb6cf07879c2c3921bd6aa0fc1c6941f1fbe3b8c1eb1ae4",
      "transactionType": "CALL",
      "contractName": "TronicMembership",
      "contractAddress": "0xD01d94073d0aB4Cc5AF318aaF8D67Ee89259f131",
      "function": "mint(address):(address)",
      "arguments": [
        "0x5B095fA9f69062Ed7ed78e436075555ad4c4d555"
      ],
      "transaction": {
        "type": "0x02",
        "from": "0x27870dba1e03cfdd24f5658b255c0baac970a19d",
        "to": "0xd01d94073d0ab4cc5af318aaf8d67ee89259f131",
        "gas": "0x5e9d7",
        "value": "0x0",
        "data": "0x6a6278420000000000000000000000005b095fa9f69062ed7ed78e436075555ad4c4d555",
        "nonce": "0xb",
        "accessList": []
      },
      "additionalContracts": [
        {
          "transactionType": "CREATE2",
          "address": "0xBB2d7cf4853358590aF8E3EDB9c5b1740673BA52",
          "initCode": "0x3d60ad80600a3d3981f3363d3d373d3d3d363d732d25602551487c3f3354dd80d76d54383a2433585af43d82803e903d91602b57fd5bf300000000000000000000000000000000000000000000000000000000000000000000000000000000000000000000000000000000000000000000000000013881000000000000000000000000d01d94073d0ab4cc5af318aaf8d67ee89259f1310000000000000000000000000000000000000000000000000000000000000001"
        }
      ],
      "isFixedGasLimit": false
    }
  ],
  "receipts": [
    {
      "transactionHash": "0xc11079d4316456d66df5cfdb76c86ee7329b5e1fbd4072a3bf89586e8aae10cb",
      "transactionIndex": "0x1e",
      "blockHash": "0x579f1838e093e95cf3b8f2c5e9a573d2e650251973e5c200f16cfcb4bc7d5fee",
      "blockNumber": "0x260e400",
      "from": "0x27870DBa1e03CFDD24F5658b255c0BAaC970A19D",
      "to": "0x0256fAdb74B480aE49F0930a5913466005118f26",
      "cumulativeGasUsed": "0xfbce9d",
      "gasUsed": "0x447ff",
      "contractAddress": null,
      "logs": [
        {
          "address": "0x02101dfB77FDE026414827Fdc604ddAF224F0921",
          "topics": [
            "0x07fba7bba1191da7ee1155dcfa0030701c9c9a9cc34a93b991fc6fd0c9268d8f"
          ],
          "data": "0x000000000000000000000000d0030707c2853261f0829e3915b3b16b94ba64290000000000000000000000002d25602551487c3f3354dd80d76d54383a24335800000000000000000000000000000000000000000000000000000000000138810000000000000000000000000256fadb74b480ae49f0930a5913466005118f2600000000000000000000000000000000000000000000000000000000000000010000000000000000000000000000000000000000000000000000000000000000",
          "blockHash": "0x579f1838e093e95cf3b8f2c5e9a573d2e650251973e5c200f16cfcb4bc7d5fee",
          "blockNumber": "0x260e400",
          "transactionHash": "0xc11079d4316456d66df5cfdb76c86ee7329b5e1fbd4072a3bf89586e8aae10cb",
          "transactionIndex": "0x1e",
          "logIndex": "0xac",
          "removed": false
        },
        {
          "address": "0xd0030707C2853261F0829e3915b3b16B94ba6429",
          "topics": [
            "0xbc7cd75a20ee27fd9adebab32041f755214dbc6bffa90cc0225b39da2e5c2d3b",
            "0x0000000000000000000000001a0e97dae78590b7e967e725a5c848ed034f5510"
          ],
          "data": "0x",
          "blockHash": "0x579f1838e093e95cf3b8f2c5e9a573d2e650251973e5c200f16cfcb4bc7d5fee",
          "blockNumber": "0x260e400",
          "transactionHash": "0xc11079d4316456d66df5cfdb76c86ee7329b5e1fbd4072a3bf89586e8aae10cb",
          "transactionIndex": "0x1e",
          "logIndex": "0xad",
          "removed": false
        },
        {
          "address": "0x0256fAdb74B480aE49F0930a5913466005118f26",
          "topics": [
            "0xddf252ad1be2c89b69c2b068fc378daa952ba7f163c4a11628f55a4df523b3ef",
            "0x0000000000000000000000000000000000000000000000000000000000000000",
            "0x0000000000000000000000005b095fa9f69062ed7ed78e436075555ad4c4d555",
            "0x0000000000000000000000000000000000000000000000000000000000000001"
          ],
          "data": "0x",
          "blockHash": "0x579f1838e093e95cf3b8f2c5e9a573d2e650251973e5c200f16cfcb4bc7d5fee",
          "blockNumber": "0x260e400",
          "transactionHash": "0xc11079d4316456d66df5cfdb76c86ee7329b5e1fbd4072a3bf89586e8aae10cb",
          "transactionIndex": "0x1e",
          "logIndex": "0xae",
          "removed": false
        },
        {
          "address": "0x0000000000000000000000000000000000001010",
          "topics": [
            "0x4dfe1bbbcf077ddc3e01291eea2d5c70c2b422b415d95645b9adcfd678cb1d63",
            "0x0000000000000000000000000000000000000000000000000000000000001010",
            "0x00000000000000000000000027870dba1e03cfdd24f5658b255c0baac970a19d",
            "0x0000000000000000000000005082f249cdb2f2c1ee035e4f423c46ea2dab3ab1"
          ],
          "data": "0x0000000000000000000000000000000000000000000000000001fe5ce9ee441d00000000000000000000000000000000000000000000000006defa2ecea9b0000000000000000000000000000000000000000000000001261484768c3acd544300000000000000000000000000000000000000000000000006dcfbd1e4bb6be3000000000000000000000000000000000000000000000126148674e924bb9860",
          "blockHash": "0x579f1838e093e95cf3b8f2c5e9a573d2e650251973e5c200f16cfcb4bc7d5fee",
          "blockNumber": "0x260e400",
          "transactionHash": "0xc11079d4316456d66df5cfdb76c86ee7329b5e1fbd4072a3bf89586e8aae10cb",
          "transactionIndex": "0x1e",
          "logIndex": "0xaf",
          "removed": false
        }
      ],
      "status": "0x1",
      "logsBloom": "0x00000000000000200000000000000000400000000020000000000000020000000000000002000000000000000000000000009000000000000000000000040002000000000000000000000008000002800200000000060000000100000000800001000000020000000000000000000800000280080800000080000010008000000000000000000000000000000200000000000000000000000000000002000000200010000000000000000000000000000000000000000000000000000000004000000022000000000001000000000000000000000000000000180000000060000000001000002080000400000000000000000000000000000000002000100000",
      "type": "0x2",
      "effectiveGasPrice": "0x77359400"
    },
    {
      "transactionHash": "0x28354c628b2a65734bb6cf07879c2c3921bd6aa0fc1c6941f1fbe3b8c1eb1ae4",
      "transactionIndex": "0x24",
      "blockHash": "0x16a64add61fc87bf4893ce6df5b40ade1c15af189f294b40fbd1a10fab534f91",
      "blockNumber": "0x260e401",
      "from": "0x27870DBa1e03CFDD24F5658b255c0BAaC970A19D",
      "to": "0xD01d94073d0aB4Cc5AF318aaF8D67Ee89259f131",
      "cumulativeGasUsed": "0x7283c0",
      "gasUsed": "0x447ff",
      "contractAddress": null,
      "logs": [
        {
          "address": "0x02101dfB77FDE026414827Fdc604ddAF224F0921",
          "topics": [
            "0x07fba7bba1191da7ee1155dcfa0030701c9c9a9cc34a93b991fc6fd0c9268d8f"
          ],
          "data": "0x000000000000000000000000bb2d7cf4853358590af8e3edb9c5b1740673ba520000000000000000000000002d25602551487c3f3354dd80d76d54383a2433580000000000000000000000000000000000000000000000000000000000013881000000000000000000000000d01d94073d0ab4cc5af318aaf8d67ee89259f13100000000000000000000000000000000000000000000000000000000000000010000000000000000000000000000000000000000000000000000000000000000",
          "blockHash": "0x16a64add61fc87bf4893ce6df5b40ade1c15af189f294b40fbd1a10fab534f91",
          "blockNumber": "0x260e401",
          "transactionHash": "0x28354c628b2a65734bb6cf07879c2c3921bd6aa0fc1c6941f1fbe3b8c1eb1ae4",
          "transactionIndex": "0x24",
          "logIndex": "0xd3",
          "removed": false
        },
        {
          "address": "0xBB2d7cf4853358590aF8E3EDB9c5b1740673BA52",
          "topics": [
            "0xbc7cd75a20ee27fd9adebab32041f755214dbc6bffa90cc0225b39da2e5c2d3b",
            "0x0000000000000000000000001a0e97dae78590b7e967e725a5c848ed034f5510"
          ],
          "data": "0x",
          "blockHash": "0x16a64add61fc87bf4893ce6df5b40ade1c15af189f294b40fbd1a10fab534f91",
          "blockNumber": "0x260e401",
          "transactionHash": "0x28354c628b2a65734bb6cf07879c2c3921bd6aa0fc1c6941f1fbe3b8c1eb1ae4",
          "transactionIndex": "0x24",
          "logIndex": "0xd4",
          "removed": false
        },
        {
          "address": "0xD01d94073d0aB4Cc5AF318aaF8D67Ee89259f131",
          "topics": [
            "0xddf252ad1be2c89b69c2b068fc378daa952ba7f163c4a11628f55a4df523b3ef",
            "0x0000000000000000000000000000000000000000000000000000000000000000",
            "0x0000000000000000000000005b095fa9f69062ed7ed78e436075555ad4c4d555",
            "0x0000000000000000000000000000000000000000000000000000000000000001"
          ],
          "data": "0x",
          "blockHash": "0x16a64add61fc87bf4893ce6df5b40ade1c15af189f294b40fbd1a10fab534f91",
          "blockNumber": "0x260e401",
          "transactionHash": "0x28354c628b2a65734bb6cf07879c2c3921bd6aa0fc1c6941f1fbe3b8c1eb1ae4",
          "transactionIndex": "0x24",
          "logIndex": "0xd5",
          "removed": false
        },
        {
          "address": "0x0000000000000000000000000000000000001010",
          "topics": [
            "0x4dfe1bbbcf077ddc3e01291eea2d5c70c2b422b415d95645b9adcfd678cb1d63",
            "0x0000000000000000000000000000000000000000000000000000000000001010",
            "0x00000000000000000000000027870dba1e03cfdd24f5658b255c0baac970a19d",
            "0x0000000000000000000000005082f249cdb2f2c1ee035e4f423c46ea2dab3ab1"
          ],
          "data": "0x0000000000000000000000000000000000000000000000000001fe5ce9e9fc1e00000000000000000000000000000000000000000000000006dcfbd1e43f4400000000000000000000000000000000000000000000000126151a727c5f2e0bd100000000000000000000000000000000000000000000000006dafd74fa5547e2000000000000000000000000000000000000000000000126151c70d9491807ef",
          "blockHash": "0x16a64add61fc87bf4893ce6df5b40ade1c15af189f294b40fbd1a10fab534f91",
          "blockNumber": "0x260e401",
          "transactionHash": "0x28354c628b2a65734bb6cf07879c2c3921bd6aa0fc1c6941f1fbe3b8c1eb1ae4",
          "transactionIndex": "0x24",
          "logIndex": "0xd6",
          "removed": false
        }
      ],
      "status": "0x1",
      "logsBloom": "0x00000000000000000000000000000000400000000020000000000000020000000000000002000000000000000000000000009000000000000000000000040002000000000000000000000008000002800008000000060000000100000002800001000000020000000000000000000800000080000000000080000010008000000000000000000000000000000200000000000000000000000000000002000000200000000000000000000000000000000000000000000000000000000000004000000022400000000001200000000000000400000000000000180000000060000000001000002080000400000000000000000000000000000000042000100000",
      "type": "0x2",
      "effectiveGasPrice": "0x77359400"
    }
  ],
  "libraries": [],
  "pending": [],
  "returns": {},
  "timestamp": 1694202822,
  "chain": 80001,
  "multi": false,
  "commit": "88459b2"
}