{
  "transactions": [
    {
      "hash": "0xc11079d4316456d66df5cfdb76c86ee7329b5e1fbd4072a3bf89586e8aae10cb",
      "transactionType": "CALL",
      "contractName": "TronicMembership",
      "contractAddress": "0x0256fAdb74B480aE49F0930a5913466005118f26",
      "function": "mint(address):(address)",
      "arguments": [
        "0x5B095fA9f69062Ed7ed78e436075555ad4c4d555"
      ],
      "transaction": {
        "type": "0x02",
        "from": "0x27870dba1e03cfdd24f5658b255c0baac970a19d",
        "to": "0x0256fadb74b480ae49f0930a5913466005118f26",
        "gas": "0x5e9d7",
        "value": "0x0",
        "data": "0x6a6278420000000000000000000000005b095fa9f69062ed7ed78e436075555ad4c4d555",
        "nonce": "0xa",
        "accessList": []
      },
      "additionalContracts": [
        {
          "transactionType": "CREATE2",
          "address": "0xd0030707C2853261F0829e3915b3b16B94ba6429",
          "initCode": "0x3d60ad80600a3d3981f3363d3d373d3d3d363d732d25602551487c3f3354dd80d76d54383a2433585af43d82803e903d91602b57fd5bf3000000000000000000000000000000000000000000000000000000000000000000000000000000000000000000000000000000000000000000000000000138810000000000000000000000000256fadb74b480ae49f0930a5913466005118f260000000000000000000000000000000000000000000000000000000000000001"
        }
      ],
      "isFixedGasLimit": false
    },
    {
      "hash": "0x28354c628b2a65734bb6cf07879c2c3921bd6aa0fc1c6941f1fbe3b8c1eb1ae4",
      "transactionType": "CALL",
      "contractName": "TronicMembership",
      "contractAddress": "0xD01d94073d0aB4Cc5AF318aaF8D67Ee89259f131",
      "function": "mint(address):(address)",
      "arguments": [
        "0x5B095fA9f69062Ed7ed78e436075555ad4c4d555"
      ],
      "transaction": {
        "type": "0x02",
        "from": "0x27870dba1e03cfdd24f5658b255c0baac970a19d",
        "to": "0xd01d94073d0ab4cc5af318aaf8d67ee89259f131",
        "gas": "0x5e9d7",
        "value": "0x0",
        "data": "0x6a6278420000000000000000000000005b095fa9f69062ed7ed78e436075555ad4c4d555",
        "nonce": "0xb",
        "accessList": []
      },
      "additionalContracts": [
        {
          "transactionType": "CREATE2",
          "address": "0xBB2d7cf4853358590aF8E3EDB9c5b1740673BA52",
          "initCode": "0x3d60ad80600a3d3981f3363d3d373d3d3d363d732d25602551487c3f3354dd80d76d54383a2433585af43d82803e903d91602b57fd5bf300000000000000000000000000000000000000000000000000000000000000000000000000000000000000000000000000000000000000000000000000013881000000000000000000000000d01d94073d0ab4cc5af318aaf8d67ee89259f1310000000000000000000000000000000000000000000000000000000000000001"
        }
      ],
      "isFixedGasLimit": false
    }
  ],
  "receipts": [],
  "libraries": [],
  "pending": [
    "0xc11079d4316456d66df5cfdb76c86ee7329b5e1fbd4072a3bf89586e8aae10cb",
    "0x28354c628b2a65734bb6cf07879c2c3921bd6aa0fc1c6941f1fbe3b8c1eb1ae4"
  ],
  "returns": {},
  "timestamp": 1694202809,
  "chain": 80001,
  "multi": false,
  "commit": "88459b2"
}