{
  "transactions": [
    {
      "hash": "0xdfe76f23fc9134cd3003113450ab39be14a32e8a094a2b7bc4b046bbf8df9963",
      "transactionType": "CALL",
      "contractName": "TronicToken",
      "contractAddress": "0xF4dF35e96EFC1C93052C1dEd5410Ab773f91b3EE",
      "function": "createFungibleType(uint64,string):(uint256)",
      "arguments": [
        "1000000",
        "https://ipfs.io/ipfs/QmdFRfXc7gmqYv61ywsFdWkUuVktccZ1jkH8eNUBsyCBPf/1"
      ],
      "transaction": {
        "type": "0x02",
        "from": "0x27870dba1e03cfdd24f5658b255c0baac970a19d",
        "to": "0xf4df35e96efc1c93052c1ded5410ab773f91b3ee",
        "gas": "0x321a0",
        "value": "0x0",
        "data": "0x2dfb9ff000000000000000000000000000000000000000000000000000000000000f42400000000000000000000000000000000000000000000000000000000000000040000000000000000000000000000000000000000000000000000000000000004568747470733a2f2f697066732e696f2f697066732f516d64465266586337676d71597636317977734664576b5575566b7463635a316a6b4838654e55427379434250662f31000000000000000000000000000000000000000000000000000000",
        "nonce": "0x4",
        "accessList": []
      },
      "additionalContracts": [],
      "isFixedGasLimit": false
    },
    {
      "hash": "0x339e90e72d72c2605d954092c5f58d64d6c83615123f9bf799a554b0059626e7",
      "transactionType": "CALL",
      "contractName": "TronicToken",
      "contractAddress": "0xF4dF35e96EFC1C93052C1dEd5410Ab773f91b3EE",
      "function": "createFungibleType(uint64,string):(uint256)",
      "arguments": [
        "500000",
        "https://ipfs.io/ipfs/QmdFRfXc7gmqYv61ywsFdWkUuVktccZ1jkH8eNUBsyCBPf/2"
      ],
      "transaction": {
        "type": "0x02",
        "from": "0x27870dba1e03cfdd24f5658b255c0baac970a19d",
        "to": "0xf4df35e96efc1c93052c1ded5410ab773f91b3ee",
        "gas": "0x321a0",
        "value": "0x0",
        "data": "0x2dfb9ff0000000000000000000000000000000000000000000000000000000000007a1200000000000000000000000000000000000000000000000000000000000000040000000000000000000000000000000000000000000000000000000000000004568747470733a2f2f697066732e696f2f697066732f516d64465266586337676d71597636317977734664576b5575566b7463635a316a6b4838654e55427379434250662f32000000000000000000000000000000000000000000000000000000",
        "nonce": "0x5",
        "accessList": []
      },
      "additionalContracts": [],
      "isFixedGasLimit": false
    },
    {
      "hash": "0xd65e1a74c776d78669280a4088da4508490ea3e22dd534c4911d2a64a51b95c5",
      "transactionType": "CALL",
      "contractName": "TronicToken",
      "contractAddress": "0xF4dF35e96EFC1C93052C1dEd5410Ab773f91b3EE",
      "function": "createFungibleType(uint64,string):(uint256)",
      "arguments": [
        "250000",
        "https://ipfs.io/ipfs/QmdFRfXc7gmqYv61ywsFdWkUuVktccZ1jkH8eNUBsyCBPf/3"
      ],
      "transaction": {
        "type": "0x02",
        "from": "0x27870dba1e03cfdd24f5658b255c0baac970a19d",
        "to": "0xf4df35e96efc1c93052c1ded5410ab773f91b3ee",
        "gas": "0x321a0",
        "value": "0x0",
        "data": "0x2dfb9ff0000000000000000000000000000000000000000000000000000000000003d0900000000000000000000000000000000000000000000000000000000000000040000000000000000000000000000000000000000000000000000000000000004568747470733a2f2f697066732e696f2f697066732f516d64465266586337676d71597636317977734664576b5575566b7463635a316a6b4838654e55427379434250662f33000000000000000000000000000000000000000000000000000000",
        "nonce": "0x6",
        "accessList": []
      },
      "additionalContracts": [],
      "isFixedGasLimit": false
    },
    {
      "hash": "0xef9065ecf0c99ece6bcd4c4c18852f6f4cebacc70ae1c0eb91cd807d156bc969",
      "transactionType": "CALL",
      "contractName": "TronicToken",
      "contractAddress": "0x38d9f66AbD4c8Ae50FA578bfA8715B5dBc409B5C",
      "function": "createFungibleType(uint64,string):(uint256)",
      "arguments": [
        "10000000",
        "https://ipfs.io/ipfs/QmUU9wdedSCtrZFs5nPSeAggpoXeJ7WNKvtGJJLwa3czqn/1"
      ],
      "transaction": {
        "type": "0x02",
        "from": "0x27870dba1e03cfdd24f5658b255c0baac970a19d",
        "to": "0x38d9f66abd4c8ae50fa578bfa8715b5dbc409b5c",
        "gas": "0x321a0",
        "value": "0x0",
        "data": "0x2dfb9ff000000000000000000000000000000000000000000000000000000000009896800000000000000000000000000000000000000000000000000000000000000040000000000000000000000000000000000000000000000000000000000000004568747470733a2f2f697066732e696f2f697066732f516d55553977646564534374725a4673356e505365416767706f58654a37574e4b7674474a4a4c776133637a716e2f31000000000000000000000000000000000000000000000000000000",
        "nonce": "0x7",
        "accessList": []
      },
      "additionalContracts": [],
      "isFixedGasLimit": false
    },
    {
      "hash": "0x6c7e41321031103e2a4ac6edb7b708f03d05d4bb49b5271ba03a9c4c508e8ba3",
      "transactionType": "CALL",
      "contractName": "TronicToken",
      "contractAddress": "0x38d9f66AbD4c8Ae50FA578bfA8715B5dBc409B5C",
      "function": "createFungibleType(uint64,string):(uint256)",
      "arguments": [
        "5000000",
        "https://ipfs.io/ipfs/QmUU9wdedSCtrZFs5nPSeAggpoXeJ7WNKvtGJJLwa3czqn/2"
      ],
      "transaction": {
        "type": "0x02",
        "from": "0x27870dba1e03cfdd24f5658b255c0baac970a19d",
        "to": "0x38d9f66abd4c8ae50fa578bfa8715b5dbc409b5c",
        "gas": "0x321a0",
        "value": "0x0",
        "data": "0x2dfb9ff000000000000000000000000000000000000000000000000000000000004c4b400000000000000000000000000000000000000000000000000000000000000040000000000000000000000000000000000000000000000000000000000000004568747470733a2f2f697066732e696f2f697066732f516d55553977646564534374725a4673356e505365416767706f58654a37574e4b7674474a4a4c776133637a716e2f32000000000000000000000000000000000000000000000000000000",
        "nonce": "0x8",
        "accessList": []
      },
      "additionalContracts": [],
      "isFixedGasLimit": false
    },
    {
      "hash": "0x63bb89a049016599352cf23d9c3c9f83a0d63b78d60f8816c30afabe3249e2e9",
      "transactionType": "CALL",
      "contractName": "TronicToken",
      "contractAddress": "0x38d9f66AbD4c8Ae50FA578bfA8715B5dBc409B5C",
      "function": "createFungibleType(uint64,string):(uint256)",
      "arguments": [
        "2000000",
        "https://ipfs.io/ipfs/QmUU9wdedSCtrZFs5nPSeAggpoXeJ7WNKvtGJJLwa3czqn/3"
      ],
      "transaction": {
        "type": "0x02",
        "from": "0x27870dba1e03cfdd24f5658b255c0baac970a19d",
        "to": "0x38d9f66abd4c8ae50fa578bfa8715b5dbc409b5c",
        "gas": "0x321a0",
        "value": "0x0",
        "data": "0x2dfb9ff000000000000000000000000000000000000000000000000000000000001e84800000000000000000000000000000000000000000000000000000000000000040000000000000000000000000000000000000000000000000000000000000004568747470733a2f2f697066732e696f2f697066732f516d55553977646564534374725a4673356e505365416767706f58654a37574e4b7674474a4a4c776133637a716e2f33000000000000000000000000000000000000000000000000000000",
        "nonce": "0x9",
        "accessList": []
      },
      "additionalContracts": [],
      "isFixedGasLimit": false
    }
  ],
  "receipts": [],
  "libraries": [],
  "pending": [
    "0xdfe76f23fc9134cd3003113450ab39be14a32e8a094a2b7bc4b046bbf8df9963",
    "0x339e90e72d72c2605d954092c5f58d64d6c83615123f9bf799a554b0059626e7",
    "0xd65e1a74c776d78669280a4088da4508490ea3e22dd534c4911d2a64a51b95c5",
    "0xef9065ecf0c99ece6bcd4c4c18852f6f4cebacc70ae1c0eb91cd807d156bc969",
    "0x6c7e41321031103e2a4ac6edb7b708f03d05d4bb49b5271ba03a9c4c508e8ba3",
    "0x63bb89a049016599352cf23d9c3c9f83a0d63b78d60f8816c30afabe3249e2e9"
  ],
  "returns": {},
  "timestamp": 1694197067,
  "chain": 11155111,
  "multi": false,
  "commit": "f58b456"
}