{
  "transactions": [
    {
      "hash": "0x411164c65e94987a82370ce93696e256ef976e5bc87b5b1c398def450bf96e7c",
      "transactionType": "CALL",
      "contractName": "TronicToken",
      "contractAddress": "0x21E92158670054fcace580aFCd18fAC1c4c5472c",
      "function": "createFungibleType(uint64,string):(uint256)",
      "arguments": [
        "1000000",
        "https://ipfs.io/ipfs/QmdFRfXc7gmqYv61ywsFdWkUuVktccZ1jkH8eNUBsyCBPf/1"
      ],
      "transaction": {
        "type": "0x02",
        "from": "0x42c7ef198f8ac9888e2b1b73e5b71f1d4535194a",
        "to": "0x21e92158670054fcace580afcd18fac1c4c5472c",
        "gas": "0x321a0",
        "value": "0x0",
        "data": "0x2dfb9ff000000000000000000000000000000000000000000000000000000000000f42400000000000000000000000000000000000000000000000000000000000000040000000000000000000000000000000000000000000000000000000000000004568747470733a2f2f697066732e696f2f697066732f516d64465266586337676d71597636317977734664576b5575566b7463635a316a6b4838654e55427379434250662f31000000000000000000000000000000000000000000000000000000",
        "nonce": "0xa1",
        "accessList": []
      },
      "additionalContracts": [],
      "isFixedGasLimit": false
    },
    {
      "hash": "0x5aa801bb5ddf8e489748a90c1d4594a71efbd71dd20d05577c6d750d5a26bdec",
      "transactionType": "CALL",
      "contractName": "TronicToken",
      "contractAddress": "0x21E92158670054fcace580aFCd18fAC1c4c5472c",
      "function": "createFungibleType(uint64,string):(uint256)",
      "arguments": [
        "500000",
        "https://ipfs.io/ipfs/QmdFRfXc7gmqYv61ywsFdWkUuVktccZ1jkH8eNUBsyCBPf/2"
      ],
      "transaction": {
        "type": "0x02",
        "from": "0x42c7ef198f8ac9888e2b1b73e5b71f1d4535194a",
        "to": "0x21e92158670054fcace580afcd18fac1c4c5472c",
        "gas": "0x321a0",
        "value": "0x0",
        "data": "0x2dfb9ff0000000000000000000000000000000000000000000000000000000000007a1200000000000000000000000000000000000000000000000000000000000000040000000000000000000000000000000000000000000000000000000000000004568747470733a2f2f697066732e696f2f697066732f516d64465266586337676d71597636317977734664576b5575566b7463635a316a6b4838654e55427379434250662f32000000000000000000000000000000000000000000000000000000",
        "nonce": "0xa2",
        "accessList": []
      },
      "additionalContracts": [],
      "isFixedGasLimit": false
    },
    {
      "hash": "0xc24c0afe9c1b6abff40130d2cf2fb5878ff2535103173eed70ba7190bec9d0dd",
      "transactionType": "CALL",
      "contractName": "TronicToken",
      "contractAddress": "0x21E92158670054fcace580aFCd18fAC1c4c5472c",
      "function": "createFungibleType(uint64,string):(uint256)",
      "arguments": [
        "250000",
        "https://ipfs.io/ipfs/QmdFRfXc7gmqYv61ywsFdWkUuVktccZ1jkH8eNUBsyCBPf/3"
      ],
      "transaction": {
        "type": "0x02",
        "from": "0x42c7ef198f8ac9888e2b1b73e5b71f1d4535194a",
        "to": "0x21e92158670054fcace580afcd18fac1c4c5472c",
        "gas": "0x321a0",
        "value": "0x0",
        "data": "0x2dfb9ff0000000000000000000000000000000000000000000000000000000000003d0900000000000000000000000000000000000000000000000000000000000000040000000000000000000000000000000000000000000000000000000000000004568747470733a2f2f697066732e696f2f697066732f516d64465266586337676d71597636317977734664576b5575566b7463635a316a6b4838654e55427379434250662f33000000000000000000000000000000000000000000000000000000",
        "nonce": "0xa3",
        "accessList": []
      },
      "additionalContracts": [],
      "isFixedGasLimit": false
    },
    {
      "hash": "0xbad5b675519c4329eff7704289d1f66ce153fec4c86d9470595a6d8049da062e",
      "transactionType": "CALL",
      "contractName": "TronicToken",
      "contractAddress": "0x2E0FAAf0b21eedE2Cb96913309e072Fa97113e69",
      "function": "createFungibleType(uint64,string):(uint256)",
      "arguments": [
        "10000000",
        "https://ipfs.io/ipfs/QmUU9wdedSCtrZFs5nPSeAggpoXeJ7WNKvtGJJLwa3czqn/1"
      ],
      "transaction": {
        "type": "0x02",
        "from": "0x42c7ef198f8ac9888e2b1b73e5b71f1d4535194a",
        "to": "0x2e0faaf0b21eede2cb96913309e072fa97113e69",
        "gas": "0x321a0",
        "value": "0x0",
        "data": "0x2dfb9ff000000000000000000000000000000000000000000000000000000000009896800000000000000000000000000000000000000000000000000000000000000040000000000000000000000000000000000000000000000000000000000000004568747470733a2f2f697066732e696f2f697066732f516d55553977646564534374725a4673356e505365416767706f58654a37574e4b7674474a4a4c776133637a716e2f31000000000000000000000000000000000000000000000000000000",
        "nonce": "0xa4",
        "accessList": []
      },
      "additionalContracts": [],
      "isFixedGasLimit": false
    },
    {
      "hash": "0xbd90ce9aa6d49fad6b25368939684e8076ee50afc97b3990bab9fc55cf50d087",
      "transactionType": "CALL",
      "contractName": "TronicToken",
      "contractAddress": "0x2E0FAAf0b21eedE2Cb96913309e072Fa97113e69",
      "function": "createFungibleType(uint64,string):(uint256)",
      "arguments": [
        "5000000",
        "https://ipfs.io/ipfs/QmUU9wdedSCtrZFs5nPSeAggpoXeJ7WNKvtGJJLwa3czqn/2"
      ],
      "transaction": {
        "type": "0x02",
        "from": "0x42c7ef198f8ac9888e2b1b73e5b71f1d4535194a",
        "to": "0x2e0faaf0b21eede2cb96913309e072fa97113e69",
        "gas": "0x321a0",
        "value": "0x0",
        "data": "0x2dfb9ff000000000000000000000000000000000000000000000000000000000004c4b400000000000000000000000000000000000000000000000000000000000000040000000000000000000000000000000000000000000000000000000000000004568747470733a2f2f697066732e696f2f697066732f516d55553977646564534374725a4673356e505365416767706f58654a37574e4b7674474a4a4c776133637a716e2f32000000000000000000000000000000000000000000000000000000",
        "nonce": "0xa5",
        "accessList": []
      },
      "additionalContracts": [],
      "isFixedGasLimit": false
    },
    {
      "hash": "0x0cef39352b506c45cdb6e9a61fe028204751e1244dbea0fcd6f0b602d7213e27",
      "transactionType": "CALL",
      "contractName": "TronicToken",
      "contractAddress": "0x2E0FAAf0b21eedE2Cb96913309e072Fa97113e69",
      "function": "createFungibleType(uint64,string):(uint256)",
      "arguments": [
        "2000000",
        "https://ipfs.io/ipfs/QmUU9wdedSCtrZFs5nPSeAggpoXeJ7WNKvtGJJLwa3czqn/3"
      ],
      "transaction": {
        "type": "0x02",
        "from": "0x42c7ef198f8ac9888e2b1b73e5b71f1d4535194a",
        "to": "0x2e0faaf0b21eede2cb96913309e072fa97113e69",
        "gas": "0x321a0",
        "value": "0x0",
        "data": "0x2dfb9ff000000000000000000000000000000000000000000000000000000000001e84800000000000000000000000000000000000000000000000000000000000000040000000000000000000000000000000000000000000000000000000000000004568747470733a2f2f697066732e696f2f697066732f516d55553977646564534374725a4673356e505365416767706f58654a37574e4b7674474a4a4c776133637a716e2f33000000000000000000000000000000000000000000000000000000",
        "nonce": "0xa6",
        "accessList": []
      },
      "additionalContracts": [],
      "isFixedGasLimit": false
    }
  ],
  "receipts": [
    {
      "transactionHash": "0x411164c65e94987a82370ce93696e256ef976e5bc87b5b1c398def450bf96e7c",
      "transactionIndex": "0x2",
      "blockHash": "0x8a023550b74fbe6c202066562da9f74fa2fbb842fbdedbdd92c02ac07b576e46",
      "blockNumber": "0x40c4f1",
      "from": "0x42C7eF198f8aC9888E2B1b73e5B71f1D4535194A",
      "to": "0x21E92158670054fcace580aFCd18fAC1c4c5472c",
      "cumulativeGasUsed": "0x7d60e",
      "gasUsed": "0x2445e",
      "contractAddress": null,
      "logs": [
        {
          "address": "0x21E92158670054fcace580aFCd18fAC1c4c5472c",
          "topics": [
            "0xe28e4991719b1a533e2b60fb5ab59fb3c3d1cbc6af8dc954f782a0bf615d200c",
            "0x0000000000000000000000000000000000000000000000000000000000000000"
          ],
          "data": "0x00000000000000000000000000000000000000000000000000000000000f42400000000000000000000000000000000000000000000000000000000000000040000000000000000000000000000000000000000000000000000000000000004568747470733a2f2f697066732e696f2f697066732f516d64465266586337676d71597636317977734664576b5575566b7463635a316a6b4838654e55427379434250662f31000000000000000000000000000000000000000000000000000000",
          "blockHash": "0x8a023550b74fbe6c202066562da9f74fa2fbb842fbdedbdd92c02ac07b576e46",
          "blockNumber": "0x40c4f1",
          "transactionHash": "0x411164c65e94987a82370ce93696e256ef976e5bc87b5b1c398def450bf96e7c",
          "transactionIndex": "0x2",
          "logIndex": "0x3",
          "removed": false
        }
      ],
      "status": "0x1",
      "logsBloom": "0x00000000000000000000000000000000000000000000000000000000000000000000000000000000000000000000000000000000000000000000000000000000000000000000000000000000000000000000000100000000000000000000000000000000020000000010000000000800000000000000000000000000000000000000000000000000000000000000000000000000000000000002000000000000000000000000000000000000000000000000000000000000000000000000000000000000000000000000008000000000000000000100000000000000000020000000000000000000000000000000000000000000000000000000100000000000",
      "type": "0x2",
      "effectiveGasPrice": "0xb2d05e0a"
    },
    {
      "transactionHash": "0x5aa801bb5ddf8e489748a90c1d4594a71efbd71dd20d05577c6d750d5a26bdec",
      "transactionIndex": "0x3",
      "blockHash": "0x8a023550b74fbe6c202066562da9f74fa2fbb842fbdedbdd92c02ac07b576e46",
      "blockNumber": "0x40c4f1",
      "from": "0x42C7eF198f8aC9888E2B1b73e5B71f1D4535194A",
      "to": "0x21E92158670054fcace580aFCd18fAC1c4c5472c",
      "cumulativeGasUsed": "0xa1a6c",
      "gasUsed": "0x2445e",
      "contractAddress": null,
      "logs": [
        {
          "address": "0x21E92158670054fcace580aFCd18fAC1c4c5472c",
          "topics": [
            "0xe28e4991719b1a533e2b60fb5ab59fb3c3d1cbc6af8dc954f782a0bf615d200c",
            "0x0000000000000000000000000000000000000000000000000000000000000001"
          ],
          "data": "0x000000000000000000000000000000000000000000000000000000000007a1200000000000000000000000000000000000000000000000000000000000000040000000000000000000000000000000000000000000000000000000000000004568747470733a2f2f697066732e696f2f697066732f516d64465266586337676d71597636317977734664576b5575566b7463635a316a6b4838654e55427379434250662f32000000000000000000000000000000000000000000000000000000",
          "blockHash": "0x8a023550b74fbe6c202066562da9f74fa2fbb842fbdedbdd92c02ac07b576e46",
          "blockNumber": "0x40c4f1",
          "transactionHash": "0x5aa801bb5ddf8e489748a90c1d4594a71efbd71dd20d05577c6d750d5a26bdec",
          "transactionIndex": "0x3",
          "logIndex": "0x4",
          "removed": false
        }
      ],
      "status": "0x1",
      "logsBloom": "0x00000000000000000000000000000000000000000000000000000000000000000000000000000000000000000000000000000000000000000000000000040000000000000000000000000000000000000000000100040000000000000000000000000000000000000010000000000000000000000000000000000000000000000000000000000000000000000000000000000000000000000002000000000000000000000000000000000000000000000000000000000000000000000000000000000000000000000000008000000000000000000100000000000000000040000000000000000000000000000000000000000000000000000000100000000000",
      "type": "0x2",
      "effectiveGasPrice": "0xb2d05e0a"
    },
    {
      "transactionHash": "0xc24c0afe9c1b6abff40130d2cf2fb5878ff2535103173eed70ba7190bec9d0dd",
      "transactionIndex": "0x4",
      "blockHash": "0x8a023550b74fbe6c202066562da9f74fa2fbb842fbdedbdd92c02ac07b576e46",
      "blockNumber": "0x40c4f1",
      "from": "0x42C7eF198f8aC9888E2B1b73e5B71f1D4535194A",
      "to": "0x21E92158670054fcace580aFCd18fAC1c4c5472c",
      "cumulativeGasUsed": "0xc5eca",
      "gasUsed": "0x2445e",
      "contractAddress": null,
      "logs": [
        {
          "address": "0x21E92158670054fcace580aFCd18fAC1c4c5472c",
          "topics": [
            "0xe28e4991719b1a533e2b60fb5ab59fb3c3d1cbc6af8dc954f782a0bf615d200c",
            "0x0000000000000000000000000000000000000000000000000000000000000002"
          ],
          "data": "0x000000000000000000000000000000000000000000000000000000000003d0900000000000000000000000000000000000000000000000000000000000000040000000000000000000000000000000000000000000000000000000000000004568747470733a2f2f697066732e696f2f697066732f516d64465266586337676d71597636317977734664576b5575566b7463635a316a6b4838654e55427379434250662f33000000000000000000000000000000000000000000000000000000",
          "blockHash": "0x8a023550b74fbe6c202066562da9f74fa2fbb842fbdedbdd92c02ac07b576e46",
          "blockNumber": "0x40c4f1",
          "transactionHash": "0xc24c0afe9c1b6abff40130d2cf2fb5878ff2535103173eed70ba7190bec9d0dd",
          "transactionIndex": "0x4",
          "logIndex": "0x5",
          "removed": false
        }
      ],
      "status": "0x1",
      "logsBloom": "0x04000000000000000000000000000000000000000000000000000000000000000000000000000000000000000000000000000000000000000000000000000000000000000000000000000000000000000000000100000000000000000000000000000000000000000010000000000000000000000000000000000000000000000000000000000000000000000000000000000000000000000002000000000000000000000000000000000100000000000000000000000000000000000000000000000000000000000000008000000000000000000100000000000000000000000000000000000000000000000000000000000000008000000000100000000000",
      "type": "0x2",
      "effectiveGasPrice": "0xb2d05e0a"
    },
    {
      "transactionHash": "0xbad5b675519c4329eff7704289d1f66ce153fec4c86d9470595a6d8049da062e",
      "transactionIndex": "0x5",
      "blockHash": "0x8a023550b74fbe6c202066562da9f74fa2fbb842fbdedbdd92c02ac07b576e46",
      "blockNumber": "0x40c4f1",
      "from": "0x42C7eF198f8aC9888E2B1b73e5B71f1D4535194A",
      "to": "0x2E0FAAf0b21eedE2Cb96913309e072Fa97113e69",
      "cumulativeGasUsed": "0xea328",
      "gasUsed": "0x2445e",
      "contractAddress": null,
      "logs": [
        {
          "address": "0x2E0FAAf0b21eedE2Cb96913309e072Fa97113e69",
          "topics": [
            "0xe28e4991719b1a533e2b60fb5ab59fb3c3d1cbc6af8dc954f782a0bf615d200c",
            "0x0000000000000000000000000000000000000000000000000000000000000000"
          ],
          "data": "0x00000000000000000000000000000000000000000000000000000000009896800000000000000000000000000000000000000000000000000000000000000040000000000000000000000000000000000000000000000000000000000000004568747470733a2f2f697066732e696f2f697066732f516d55553977646564534374725a4673356e505365416767706f58654a37574e4b7674474a4a4c776133637a716e2f31000000000000000000000000000000000000000000000000000000",
          "blockHash": "0x8a023550b74fbe6c202066562da9f74fa2fbb842fbdedbdd92c02ac07b576e46",
          "blockNumber": "0x40c4f1",
          "transactionHash": "0xbad5b675519c4329eff7704289d1f66ce153fec4c86d9470595a6d8049da062e",
          "transactionIndex": "0x5",
          "logIndex": "0x6",
          "removed": false
        }
      ],
      "status": "0x1",
      "logsBloom": "0x00000000000000000001000000000000000000000000000000000000000000000000000000000100000000000000000000000000000000000000000000000000000000000000000000000000000000000000000100000000000000000000000000000000020000000000000000000800000000000000000000000000000000000000000000000000000000000000000000000000000000000002000000000000000000000008000000000000000000000000000000000000000000000000000000000000000000000000000000000000000000000100000000000000000020000000000000000000000000000000000000000000000000000000000000000000",
      "type": "0x2",
      "effectiveGasPrice": "0xb2d05e0a"
    },
    {
      "transactionHash": "0xbd90ce9aa6d49fad6b25368939684e8076ee50afc97b3990bab9fc55cf50d087",
      "transactionIndex": "0x6",
      "blockHash": "0x8a023550b74fbe6c202066562da9f74fa2fbb842fbdedbdd92c02ac07b576e46",
      "blockNumber": "0x40c4f1",
      "from": "0x42C7eF198f8aC9888E2B1b73e5B71f1D4535194A",
      "to": "0x2E0FAAf0b21eedE2Cb96913309e072Fa97113e69",
      "cumulativeGasUsed": "0x10e786",
      "gasUsed": "0x2445e",
      "contractAddress": null,
      "logs": [
        {
          "address": "0x2E0FAAf0b21eedE2Cb96913309e072Fa97113e69",
          "topics": [
            "0xe28e4991719b1a533e2b60fb5ab59fb3c3d1cbc6af8dc954f782a0bf615d200c",
            "0x0000000000000000000000000000000000000000000000000000000000000001"
          ],
          "data": "0x00000000000000000000000000000000000000000000000000000000004c4b400000000000000000000000000000000000000000000000000000000000000040000000000000000000000000000000000000000000000000000000000000004568747470733a2f2f697066732e696f2f697066732f516d55553977646564534374725a4673356e505365416767706f58654a37574e4b7674474a4a4c776133637a716e2f32000000000000000000000000000000000000000000000000000000",
          "blockHash": "0x8a023550b74fbe6c202066562da9f74fa2fbb842fbdedbdd92c02ac07b576e46",
          "blockNumber": "0x40c4f1",
          "transactionHash": "0xbd90ce9aa6d49fad6b25368939684e8076ee50afc97b3990bab9fc55cf50d087",
          "transactionIndex": "0x6",
          "logIndex": "0x7",
          "removed": false
        }
      ],
      "status": "0x1",
      "logsBloom": "0x00000000000000000001000000000000000000000000000000000000000000000000000000000100000000000000000000000000000000000000000000040000000000000000000000000000000000000000000100040000000000000000000000000000000000000000000000000000000000000000000000000000000000000000000000000000000000000000000000000000000000000002000000000000000000000008000000000000000000000000000000000000000000000000000000000000000000000000000000000000000000000100000000000000000040000000000000000000000000000000000000000000000000000000000000000000",
      "type": "0x2",
      "effectiveGasPrice": "0xb2d05e0a"
    },
    {
      "transactionHash": "0x0cef39352b506c45cdb6e9a61fe028204751e1244dbea0fcd6f0b602d7213e27",
      "transactionIndex": "0x7",
      "blockHash": "0x8a023550b74fbe6c202066562da9f74fa2fbb842fbdedbdd92c02ac07b576e46",
      "blockNumber": "0x40c4f1",
      "from": "0x42C7eF198f8aC9888E2B1b73e5B71f1D4535194A",
      "to": "0x2E0FAAf0b21eedE2Cb96913309e072Fa97113e69",
      "cumulativeGasUsed": "0x132be4",
      "gasUsed": "0x2445e",
      "contractAddress": null,
      "logs": [
        {
          "address": "0x2E0FAAf0b21eedE2Cb96913309e072Fa97113e69",
          "topics": [
            "0xe28e4991719b1a533e2b60fb5ab59fb3c3d1cbc6af8dc954f782a0bf615d200c",
            "0x0000000000000000000000000000000000000000000000000000000000000002"
          ],
          "data": "0x00000000000000000000000000000000000000000000000000000000001e84800000000000000000000000000000000000000000000000000000000000000040000000000000000000000000000000000000000000000000000000000000004568747470733a2f2f697066732e696f2f697066732f516d55553977646564534374725a4673356e505365416767706f58654a37574e4b7674474a4a4c776133637a716e2f33000000000000000000000000000000000000000000000000000000",
          "blockHash": "0x8a023550b74fbe6c202066562da9f74fa2fbb842fbdedbdd92c02ac07b576e46",
          "blockNumber": "0x40c4f1",
          "transactionHash": "0x0cef39352b506c45cdb6e9a61fe028204751e1244dbea0fcd6f0b602d7213e27",
          "transactionIndex": "0x7",
          "logIndex": "0x8",
          "removed": false
        }
      ],
      "status": "0x1",
      "logsBloom": "0x04000000000000000001000000000000000000000000000000000000000000000000000000000100000000000000000000000000000000000000000000000000000000000000000000000000000000000000000100000000000000000000000000000000000000000000000000000000000000000000000000000000000000000000000000000000000000000000000000000000000000000002000000000000000000000008000000000100000000000000000000000000000000000000000000000000000000000000000000000000000000000100000000000000000000000000000000000000000000000000000000000000008000000000000000000000",
      "type": "0x2",
      "effectiveGasPrice": "0xb2d05e0a"
    }
  ],
  "libraries": [],
  "pending": [],
  "returns": {},
  "timestamp": 1694135534,
  "chain": 11155111,
  "multi": false,
  "commit": "78fda7f"
}