{
  "transactions": [
    {
      "hash": "0x2ffea844116c35f06788f9d161d78ce72fd3cb4d5803d12554e0ea8d177e20a1",
      "transactionType": "CALL",
      "contractName": "CloneFactory",
      "contractAddress": "0xd3065Ed995ea1ad63f36caD3fB2539313E37EB3D",
      "function": "cloneERC721(string,string,string,address):(address)",
      "arguments": [
        "Project X",
        "PRJX",
        "https://ipfs.io/ipfs/QmeYWTXaeTRAhurR55nbW5ma4mJdE3hAxFBYxeZC2wnwVK/",
        "0x42C7eF198f8aC9888E2B1b73e5B71f1D4535194A"
      ],
      "transaction": {
        "type": "0x02",
        "from": "0x42c7ef198f8ac9888e2b1b73e5b71f1d4535194a",
        "to": "0xd3065ed995ea1ad63f36cad3fb2539313e37eb3d",
        "gas": "0x7e21f",
        "value": "0x0",
        "data": "0x2174a6a5000000000000000000000000000000000000000000000000000000000000008000000000000000000000000000000000000000000000000000000000000000c0000000000000000000000000000000000000000000000000000000000000010000000000000000000000000042c7ef198f8ac9888e2b1b73e5b71f1d4535194a000000000000000000000000000000000000000000000000000000000000000950726f6a65637420580000000000000000000000000000000000000000000000000000000000000000000000000000000000000000000000000000000000000450524a5800000000000000000000000000000000000000000000000000000000000000000000000000000000000000000000000000000000000000000000004468747470733a2f2f697066732e696f2f697066732f516d655957545861655452416875725235356e6257356d61346d4a64453368417846425978655a4332776e77564b2f00000000000000000000000000000000000000000000000000000000",
        "nonce": "0x2d",
        "accessList": []
      },
      "additionalContracts": [
        {
          "transactionType": "CREATE",
          "address": "0xeCcFD42a53045D704a7B97E74ab477bd748BA156",
          "initCode": "3d602d80600a3d3981f3363d3d373d3d3d363d73fe7c64f016a6bd0d83e39d3382541b3d4058ad155af43d82803e903d91602b57fd5bf3"
        }
      ],
      "isFixedGasLimit": false
    },
    {
      "hash": "0x7381024c800ae2a514539a61622bc54a3d09475157e0eb9c250f9fea9dc6d676",
      "transactionType": "CALL",
      "contractName": "CloneFactory",
      "contractAddress": "0xd3065Ed995ea1ad63f36caD3fB2539313E37EB3D",
      "function": "cloneERC721(string,string,string,address):(address)",
      "arguments": [
        "Project Y",
        "PRJY",
        "https://ipfs.io/ipfs/QmVDAzpqk83MEhZQp7xK3yeVrrcfg5gPa7uS5JZH9cQtf2/",
        "0x42C7eF198f8aC9888E2B1b73e5B71f1D4535194A"
      ],
      "transaction": {
        "type": "0x02",
        "from": "0x42c7ef198f8ac9888e2b1b73e5b71f1d4535194a",
        "to": "0xd3065ed995ea1ad63f36cad3fb2539313e37eb3d",
        "gas": "0x715bd",
        "value": "0x0",
        "data": "0x2174a6a5000000000000000000000000000000000000000000000000000000000000008000000000000000000000000000000000000000000000000000000000000000c0000000000000000000000000000000000000000000000000000000000000010000000000000000000000000042c7ef198f8ac9888e2b1b73e5b71f1d4535194a000000000000000000000000000000000000000000000000000000000000000950726f6a65637420590000000000000000000000000000000000000000000000000000000000000000000000000000000000000000000000000000000000000450524a5900000000000000000000000000000000000000000000000000000000000000000000000000000000000000000000000000000000000000000000004468747470733a2f2f697066732e696f2f697066732f516d5644417a70716b38334d45685a517037784b33796556727263666735675061377553354a5a483963517466322f00000000000000000000000000000000000000000000000000000000",
        "nonce": "0x2e",
        "accessList": []
      },
      "additionalContracts": [
        {
          "transactionType": "CREATE",
          "address": "0x0518b4D2EB57E51F71dc0e892a729d31413c6d6A",
          "initCode": "3d602d80600a3d3981f3363d3d373d3d3d363d73fe7c64f016a6bd0d83e39d3382541b3d4058ad155af43d82803e903d91602b57fd5bf3"
        }
      ],
      "isFixedGasLimit": false
    },
    {
      "hash": "0x5324238c8f520668477175192c1bab513476457f0a3003a3ebf5a3e95c5bf6aa",
      "transactionType": "CALL",
      "contractName": "CloneFactory",
      "contractAddress": "0xd3065Ed995ea1ad63f36caD3fB2539313E37EB3D",
      "function": "cloneERC1155(string,address,string,string):(address)",
      "arguments": [
        "https://ipfs.io/ipfs/QmdFRfXc7gmqYv61ywsFdWkUuVktccZ1jkH8eNUBsyCBPf/",
        "0x42C7eF198f8aC9888E2B1b73e5B71f1D4535194A",
        "Project X Clone ERC1155",
        "PX1155"
      ],
      "transaction": {
        "type": "0x02",
        "from": "0x42c7ef198f8ac9888e2b1b73e5b71f1d4535194a",
        "to": "0xd3065ed995ea1ad63f36cad3fb2539313e37eb3d",
        "gas": "0x66c5c",
        "value": "0x0",
        "data": "0xc2ff6fd2000000000000000000000000000000000000000000000000000000000000008000000000000000000000000042c7ef198f8ac9888e2b1b73e5b71f1d4535194a00000000000000000000000000000000000000000000000000000000000001000000000000000000000000000000000000000000000000000000000000000140000000000000000000000000000000000000000000000000000000000000004468747470733a2f2f697066732e696f2f697066732f516d64465266586337676d71597636317977734664576b5575566b7463635a316a6b4838654e55427379434250662f00000000000000000000000000000000000000000000000000000000000000000000000000000000000000000000000000000000000000000000001750726f6a656374205820436c6f6e65204552433131353500000000000000000000000000000000000000000000000000000000000000000000000000000000065058313135350000000000000000000000000000000000000000000000000000",
        "nonce": "0x2f",
        "accessList": []
      },
      "additionalContracts": [
        {
          "transactionType": "CREATE",
          "address": "0x81a71A6DC43395eae7e94df05bD6b54555EAc9c8",
          "initCode": "3d602d80600a3d3981f3363d3d373d3d3d363d73fa2b9fcf23ab80bdde6f567580f17e00eb22d5c15af43d82803e903d91602b57fd5bf3"
        }
      ],
      "isFixedGasLimit": false
    },
    {
      "hash": "0x2598a943c29a87f61188d36e4d75a993b215c3612d1786f7599c9707f8abc42c",
      "transactionType": "CALL",
      "contractName": "CloneFactory",
      "contractAddress": "0xd3065Ed995ea1ad63f36caD3fB2539313E37EB3D",
      "function": "cloneERC1155(string,address,string,string):(address)",
      "arguments": [
        "https://ipfs.io/ipfs/QmUU9wdedSCtrZFs5nPSeAggpoXeJ7WNKvtGJJLwa3czqn/",
        "0x42C7eF198f8aC9888E2B1b73e5B71f1D4535194A",
        "Project Y Clone ERC1155",
        "PY1155"
      ],
      "transaction": {
        "type": "0x02",
        "from": "0x42c7ef198f8ac9888e2b1b73e5b71f1d4535194a",
        "to": "0xd3065ed995ea1ad63f36cad3fb2539313e37eb3d",
        "gas": "0x66b67",
        "value": "0x0",
        "data": "0xc2ff6fd2000000000000000000000000000000000000000000000000000000000000008000000000000000000000000042c7ef198f8ac9888e2b1b73e5b71f1d4535194a00000000000000000000000000000000000000000000000000000000000001000000000000000000000000000000000000000000000000000000000000000140000000000000000000000000000000000000000000000000000000000000004468747470733a2f2f697066732e696f2f697066732f516d55553977646564534374725a4673356e505365416767706f58654a37574e4b7674474a4a4c776133637a716e2f00000000000000000000000000000000000000000000000000000000000000000000000000000000000000000000000000000000000000000000001750726f6a656374205920436c6f6e65204552433131353500000000000000000000000000000000000000000000000000000000000000000000000000000000065059313135350000000000000000000000000000000000000000000000000000",
        "nonce": "0x30",
        "accessList": []
      },
      "additionalContracts": [
        {
          "transactionType": "CREATE",
          "address": "0x1b925f96973ecC0bc387E7e64BFCFFE59Bd17E0A",
          "initCode": "3d602d80600a3d3981f3363d3d373d3d3d363d73fa2b9fcf23ab80bdde6f567580f17e00eb22d5c15af43d82803e903d91602b57fd5bf3"
        }
      ],
      "isFixedGasLimit": false
    },
    {
      "hash": "0x0e5b0d0a11125d97846e2ba8eb9f3f7fad85d0b7fdaaa01b926424aca6d1db9d",
      "transactionType": "CALL",
      "contractName": null,
      "contractAddress": "0x81a71A6DC43395eae7e94df05bD6b54555EAc9c8",
      "function": "createFungibleType(uint256,string)",
      "arguments": [
        "1",
        "https://ipfs.io/ipfs/QmdFRfXc7gmqYv61ywsFdWkUuVktccZ1jkH8eNUBsyCBPf/1"
      ],
      "transaction": {
        "type": "0x02",
        "from": "0x42c7ef198f8ac9888e2b1b73e5b71f1d4535194a",
        "to": "0x81a71a6dc43395eae7e94df05bd6b54555eac9c8",
        "gas": "0x2a063",
        "value": "0x0",
        "data": "0x21f9577700000000000000000000000000000000000000000000000000000000000000010000000000000000000000000000000000000000000000000000000000000040000000000000000000000000000000000000000000000000000000000000004568747470733a2f2f697066732e696f2f697066732f516d64465266586337676d71597636317977734664576b5575566b7463635a316a6b4838654e55427379434250662f31000000000000000000000000000000000000000000000000000000",
        "nonce": "0x31",
        "accessList": []
      },
      "additionalContracts": [],
      "isFixedGasLimit": false
    },
    {
      "hash": "0x32ccf9e2419c2a40edd11a95eb3825a720f289ae1fa40fe62e36a94392c184a2",
      "transactionType": "CALL",
      "contractName": null,
      "contractAddress": "0x81a71A6DC43395eae7e94df05bD6b54555EAc9c8",
      "function": "createFungibleType(uint256,string)",
      "arguments": [
        "2",
        "https://ipfs.io/ipfs/QmdFRfXc7gmqYv61ywsFdWkUuVktccZ1jkH8eNUBsyCBPf/2"
      ],
      "transaction": {
        "type": "0x02",
        "from": "0x42c7ef198f8ac9888e2b1b73e5b71f1d4535194a",
        "to": "0x81a71a6dc43395eae7e94df05bd6b54555eac9c8",
        "gas": "0x2a063",
        "value": "0x0",
        "data": "0x21f9577700000000000000000000000000000000000000000000000000000000000000020000000000000000000000000000000000000000000000000000000000000040000000000000000000000000000000000000000000000000000000000000004568747470733a2f2f697066732e696f2f697066732f516d64465266586337676d71597636317977734664576b5575566b7463635a316a6b4838654e55427379434250662f32000000000000000000000000000000000000000000000000000000",
        "nonce": "0x32",
        "accessList": []
      },
      "additionalContracts": [],
      "isFixedGasLimit": false
    },
    {
      "hash": "0xa85ebace37ddf60f8631814dcfd55b69a101de1eed5fb625a79a89dbcf68adff",
      "transactionType": "CALL",
      "contractName": null,
      "contractAddress": "0x81a71A6DC43395eae7e94df05bD6b54555EAc9c8",
      "function": "createFungibleType(uint256,string)",
      "arguments": [
        "3",
        "https://ipfs.io/ipfs/QmdFRfXc7gmqYv61ywsFdWkUuVktccZ1jkH8eNUBsyCBPf/3"
      ],
      "transaction": {
        "type": "0x02",
        "from": "0x42c7ef198f8ac9888e2b1b73e5b71f1d4535194a",
        "to": "0x81a71a6dc43395eae7e94df05bd6b54555eac9c8",
        "gas": "0x2a063",
        "value": "0x0",
        "data": "0x21f9577700000000000000000000000000000000000000000000000000000000000000030000000000000000000000000000000000000000000000000000000000000040000000000000000000000000000000000000000000000000000000000000004568747470733a2f2f697066732e696f2f697066732f516d64465266586337676d71597636317977734664576b5575566b7463635a316a6b4838654e55427379434250662f33000000000000000000000000000000000000000000000000000000",
        "nonce": "0x33",
        "accessList": []
      },
      "additionalContracts": [],
      "isFixedGasLimit": false
    },
    {
      "hash": "0xc41c4799e0d5adc6c2df68c7fc561c88f6f8af372210827e8b6f244521cee10e",
      "transactionType": "CALL",
      "contractName": null,
      "contractAddress": "0x1b925f96973ecC0bc387E7e64BFCFFE59Bd17E0A",
      "function": "createFungibleType(uint256,string)",
      "arguments": [
        "1",
        "https://ipfs.io/ipfs/QmUU9wdedSCtrZFs5nPSeAggpoXeJ7WNKvtGJJLwa3czqn/1"
      ],
      "transaction": {
        "type": "0x02",
        "from": "0x42c7ef198f8ac9888e2b1b73e5b71f1d4535194a",
        "to": "0x1b925f96973ecc0bc387e7e64bfcffe59bd17e0a",
        "gas": "0x2a063",
        "value": "0x0",
        "data": "0x21f9577700000000000000000000000000000000000000000000000000000000000000010000000000000000000000000000000000000000000000000000000000000040000000000000000000000000000000000000000000000000000000000000004568747470733a2f2f697066732e696f2f697066732f516d55553977646564534374725a4673356e505365416767706f58654a37574e4b7674474a4a4c776133637a716e2f31000000000000000000000000000000000000000000000000000000",
        "nonce": "0x34",
        "accessList": []
      },
      "additionalContracts": [],
      "isFixedGasLimit": false
    },
    {
      "hash": "0x468cc120a46795eccc3ec42b5c67425362b56088d5e1663ea42512e0e9195f6a",
      "transactionType": "CALL",
      "contractName": null,
      "contractAddress": "0x1b925f96973ecC0bc387E7e64BFCFFE59Bd17E0A",
      "function": "createFungibleType(uint256,string)",
      "arguments": [
        "2",
        "https://ipfs.io/ipfs/QmUU9wdedSCtrZFs5nPSeAggpoXeJ7WNKvtGJJLwa3czqn/2"
      ],
      "transaction": {
        "type": "0x02",
        "from": "0x42c7ef198f8ac9888e2b1b73e5b71f1d4535194a",
        "to": "0x1b925f96973ecc0bc387e7e64bfcffe59bd17e0a",
        "gas": "0x2a063",
        "value": "0x0",
        "data": "0x21f9577700000000000000000000000000000000000000000000000000000000000000020000000000000000000000000000000000000000000000000000000000000040000000000000000000000000000000000000000000000000000000000000004568747470733a2f2f697066732e696f2f697066732f516d55553977646564534374725a4673356e505365416767706f58654a37574e4b7674474a4a4c776133637a716e2f32000000000000000000000000000000000000000000000000000000",
        "nonce": "0x35",
        "accessList": []
      },
      "additionalContracts": [],
      "isFixedGasLimit": false
    },
    {
      "hash": "0x1ffb1f2103df9643287209ac3625afe4fdcbafb779f9e74287fe44842c4b86a9",
      "transactionType": "CALL",
      "contractName": null,
      "contractAddress": "0x1b925f96973ecC0bc387E7e64BFCFFE59Bd17E0A",
      "function": "createFungibleType(uint256,string)",
      "arguments": [
        "3",
        "https://ipfs.io/ipfs/QmUU9wdedSCtrZFs5nPSeAggpoXeJ7WNKvtGJJLwa3czqn/3"
      ],
      "transaction": {
        "type": "0x02",
        "from": "0x42c7ef198f8ac9888e2b1b73e5b71f1d4535194a",
        "to": "0x1b925f96973ecc0bc387e7e64bfcffe59bd17e0a",
        "gas": "0x2a063",
        "value": "0x0",
        "data": "0x21f9577700000000000000000000000000000000000000000000000000000000000000030000000000000000000000000000000000000000000000000000000000000040000000000000000000000000000000000000000000000000000000000000004568747470733a2f2f697066732e696f2f697066732f516d55553977646564534374725a4673356e505365416767706f58654a37574e4b7674474a4a4c776133637a716e2f33000000000000000000000000000000000000000000000000000000",
        "nonce": "0x36",
        "accessList": []
      },
      "additionalContracts": [],
      "isFixedGasLimit": false
    }
  ],
  "receipts": [
    {
      "transactionHash": "0x2ffea844116c35f06788f9d161d78ce72fd3cb4d5803d12554e0ea8d177e20a1",
      "transactionIndex": "0x1",
      "blockHash": "0xf40100456b128f19bfbb8f99dda0ef4fc6189045429c023b4458e4add719e549",
      "blockNumber": "0x3dcb38",
      "from": "0x42C7eF198f8aC9888E2B1b73e5B71f1D4535194A",
      "to": "0xd3065Ed995ea1ad63f36caD3fB2539313E37EB3D",
      "cumulativeGasUsed": "0x68c82",
      "gasUsed": "0x563ee",
      "contractAddress": null,
      "logs": [
        {
          "address": "0xeCcFD42a53045D704a7B97E74ab477bd748BA156",
          "topics": [
            "0x7f26b83ff96e1f2b6a682f133852f6798a09c465da95921460cefb3847402498"
          ],
          "data": "0x0000000000000000000000000000000000000000000000000000000000000001",
          "blockHash": "0xf40100456b128f19bfbb8f99dda0ef4fc6189045429c023b4458e4add719e549",
          "blockNumber": "0x3dcb38",
          "transactionHash": "0x2ffea844116c35f06788f9d161d78ce72fd3cb4d5803d12554e0ea8d177e20a1",
          "transactionIndex": "0x1",
          "logIndex": "0x1",
          "removed": false
        },
        {
          "address": "0xd3065Ed995ea1ad63f36caD3fB2539313E37EB3D",
          "topics": [
            "0x3de89afa7ff3be26a41aef997a053b6c635a410036dbe09cbc2394014f034e3a"
          ],
          "data": "0x000000000000000000000000eccfd42a53045d704a7b97e74ab477bd748ba1560000000000000000000000000000000000000000000000000000000000000040000000000000000000000000000000000000000000000000000000000000004468747470733a2f2f697066732e696f2f697066732f516d655957545861655452416875725235356e6257356d61346d4a64453368417846425978655a4332776e77564b2f00000000000000000000000000000000000000000000000000000000",
          "blockHash": "0xf40100456b128f19bfbb8f99dda0ef4fc6189045429c023b4458e4add719e549",
          "blockNumber": "0x3dcb38",
          "transactionHash": "0x2ffea844116c35f06788f9d161d78ce72fd3cb4d5803d12554e0ea8d177e20a1",
          "transactionIndex": "0x1",
          "logIndex": "0x2",
          "removed": false
        }
      ],
      "status": "0x1",
      "logsBloom": "0x00000000000000000000000000000000000000000000000000000000000000000000000000000000000000000000000000000000000000000000000000000000000020000000000000000000080000000000000000000000000000000000000000000000000000000000000000000000200000000000000000000000000000000000000000000000000000000000000000000000000080000004000000000000000000000000000000000000000400000000000000000000000000000000000000000000000000000000000000040000000000000000000400000000000000000000000001000000000000000000000000000000000000020000080000000040",
      "type": "0x2",
      "effectiveGasPrice": "0xbf0312b9"
    },
    {
      "transactionHash": "0x7381024c800ae2a514539a61622bc54a3d09475157e0eb9c250f9fea9dc6d676",
      "transactionIndex": "0x2",
      "blockHash": "0xf40100456b128f19bfbb8f99dda0ef4fc6189045429c023b4458e4add719e549",
      "blockNumber": "0x3dcb38",
      "from": "0x42C7eF198f8aC9888E2B1b73e5B71f1D4535194A",
      "to": "0xd3065Ed995ea1ad63f36caD3fB2539313E37EB3D",
      "cumulativeGasUsed": "0xbada4",
      "gasUsed": "0x52122",
      "contractAddress": null,
      "logs": [
        {
          "address": "0x0518b4D2EB57E51F71dc0e892a729d31413c6d6A",
          "topics": [
            "0x7f26b83ff96e1f2b6a682f133852f6798a09c465da95921460cefb3847402498"
          ],
          "data": "0x0000000000000000000000000000000000000000000000000000000000000001",
          "blockHash": "0xf40100456b128f19bfbb8f99dda0ef4fc6189045429c023b4458e4add719e549",
          "blockNumber": "0x3dcb38",
          "transactionHash": "0x7381024c800ae2a514539a61622bc54a3d09475157e0eb9c250f9fea9dc6d676",
          "transactionIndex": "0x2",
          "logIndex": "0x3",
          "removed": false
        },
        {
          "address": "0xd3065Ed995ea1ad63f36caD3fB2539313E37EB3D",
          "topics": [
            "0x3de89afa7ff3be26a41aef997a053b6c635a410036dbe09cbc2394014f034e3a"
          ],
          "data": "0x0000000000000000000000000518b4d2eb57e51f71dc0e892a729d31413c6d6a0000000000000000000000000000000000000000000000000000000000000040000000000000000000000000000000000000000000000000000000000000004468747470733a2f2f697066732e696f2f697066732f516d5644417a70716b38334d45685a517037784b33796556727263666735675061377553354a5a483963517466322f00000000000000000000000000000000000000000000000000000000",
          "blockHash": "0xf40100456b128f19bfbb8f99dda0ef4fc6189045429c023b4458e4add719e549",
          "blockNumber": "0x3dcb38",
          "transactionHash": "0x7381024c800ae2a514539a61622bc54a3d09475157e0eb9c250f9fea9dc6d676",
          "transactionIndex": "0x2",
          "logIndex": "0x4",
          "removed": false
        }
      ],
      "status": "0x1",
      "logsBloom": "0x00400000000000000000000000000000000000000000000000000000000000000000000000000000000000000000000000000000000000000000000000000000000020000000000000000000000000000000000000000000000000000000000000000000000000000000000000000000000000000000000000000000000000000000000000000000000000000000000000000000000080000004000000000000000000000000000000000000000400000000000100000000000000000000000000000800000000000000000000040000000000000000000400000000000000000000000000000000000000000000000000000000000000020000080000000040",
      "type": "0x2",
      "effectiveGasPrice": "0xbf0312b9"
    },
    {
      "transactionHash": "0x5324238c8f520668477175192c1bab513476457f0a3003a3ebf5a3e95c5bf6aa",
      "transactionIndex": "0x3",
      "blockHash": "0xf40100456b128f19bfbb8f99dda0ef4fc6189045429c023b4458e4add719e549",
      "blockNumber": "0x3dcb38",
      "from": "0x42C7eF198f8aC9888E2B1b73e5B71f1D4535194A",
      "to": "0xd3065Ed995ea1ad63f36caD3fB2539313E37EB3D",
      "cumulativeGasUsed": "0x105426",
      "gasUsed": "0x4a682",
      "contractAddress": null,
      "logs": [
        {
          "address": "0x81a71A6DC43395eae7e94df05bD6b54555EAc9c8",
          "topics": [
            "0x7f26b83ff96e1f2b6a682f133852f6798a09c465da95921460cefb3847402498"
          ],
          "data": "0x0000000000000000000000000000000000000000000000000000000000000001",
          "blockHash": "0xf40100456b128f19bfbb8f99dda0ef4fc6189045429c023b4458e4add719e549",
          "blockNumber": "0x3dcb38",
          "transactionHash": "0x5324238c8f520668477175192c1bab513476457f0a3003a3ebf5a3e95c5bf6aa",
          "transactionIndex": "0x3",
          "logIndex": "0x5",
          "removed": false
        },
        {
          "address": "0xd3065Ed995ea1ad63f36caD3fB2539313E37EB3D",
          "topics": [
            "0x3de89afa7ff3be26a41aef997a053b6c635a410036dbe09cbc2394014f034e3a"
          ],
          "data": "0x00000000000000000000000081a71a6dc43395eae7e94df05bd6b54555eac9c80000000000000000000000000000000000000000000000000000000000000040000000000000000000000000000000000000000000000000000000000000004468747470733a2f2f697066732e696f2f697066732f516d64465266586337676d71597636317977734664576b5575566b7463635a316a6b4838654e55427379434250662f00000000000000000000000000000000000000000000000000000000",
          "blockHash": "0xf40100456b128f19bfbb8f99dda0ef4fc6189045429c023b4458e4add719e549",
          "blockNumber": "0x3dcb38",
          "transactionHash": "0x5324238c8f520668477175192c1bab513476457f0a3003a3ebf5a3e95c5bf6aa",
          "transactionIndex": "0x3",
          "logIndex": "0x6",
          "removed": false
        }
      ],
      "status": "0x1",
      "logsBloom": "0x00000000000000000000000000000000000000000000000000000000000000000000000000000000000000000000000000000000000000000000000000000000000020000000000000000000000000000000000000000000000000000400000000000000000000000000000000000000000000000000000000000000000000000000000000000000001000000000000000000000000080000004000000000000000000000000000000000000002400000000000000000000000000000000000000000000000000000000000000040000000000000000000400000000000000000000000000000000000000000000000000000000000000020000080000000040",
      "type": "0x2",
      "effectiveGasPrice": "0xbf0312b9"
    },
    {
      "transactionHash": "0x2598a943c29a87f61188d36e4d75a993b215c3612d1786f7599c9707f8abc42c",
      "transactionIndex": "0x4",
      "blockHash": "0xf40100456b128f19bfbb8f99dda0ef4fc6189045429c023b4458e4add719e549",
      "blockNumber": "0x3dcb38",
      "from": "0x42C7eF198f8aC9888E2B1b73e5B71f1D4535194A",
      "to": "0xd3065Ed995ea1ad63f36caD3fB2539313E37EB3D",
      "cumulativeGasUsed": "0x14b7dc",
      "gasUsed": "0x463b6",
      "contractAddress": null,
      "logs": [
        {
          "address": "0x1b925f96973ecC0bc387E7e64BFCFFE59Bd17E0A",
          "topics": [
            "0x7f26b83ff96e1f2b6a682f133852f6798a09c465da95921460cefb3847402498"
          ],
          "data": "0x0000000000000000000000000000000000000000000000000000000000000001",
          "blockHash": "0xf40100456b128f19bfbb8f99dda0ef4fc6189045429c023b4458e4add719e549",
          "blockNumber": "0x3dcb38",
          "transactionHash": "0x2598a943c29a87f61188d36e4d75a993b215c3612d1786f7599c9707f8abc42c",
          "transactionIndex": "0x4",
          "logIndex": "0x7",
          "removed": false
        },
        {
          "address": "0xd3065Ed995ea1ad63f36caD3fB2539313E37EB3D",
          "topics": [
            "0x3de89afa7ff3be26a41aef997a053b6c635a410036dbe09cbc2394014f034e3a"
          ],
          "data": "0x0000000000000000000000001b925f96973ecc0bc387e7e64bfcffe59bd17e0a0000000000000000000000000000000000000000000000000000000000000040000000000000000000000000000000000000000000000000000000000000004468747470733a2f2f697066732e696f2f697066732f516d55553977646564534374725a4673356e505365416767706f58654a37574e4b7674474a4a4c776133637a716e2f00000000000000000000000000000000000000000000000000000000",
          "blockHash": "0xf40100456b128f19bfbb8f99dda0ef4fc6189045429c023b4458e4add719e549",
          "blockNumber": "0x3dcb38",
          "transactionHash": "0x2598a943c29a87f61188d36e4d75a993b215c3612d1786f7599c9707f8abc42c",
          "transactionIndex": "0x4",
          "logIndex": "0x8",
          "removed": false
        }
      ],
      "status": "0x1",
      "logsBloom": "0x00000000000000000000000000000000000000000000000000000000000000000000000000000000000000000000000000000040000000000000000000000000000020000000000000000000000000000000000000000000000000000002000000000000000000000000000000000000000000000000000000000000000000000000000000000000000000000000000000000000000080000004000000000000000000000000000000000000000400000000000000000000000000000000000000000000000000000000000000040000000000000000000500000000000000000000000000000000000000000000000000000000000000020000080000000040",
      "type": "0x2",
      "effectiveGasPrice": "0xbf0312b9"
    },
    {
      "transactionHash": "0x0e5b0d0a11125d97846e2ba8eb9f3f7fad85d0b7fdaaa01b926424aca6d1db9d",
      "transactionIndex": "0x5",
      "blockHash": "0xf40100456b128f19bfbb8f99dda0ef4fc6189045429c023b4458e4add719e549",
      "blockNumber": "0x3dcb38",
      "from": "0x42C7eF198f8aC9888E2B1b73e5B71f1D4535194A",
      "to": "0x81a71A6DC43395eae7e94df05bD6b54555EAc9c8",
      "cumulativeGasUsed": "0x16839d",
      "gasUsed": "0x1cbc1",
      "contractAddress": null,
      "logs": [],
      "status": "0x1",
      "logsBloom": "0x00000000000000000000000000000000000000000000000000000000000000000000000000000000000000000000000000000000000000000000000000000000000000000000000000000000000000000000000000000000000000000000000000000000000000000000000000000000000000000000000000000000000000000000000000000000000000000000000000000000000000000000000000000000000000000000000000000000000000000000000000000000000000000000000000000000000000000000000000000000000000000000000000000000000000000000000000000000000000000000000000000000000000000000000000000000",
      "type": "0x2",
      "effectiveGasPrice": "0xbf0312b9"
    },
    {
      "transactionHash": "0x32ccf9e2419c2a40edd11a95eb3825a720f289ae1fa40fe62e36a94392c184a2",
      "transactionIndex": "0x6",
      "blockHash": "0xf40100456b128f19bfbb8f99dda0ef4fc6189045429c023b4458e4add719e549",
      "blockNumber": "0x3dcb38",
      "from": "0x42C7eF198f8aC9888E2B1b73e5B71f1D4535194A",
      "to": "0x81a71A6DC43395eae7e94df05bD6b54555EAc9c8",
      "cumulativeGasUsed": "0x184f5e",
      "gasUsed": "0x1cbc1",
      "contractAddress": null,
      "logs": [],
      "status": "0x1",
      "logsBloom": "0x00000000000000000000000000000000000000000000000000000000000000000000000000000000000000000000000000000000000000000000000000000000000000000000000000000000000000000000000000000000000000000000000000000000000000000000000000000000000000000000000000000000000000000000000000000000000000000000000000000000000000000000000000000000000000000000000000000000000000000000000000000000000000000000000000000000000000000000000000000000000000000000000000000000000000000000000000000000000000000000000000000000000000000000000000000000",
      "type": "0x2",
      "effectiveGasPrice": "0xbf0312b9"
    },
    {
      "transactionHash": "0xa85ebace37ddf60f8631814dcfd55b69a101de1eed5fb625a79a89dbcf68adff",
      "transactionIndex": "0x7",
      "blockHash": "0xf40100456b128f19bfbb8f99dda0ef4fc6189045429c023b4458e4add719e549",
      "blockNumber": "0x3dcb38",
      "from": "0x42C7eF198f8aC9888E2B1b73e5B71f1D4535194A",
      "to": "0x81a71A6DC43395eae7e94df05bD6b54555EAc9c8",
      "cumulativeGasUsed": "0x1a1b1f",
      "gasUsed": "0x1cbc1",
      "contractAddress": null,
      "logs": [],
      "status": "0x1",
      "logsBloom": "0x00000000000000000000000000000000000000000000000000000000000000000000000000000000000000000000000000000000000000000000000000000000000000000000000000000000000000000000000000000000000000000000000000000000000000000000000000000000000000000000000000000000000000000000000000000000000000000000000000000000000000000000000000000000000000000000000000000000000000000000000000000000000000000000000000000000000000000000000000000000000000000000000000000000000000000000000000000000000000000000000000000000000000000000000000000000",
      "type": "0x2",
      "effectiveGasPrice": "0xbf0312b9"
    },
    {
      "transactionHash": "0xc41c4799e0d5adc6c2df68c7fc561c88f6f8af372210827e8b6f244521cee10e",
      "transactionIndex": "0x8",
      "blockHash": "0xf40100456b128f19bfbb8f99dda0ef4fc6189045429c023b4458e4add719e549",
      "blockNumber": "0x3dcb38",
      "from": "0x42C7eF198f8aC9888E2B1b73e5B71f1D4535194A",
      "to": "0x1b925f96973ecC0bc387E7e64BFCFFE59Bd17E0A",
      "cumulativeGasUsed": "0x1be6e0",
      "gasUsed": "0x1cbc1",
      "contractAddress": null,
      "logs": [],
      "status": "0x1",
      "logsBloom": "0x00000000000000000000000000000000000000000000000000000000000000000000000000000000000000000000000000000000000000000000000000000000000000000000000000000000000000000000000000000000000000000000000000000000000000000000000000000000000000000000000000000000000000000000000000000000000000000000000000000000000000000000000000000000000000000000000000000000000000000000000000000000000000000000000000000000000000000000000000000000000000000000000000000000000000000000000000000000000000000000000000000000000000000000000000000000",
      "type": "0x2",
      "effectiveGasPrice": "0xbf0312b9"
    },
    {
      "transactionHash": "0x468cc120a46795eccc3ec42b5c67425362b56088d5e1663ea42512e0e9195f6a",
      "transactionIndex": "0x9",
      "blockHash": "0xf40100456b128f19bfbb8f99dda0ef4fc6189045429c023b4458e4add719e549",
      "blockNumber": "0x3dcb38",
      "from": "0x42C7eF198f8aC9888E2B1b73e5B71f1D4535194A",
      "to": "0x1b925f96973ecC0bc387E7e64BFCFFE59Bd17E0A",
      "cumulativeGasUsed": "0x1db2a1",
      "gasUsed": "0x1cbc1",
      "contractAddress": null,
      "logs": [],
      "status": "0x1",
      "logsBloom": "0x00000000000000000000000000000000000000000000000000000000000000000000000000000000000000000000000000000000000000000000000000000000000000000000000000000000000000000000000000000000000000000000000000000000000000000000000000000000000000000000000000000000000000000000000000000000000000000000000000000000000000000000000000000000000000000000000000000000000000000000000000000000000000000000000000000000000000000000000000000000000000000000000000000000000000000000000000000000000000000000000000000000000000000000000000000000",
      "type": "0x2",
      "effectiveGasPrice": "0xbf0312b9"
    },
    {
      "transactionHash": "0x1ffb1f2103df9643287209ac3625afe4fdcbafb779f9e74287fe44842c4b86a9",
      "transactionIndex": "0xa",
      "blockHash": "0xf40100456b128f19bfbb8f99dda0ef4fc6189045429c023b4458e4add719e549",
      "blockNumber": "0x3dcb38",
      "from": "0x42C7eF198f8aC9888E2B1b73e5B71f1D4535194A",
      "to": "0x1b925f96973ecC0bc387E7e64BFCFFE59Bd17E0A",
      "cumulativeGasUsed": "0x1f7e62",
      "gasUsed": "0x1cbc1",
      "contractAddress": null,
      "logs": [],
      "status": "0x1",
      "logsBloom": "0x00000000000000000000000000000000000000000000000000000000000000000000000000000000000000000000000000000000000000000000000000000000000000000000000000000000000000000000000000000000000000000000000000000000000000000000000000000000000000000000000000000000000000000000000000000000000000000000000000000000000000000000000000000000000000000000000000000000000000000000000000000000000000000000000000000000000000000000000000000000000000000000000000000000000000000000000000000000000000000000000000000000000000000000000000000000",
      "type": "0x2",
      "effectiveGasPrice": "0xbf0312b9"
    }
  ],
  "libraries": [],
  "pending": [],
  "returns": {},
  "timestamp": 1691512444,
  "chain": 11155111,
  "multi": false,
  "commit": "b6d6374"
}