{
  "transactions": [
    {
      "hash": "0x66734e5d59413bb8a0a550408a99a1d7aac1829e09f937af45a6fc51685e84c8",
      "transactionType": "CALL",
      "contractName": "CloneFactory",
      "contractAddress": "0xfFc708e5eE0e1c5643c131906f187f3A49f67976",
      "function": "cloneERC721(string,string,string,address):(address)",
      "arguments": [
        "Project X",
        "PRJX",
        "https://ipfs.io/ipfs/QmeYWTXaeTRAhurR55nbW5ma4mJdE3hAxFBYxeZC2wnwVK/",
        "0x42C7eF198f8aC9888E2B1b73e5B71f1D4535194A"
      ],
      "transaction": {
        "type": "0x02",
        "from": "0x42c7ef198f8ac9888e2b1b73e5b71f1d4535194a",
        "to": "0xffc708e5ee0e1c5643c131906f187f3a49f67976",
        "gas": "0x770d4",
        "value": "0x0",
        "data": "0x2174a6a5000000000000000000000000000000000000000000000000000000000000008000000000000000000000000000000000000000000000000000000000000000c0000000000000000000000000000000000000000000000000000000000000010000000000000000000000000042c7ef198f8ac9888e2b1b73e5b71f1d4535194a000000000000000000000000000000000000000000000000000000000000000950726f6a65637420580000000000000000000000000000000000000000000000000000000000000000000000000000000000000000000000000000000000000450524a5800000000000000000000000000000000000000000000000000000000000000000000000000000000000000000000000000000000000000000000004468747470733a2f2f697066732e696f2f697066732f516d655957545861655452416875725235356e6257356d61346d4a64453368417846425978655a4332776e77564b2f00000000000000000000000000000000000000000000000000000000",
        "nonce": "0x5",
        "accessList": []
      },
      "additionalContracts": [
        {
          "transactionType": "CREATE",
          "address": "0x4ade2b208E780D5a8C60B3D5A4F9D8Bfa2760FB5",
          "initCode": "3d602d80600a3d3981f3363d3d373d3d3d363d73381be1c4765aee02fc3cc86c700ab1c4a30fc7c95af43d82803e903d91602b57fd5bf3"
        }
      ],
      "isFixedGasLimit": false
    },
    {
      "hash": "0x16347c4d88766667b528122a59b326aac1a01f51479606af04a91e1fc016fc26",
      "transactionType": "CALL",
      "contractName": "CloneFactory",
      "contractAddress": "0xfFc708e5eE0e1c5643c131906f187f3A49f67976",
      "function": "cloneERC721(string,string,string,address):(address)",
      "arguments": [
        "Project Y",
        "PRJY",
        "https://ipfs.io/ipfs/QmVDAzpqk83MEhZQp7xK3yeVrrcfg5gPa7uS5JZH9cQtf2/",
        "0x42C7eF198f8aC9888E2B1b73e5B71f1D4535194A"
      ],
      "transaction": {
        "type": "0x02",
        "from": "0x42c7ef198f8ac9888e2b1b73e5b71f1d4535194a",
        "to": "0xffc708e5ee0e1c5643c131906f187f3a49f67976",
        "gas": "0x71490",
        "value": "0x0",
        "data": "0x2174a6a5000000000000000000000000000000000000000000000000000000000000008000000000000000000000000000000000000000000000000000000000000000c0000000000000000000000000000000000000000000000000000000000000010000000000000000000000000042c7ef198f8ac9888e2b1b73e5b71f1d4535194a000000000000000000000000000000000000000000000000000000000000000950726f6a65637420590000000000000000000000000000000000000000000000000000000000000000000000000000000000000000000000000000000000000450524a5900000000000000000000000000000000000000000000000000000000000000000000000000000000000000000000000000000000000000000000004468747470733a2f2f697066732e696f2f697066732f516d5644417a70716b38334d45685a517037784b33796556727263666735675061377553354a5a483963517466322f00000000000000000000000000000000000000000000000000000000",
        "nonce": "0x6",
        "accessList": []
      },
      "additionalContracts": [
        {
          "transactionType": "CREATE",
          "address": "0x6D3aEC6195fc0106322e1d959ebAD8eaEc86122b",
          "initCode": "3d602d80600a3d3981f3363d3d373d3d3d363d73381be1c4765aee02fc3cc86c700ab1c4a30fc7c95af43d82803e903d91602b57fd5bf3"
        }
      ],
      "isFixedGasLimit": false
    },
    {
      "hash": "0x2f35e5a37a4a0545fc1fa7d4cb90be16dd062619485c9f97f3e008419b8908d9",
      "transactionType": "CALL",
      "contractName": "CloneFactory",
      "contractAddress": "0xfFc708e5eE0e1c5643c131906f187f3A49f67976",
      "function": "cloneERC1155(string,address,string,string):(address)",
      "arguments": [
        "https://ipfs.io/ipfs/QmdFRfXc7gmqYv61ywsFdWkUuVktccZ1jkH8eNUBsyCBPf/",
        "0x42C7eF198f8aC9888E2B1b73e5B71f1D4535194A",
        "Project X Clone ERC1155",
        "PX1155"
      ],
      "transaction": {
        "type": "0x02",
        "from": "0x42c7ef198f8ac9888e2b1b73e5b71f1d4535194a",
        "to": "0xffc708e5ee0e1c5643c131906f187f3a49f67976",
        "gas": "0x66c5c",
        "value": "0x0",
        "data": "0xc2ff6fd2000000000000000000000000000000000000000000000000000000000000008000000000000000000000000042c7ef198f8ac9888e2b1b73e5b71f1d4535194a00000000000000000000000000000000000000000000000000000000000001000000000000000000000000000000000000000000000000000000000000000140000000000000000000000000000000000000000000000000000000000000004468747470733a2f2f697066732e696f2f697066732f516d64465266586337676d71597636317977734664576b5575566b7463635a316a6b4838654e55427379434250662f00000000000000000000000000000000000000000000000000000000000000000000000000000000000000000000000000000000000000000000001750726f6a656374205820436c6f6e65204552433131353500000000000000000000000000000000000000000000000000000000000000000000000000000000065058313135350000000000000000000000000000000000000000000000000000",
        "nonce": "0x7",
        "accessList": []
      },
      "additionalContracts": [
        {
          "transactionType": "CREATE",
          "address": "0x119B25FCF4E418F4B11210bB89300B2bd4e750cb",
          "initCode": "3d602d80600a3d3981f3363d3d373d3d3d363d73ca9f4a29fc0076a9fd643b549fc760995b47e6f85af43d82803e903d91602b57fd5bf3"
        }
      ],
      "isFixedGasLimit": false
    },
    {
      "hash": "0x814d76174f96b638bb389c31c570a33f5c789f1d805b0dc6fee8dca92916b9c1",
      "transactionType": "CALL",
      "contractName": "CloneFactory",
      "contractAddress": "0xfFc708e5eE0e1c5643c131906f187f3A49f67976",
      "function": "cloneERC1155(string,address,string,string):(address)",
      "arguments": [
        "https://ipfs.io/ipfs/QmUU9wdedSCtrZFs5nPSeAggpoXeJ7WNKvtGJJLwa3czqn/",
        "0x42C7eF198f8aC9888E2B1b73e5B71f1D4535194A",
        "Project X Clone ERC1155",
        "PX1155"
      ],
      "transaction": {
        "type": "0x02",
        "from": "0x42c7ef198f8ac9888e2b1b73e5b71f1d4535194a",
        "to": "0xffc708e5ee0e1c5643c131906f187f3a49f67976",
        "gas": "0x66b67",
        "value": "0x0",
        "data": "0xc2ff6fd2000000000000000000000000000000000000000000000000000000000000008000000000000000000000000042c7ef198f8ac9888e2b1b73e5b71f1d4535194a00000000000000000000000000000000000000000000000000000000000001000000000000000000000000000000000000000000000000000000000000000140000000000000000000000000000000000000000000000000000000000000004468747470733a2f2f697066732e696f2f697066732f516d55553977646564534374725a4673356e505365416767706f58654a37574e4b7674474a4a4c776133637a716e2f00000000000000000000000000000000000000000000000000000000000000000000000000000000000000000000000000000000000000000000001750726f6a656374205820436c6f6e65204552433131353500000000000000000000000000000000000000000000000000000000000000000000000000000000065058313135350000000000000000000000000000000000000000000000000000",
        "nonce": "0x8",
        "accessList": []
      },
      "additionalContracts": [
        {
          "transactionType": "CREATE",
          "address": "0xDc41aF1F0368f34dB6e07C2Ea76d8519E5e3004d",
          "initCode": "3d602d80600a3d3981f3363d3d373d3d3d363d73ca9f4a29fc0076a9fd643b549fc760995b47e6f85af43d82803e903d91602b57fd5bf3"
        }
      ],
      "isFixedGasLimit": false
    },
    {
      "hash": "0x87648d6a5d9b6cc5d0648597d01f6fd33c4b60c74705c789aac24c0fc90483fa",
      "transactionType": "CALL",
      "contractName": null,
      "contractAddress": "0x119B25FCF4E418F4B11210bB89300B2bd4e750cb",
      "function": "createFungibleType(uint256,string)",
      "arguments": [
        "1",
        "https://ipfs.io/ipfs/QmdFRfXc7gmqYv61ywsFdWkUuVktccZ1jkH8eNUBsyCBPf/1"
      ],
      "transaction": {
        "type": "0x02",
        "from": "0x42c7ef198f8ac9888e2b1b73e5b71f1d4535194a",
        "to": "0x119b25fcf4e418f4b11210bb89300b2bd4e750cb",
        "gas": "0x2a063",
        "value": "0x0",
        "data": "0x21f9577700000000000000000000000000000000000000000000000000000000000000010000000000000000000000000000000000000000000000000000000000000040000000000000000000000000000000000000000000000000000000000000004568747470733a2f2f697066732e696f2f697066732f516d64465266586337676d71597636317977734664576b5575566b7463635a316a6b4838654e55427379434250662f31000000000000000000000000000000000000000000000000000000",
        "nonce": "0x9",
        "accessList": []
      },
      "additionalContracts": [],
      "isFixedGasLimit": false
    },
    {
      "hash": "0x72aa4385882af8f5210a0b25a829637ec578bca2e6d0f6e03e5f704442b23ce3",
      "transactionType": "CALL",
      "contractName": null,
      "contractAddress": "0x119B25FCF4E418F4B11210bB89300B2bd4e750cb",
      "function": "createFungibleType(uint256,string)",
      "arguments": [
        "2",
        "https://ipfs.io/ipfs/QmdFRfXc7gmqYv61ywsFdWkUuVktccZ1jkH8eNUBsyCBPf/2"
      ],
      "transaction": {
        "type": "0x02",
        "from": "0x42c7ef198f8ac9888e2b1b73e5b71f1d4535194a",
        "to": "0x119b25fcf4e418f4b11210bb89300b2bd4e750cb",
        "gas": "0x2a063",
        "value": "0x0",
        "data": "0x21f9577700000000000000000000000000000000000000000000000000000000000000020000000000000000000000000000000000000000000000000000000000000040000000000000000000000000000000000000000000000000000000000000004568747470733a2f2f697066732e696f2f697066732f516d64465266586337676d71597636317977734664576b5575566b7463635a316a6b4838654e55427379434250662f32000000000000000000000000000000000000000000000000000000",
        "nonce": "0xa",
        "accessList": []
      },
      "additionalContracts": [],
      "isFixedGasLimit": false
    },
    {
      "hash": "0x04f6b6c7d056a51a259a9420c6b40d4156691eaeff279ee612b0f66776981fd7",
      "transactionType": "CALL",
      "contractName": null,
      "contractAddress": "0x119B25FCF4E418F4B11210bB89300B2bd4e750cb",
      "function": "createFungibleType(uint256,string)",
      "arguments": [
        "3",
        "https://ipfs.io/ipfs/QmdFRfXc7gmqYv61ywsFdWkUuVktccZ1jkH8eNUBsyCBPf/3"
      ],
      "transaction": {
        "type": "0x02",
        "from": "0x42c7ef198f8ac9888e2b1b73e5b71f1d4535194a",
        "to": "0x119b25fcf4e418f4b11210bb89300b2bd4e750cb",
        "gas": "0x2a063",
        "value": "0x0",
        "data": "0x21f9577700000000000000000000000000000000000000000000000000000000000000030000000000000000000000000000000000000000000000000000000000000040000000000000000000000000000000000000000000000000000000000000004568747470733a2f2f697066732e696f2f697066732f516d64465266586337676d71597636317977734664576b5575566b7463635a316a6b4838654e55427379434250662f33000000000000000000000000000000000000000000000000000000",
        "nonce": "0xb",
        "accessList": []
      },
      "additionalContracts": [],
      "isFixedGasLimit": false
    },
    {
      "hash": "0x66e188a3f52eada8291b55ae9575bf5154e6e46e76cb744d3ca92b482450025c",
      "transactionType": "CALL",
      "contractName": null,
      "contractAddress": "0xDc41aF1F0368f34dB6e07C2Ea76d8519E5e3004d",
      "function": "createFungibleType(uint256,string)",
      "arguments": [
        "1",
        "https://ipfs.io/ipfs/QmUU9wdedSCtrZFs5nPSeAggpoXeJ7WNKvtGJJLwa3czqn/1"
      ],
      "transaction": {
        "type": "0x02",
        "from": "0x42c7ef198f8ac9888e2b1b73e5b71f1d4535194a",
        "to": "0xdc41af1f0368f34db6e07c2ea76d8519e5e3004d",
        "gas": "0x2a063",
        "value": "0x0",
        "data": "0x21f9577700000000000000000000000000000000000000000000000000000000000000010000000000000000000000000000000000000000000000000000000000000040000000000000000000000000000000000000000000000000000000000000004568747470733a2f2f697066732e696f2f697066732f516d55553977646564534374725a4673356e505365416767706f58654a37574e4b7674474a4a4c776133637a716e2f31000000000000000000000000000000000000000000000000000000",
        "nonce": "0xc",
        "accessList": []
      },
      "additionalContracts": [],
      "isFixedGasLimit": false
    },
    {
      "hash": "0x448869355f224203dc13613ef57b3b1d9503dc7b73871962ad142bec211730ef",
      "transactionType": "CALL",
      "contractName": null,
      "contractAddress": "0xDc41aF1F0368f34dB6e07C2Ea76d8519E5e3004d",
      "function": "createFungibleType(uint256,string)",
      "arguments": [
        "2",
        "https://ipfs.io/ipfs/QmUU9wdedSCtrZFs5nPSeAggpoXeJ7WNKvtGJJLwa3czqn/2"
      ],
      "transaction": {
        "type": "0x02",
        "from": "0x42c7ef198f8ac9888e2b1b73e5b71f1d4535194a",
        "to": "0xdc41af1f0368f34db6e07c2ea76d8519e5e3004d",
        "gas": "0x2a063",
        "value": "0x0",
        "data": "0x21f9577700000000000000000000000000000000000000000000000000000000000000020000000000000000000000000000000000000000000000000000000000000040000000000000000000000000000000000000000000000000000000000000004568747470733a2f2f697066732e696f2f697066732f516d55553977646564534374725a4673356e505365416767706f58654a37574e4b7674474a4a4c776133637a716e2f32000000000000000000000000000000000000000000000000000000",
        "nonce": "0xd",
        "accessList": []
      },
      "additionalContracts": [],
      "isFixedGasLimit": false
    },
    {
      "hash": "0x412c3c67eb816a0a940ed701a66d1d5bbc056e154afc8ba226576ec01d4ed885",
      "transactionType": "CALL",
      "contractName": null,
      "contractAddress": "0xDc41aF1F0368f34dB6e07C2Ea76d8519E5e3004d",
      "function": "createFungibleType(uint256,string)",
      "arguments": [
        "3",
        "https://ipfs.io/ipfs/QmUU9wdedSCtrZFs5nPSeAggpoXeJ7WNKvtGJJLwa3czqn/3"
      ],
      "transaction": {
        "type": "0x02",
        "from": "0x42c7ef198f8ac9888e2b1b73e5b71f1d4535194a",
        "to": "0xdc41af1f0368f34db6e07c2ea76d8519e5e3004d",
        "gas": "0x2a063",
        "value": "0x0",
        "data": "0x21f9577700000000000000000000000000000000000000000000000000000000000000030000000000000000000000000000000000000000000000000000000000000040000000000000000000000000000000000000000000000000000000000000004568747470733a2f2f697066732e696f2f697066732f516d55553977646564534374725a4673356e505365416767706f58654a37574e4b7674474a4a4c776133637a716e2f33000000000000000000000000000000000000000000000000000000",
        "nonce": "0xe",
        "accessList": []
      },
      "additionalContracts": [],
      "isFixedGasLimit": false
    }
  ],
  "receipts": [],
  "libraries": [],
  "pending": [
    "0x66734e5d59413bb8a0a550408a99a1d7aac1829e09f937af45a6fc51685e84c8",
    "0x16347c4d88766667b528122a59b326aac1a01f51479606af04a91e1fc016fc26",
    "0x2f35e5a37a4a0545fc1fa7d4cb90be16dd062619485c9f97f3e008419b8908d9",
    "0x814d76174f96b638bb389c31c570a33f5c789f1d805b0dc6fee8dca92916b9c1",
    "0x87648d6a5d9b6cc5d0648597d01f6fd33c4b60c74705c789aac24c0fc90483fa",
    "0x72aa4385882af8f5210a0b25a829637ec578bca2e6d0f6e03e5f704442b23ce3",
    "0x04f6b6c7d056a51a259a9420c6b40d4156691eaeff279ee612b0f66776981fd7",
    "0x66e188a3f52eada8291b55ae9575bf5154e6e46e76cb744d3ca92b482450025c",
    "0x448869355f224203dc13613ef57b3b1d9503dc7b73871962ad142bec211730ef",
    "0x412c3c67eb816a0a940ed701a66d1d5bbc056e154afc8ba226576ec01d4ed885"
  ],
  "returns": {},
  "timestamp": 1691505190,
  "chain": 11155111,
  "multi": false,
  "commit": "c4f8c93"
}