{
  "transactions": [
    {
      "hash": "0x75d65f314d14040925cd4f0f8d354a2b6099292b9d51f4878de73c2b2f5ac968",
      "transactionType": "CALL",
      "contractName": "CloneFactory",
      "contractAddress": "0x27892e79C87Bfe6756c7A4A833838Eec5Fdb3D36",
      "function": "cloneERC721(string,string,string,address):(address)",
      "arguments": [
        "Project X",
        "PRJX",
        "https://ipfs.io/ipfs/QmeYWTXaeTRAhurR55nbW5ma4mJdE3hAxFBYxeZC2wnwVK/",
        "0x42C7eF198f8aC9888E2B1b73e5B71f1D4535194A"
      ],
      "transaction": {
        "type": "0x02",
        "from": "0x42c7ef198f8ac9888e2b1b73e5b71f1d4535194a",
        "to": "0x27892e79c87bfe6756c7a4a833838eec5fdb3d36",
        "gas": "0x7e21f",
        "value": "0x0",
        "data": "0x2174a6a5000000000000000000000000000000000000000000000000000000000000008000000000000000000000000000000000000000000000000000000000000000c0000000000000000000000000000000000000000000000000000000000000010000000000000000000000000042c7ef198f8ac9888e2b1b73e5b71f1d4535194a000000000000000000000000000000000000000000000000000000000000000950726f6a65637420580000000000000000000000000000000000000000000000000000000000000000000000000000000000000000000000000000000000000450524a5800000000000000000000000000000000000000000000000000000000000000000000000000000000000000000000000000000000000000000000004468747470733a2f2f697066732e696f2f697066732f516d655957545861655452416875725235356e6257356d61346d4a64453368417846425978655a4332776e77564b2f00000000000000000000000000000000000000000000000000000000",
        "nonce": "0x4f",
        "accessList": []
      },
      "additionalContracts": [
        {
          "transactionType": "CREATE",
          "address": "0xE2d112D8f629031822135939Eb20Ca798eb5127C",
          "initCode": "3d602d80600a3d3981f3363d3d373d3d3d363d7390247b092feff3aab77de4c9a232c983100c3b845af43d82803e903d91602b57fd5bf3"
        }
      ],
      "isFixedGasLimit": false
    },
    {
      "hash": "0xb6d49a49abc6a8055aa6a629247d31390ffa8d634b3c4188cf1ba1249bb4c2a5",
      "transactionType": "CALL",
      "contractName": "CloneFactory",
      "contractAddress": "0x27892e79C87Bfe6756c7A4A833838Eec5Fdb3D36",
      "function": "cloneERC721(string,string,string,address):(address)",
      "arguments": [
        "Project Y",
        "PRJY",
        "https://ipfs.io/ipfs/QmVDAzpqk83MEhZQp7xK3yeVrrcfg5gPa7uS5JZH9cQtf2/",
        "0x42C7eF198f8aC9888E2B1b73e5B71f1D4535194A"
      ],
      "transaction": {
        "type": "0x02",
        "from": "0x42c7ef198f8ac9888e2b1b73e5b71f1d4535194a",
        "to": "0x27892e79c87bfe6756c7a4a833838eec5fdb3d36",
        "gas": "0x715bd",
        "value": "0x0",
        "data": "0x2174a6a5000000000000000000000000000000000000000000000000000000000000008000000000000000000000000000000000000000000000000000000000000000c0000000000000000000000000000000000000000000000000000000000000010000000000000000000000000042c7ef198f8ac9888e2b1b73e5b71f1d4535194a000000000000000000000000000000000000000000000000000000000000000950726f6a65637420590000000000000000000000000000000000000000000000000000000000000000000000000000000000000000000000000000000000000450524a5900000000000000000000000000000000000000000000000000000000000000000000000000000000000000000000000000000000000000000000004468747470733a2f2f697066732e696f2f697066732f516d5644417a70716b38334d45685a517037784b33796556727263666735675061377553354a5a483963517466322f00000000000000000000000000000000000000000000000000000000",
        "nonce": "0x50",
        "accessList": []
      },
      "additionalContracts": [
        {
          "transactionType": "CREATE",
          "address": "0x44C3D436f99E11C453d23A0ae80CB2e0269dF3Dc",
          "initCode": "3d602d80600a3d3981f3363d3d373d3d3d363d7390247b092feff3aab77de4c9a232c983100c3b845af43d82803e903d91602b57fd5bf3"
        }
      ],
      "isFixedGasLimit": false
    },
    {
      "hash": "0xe574021dd50d019a269fd09d9b41b99c749561f6145fe0252d6e7dea555b72d0",
      "transactionType": "CALL",
      "contractName": "CloneFactory",
      "contractAddress": "0x27892e79C87Bfe6756c7A4A833838Eec5Fdb3D36",
      "function": "cloneERC1155(string,address,string,string):(address)",
      "arguments": [
        "https://ipfs.io/ipfs/QmdFRfXc7gmqYv61ywsFdWkUuVktccZ1jkH8eNUBsyCBPf/",
        "0x42C7eF198f8aC9888E2B1b73e5B71f1D4535194A",
        "Project X Clone ERC1155",
        "PX1155"
      ],
      "transaction": {
        "type": "0x02",
        "from": "0x42c7ef198f8ac9888e2b1b73e5b71f1d4535194a",
        "to": "0x27892e79c87bfe6756c7a4a833838eec5fdb3d36",
        "gas": "0x66c5c",
        "value": "0x0",
        "data": "0xc2ff6fd2000000000000000000000000000000000000000000000000000000000000008000000000000000000000000042c7ef198f8ac9888e2b1b73e5b71f1d4535194a00000000000000000000000000000000000000000000000000000000000001000000000000000000000000000000000000000000000000000000000000000140000000000000000000000000000000000000000000000000000000000000004468747470733a2f2f697066732e696f2f697066732f516d64465266586337676d71597636317977734664576b5575566b7463635a316a6b4838654e55427379434250662f00000000000000000000000000000000000000000000000000000000000000000000000000000000000000000000000000000000000000000000001750726f6a656374205820436c6f6e65204552433131353500000000000000000000000000000000000000000000000000000000000000000000000000000000065058313135350000000000000000000000000000000000000000000000000000",
        "nonce": "0x51",
        "accessList": []
      },
      "additionalContracts": [
        {
          "transactionType": "CREATE",
          "address": "0x5402d75d09f893aFC27db89d96021704D5F91dAc",
          "initCode": "3d602d80600a3d3981f3363d3d373d3d3d363d732759a615ef0f0888d70c70d5aaa0eb22aa7fa7f65af43d82803e903d91602b57fd5bf3"
        }
      ],
      "isFixedGasLimit": false
    },
    {
      "hash": "0x3422fa5bcd831dbafc1144ac046f96589c61a8dac48782eb48ab664ad9683ba8",
      "transactionType": "CALL",
      "contractName": "CloneFactory",
      "contractAddress": "0x27892e79C87Bfe6756c7A4A833838Eec5Fdb3D36",
      "function": "cloneERC1155(string,address,string,string):(address)",
      "arguments": [
        "https://ipfs.io/ipfs/QmUU9wdedSCtrZFs5nPSeAggpoXeJ7WNKvtGJJLwa3czqn/",
        "0x42C7eF198f8aC9888E2B1b73e5B71f1D4535194A",
        "Project Y Clone ERC1155",
        "PY1155"
      ],
      "transaction": {
        "type": "0x02",
        "from": "0x42c7ef198f8ac9888e2b1b73e5b71f1d4535194a",
        "to": "0x27892e79c87bfe6756c7a4a833838eec5fdb3d36",
        "gas": "0x66b67",
        "value": "0x0",
        "data": "0xc2ff6fd2000000000000000000000000000000000000000000000000000000000000008000000000000000000000000042c7ef198f8ac9888e2b1b73e5b71f1d4535194a00000000000000000000000000000000000000000000000000000000000001000000000000000000000000000000000000000000000000000000000000000140000000000000000000000000000000000000000000000000000000000000004468747470733a2f2f697066732e696f2f697066732f516d55553977646564534374725a4673356e505365416767706f58654a37574e4b7674474a4a4c776133637a716e2f00000000000000000000000000000000000000000000000000000000000000000000000000000000000000000000000000000000000000000000001750726f6a656374205920436c6f6e65204552433131353500000000000000000000000000000000000000000000000000000000000000000000000000000000065059313135350000000000000000000000000000000000000000000000000000",
        "nonce": "0x52",
        "accessList": []
      },
      "additionalContracts": [
        {
          "transactionType": "CREATE",
          "address": "0x6bc0BdA0f8bA103059819595a3390AA792C09f81",
          "initCode": "3d602d80600a3d3981f3363d3d373d3d3d363d732759a615ef0f0888d70c70d5aaa0eb22aa7fa7f65af43d82803e903d91602b57fd5bf3"
        }
      ],
      "isFixedGasLimit": false
    },
    {
      "hash": "0x1de97445d2c561a0c0acbed41dd9de954b6763527a5f032de813c4cc87939611",
      "transactionType": "CALL",
      "contractName": null,
      "contractAddress": "0x5402d75d09f893aFC27db89d96021704D5F91dAc",
      "function": "createFungibleType(uint256,string)",
      "arguments": [
        "1",
        "https://ipfs.io/ipfs/QmdFRfXc7gmqYv61ywsFdWkUuVktccZ1jkH8eNUBsyCBPf/1"
      ],
      "transaction": {
        "type": "0x02",
        "from": "0x42c7ef198f8ac9888e2b1b73e5b71f1d4535194a",
        "to": "0x5402d75d09f893afc27db89d96021704d5f91dac",
        "gas": "0x2a063",
        "value": "0x0",
        "data": "0x21f9577700000000000000000000000000000000000000000000000000000000000000010000000000000000000000000000000000000000000000000000000000000040000000000000000000000000000000000000000000000000000000000000004568747470733a2f2f697066732e696f2f697066732f516d64465266586337676d71597636317977734664576b5575566b7463635a316a6b4838654e55427379434250662f31000000000000000000000000000000000000000000000000000000",
        "nonce": "0x53",
        "accessList": []
      },
      "additionalContracts": [],
      "isFixedGasLimit": false
    },
    {
      "hash": "0x22a4d5e1ce297341e919539d5c2e2488a36e0cbf64394ef09a5ec798f31a4f29",
      "transactionType": "CALL",
      "contractName": null,
      "contractAddress": "0x5402d75d09f893aFC27db89d96021704D5F91dAc",
      "function": "createFungibleType(uint256,string)",
      "arguments": [
        "2",
        "https://ipfs.io/ipfs/QmdFRfXc7gmqYv61ywsFdWkUuVktccZ1jkH8eNUBsyCBPf/2"
      ],
      "transaction": {
        "type": "0x02",
        "from": "0x42c7ef198f8ac9888e2b1b73e5b71f1d4535194a",
        "to": "0x5402d75d09f893afc27db89d96021704d5f91dac",
        "gas": "0x2a063",
        "value": "0x0",
        "data": "0x21f9577700000000000000000000000000000000000000000000000000000000000000020000000000000000000000000000000000000000000000000000000000000040000000000000000000000000000000000000000000000000000000000000004568747470733a2f2f697066732e696f2f697066732f516d64465266586337676d71597636317977734664576b5575566b7463635a316a6b4838654e55427379434250662f32000000000000000000000000000000000000000000000000000000",
        "nonce": "0x54",
        "accessList": []
      },
      "additionalContracts": [],
      "isFixedGasLimit": false
    },
    {
      "hash": "0x43fc87e4aff69e23ebb551a59a872741d2e998b76b2c4d3e26441528a84f60c0",
      "transactionType": "CALL",
      "contractName": null,
      "contractAddress": "0x5402d75d09f893aFC27db89d96021704D5F91dAc",
      "function": "createFungibleType(uint256,string)",
      "arguments": [
        "3",
        "https://ipfs.io/ipfs/QmdFRfXc7gmqYv61ywsFdWkUuVktccZ1jkH8eNUBsyCBPf/3"
      ],
      "transaction": {
        "type": "0x02",
        "from": "0x42c7ef198f8ac9888e2b1b73e5b71f1d4535194a",
        "to": "0x5402d75d09f893afc27db89d96021704d5f91dac",
        "gas": "0x2a063",
        "value": "0x0",
        "data": "0x21f9577700000000000000000000000000000000000000000000000000000000000000030000000000000000000000000000000000000000000000000000000000000040000000000000000000000000000000000000000000000000000000000000004568747470733a2f2f697066732e696f2f697066732f516d64465266586337676d71597636317977734664576b5575566b7463635a316a6b4838654e55427379434250662f33000000000000000000000000000000000000000000000000000000",
        "nonce": "0x55",
        "accessList": []
      },
      "additionalContracts": [],
      "isFixedGasLimit": false
    },
    {
      "hash": "0x03df867c4cdbf9eb2f84fc2d725925a06d8fe1d9c18bd90e7f4c016a864286c5",
      "transactionType": "CALL",
      "contractName": null,
      "contractAddress": "0x6bc0BdA0f8bA103059819595a3390AA792C09f81",
      "function": "createFungibleType(uint256,string)",
      "arguments": [
        "1",
        "https://ipfs.io/ipfs/QmUU9wdedSCtrZFs5nPSeAggpoXeJ7WNKvtGJJLwa3czqn/1"
      ],
      "transaction": {
        "type": "0x02",
        "from": "0x42c7ef198f8ac9888e2b1b73e5b71f1d4535194a",
        "to": "0x6bc0bda0f8ba103059819595a3390aa792c09f81",
        "gas": "0x2a063",
        "value": "0x0",
        "data": "0x21f9577700000000000000000000000000000000000000000000000000000000000000010000000000000000000000000000000000000000000000000000000000000040000000000000000000000000000000000000000000000000000000000000004568747470733a2f2f697066732e696f2f697066732f516d55553977646564534374725a4673356e505365416767706f58654a37574e4b7674474a4a4c776133637a716e2f31000000000000000000000000000000000000000000000000000000",
        "nonce": "0x56",
        "accessList": []
      },
      "additionalContracts": [],
      "isFixedGasLimit": false
    },
    {
      "hash": "0x84d9790cc41de0196d9f6a8601ecc540ab47247e5a2bd45bcdd4f63ebac6a1c5",
      "transactionType": "CALL",
      "contractName": null,
      "contractAddress": "0x6bc0BdA0f8bA103059819595a3390AA792C09f81",
      "function": "createFungibleType(uint256,string)",
      "arguments": [
        "2",
        "https://ipfs.io/ipfs/QmUU9wdedSCtrZFs5nPSeAggpoXeJ7WNKvtGJJLwa3czqn/2"
      ],
      "transaction": {
        "type": "0x02",
        "from": "0x42c7ef198f8ac9888e2b1b73e5b71f1d4535194a",
        "to": "0x6bc0bda0f8ba103059819595a3390aa792c09f81",
        "gas": "0x2a063",
        "value": "0x0",
        "data": "0x21f9577700000000000000000000000000000000000000000000000000000000000000020000000000000000000000000000000000000000000000000000000000000040000000000000000000000000000000000000000000000000000000000000004568747470733a2f2f697066732e696f2f697066732f516d55553977646564534374725a4673356e505365416767706f58654a37574e4b7674474a4a4c776133637a716e2f32000000000000000000000000000000000000000000000000000000",
        "nonce": "0x57",
        "accessList": []
      },
      "additionalContracts": [],
      "isFixedGasLimit": false
    },
    {
      "hash": "0xaacca2f716d94ab0e11f30cceb1559b0a0a7b113f7305252c472ad2cb7b791fc",
      "transactionType": "CALL",
      "contractName": null,
      "contractAddress": "0x6bc0BdA0f8bA103059819595a3390AA792C09f81",
      "function": "createFungibleType(uint256,string)",
      "arguments": [
        "3",
        "https://ipfs.io/ipfs/QmUU9wdedSCtrZFs5nPSeAggpoXeJ7WNKvtGJJLwa3czqn/3"
      ],
      "transaction": {
        "type": "0x02",
        "from": "0x42c7ef198f8ac9888e2b1b73e5b71f1d4535194a",
        "to": "0x6bc0bda0f8ba103059819595a3390aa792c09f81",
        "gas": "0x2a063",
        "value": "0x0",
        "data": "0x21f9577700000000000000000000000000000000000000000000000000000000000000030000000000000000000000000000000000000000000000000000000000000040000000000000000000000000000000000000000000000000000000000000004568747470733a2f2f697066732e696f2f697066732f516d55553977646564534374725a4673356e505365416767706f58654a37574e4b7674474a4a4c776133637a716e2f33000000000000000000000000000000000000000000000000000000",
        "nonce": "0x58",
        "accessList": []
      },
      "additionalContracts": [],
      "isFixedGasLimit": false
    }
  ],
  "receipts": [
    {
      "transactionHash": "0x75d65f314d14040925cd4f0f8d354a2b6099292b9d51f4878de73c2b2f5ac968",
      "transactionIndex": "0x4",
      "blockHash": "0xdf13671f7e3fdd68b7dc5354dd2cd111055f776fe68c1ea10168c280744213c8",
      "blockNumber": "0x3de9af",
      "from": "0x42C7eF198f8aC9888E2B1b73e5B71f1D4535194A",
      "to": "0x27892e79C87Bfe6756c7A4A833838Eec5Fdb3D36",
      "cumulativeGasUsed": "0x19d090",
      "gasUsed": "0x563ee",
      "contractAddress": null,
      "logs": [
        {
          "address": "0xE2d112D8f629031822135939Eb20Ca798eb5127C",
          "topics": [
            "0x7f26b83ff96e1f2b6a682f133852f6798a09c465da95921460cefb3847402498"
          ],
          "data": "0x0000000000000000000000000000000000000000000000000000000000000001",
          "blockHash": "0xdf13671f7e3fdd68b7dc5354dd2cd111055f776fe68c1ea10168c280744213c8",
          "blockNumber": "0x3de9af",
          "transactionHash": "0x75d65f314d14040925cd4f0f8d354a2b6099292b9d51f4878de73c2b2f5ac968",
          "transactionIndex": "0x4",
          "logIndex": "0xe",
          "removed": false
        },
        {
          "address": "0x27892e79C87Bfe6756c7A4A833838Eec5Fdb3D36",
          "topics": [
            "0x3de89afa7ff3be26a41aef997a053b6c635a410036dbe09cbc2394014f034e3a"
          ],
          "data": "0x000000000000000000000000e2d112d8f629031822135939eb20ca798eb5127c0000000000000000000000000000000000000000000000000000000000000040000000000000000000000000000000000000000000000000000000000000004468747470733a2f2f697066732e696f2f697066732f516d655957545861655452416875725235356e6257356d61346d4a64453368417846425978655a4332776e77564b2f00000000000000000000000000000000000000000000000000000000",
          "blockHash": "0xdf13671f7e3fdd68b7dc5354dd2cd111055f776fe68c1ea10168c280744213c8",
          "blockNumber": "0x3de9af",
          "transactionHash": "0x75d65f314d14040925cd4f0f8d354a2b6099292b9d51f4878de73c2b2f5ac968",
          "transactionIndex": "0x4",
          "logIndex": "0xf",
          "removed": false
        }
      ],
      "status": "0x1",
      "logsBloom": "0x00000000000000000000000000000000000000000000000000000000000000000000000000000000000000000000000000000000000000000000000000000000000000000000000000000000000000000000000000000000000000000000000000000000000000000000000000000000000000000000000000000008000000000000200000800000000000000000000000000000000080000004000000000800000000000000000000000000000400000000000000000000000000000000000000000000020000000000000000040000000000000000000000000000000000000000000000000000000000000000000000800000000000020000080000000000",
      "type": "0x2",
      "effectiveGasPrice": "0xc194ec64"
    },
    {
      "transactionHash": "0xb6d49a49abc6a8055aa6a629247d31390ffa8d634b3c4188cf1ba1249bb4c2a5",
      "transactionIndex": "0x5",
      "blockHash": "0xdf13671f7e3fdd68b7dc5354dd2cd111055f776fe68c1ea10168c280744213c8",
      "blockNumber": "0x3de9af",
      "from": "0x42C7eF198f8aC9888E2B1b73e5B71f1D4535194A",
      "to": "0x27892e79C87Bfe6756c7A4A833838Eec5Fdb3D36",
      "cumulativeGasUsed": "0x1ef1b2",
      "gasUsed": "0x52122",
      "contractAddress": null,
      "logs": [
        {
          "address": "0x44C3D436f99E11C453d23A0ae80CB2e0269dF3Dc",
          "topics": [
            "0x7f26b83ff96e1f2b6a682f133852f6798a09c465da95921460cefb3847402498"
          ],
          "data": "0x0000000000000000000000000000000000000000000000000000000000000001",
          "blockHash": "0xdf13671f7e3fdd68b7dc5354dd2cd111055f776fe68c1ea10168c280744213c8",
          "blockNumber": "0x3de9af",
          "transactionHash": "0xb6d49a49abc6a8055aa6a629247d31390ffa8d634b3c4188cf1ba1249bb4c2a5",
          "transactionIndex": "0x5",
          "logIndex": "0x10",
          "removed": false
        },
        {
          "address": "0x27892e79C87Bfe6756c7A4A833838Eec5Fdb3D36",
          "topics": [
            "0x3de89afa7ff3be26a41aef997a053b6c635a410036dbe09cbc2394014f034e3a"
          ],
          "data": "0x00000000000000000000000044c3d436f99e11c453d23a0ae80cb2e0269df3dc0000000000000000000000000000000000000000000000000000000000000040000000000000000000000000000000000000000000000000000000000000004468747470733a2f2f697066732e696f2f697066732f516d5644417a70716b38334d45685a517037784b33796556727263666735675061377553354a5a483963517466322f00000000000000000000000000000000000000000000000000000000",
          "blockHash": "0xdf13671f7e3fdd68b7dc5354dd2cd111055f776fe68c1ea10168c280744213c8",
          "blockNumber": "0x3de9af",
          "transactionHash": "0xb6d49a49abc6a8055aa6a629247d31390ffa8d634b3c4188cf1ba1249bb4c2a5",
          "transactionIndex": "0x5",
          "logIndex": "0x11",
          "removed": false
        }
      ],
      "status": "0x1",
      "logsBloom": "0x00000000000000000000000000000000000000000000000000000000000000000000000000000000000000000000000000000000000000000000000000000000000000000000000000000000000000000000000000000000000000000000000000000000000000000000000000000000000000000000000000000008000000000000200000000000000000000100000000000000000080000004000000000800000000000000000040000000000400000000000000000000000000000000000000000000000000000000000000040000000000000020000000000000000000000000000000000000000000000000000000000000000000020000080000000000",
      "type": "0x2",
      "effectiveGasPrice": "0xc194ec64"
    },
    {
      "transactionHash": "0xe574021dd50d019a269fd09d9b41b99c749561f6145fe0252d6e7dea555b72d0",
      "transactionIndex": "0x6",
      "blockHash": "0xdf13671f7e3fdd68b7dc5354dd2cd111055f776fe68c1ea10168c280744213c8",
      "blockNumber": "0x3de9af",
      "from": "0x42C7eF198f8aC9888E2B1b73e5B71f1D4535194A",
      "to": "0x27892e79C87Bfe6756c7A4A833838Eec5Fdb3D36",
      "cumulativeGasUsed": "0x239834",
      "gasUsed": "0x4a682",
      "contractAddress": null,
      "logs": [
        {
          "address": "0x5402d75d09f893aFC27db89d96021704D5F91dAc",
          "topics": [
            "0x7f26b83ff96e1f2b6a682f133852f6798a09c465da95921460cefb3847402498"
          ],
          "data": "0x0000000000000000000000000000000000000000000000000000000000000001",
          "blockHash": "0xdf13671f7e3fdd68b7dc5354dd2cd111055f776fe68c1ea10168c280744213c8",
          "blockNumber": "0x3de9af",
          "transactionHash": "0xe574021dd50d019a269fd09d9b41b99c749561f6145fe0252d6e7dea555b72d0",
          "transactionIndex": "0x6",
          "logIndex": "0x12",
          "removed": false
        },
        {
          "address": "0x27892e79C87Bfe6756c7A4A833838Eec5Fdb3D36",
          "topics": [
            "0x3de89afa7ff3be26a41aef997a053b6c635a410036dbe09cbc2394014f034e3a"
          ],
          "data": "0x0000000000000000000000005402d75d09f893afc27db89d96021704d5f91dac0000000000000000000000000000000000000000000000000000000000000040000000000000000000000000000000000000000000000000000000000000004468747470733a2f2f697066732e696f2f697066732f516d64465266586337676d71597636317977734664576b5575566b7463635a316a6b4838654e55427379434250662f00000000000000000000000000000000000000000000000000000000",
          "blockHash": "0xdf13671f7e3fdd68b7dc5354dd2cd111055f776fe68c1ea10168c280744213c8",
          "blockNumber": "0x3de9af",
          "transactionHash": "0xe574021dd50d019a269fd09d9b41b99c749561f6145fe0252d6e7dea555b72d0",
          "transactionIndex": "0x6",
          "logIndex": "0x13",
          "removed": false
        }
      ],
      "status": "0x1",
      "logsBloom": "0x00000000000000000000000000000000000000000000000000400000000000080000000000000000000000000000000000000000000000000000000000000000000000000000000000000000000000000000000000000000000000000000000000000000000000000000000000000000000000000000000000000008000000000000200000000000000000000000000000000000000080000004000000000800000000000000000000000000000400000000000000000000000000000000000000000000010000000000000000040000000000000000000000000000000000000000000000000000000000000000000000000000000000020000080000000000",
      "type": "0x2",
      "effectiveGasPrice": "0xc194ec64"
    },
    {
      "transactionHash": "0x3422fa5bcd831dbafc1144ac046f96589c61a8dac48782eb48ab664ad9683ba8",
      "transactionIndex": "0x7",
      "blockHash": "0xdf13671f7e3fdd68b7dc5354dd2cd111055f776fe68c1ea10168c280744213c8",
      "blockNumber": "0x3de9af",
      "from": "0x42C7eF198f8aC9888E2B1b73e5B71f1D4535194A",
      "to": "0x27892e79C87Bfe6756c7A4A833838Eec5Fdb3D36",
      "cumulativeGasUsed": "0x27fbea",
      "gasUsed": "0x463b6",
      "contractAddress": null,
      "logs": [
        {
          "address": "0x6bc0BdA0f8bA103059819595a3390AA792C09f81",
          "topics": [
            "0x7f26b83ff96e1f2b6a682f133852f6798a09c465da95921460cefb3847402498"
          ],
          "data": "0x0000000000000000000000000000000000000000000000000000000000000001",
          "blockHash": "0xdf13671f7e3fdd68b7dc5354dd2cd111055f776fe68c1ea10168c280744213c8",
          "blockNumber": "0x3de9af",
          "transactionHash": "0x3422fa5bcd831dbafc1144ac046f96589c61a8dac48782eb48ab664ad9683ba8",
          "transactionIndex": "0x7",
          "logIndex": "0x14",
          "removed": false
        },
        {
          "address": "0x27892e79C87Bfe6756c7A4A833838Eec5Fdb3D36",
          "topics": [
            "0x3de89afa7ff3be26a41aef997a053b6c635a410036dbe09cbc2394014f034e3a"
          ],
          "data": "0x0000000000000000000000006bc0bda0f8ba103059819595a3390aa792c09f810000000000000000000000000000000000000000000000000000000000000040000000000000000000000000000000000000000000000000000000000000004468747470733a2f2f697066732e696f2f697066732f516d55553977646564534374725a4673356e505365416767706f58654a37574e4b7674474a4a4c776133637a716e2f00000000000000000000000000000000000000000000000000000000",
          "blockHash": "0xdf13671f7e3fdd68b7dc5354dd2cd111055f776fe68c1ea10168c280744213c8",
          "blockNumber": "0x3de9af",
          "transactionHash": "0x3422fa5bcd831dbafc1144ac046f96589c61a8dac48782eb48ab664ad9683ba8",
          "transactionIndex": "0x7",
          "logIndex": "0x15",
          "removed": false
        }
      ],
      "status": "0x1",
      "logsBloom": "0x00000000000000000000000000000000000000000000000000000000000000000000000000000000000000000000000000000000000000000000002000000000000000000000000000000000000000000000000000000000000000000000000000000000000000000000000000000000000000000000000000000008000000000000200000000000000000000000000000000000000080000004000000000800000000000000000000000000000400000000000000000000000000000000000000000000000000000000000000040100000000000000000000000000000000000000000000000000000000000000000000000002000000020000080000000000",
      "type": "0x2",
      "effectiveGasPrice": "0xc194ec64"
    },
    {
      "transactionHash": "0x1de97445d2c561a0c0acbed41dd9de954b6763527a5f032de813c4cc87939611",
      "transactionIndex": "0x8",
      "blockHash": "0xdf13671f7e3fdd68b7dc5354dd2cd111055f776fe68c1ea10168c280744213c8",
      "blockNumber": "0x3de9af",
      "from": "0x42C7eF198f8aC9888E2B1b73e5B71f1D4535194A",
      "to": "0x5402d75d09f893aFC27db89d96021704D5F91dAc",
      "cumulativeGasUsed": "0x29c7ab",
      "gasUsed": "0x1cbc1",
      "contractAddress": null,
      "logs": [],
      "status": "0x1",
      "logsBloom": "0x00000000000000000000000000000000000000000000000000000000000000000000000000000000000000000000000000000000000000000000000000000000000000000000000000000000000000000000000000000000000000000000000000000000000000000000000000000000000000000000000000000000000000000000000000000000000000000000000000000000000000000000000000000000000000000000000000000000000000000000000000000000000000000000000000000000000000000000000000000000000000000000000000000000000000000000000000000000000000000000000000000000000000000000000000000000",
      "type": "0x2",
      "effectiveGasPrice": "0xc194ec64"
    },
    {
      "transactionHash": "0x22a4d5e1ce297341e919539d5c2e2488a36e0cbf64394ef09a5ec798f31a4f29",
      "transactionIndex": "0x9",
      "blockHash": "0xdf13671f7e3fdd68b7dc5354dd2cd111055f776fe68c1ea10168c280744213c8",
      "blockNumber": "0x3de9af",
      "from": "0x42C7eF198f8aC9888E2B1b73e5B71f1D4535194A",
      "to": "0x5402d75d09f893aFC27db89d96021704D5F91dAc",
      "cumulativeGasUsed": "0x2b936c",
      "gasUsed": "0x1cbc1",
      "contractAddress": null,
      "logs": [],
      "status": "0x1",
      "logsBloom": "0x00000000000000000000000000000000000000000000000000000000000000000000000000000000000000000000000000000000000000000000000000000000000000000000000000000000000000000000000000000000000000000000000000000000000000000000000000000000000000000000000000000000000000000000000000000000000000000000000000000000000000000000000000000000000000000000000000000000000000000000000000000000000000000000000000000000000000000000000000000000000000000000000000000000000000000000000000000000000000000000000000000000000000000000000000000000",
      "type": "0x2",
      "effectiveGasPrice": "0xc194ec64"
    },
    {
      "transactionHash": "0x43fc87e4aff69e23ebb551a59a872741d2e998b76b2c4d3e26441528a84f60c0",
      "transactionIndex": "0xa",
      "blockHash": "0xdf13671f7e3fdd68b7dc5354dd2cd111055f776fe68c1ea10168c280744213c8",
      "blockNumber": "0x3de9af",
      "from": "0x42C7eF198f8aC9888E2B1b73e5B71f1D4535194A",
      "to": "0x5402d75d09f893aFC27db89d96021704D5F91dAc",
      "cumulativeGasUsed": "0x2d5f2d",
      "gasUsed": "0x1cbc1",
      "contractAddress": null,
      "logs": [],
      "status": "0x1",
      "logsBloom": "0x00000000000000000000000000000000000000000000000000000000000000000000000000000000000000000000000000000000000000000000000000000000000000000000000000000000000000000000000000000000000000000000000000000000000000000000000000000000000000000000000000000000000000000000000000000000000000000000000000000000000000000000000000000000000000000000000000000000000000000000000000000000000000000000000000000000000000000000000000000000000000000000000000000000000000000000000000000000000000000000000000000000000000000000000000000000",
      "type": "0x2",
      "effectiveGasPrice": "0xc194ec64"
    },
    {
      "transactionHash": "0x03df867c4cdbf9eb2f84fc2d725925a06d8fe1d9c18bd90e7f4c016a864286c5",
      "transactionIndex": "0xb",
      "blockHash": "0xdf13671f7e3fdd68b7dc5354dd2cd111055f776fe68c1ea10168c280744213c8",
      "blockNumber": "0x3de9af",
      "from": "0x42C7eF198f8aC9888E2B1b73e5B71f1D4535194A",
      "to": "0x6bc0BdA0f8bA103059819595a3390AA792C09f81",
      "cumulativeGasUsed": "0x2f2aee",
      "gasUsed": "0x1cbc1",
      "contractAddress": null,
      "logs": [],
      "status": "0x1",
      "logsBloom": "0x00000000000000000000000000000000000000000000000000000000000000000000000000000000000000000000000000000000000000000000000000000000000000000000000000000000000000000000000000000000000000000000000000000000000000000000000000000000000000000000000000000000000000000000000000000000000000000000000000000000000000000000000000000000000000000000000000000000000000000000000000000000000000000000000000000000000000000000000000000000000000000000000000000000000000000000000000000000000000000000000000000000000000000000000000000000",
      "type": "0x2",
      "effectiveGasPrice": "0xc194ec64"
    },
    {
      "transactionHash": "0x84d9790cc41de0196d9f6a8601ecc540ab47247e5a2bd45bcdd4f63ebac6a1c5",
      "transactionIndex": "0xc",
      "blockHash": "0xdf13671f7e3fdd68b7dc5354dd2cd111055f776fe68c1ea10168c280744213c8",
      "blockNumber": "0x3de9af",
      "from": "0x42C7eF198f8aC9888E2B1b73e5B71f1D4535194A",
      "to": "0x6bc0BdA0f8bA103059819595a3390AA792C09f81",
      "cumulativeGasUsed": "0x30f6af",
      "gasUsed": "0x1cbc1",
      "contractAddress": null,
      "logs": [],
      "status": "0x1",
      "logsBloom": "0x00000000000000000000000000000000000000000000000000000000000000000000000000000000000000000000000000000000000000000000000000000000000000000000000000000000000000000000000000000000000000000000000000000000000000000000000000000000000000000000000000000000000000000000000000000000000000000000000000000000000000000000000000000000000000000000000000000000000000000000000000000000000000000000000000000000000000000000000000000000000000000000000000000000000000000000000000000000000000000000000000000000000000000000000000000000",
      "type": "0x2",
      "effectiveGasPrice": "0xc194ec64"
    },
    {
      "transactionHash": "0xaacca2f716d94ab0e11f30cceb1559b0a0a7b113f7305252c472ad2cb7b791fc",
      "transactionIndex": "0xd",
      "blockHash": "0xdf13671f7e3fdd68b7dc5354dd2cd111055f776fe68c1ea10168c280744213c8",
      "blockNumber": "0x3de9af",
      "from": "0x42C7eF198f8aC9888E2B1b73e5B71f1D4535194A",
      "to": "0x6bc0BdA0f8bA103059819595a3390AA792C09f81",
      "cumulativeGasUsed": "0x32c270",
      "gasUsed": "0x1cbc1",
      "contractAddress": null,
      "logs": [],
      "status": "0x1",
      "logsBloom": "0x00000000000000000000000000000000000000000000000000000000000000000000000000000000000000000000000000000000000000000000000000000000000000000000000000000000000000000000000000000000000000000000000000000000000000000000000000000000000000000000000000000000000000000000000000000000000000000000000000000000000000000000000000000000000000000000000000000000000000000000000000000000000000000000000000000000000000000000000000000000000000000000000000000000000000000000000000000000000000000000000000000000000000000000000000000000",
      "type": "0x2",
      "effectiveGasPrice": "0xc194ec64"
    }
  ],
  "libraries": [],
  "pending": [],
  "returns": {},
  "timestamp": 1691615353,
  "chain": 11155111,
  "multi": false,
  "commit": "af42b49"
}