{
  "transactions": [
    {
      "hash": "0xf77cc969fd67916f50be975c196bdc68db9ef71f100b4c519bf782efab52621c",
      "transactionType": "CALL",
      "contractName": "TronicAdmin",
      "contractAddress": "0x9711365AA0b220bE2246081333e52C85d6d1CD1C",
      "function": "deployPartner(string,string,string,string,string,string,string,address):(address,address)",
      "arguments": [
        "Project X",
        "PRJX",
        "https://ipfs.io/ipfs/QmeYWTXaeTRAhurR55nbW5ma4mJdE3hAxFBYxeZC2wnwVK/",
        "Partner X Clone ERC1155",
        "PX1155",
        "https://ipfs.io/ipfs/QmdFRfXc7gmqYv61ywsFdWkUuVktccZ1jkH8eNUBsyCBPf/",
        "PartnerX",
        "0x5b8F11C2c1E33f0857c12Da896bF7c86A8101023"
      ],
      "transaction": {
        "type": "0x02",
        "from": "0x42c7ef198f8ac9888e2b1b73e5b71f1d4535194a",
        "to": "0x9711365aa0b220be2246081333e52c85d6d1cd1c",
        "gas": "0x101910",
        "value": "0x0",
        "data": "0x0140774200000000000000000000000000000000000000000000000000000000000001000000000000000000000000000000000000000000000000000000000000000140000000000000000000000000000000000000000000000000000000000000018000000000000000000000000000000000000000000000000000000000000002000000000000000000000000000000000000000000000000000000000000000240000000000000000000000000000000000000000000000000000000000000028000000000000000000000000000000000000000000000000000000000000003000000000000000000000000005b8f11c2c1e33f0857c12da896bf7c86a8101023000000000000000000000000000000000000000000000000000000000000000950726f6a65637420580000000000000000000000000000000000000000000000000000000000000000000000000000000000000000000000000000000000000450524a5800000000000000000000000000000000000000000000000000000000000000000000000000000000000000000000000000000000000000000000004468747470733a2f2f697066732e696f2f697066732f516d655957545861655452416875725235356e6257356d61346d4a64453368417846425978655a4332776e77564b2f000000000000000000000000000000000000000000000000000000000000000000000000000000000000000000000000000000000000000000000017506172746e6572205820436c6f6e65204552433131353500000000000000000000000000000000000000000000000000000000000000000000000000000000065058313135350000000000000000000000000000000000000000000000000000000000000000000000000000000000000000000000000000000000000000004468747470733a2f2f697066732e696f2f697066732f516d64465266586337676d71597636317977734664576b5575566b7463635a316a6b4838654e55427379434250662f000000000000000000000000000000000000000000000000000000000000000000000000000000000000000000000000000000000000000000000008506172746e657258000000000000000000000000000000000000000000000000",
        "nonce": "0x76",
        "accessList": []
      },
      "additionalContracts": [
        {
          "transactionType": "CREATE",
          "address": "0x7e736a6C1B986Bfbd4078b205b69504d82F1a4E2",
          "initCode": "0x3d602d80600a3d3981f3363d3d373d3d3d363d73e736e095ed70892f8de175585a844cbbace9f9085af43d82803e903d91602b57fd5bf3"
        },
        {
          "transactionType": "CREATE",
          "address": "0xF0752b46318915dD560D76e5822BC8D74c5B1cF6",
          "initCode": "0x3d602d80600a3d3981f3363d3d373d3d3d363d7311d885a98df5bd883b37cbcc405006459d4767815af43d82803e903d91602b57fd5bf3"
        }
      ],
      "isFixedGasLimit": false
    },
    {
      "hash": "0xdf6d2d419eceadaf1043ad97d2d809f34b4f5a7eb3846f364f7cd2d096e4c43d",
      "transactionType": "CALL",
      "contractName": "TronicAdmin",
      "contractAddress": "0x9711365AA0b220bE2246081333e52C85d6d1CD1C",
      "function": "deployPartner(string,string,string,string,string,string,string,address):(address,address)",
      "arguments": [
        "Project Y",
        "PRJY",
        "https://ipfs.io/ipfs/QmVDAzpqk83MEhZQp7xK3yeVrrcfg5gPa7uS5JZH9cQtf2/",
        "Partner Y Clone ERC1155",
        "PY1155",
        "https://ipfs.io/ipfs/QmUU9wdedSCtrZFs5nPSeAggpoXeJ7WNKvtGJJLwa3czqn/",
        "PartnerY",
        "0x5b8F11C2c1E33f0857c12Da896bF7c86A8101023"
      ],
      "transaction": {
        "type": "0x02",
        "from": "0x42c7ef198f8ac9888e2b1b73e5b71f1d4535194a",
        "to": "0x9711365aa0b220be2246081333e52c85d6d1cd1c",
        "gas": "0xed7da",
        "value": "0x0",
        "data": "0x0140774200000000000000000000000000000000000000000000000000000000000001000000000000000000000000000000000000000000000000000000000000000140000000000000000000000000000000000000000000000000000000000000018000000000000000000000000000000000000000000000000000000000000002000000000000000000000000000000000000000000000000000000000000000240000000000000000000000000000000000000000000000000000000000000028000000000000000000000000000000000000000000000000000000000000003000000000000000000000000005b8f11c2c1e33f0857c12da896bf7c86a8101023000000000000000000000000000000000000000000000000000000000000000950726f6a65637420590000000000000000000000000000000000000000000000000000000000000000000000000000000000000000000000000000000000000450524a5900000000000000000000000000000000000000000000000000000000000000000000000000000000000000000000000000000000000000000000004468747470733a2f2f697066732e696f2f697066732f516d5644417a70716b38334d45685a517037784b33796556727263666735675061377553354a5a483963517466322f000000000000000000000000000000000000000000000000000000000000000000000000000000000000000000000000000000000000000000000017506172746e6572205920436c6f6e65204552433131353500000000000000000000000000000000000000000000000000000000000000000000000000000000065059313135350000000000000000000000000000000000000000000000000000000000000000000000000000000000000000000000000000000000000000004468747470733a2f2f697066732e696f2f697066732f516d55553977646564534374725a4673356e505365416767706f58654a37574e4b7674474a4a4c776133637a716e2f000000000000000000000000000000000000000000000000000000000000000000000000000000000000000000000000000000000000000000000008506172746e657259000000000000000000000000000000000000000000000000",
        "nonce": "0x77",
        "accessList": []
      },
      "additionalContracts": [
        {
          "transactionType": "CREATE",
          "address": "0x35742fA8e395F80174B991882dA40190ADD573f1",
          "initCode": "0x3d602d80600a3d3981f3363d3d373d3d3d363d73e736e095ed70892f8de175585a844cbbace9f9085af43d82803e903d91602b57fd5bf3"
        },
        {
          "transactionType": "CREATE",
          "address": "0x808F7F5D7a75fbDd389b1e478a1CEf9A8784e1f3",
          "initCode": "0x3d602d80600a3d3981f3363d3d373d3d3d363d7311d885a98df5bd883b37cbcc405006459d4767815af43d82803e903d91602b57fd5bf3"
        }
      ],
      "isFixedGasLimit": false
    }
  ],
  "receipts": [
    {
      "transactionHash": "0xf77cc969fd67916f50be975c196bdc68db9ef71f100b4c519bf782efab52621c",
      "transactionIndex": "0x1",
      "blockHash": "0xc7c2087b697e1039d2cff357d1e228e07ffaa1420e525e193d9e29a0e6ab988c",
      "blockNumber": "0x401a17",
      "from": "0x42C7eF198f8aC9888E2B1b73e5B71f1D4535194A",
      "to": "0x9711365AA0b220bE2246081333e52C85d6d1CD1C",
      "cumulativeGasUsed": "0xec100",
      "gasUsed": "0xb01db",
      "contractAddress": null,
      "logs": [
        {
          "address": "0x7e736a6C1B986Bfbd4078b205b69504d82F1a4E2",
          "topics": [
            "0xc7f505b2f371ae2175ee4913f4499e1f2633a7b5936321eed1cdaeb6115181d2"
          ],
          "data": "0x0000000000000000000000000000000000000000000000000000000000000001",
          "blockHash": "0xc7c2087b697e1039d2cff357d1e228e07ffaa1420e525e193d9e29a0e6ab988c",
          "blockNumber": "0x401a17",
          "transactionHash": "0xf77cc969fd67916f50be975c196bdc68db9ef71f100b4c519bf782efab52621c",
          "transactionIndex": "0x1",
          "logIndex": "0x1",
          "removed": false
        },
        {
          "address": "0xF0752b46318915dD560D76e5822BC8D74c5B1cF6",
          "topics": [
            "0xc7f505b2f371ae2175ee4913f4499e1f2633a7b5936321eed1cdaeb6115181d2"
          ],
          "data": "0x0000000000000000000000000000000000000000000000000000000000000001",
          "blockHash": "0xc7c2087b697e1039d2cff357d1e228e07ffaa1420e525e193d9e29a0e6ab988c",
          "blockNumber": "0x401a17",
          "transactionHash": "0xf77cc969fd67916f50be975c196bdc68db9ef71f100b4c519bf782efab52621c",
          "transactionIndex": "0x1",
          "logIndex": "0x2",
          "removed": false
        },
        {
          "address": "0x9711365AA0b220bE2246081333e52C85d6d1CD1C",
          "topics": [
            "0xcf16313c216f0bb5fedd6fdbb5531a26a9084db633634cad5f4978284ec08c48",
            "0x0000000000000000000000000000000000000000000000000000000000000000",
            "0x0000000000000000000000007e736a6c1b986bfbd4078b205b69504d82f1a4e2",
            "0x000000000000000000000000f0752b46318915dd560d76e5822bc8d74c5b1cf6"
          ],
          "data": "0x00000000000000000000000000000000000000000000000000000000000000200000000000000000000000000000000000000000000000000000000000000008506172746e657258000000000000000000000000000000000000000000000000",
          "blockHash": "0xc7c2087b697e1039d2cff357d1e228e07ffaa1420e525e193d9e29a0e6ab988c",
          "blockNumber": "0x401a17",
          "transactionHash": "0xf77cc969fd67916f50be975c196bdc68db9ef71f100b4c519bf782efab52621c",
          "transactionIndex": "0x1",
          "logIndex": "0x3",
          "removed": false
        }
      ],
      "status": "0x1",
      "logsBloom": "0x00000000000000021000000100000040000000000000000000020000000000000000080000000004000000000000000000000000000000000004000000000000000000000000000000000000000000000000000000000000000000000000000000000000020000000010000000000800000000000000000000000000000000000000010000100000000800000001000000000000000080010000000000000800000000000028000000000000000000000000000000000000000000000000002000000000000000000000000000000000200000000004000000000000000020000000000000000000000000000000000000000000000000000000000000000000",
      "type": "0x2",
      "effectiveGasPrice": "0x1dd1820cc"
    },
    {
      "transactionHash": "0xdf6d2d419eceadaf1043ad97d2d809f34b4f5a7eb3846f364f7cd2d096e4c43d",
      "transactionIndex": "0x2",
      "blockHash": "0xc7c2087b697e1039d2cff357d1e228e07ffaa1420e525e193d9e29a0e6ab988c",
      "blockNumber": "0x401a17",
      "from": "0x42C7eF198f8aC9888E2B1b73e5B71f1D4535194A",
      "to": "0x9711365AA0b220bE2246081333e52C85d6d1CD1C",
      "cumulativeGasUsed": "0x19800f",
      "gasUsed": "0xabf0f",
      "contractAddress": null,
      "logs": [
        {
          "address": "0x35742fA8e395F80174B991882dA40190ADD573f1",
          "topics": [
            "0xc7f505b2f371ae2175ee4913f4499e1f2633a7b5936321eed1cdaeb6115181d2"
          ],
          "data": "0x0000000000000000000000000000000000000000000000000000000000000001",
          "blockHash": "0xc7c2087b697e1039d2cff357d1e228e07ffaa1420e525e193d9e29a0e6ab988c",
          "blockNumber": "0x401a17",
          "transactionHash": "0xdf6d2d419eceadaf1043ad97d2d809f34b4f5a7eb3846f364f7cd2d096e4c43d",
          "transactionIndex": "0x2",
          "logIndex": "0x4",
          "removed": false
        },
        {
          "address": "0x808F7F5D7a75fbDd389b1e478a1CEf9A8784e1f3",
          "topics": [
            "0xc7f505b2f371ae2175ee4913f4499e1f2633a7b5936321eed1cdaeb6115181d2"
          ],
          "data": "0x0000000000000000000000000000000000000000000000000000000000000001",
          "blockHash": "0xc7c2087b697e1039d2cff357d1e228e07ffaa1420e525e193d9e29a0e6ab988c",
          "blockNumber": "0x401a17",
          "transactionHash": "0xdf6d2d419eceadaf1043ad97d2d809f34b4f5a7eb3846f364f7cd2d096e4c43d",
          "transactionIndex": "0x2",
          "logIndex": "0x5",
          "removed": false
        },
        {
          "address": "0x9711365AA0b220bE2246081333e52C85d6d1CD1C",
          "topics": [
            "0xcf16313c216f0bb5fedd6fdbb5531a26a9084db633634cad5f4978284ec08c48",
            "0x0000000000000000000000000000000000000000000000000000000000000001",
            "0x00000000000000000000000035742fa8e395f80174b991882da40190add573f1",
            "0x000000000000000000000000808f7f5d7a75fbdd389b1e478a1cef9a8784e1f3"
          ],
          "data": "0x00000000000000000000000000000000000000000000000000000000000000200000000000000000000000000000000000000000000000000000000000000008506172746e657259000000000000000000000000000000000000000000000000",
          "blockHash": "0xc7c2087b697e1039d2cff357d1e228e07ffaa1420e525e193d9e29a0e6ab988c",
          "blockNumber": "0x401a17",
          "transactionHash": "0xdf6d2d419eceadaf1043ad97d2d809f34b4f5a7eb3846f364f7cd2d096e4c43d",
          "transactionIndex": "0x2",
          "logIndex": "0x6",
          "removed": false
        }
      ],
      "status": "0x1",
      "logsBloom": "0x00000000000000000000000000000040000004000000000000020004040000000000080000000000000080000000000000000000000000000000000000040000000000000000000000000000000000000000000008040000000000000000000000000000001000000010000000000000000000000000000000000000000000000000400000000000000800000001004000000000000080000000000000000000000000000020000000000000000000001000000000000000000400000000000000000000000000000000000000000000000000000004000000000000000040000000000000000000000000000000000100000000000000000000000000800000",
      "type": "0x2",
      "effectiveGasPrice": "0x1dd1820cc"
    }
  ],
  "libraries": [],
  "pending": [],
  "returns": {},
  "timestamp": 1693529652,
  "chain": 11155111,
  "multi": false,
  "commit": "11bdc2c"
}