{
  "transactions": [
    {
      "hash": "0x8ccc694e6072ccc964d1ed546a9c8e2cc5b39b3d6f3db4e29d623b8e1a64fdc5",
      "transactionType": "CALL",
      "contractName": "CloneFactory",
      "contractAddress": "0xfFc708e5eE0e1c5643c131906f187f3A49f67976",
      "function": "cloneERC721(string,string,string,address):(address)",
      "arguments": [
        "Project X",
        "PRJX",
        "https://ipfs.io/ipfs/QmeYWTXaeTRAhurR55nbW5ma4mJdE3hAxFBYxeZC2wnwVK/",
        "0x42C7eF198f8aC9888E2B1b73e5B71f1D4535194A"
      ],
      "transaction": {
        "type": "0x02",
        "from": "0x42c7ef198f8ac9888e2b1b73e5b71f1d4535194a",
        "to": "0xffc708e5ee0e1c5643c131906f187f3a49f67976",
        "gas": "0x71490",
        "value": "0x0",
        "data": "0x2174a6a5000000000000000000000000000000000000000000000000000000000000008000000000000000000000000000000000000000000000000000000000000000c0000000000000000000000000000000000000000000000000000000000000010000000000000000000000000042c7ef198f8ac9888e2b1b73e5b71f1d4535194a000000000000000000000000000000000000000000000000000000000000000950726f6a65637420580000000000000000000000000000000000000000000000000000000000000000000000000000000000000000000000000000000000000450524a5800000000000000000000000000000000000000000000000000000000000000000000000000000000000000000000000000000000000000000000004468747470733a2f2f697066732e696f2f697066732f516d655957545861655452416875725235356e6257356d61346d4a64453368417846425978655a4332776e77564b2f00000000000000000000000000000000000000000000000000000000",
        "nonce": "0x23",
        "accessList": []
      },
      "additionalContracts": [
        {
          "transactionType": "CREATE",
          "address": "0x355C5484320E7E44E3E2D7F560997c2Edee1aa2a",
          "initCode": "3d602d80600a3d3981f3363d3d373d3d3d363d73381be1c4765aee02fc3cc86c700ab1c4a30fc7c95af43d82803e903d91602b57fd5bf3"
        }
      ],
      "isFixedGasLimit": false
    },
    {
      "hash": "0x8d8fa7906b5d65a475fe9094cae97ff1ebf578bb5abdff3e148aaa1fbde7713d",
      "transactionType": "CALL",
      "contractName": "CloneFactory",
      "contractAddress": "0xfFc708e5eE0e1c5643c131906f187f3A49f67976",
      "function": "cloneERC721(string,string,string,address):(address)",
      "arguments": [
        "Project Y",
        "PRJY",
        "https://ipfs.io/ipfs/QmVDAzpqk83MEhZQp7xK3yeVrrcfg5gPa7uS5JZH9cQtf2/",
        "0x42C7eF198f8aC9888E2B1b73e5B71f1D4535194A"
      ],
      "transaction": {
        "type": "0x02",
        "from": "0x42c7ef198f8ac9888e2b1b73e5b71f1d4535194a",
        "to": "0xffc708e5ee0e1c5643c131906f187f3a49f67976",
        "gas": "0x71490",
        "value": "0x0",
        "data": "0x2174a6a5000000000000000000000000000000000000000000000000000000000000008000000000000000000000000000000000000000000000000000000000000000c0000000000000000000000000000000000000000000000000000000000000010000000000000000000000000042c7ef198f8ac9888e2b1b73e5b71f1d4535194a000000000000000000000000000000000000000000000000000000000000000950726f6a65637420590000000000000000000000000000000000000000000000000000000000000000000000000000000000000000000000000000000000000450524a5900000000000000000000000000000000000000000000000000000000000000000000000000000000000000000000000000000000000000000000004468747470733a2f2f697066732e696f2f697066732f516d5644417a70716b38334d45685a517037784b33796556727263666735675061377553354a5a483963517466322f00000000000000000000000000000000000000000000000000000000",
        "nonce": "0x24",
        "accessList": []
      },
      "additionalContracts": [
        {
          "transactionType": "CREATE",
          "address": "0x8Af661d5F2159133498b317CF79ECAEA725D76cA",
          "initCode": "3d602d80600a3d3981f3363d3d373d3d3d363d73381be1c4765aee02fc3cc86c700ab1c4a30fc7c95af43d82803e903d91602b57fd5bf3"
        }
      ],
      "isFixedGasLimit": false
    },
    {
      "hash": "0xa0c8431bbee993f5005c1f967e387ddbf82e793d7928c6ef335733f4274fe1ca",
      "transactionType": "CALL",
      "contractName": "CloneFactory",
      "contractAddress": "0xfFc708e5eE0e1c5643c131906f187f3A49f67976",
      "function": "cloneERC1155(string,address,string,string):(address)",
      "arguments": [
        "https://ipfs.io/ipfs/QmdFRfXc7gmqYv61ywsFdWkUuVktccZ1jkH8eNUBsyCBPf/",
        "0x42C7eF198f8aC9888E2B1b73e5B71f1D4535194A",
        "Project X Clone ERC1155",
        "PX1155"
      ],
      "transaction": {
        "type": "0x02",
        "from": "0x42c7ef198f8ac9888e2b1b73e5b71f1d4535194a",
        "to": "0xffc708e5ee0e1c5643c131906f187f3a49f67976",
        "gas": "0x66b67",
        "value": "0x0",
        "data": "0xc2ff6fd2000000000000000000000000000000000000000000000000000000000000008000000000000000000000000042c7ef198f8ac9888e2b1b73e5b71f1d4535194a00000000000000000000000000000000000000000000000000000000000001000000000000000000000000000000000000000000000000000000000000000140000000000000000000000000000000000000000000000000000000000000004468747470733a2f2f697066732e696f2f697066732f516d64465266586337676d71597636317977734664576b5575566b7463635a316a6b4838654e55427379434250662f00000000000000000000000000000000000000000000000000000000000000000000000000000000000000000000000000000000000000000000001750726f6a656374205820436c6f6e65204552433131353500000000000000000000000000000000000000000000000000000000000000000000000000000000065058313135350000000000000000000000000000000000000000000000000000",
        "nonce": "0x25",
        "accessList": []
      },
      "additionalContracts": [
        {
          "transactionType": "CREATE",
          "address": "0x84d68Bccf656506A4A874f665e39E10F05C94bA6",
          "initCode": "3d602d80600a3d3981f3363d3d373d3d3d363d73ca9f4a29fc0076a9fd643b549fc760995b47e6f85af43d82803e903d91602b57fd5bf3"
        }
      ],
      "isFixedGasLimit": false
    },
    {
      "hash": "0x0faef92ad664bc96f37b71b8979b13116fd1787b8d660aeaa59c34ad642d1228",
      "transactionType": "CALL",
      "contractName": "CloneFactory",
      "contractAddress": "0xfFc708e5eE0e1c5643c131906f187f3A49f67976",
      "function": "cloneERC1155(string,address,string,string):(address)",
      "arguments": [
        "https://ipfs.io/ipfs/QmUU9wdedSCtrZFs5nPSeAggpoXeJ7WNKvtGJJLwa3czqn/",
        "0x42C7eF198f8aC9888E2B1b73e5B71f1D4535194A",
        "Project Y Clone ERC1155",
        "PY1155"
      ],
      "transaction": {
        "type": "0x02",
        "from": "0x42c7ef198f8ac9888e2b1b73e5b71f1d4535194a",
        "to": "0xffc708e5ee0e1c5643c131906f187f3a49f67976",
        "gas": "0x66b67",
        "value": "0x0",
        "data": "0xc2ff6fd2000000000000000000000000000000000000000000000000000000000000008000000000000000000000000042c7ef198f8ac9888e2b1b73e5b71f1d4535194a00000000000000000000000000000000000000000000000000000000000001000000000000000000000000000000000000000000000000000000000000000140000000000000000000000000000000000000000000000000000000000000004468747470733a2f2f697066732e696f2f697066732f516d55553977646564534374725a4673356e505365416767706f58654a37574e4b7674474a4a4c776133637a716e2f00000000000000000000000000000000000000000000000000000000000000000000000000000000000000000000000000000000000000000000001750726f6a656374205920436c6f6e65204552433131353500000000000000000000000000000000000000000000000000000000000000000000000000000000065059313135350000000000000000000000000000000000000000000000000000",
        "nonce": "0x26",
        "accessList": []
      },
      "additionalContracts": [
        {
          "transactionType": "CREATE",
          "address": "0xF99Fd51D132651189141B4ea443f5fB9D70da2e5",
          "initCode": "3d602d80600a3d3981f3363d3d373d3d3d363d73ca9f4a29fc0076a9fd643b549fc760995b47e6f85af43d82803e903d91602b57fd5bf3"
        }
      ],
      "isFixedGasLimit": false
    },
    {
      "hash": "0xb488b9bef90f274508bf810a5ced5053a70f88a730be7f85983a283872818d3e",
      "transactionType": "CALL",
      "contractName": null,
      "contractAddress": "0x84d68Bccf656506A4A874f665e39E10F05C94bA6",
      "function": "createFungibleType(uint256,string)",
      "arguments": [
        "1",
        "https://ipfs.io/ipfs/QmdFRfXc7gmqYv61ywsFdWkUuVktccZ1jkH8eNUBsyCBPf/1"
      ],
      "transaction": {
        "type": "0x02",
        "from": "0x42c7ef198f8ac9888e2b1b73e5b71f1d4535194a",
        "to": "0x84d68bccf656506a4a874f665e39e10f05c94ba6",
        "gas": "0x2a063",
        "value": "0x0",
        "data": "0x21f9577700000000000000000000000000000000000000000000000000000000000000010000000000000000000000000000000000000000000000000000000000000040000000000000000000000000000000000000000000000000000000000000004568747470733a2f2f697066732e696f2f697066732f516d64465266586337676d71597636317977734664576b5575566b7463635a316a6b4838654e55427379434250662f31000000000000000000000000000000000000000000000000000000",
        "nonce": "0x27",
        "accessList": []
      },
      "additionalContracts": [],
      "isFixedGasLimit": false
    },
    {
      "hash": "0xa2029a7d49edbd35db9cf9a52391b32f5564dcbdf3c97553c8cd4da5e43ce8cb",
      "transactionType": "CALL",
      "contractName": null,
      "contractAddress": "0x84d68Bccf656506A4A874f665e39E10F05C94bA6",
      "function": "createFungibleType(uint256,string)",
      "arguments": [
        "2",
        "https://ipfs.io/ipfs/QmdFRfXc7gmqYv61ywsFdWkUuVktccZ1jkH8eNUBsyCBPf/2"
      ],
      "transaction": {
        "type": "0x02",
        "from": "0x42c7ef198f8ac9888e2b1b73e5b71f1d4535194a",
        "to": "0x84d68bccf656506a4a874f665e39e10f05c94ba6",
        "gas": "0x2a063",
        "value": "0x0",
        "data": "0x21f9577700000000000000000000000000000000000000000000000000000000000000020000000000000000000000000000000000000000000000000000000000000040000000000000000000000000000000000000000000000000000000000000004568747470733a2f2f697066732e696f2f697066732f516d64465266586337676d71597636317977734664576b5575566b7463635a316a6b4838654e55427379434250662f32000000000000000000000000000000000000000000000000000000",
        "nonce": "0x28",
        "accessList": []
      },
      "additionalContracts": [],
      "isFixedGasLimit": false
    },
    {
      "hash": "0x65d4439ac28aaaa9907b03eba586210bfcca2716ebd3c447f3784b3729f55361",
      "transactionType": "CALL",
      "contractName": null,
      "contractAddress": "0x84d68Bccf656506A4A874f665e39E10F05C94bA6",
      "function": "createFungibleType(uint256,string)",
      "arguments": [
        "3",
        "https://ipfs.io/ipfs/QmdFRfXc7gmqYv61ywsFdWkUuVktccZ1jkH8eNUBsyCBPf/3"
      ],
      "transaction": {
        "type": "0x02",
        "from": "0x42c7ef198f8ac9888e2b1b73e5b71f1d4535194a",
        "to": "0x84d68bccf656506a4a874f665e39e10f05c94ba6",
        "gas": "0x2a063",
        "value": "0x0",
        "data": "0x21f9577700000000000000000000000000000000000000000000000000000000000000030000000000000000000000000000000000000000000000000000000000000040000000000000000000000000000000000000000000000000000000000000004568747470733a2f2f697066732e696f2f697066732f516d64465266586337676d71597636317977734664576b5575566b7463635a316a6b4838654e55427379434250662f33000000000000000000000000000000000000000000000000000000",
        "nonce": "0x29",
        "accessList": []
      },
      "additionalContracts": [],
      "isFixedGasLimit": false
    },
    {
      "hash": "0x47081058d51a9d1458ad4a037250643b7053d6ad45076336fdf7d12f84fad108",
      "transactionType": "CALL",
      "contractName": null,
      "contractAddress": "0xF99Fd51D132651189141B4ea443f5fB9D70da2e5",
      "function": "createFungibleType(uint256,string)",
      "arguments": [
        "1",
        "https://ipfs.io/ipfs/QmUU9wdedSCtrZFs5nPSeAggpoXeJ7WNKvtGJJLwa3czqn/1"
      ],
      "transaction": {
        "type": "0x02",
        "from": "0x42c7ef198f8ac9888e2b1b73e5b71f1d4535194a",
        "to": "0xf99fd51d132651189141b4ea443f5fb9d70da2e5",
        "gas": "0x2a063",
        "value": "0x0",
        "data": "0x21f9577700000000000000000000000000000000000000000000000000000000000000010000000000000000000000000000000000000000000000000000000000000040000000000000000000000000000000000000000000000000000000000000004568747470733a2f2f697066732e696f2f697066732f516d55553977646564534374725a4673356e505365416767706f58654a37574e4b7674474a4a4c776133637a716e2f31000000000000000000000000000000000000000000000000000000",
        "nonce": "0x2a",
        "accessList": []
      },
      "additionalContracts": [],
      "isFixedGasLimit": false
    },
    {
      "hash": "0x47391940cf04f65631b70fcd128061aadb1c3a81862e79073c45f1a7259d0dd9",
      "transactionType": "CALL",
      "contractName": null,
      "contractAddress": "0xF99Fd51D132651189141B4ea443f5fB9D70da2e5",
      "function": "createFungibleType(uint256,string)",
      "arguments": [
        "2",
        "https://ipfs.io/ipfs/QmUU9wdedSCtrZFs5nPSeAggpoXeJ7WNKvtGJJLwa3czqn/2"
      ],
      "transaction": {
        "type": "0x02",
        "from": "0x42c7ef198f8ac9888e2b1b73e5b71f1d4535194a",
        "to": "0xf99fd51d132651189141b4ea443f5fb9d70da2e5",
        "gas": "0x2a063",
        "value": "0x0",
        "data": "0x21f9577700000000000000000000000000000000000000000000000000000000000000020000000000000000000000000000000000000000000000000000000000000040000000000000000000000000000000000000000000000000000000000000004568747470733a2f2f697066732e696f2f697066732f516d55553977646564534374725a4673356e505365416767706f58654a37574e4b7674474a4a4c776133637a716e2f32000000000000000000000000000000000000000000000000000000",
        "nonce": "0x2b",
        "accessList": []
      },
      "additionalContracts": [],
      "isFixedGasLimit": false
    },
    {
      "hash": "0x679c43417126af0d11073debfa840e36574366b5e035c14f1dc7a404805f30be",
      "transactionType": "CALL",
      "contractName": null,
      "contractAddress": "0xF99Fd51D132651189141B4ea443f5fB9D70da2e5",
      "function": "createFungibleType(uint256,string)",
      "arguments": [
        "3",
        "https://ipfs.io/ipfs/QmUU9wdedSCtrZFs5nPSeAggpoXeJ7WNKvtGJJLwa3czqn/3"
      ],
      "transaction": {
        "type": "0x02",
        "from": "0x42c7ef198f8ac9888e2b1b73e5b71f1d4535194a",
        "to": "0xf99fd51d132651189141b4ea443f5fb9d70da2e5",
        "gas": "0x2a063",
        "value": "0x0",
        "data": "0x21f9577700000000000000000000000000000000000000000000000000000000000000030000000000000000000000000000000000000000000000000000000000000040000000000000000000000000000000000000000000000000000000000000004568747470733a2f2f697066732e696f2f697066732f516d55553977646564534374725a4673356e505365416767706f58654a37574e4b7674474a4a4c776133637a716e2f33000000000000000000000000000000000000000000000000000000",
        "nonce": "0x2c",
        "accessList": []
      },
      "additionalContracts": [],
      "isFixedGasLimit": false
    }
  ],
  "receipts": [
    {
      "transactionHash": "0x8ccc694e6072ccc964d1ed546a9c8e2cc5b39b3d6f3db4e29d623b8e1a64fdc5",
      "transactionIndex": "0x2",
      "blockHash": "0x5c8c925740a5aeb8596c164d414139894b7bc1be01d854cbb253a1f64edfc0f9",
      "blockNumber": "0x3dcb0c",
      "from": "0x42C7eF198f8aC9888E2B1b73e5B71f1D4535194A",
      "to": "0xfFc708e5eE0e1c5643c131906f187f3A49f67976",
      "cumulativeGasUsed": "0x101148",
      "gasUsed": "0x52048",
      "contractAddress": null,
      "logs": [
        {
          "address": "0x355C5484320E7E44E3E2D7F560997c2Edee1aa2a",
          "topics": [
            "0x7f26b83ff96e1f2b6a682f133852f6798a09c465da95921460cefb3847402498"
          ],
          "data": "0x0000000000000000000000000000000000000000000000000000000000000001",
          "blockHash": "0x5c8c925740a5aeb8596c164d414139894b7bc1be01d854cbb253a1f64edfc0f9",
          "blockNumber": "0x3dcb0c",
          "transactionHash": "0x8ccc694e6072ccc964d1ed546a9c8e2cc5b39b3d6f3db4e29d623b8e1a64fdc5",
          "transactionIndex": "0x2",
          "logIndex": "0x1",
          "removed": false
        },
        {
          "address": "0xfFc708e5eE0e1c5643c131906f187f3A49f67976",
          "topics": [
            "0x3de89afa7ff3be26a41aef997a053b6c635a410036dbe09cbc2394014f034e3a"
          ],
          "data": "0x000000000000000000000000355c5484320e7e44e3e2d7f560997c2edee1aa2a0000000000000000000000000000000000000000000000000000000000000040000000000000000000000000000000000000000000000000000000000000004468747470733a2f2f697066732e696f2f697066732f516d655957545861655452416875725235356e6257356d61346d4a64453368417846425978655a4332776e77564b2f00000000000000000000000000000000000000000000000000000000",
          "blockHash": "0x5c8c925740a5aeb8596c164d414139894b7bc1be01d854cbb253a1f64edfc0f9",
          "blockNumber": "0x3dcb0c",
          "transactionHash": "0x8ccc694e6072ccc964d1ed546a9c8e2cc5b39b3d6f3db4e29d623b8e1a64fdc5",
          "transactionIndex": "0x2",
          "logIndex": "0x2",
          "removed": false
        }
      ],
      "status": "0x1",
      "logsBloom": "0x00000000000000000000001000000000000000000000000000000000000000000000000000000000000000000000000000000000000000000000000000000000000000000000000000000000000000000000000000000000000000000000000000000000000000000000000200000000000000000000000000000000000000000000000000000000000000000000000000000000000080000004000000000000002000000000000000000000000400000000000000400000000000000000000000000000000000000000200000040000000000000000000000000000000000000000000000000000000000100000000000000000000000020000080000000000",
      "type": "0x2",
      "effectiveGasPrice": "0xbebb13e4"
    },
    {
      "transactionHash": "0x8d8fa7906b5d65a475fe9094cae97ff1ebf578bb5abdff3e148aaa1fbde7713d",
      "transactionIndex": "0x3",
      "blockHash": "0x5c8c925740a5aeb8596c164d414139894b7bc1be01d854cbb253a1f64edfc0f9",
      "blockNumber": "0x3dcb0c",
      "from": "0x42C7eF198f8aC9888E2B1b73e5B71f1D4535194A",
      "to": "0xfFc708e5eE0e1c5643c131906f187f3A49f67976",
      "cumulativeGasUsed": "0x153190",
      "gasUsed": "0x52048",
      "contractAddress": null,
      "logs": [
        {
          "address": "0x8Af661d5F2159133498b317CF79ECAEA725D76cA",
          "topics": [
            "0x7f26b83ff96e1f2b6a682f133852f6798a09c465da95921460cefb3847402498"
          ],
          "data": "0x0000000000000000000000000000000000000000000000000000000000000001",
          "blockHash": "0x5c8c925740a5aeb8596c164d414139894b7bc1be01d854cbb253a1f64edfc0f9",
          "blockNumber": "0x3dcb0c",
          "transactionHash": "0x8d8fa7906b5d65a475fe9094cae97ff1ebf578bb5abdff3e148aaa1fbde7713d",
          "transactionIndex": "0x3",
          "logIndex": "0x3",
          "removed": false
        },
        {
          "address": "0xfFc708e5eE0e1c5643c131906f187f3A49f67976",
          "topics": [
            "0x3de89afa7ff3be26a41aef997a053b6c635a410036dbe09cbc2394014f034e3a"
          ],
          "data": "0x0000000000000000000000008af661d5f2159133498b317cf79ecaea725d76ca0000000000000000000000000000000000000000000000000000000000000040000000000000000000000000000000000000000000000000000000000000004468747470733a2f2f697066732e696f2f697066732f516d5644417a70716b38334d45685a517037784b33796556727263666735675061377553354a5a483963517466322f00000000000000000000000000000000000000000000000000000000",
          "blockHash": "0x5c8c925740a5aeb8596c164d414139894b7bc1be01d854cbb253a1f64edfc0f9",
          "blockNumber": "0x3dcb0c",
          "transactionHash": "0x8d8fa7906b5d65a475fe9094cae97ff1ebf578bb5abdff3e148aaa1fbde7713d",
          "transactionIndex": "0x3",
          "logIndex": "0x4",
          "removed": false
        }
      ],
      "status": "0x1",
      "logsBloom": "0x00000000000000000000000000000000000000000000000000000000000000000000000000000000000800000000000000000000000000000000000000000000000000000000000000000000000000000000000000000000000000000000000000000000000000000000000000000000000000000000000000000000000000000000000000000000000000000000000000000000000080000004000000000000002000000000000000000000000400000000000000420000000000000000000000000000000000000000200000040000000000000000000000000000000000000000000000000000000000000000000000000020000000020000080000000000",
      "type": "0x2",
      "effectiveGasPrice": "0xbebb13e4"
    },
    {
      "transactionHash": "0xa0c8431bbee993f5005c1f967e387ddbf82e793d7928c6ef335733f4274fe1ca",
      "transactionIndex": "0x4",
      "blockHash": "0x5c8c925740a5aeb8596c164d414139894b7bc1be01d854cbb253a1f64edfc0f9",
      "blockNumber": "0x3dcb0c",
      "from": "0x42C7eF198f8aC9888E2B1b73e5B71f1D4535194A",
      "to": "0xfFc708e5eE0e1c5643c131906f187f3A49f67976",
      "cumulativeGasUsed": "0x199546",
      "gasUsed": "0x463b6",
      "contractAddress": null,
      "logs": [
        {
          "address": "0x84d68Bccf656506A4A874f665e39E10F05C94bA6",
          "topics": [
            "0x7f26b83ff96e1f2b6a682f133852f6798a09c465da95921460cefb3847402498"
          ],
          "data": "0x0000000000000000000000000000000000000000000000000000000000000001",
          "blockHash": "0x5c8c925740a5aeb8596c164d414139894b7bc1be01d854cbb253a1f64edfc0f9",
          "blockNumber": "0x3dcb0c",
          "transactionHash": "0xa0c8431bbee993f5005c1f967e387ddbf82e793d7928c6ef335733f4274fe1ca",
          "transactionIndex": "0x4",
          "logIndex": "0x5",
          "removed": false
        },
        {
          "address": "0xfFc708e5eE0e1c5643c131906f187f3A49f67976",
          "topics": [
            "0x3de89afa7ff3be26a41aef997a053b6c635a410036dbe09cbc2394014f034e3a"
          ],
          "data": "0x00000000000000000000000084d68bccf656506a4a874f665e39e10f05c94ba60000000000000000000000000000000000000000000000000000000000000040000000000000000000000000000000000000000000000000000000000000004468747470733a2f2f697066732e696f2f697066732f516d64465266586337676d71597636317977734664576b5575566b7463635a316a6b4838654e55427379434250662f00000000000000000000000000000000000000000000000000000000",
          "blockHash": "0x5c8c925740a5aeb8596c164d414139894b7bc1be01d854cbb253a1f64edfc0f9",
          "blockNumber": "0x3dcb0c",
          "transactionHash": "0xa0c8431bbee993f5005c1f967e387ddbf82e793d7928c6ef335733f4274fe1ca",
          "transactionIndex": "0x4",
          "logIndex": "0x6",
          "removed": false
        }
      ],
      "status": "0x1",
      "logsBloom": "0x00000000000000000000000000000000000000020000000000000000000000000000000000000000000000000000000000000000000000000000000000000000000000000000000000000000000000000000000000000000000000000000000000000000000000000000000000000000000000000000000000000000000000000000000000000000000000000000000000000000000080000004001000000000002200000000000000000000000400000000000000400000000000000000000000000000000000000000200000040000000000000000000000000000000000000000000000000000000000000000000000000000000000020000080000000000",
      "type": "0x2",
      "effectiveGasPrice": "0xbebb13e4"
    },
    {
      "transactionHash": "0x0faef92ad664bc96f37b71b8979b13116fd1787b8d660aeaa59c34ad642d1228",
      "transactionIndex": "0x5",
      "blockHash": "0x5c8c925740a5aeb8596c164d414139894b7bc1be01d854cbb253a1f64edfc0f9",
      "blockNumber": "0x3dcb0c",
      "from": "0x42C7eF198f8aC9888E2B1b73e5B71f1D4535194A",
      "to": "0xfFc708e5eE0e1c5643c131906f187f3A49f67976",
      "cumulativeGasUsed": "0x1df8fc",
      "gasUsed": "0x463b6",
      "contractAddress": null,
      "logs": [
        {
          "address": "0xF99Fd51D132651189141B4ea443f5fB9D70da2e5",
          "topics": [
            "0x7f26b83ff96e1f2b6a682f133852f6798a09c465da95921460cefb3847402498"
          ],
          "data": "0x0000000000000000000000000000000000000000000000000000000000000001",
          "blockHash": "0x5c8c925740a5aeb8596c164d414139894b7bc1be01d854cbb253a1f64edfc0f9",
          "blockNumber": "0x3dcb0c",
          "transactionHash": "0x0faef92ad664bc96f37b71b8979b13116fd1787b8d660aeaa59c34ad642d1228",
          "transactionIndex": "0x5",
          "logIndex": "0x7",
          "removed": false
        },
        {
          "address": "0xfFc708e5eE0e1c5643c131906f187f3A49f67976",
          "topics": [
            "0x3de89afa7ff3be26a41aef997a053b6c635a410036dbe09cbc2394014f034e3a"
          ],
          "data": "0x000000000000000000000000f99fd51d132651189141b4ea443f5fb9d70da2e50000000000000000000000000000000000000000000000000000000000000040000000000000000000000000000000000000000000000000000000000000004468747470733a2f2f697066732e696f2f697066732f516d55553977646564534374725a4673356e505365416767706f58654a37574e4b7674474a4a4c776133637a716e2f00000000000000000000000000000000000000000000000000000000",
          "blockHash": "0x5c8c925740a5aeb8596c164d414139894b7bc1be01d854cbb253a1f64edfc0f9",
          "blockNumber": "0x3dcb0c",
          "transactionHash": "0x0faef92ad664bc96f37b71b8979b13116fd1787b8d660aeaa59c34ad642d1228",
          "transactionIndex": "0x5",
          "logIndex": "0x8",
          "removed": false
        }
      ],
      "status": "0x1",
      "logsBloom": "0x00000000000000000000000000000000000000000000000000000000000000000000000000000000000000000000000000000000000000000000000000000000000000000000000000000000000000000000000000000000000000000000000000000000000000000000000000000000000000000000000000000000000000000000000400000000000000000000000000000000000080000004000000000000042000000000000000000000000400000000000000400000000000000000000000000000000100000000200000040000000000000000000000000000000000000000000000000000000000000000000000000000000000020000080000000000",
      "type": "0x2",
      "effectiveGasPrice": "0xbebb13e4"
    },
    {
      "transactionHash": "0xb488b9bef90f274508bf810a5ced5053a70f88a730be7f85983a283872818d3e",
      "transactionIndex": "0x6",
      "blockHash": "0x5c8c925740a5aeb8596c164d414139894b7bc1be01d854cbb253a1f64edfc0f9",
      "blockNumber": "0x3dcb0c",
      "from": "0x42C7eF198f8aC9888E2B1b73e5B71f1D4535194A",
      "to": "0x84d68Bccf656506A4A874f665e39E10F05C94bA6",
      "cumulativeGasUsed": "0x1fc4bd",
      "gasUsed": "0x1cbc1",
      "contractAddress": null,
      "logs": [],
      "status": "0x1",
      "logsBloom": "0x00000000000000000000000000000000000000000000000000000000000000000000000000000000000000000000000000000000000000000000000000000000000000000000000000000000000000000000000000000000000000000000000000000000000000000000000000000000000000000000000000000000000000000000000000000000000000000000000000000000000000000000000000000000000000000000000000000000000000000000000000000000000000000000000000000000000000000000000000000000000000000000000000000000000000000000000000000000000000000000000000000000000000000000000000000000",
      "type": "0x2",
      "effectiveGasPrice": "0xbebb13e4"
    },
    {
      "transactionHash": "0xa2029a7d49edbd35db9cf9a52391b32f5564dcbdf3c97553c8cd4da5e43ce8cb",
      "transactionIndex": "0x7",
      "blockHash": "0x5c8c925740a5aeb8596c164d414139894b7bc1be01d854cbb253a1f64edfc0f9",
      "blockNumber": "0x3dcb0c",
      "from": "0x42C7eF198f8aC9888E2B1b73e5B71f1D4535194A",
      "to": "0x84d68Bccf656506A4A874f665e39E10F05C94bA6",
      "cumulativeGasUsed": "0x21907e",
      "gasUsed": "0x1cbc1",
      "contractAddress": null,
      "logs": [],
      "status": "0x1",
      "logsBloom": "0x00000000000000000000000000000000000000000000000000000000000000000000000000000000000000000000000000000000000000000000000000000000000000000000000000000000000000000000000000000000000000000000000000000000000000000000000000000000000000000000000000000000000000000000000000000000000000000000000000000000000000000000000000000000000000000000000000000000000000000000000000000000000000000000000000000000000000000000000000000000000000000000000000000000000000000000000000000000000000000000000000000000000000000000000000000000",
      "type": "0x2",
      "effectiveGasPrice": "0xbebb13e4"
    },
    {
      "transactionHash": "0x65d4439ac28aaaa9907b03eba586210bfcca2716ebd3c447f3784b3729f55361",
      "transactionIndex": "0x8",
      "blockHash": "0x5c8c925740a5aeb8596c164d414139894b7bc1be01d854cbb253a1f64edfc0f9",
      "blockNumber": "0x3dcb0c",
      "from": "0x42C7eF198f8aC9888E2B1b73e5B71f1D4535194A",
      "to": "0x84d68Bccf656506A4A874f665e39E10F05C94bA6",
      "cumulativeGasUsed": "0x235c3f",
      "gasUsed": "0x1cbc1",
      "contractAddress": null,
      "logs": [],
      "status": "0x1",
      "logsBloom": "0x00000000000000000000000000000000000000000000000000000000000000000000000000000000000000000000000000000000000000000000000000000000000000000000000000000000000000000000000000000000000000000000000000000000000000000000000000000000000000000000000000000000000000000000000000000000000000000000000000000000000000000000000000000000000000000000000000000000000000000000000000000000000000000000000000000000000000000000000000000000000000000000000000000000000000000000000000000000000000000000000000000000000000000000000000000000",
      "type": "0x2",
      "effectiveGasPrice": "0xbebb13e4"
    },
    {
      "transactionHash": "0x47081058d51a9d1458ad4a037250643b7053d6ad45076336fdf7d12f84fad108",
      "transactionIndex": "0x9",
      "blockHash": "0x5c8c925740a5aeb8596c164d414139894b7bc1be01d854cbb253a1f64edfc0f9",
      "blockNumber": "0x3dcb0c",
      "from": "0x42C7eF198f8aC9888E2B1b73e5B71f1D4535194A",
      "to": "0xF99Fd51D132651189141B4ea443f5fB9D70da2e5",
      "cumulativeGasUsed": "0x252800",
      "gasUsed": "0x1cbc1",
      "contractAddress": null,
      "logs": [],
      "status": "0x1",
      "logsBloom": "0x00000000000000000000000000000000000000000000000000000000000000000000000000000000000000000000000000000000000000000000000000000000000000000000000000000000000000000000000000000000000000000000000000000000000000000000000000000000000000000000000000000000000000000000000000000000000000000000000000000000000000000000000000000000000000000000000000000000000000000000000000000000000000000000000000000000000000000000000000000000000000000000000000000000000000000000000000000000000000000000000000000000000000000000000000000000",
      "type": "0x2",
      "effectiveGasPrice": "0xbebb13e4"
    },
    {
      "transactionHash": "0x47391940cf04f65631b70fcd128061aadb1c3a81862e79073c45f1a7259d0dd9",
      "transactionIndex": "0xa",
      "blockHash": "0x5c8c925740a5aeb8596c164d414139894b7bc1be01d854cbb253a1f64edfc0f9",
      "blockNumber": "0x3dcb0c",
      "from": "0x42C7eF198f8aC9888E2B1b73e5B71f1D4535194A",
      "to": "0xF99Fd51D132651189141B4ea443f5fB9D70da2e5",
      "cumulativeGasUsed": "0x26f3c1",
      "gasUsed": "0x1cbc1",
      "contractAddress": null,
      "logs": [],
      "status": "0x1",
      "logsBloom": "0x00000000000000000000000000000000000000000000000000000000000000000000000000000000000000000000000000000000000000000000000000000000000000000000000000000000000000000000000000000000000000000000000000000000000000000000000000000000000000000000000000000000000000000000000000000000000000000000000000000000000000000000000000000000000000000000000000000000000000000000000000000000000000000000000000000000000000000000000000000000000000000000000000000000000000000000000000000000000000000000000000000000000000000000000000000000",
      "type": "0x2",
      "effectiveGasPrice": "0xbebb13e4"
    },
    {
      "transactionHash": "0x679c43417126af0d11073debfa840e36574366b5e035c14f1dc7a404805f30be",
      "transactionIndex": "0xb",
      "blockHash": "0x5c8c925740a5aeb8596c164d414139894b7bc1be01d854cbb253a1f64edfc0f9",
      "blockNumber": "0x3dcb0c",
      "from": "0x42C7eF198f8aC9888E2B1b73e5B71f1D4535194A",
      "to": "0xF99Fd51D132651189141B4ea443f5fB9D70da2e5",
      "cumulativeGasUsed": "0x28bf82",
      "gasUsed": "0x1cbc1",
      "contractAddress": null,
      "logs": [],
      "status": "0x1",
      "logsBloom": "0x00000000000000000000000000000000000000000000000000000000000000000000000000000000000000000000000000000000000000000000000000000000000000000000000000000000000000000000000000000000000000000000000000000000000000000000000000000000000000000000000000000000000000000000000000000000000000000000000000000000000000000000000000000000000000000000000000000000000000000000000000000000000000000000000000000000000000000000000000000000000000000000000000000000000000000000000000000000000000000000000000000000000000000000000000000000",
      "type": "0x2",
      "effectiveGasPrice": "0xbebb13e4"
    }
  ],
  "libraries": [],
  "pending": [],
  "returns": {},
  "timestamp": 1691511867,
  "chain": 11155111,
  "multi": false,
  "commit": "b6d6374"
}