{
  "transactions": [
    {
      "hash": "0xd2809d19a904ca2c6bdec882c30090a2cadd8a00c11159962b6e4e48ae2e3c10",
      "transactionType": "CALL",
      "contractName": "ERC721CloneableTBA",
      "contractAddress": "0xe22CdB0145301d107F244bC8eA33080C42556cB1",
      "function": "mint(address,uint256):(address)",
      "arguments": [
        "0x42C7eF198f8aC9888E2B1b73e5B71f1D4535194A",
        "1"
      ],
      "transaction": {
        "type": "0x02",
        "from": "0x42c7ef198f8ac9888e2b1b73e5b71f1d4535194a",
        "to": "0xe22cdb0145301d107f244bc8ea33080c42556cb1",
        "gas": "0x4fe0e",
        "value": "0x0",
        "data": "0x40c10f1900000000000000000000000042c7ef198f8ac9888e2b1b73e5b71f1d4535194a0000000000000000000000000000000000000000000000000000000000000001",
        "nonce": "0xe4",
        "accessList": []
      },
      "additionalContracts": [
        {
          "transactionType": "CREATE2",
          "address": "0x68e65ccf569EaC9F2c79ABc81915919b61fa54bD",
          "initCode": "3d60ad80600a3d3981f3363d3d373d3d3d363d732d25602551487c3f3354dd80d76d54383a2433585af43d82803e903d91602b57fd5bf300000000000000000000000000000000000000000000000000000000000000000000000000000000000000000000000000000000000000000000000000000005000000000000000000000000e22cdb0145301d107f244bc8ea33080c42556cb10000000000000000000000000000000000000000000000000000000000000001"
        }
      ],
      "isFixedGasLimit": false
    }
  ],
  "receipts": [],
  "libraries": [],
  "pending": [
    "0xd2809d19a904ca2c6bdec882c30090a2cadd8a00c11159962b6e4e48ae2e3c10"
  ],
  "returns": {},
  "timestamp": 1691260037,
  "chain": 5,
  "multi": false,
  "commit": "e1e2596"
}