{
  "transactions": [
    {
      "hash": "0xd2809d19a904ca2c6bdec882c30090a2cadd8a00c11159962b6e4e48ae2e3c10",
      "transactionType": "CALL",
      "contractName": "ERC721CloneableTBA",
      "contractAddress": "0xe22CdB0145301d107F244bC8eA33080C42556cB1",
      "function": "mint(address,uint256):(address)",
      "arguments": [
        "0x42C7eF198f8aC9888E2B1b73e5B71f1D4535194A",
        "1"
      ],
      "transaction": {
        "type": "0x02",
        "from": "0x42c7ef198f8ac9888e2b1b73e5b71f1d4535194a",
        "to": "0xe22cdb0145301d107f244bc8ea33080c42556cb1",
        "gas": "0x4fe0e",
        "value": "0x0",
        "data": "0x40c10f1900000000000000000000000042c7ef198f8ac9888e2b1b73e5b71f1d4535194a0000000000000000000000000000000000000000000000000000000000000001",
        "nonce": "0xe4",
        "accessList": []
      },
      "additionalContracts": [
        {
          "transactionType": "CREATE2",
          "address": "0x68e65ccf569EaC9F2c79ABc81915919b61fa54bD",
          "initCode": "3d60ad80600a3d3981f3363d3d373d3d3d363d732d25602551487c3f3354dd80d76d54383a2433585af43d82803e903d91602b57fd5bf300000000000000000000000000000000000000000000000000000000000000000000000000000000000000000000000000000000000000000000000000000005000000000000000000000000e22cdb0145301d107f244bc8ea33080c42556cb10000000000000000000000000000000000000000000000000000000000000001"
        }
      ],
      "isFixedGasLimit": false
    }
  ],
  "receipts": [
    {
      "transactionHash": "0xd2809d19a904ca2c6bdec882c30090a2cadd8a00c11159962b6e4e48ae2e3c10",
      "transactionIndex": "0x1",
      "blockHash": "0x3e817c73fd59eb51c0d3d93c0ed348354e8128941c665a90879d5e6029b1ad89",
      "blockNumber": "0x907839",
      "from": "0x42C7eF198f8aC9888E2B1b73e5B71f1D4535194A",
      "to": "0xe22CdB0145301d107F244bC8eA33080C42556cB1",
      "cumulativeGasUsed": "0x13f84a",
      "gasUsed": "0x369ef",
      "contractAddress": null,
      "logs": [
        {
          "address": "0x02101dfB77FDE026414827Fdc604ddAF224F0921",
          "topics": [
            "0x07fba7bba1191da7ee1155dcfa0030701c9c9a9cc34a93b991fc6fd0c9268d8f"
          ],
          "data": "0x00000000000000000000000068e65ccf569eac9f2c79abc81915919b61fa54bd0000000000000000000000002d25602551487c3f3354dd80d76d54383a2433580000000000000000000000000000000000000000000000000000000000000005000000000000000000000000e22cdb0145301d107f244bc8ea33080c42556cb100000000000000000000000000000000000000000000000000000000000000010000000000000000000000000000000000000000000000000000000000000000",
          "blockHash": "0x3e817c73fd59eb51c0d3d93c0ed348354e8128941c665a90879d5e6029b1ad89",
          "blockNumber": "0x907839",
          "transactionHash": "0xd2809d19a904ca2c6bdec882c30090a2cadd8a00c11159962b6e4e48ae2e3c10",
          "transactionIndex": "0x1",
          "logIndex": "0x0",
          "removed": false
        },
        {
          "address": "0xe22CdB0145301d107F244bC8eA33080C42556cB1",
          "topics": [
            "0xddf252ad1be2c89b69c2b068fc378daa952ba7f163c4a11628f55a4df523b3ef",
            "0x0000000000000000000000000000000000000000000000000000000000000000",
            "0x00000000000000000000000042c7ef198f8ac9888e2b1b73e5b71f1d4535194a",
            "0x0000000000000000000000000000000000000000000000000000000000000001"
          ],
          "data": "0x",
          "blockHash": "0x3e817c73fd59eb51c0d3d93c0ed348354e8128941c665a90879d5e6029b1ad89",
          "blockNumber": "0x907839",
          "transactionHash": "0xd2809d19a904ca2c6bdec882c30090a2cadd8a00c11159962b6e4e48ae2e3c10",
          "transactionIndex": "0x1",
          "logIndex": "0x1",
          "removed": false
        }
      ],
      "status": "0x1",
      "logsBloom": "0x00000000000000000000000000000000000000000000000000000000000000000000000000000000000000000000000000200000000000000000000000040002000000000000000100000008000000000000000000040000000000000001800000000000020000000000000000000800000000000000000000000010000000000000000000000000000000000200000000000000000000000000000000000000000000000000000000800000000000000000000000000000000000000000000000000002000000000000000000000000000000800000000000080000000060000000001000000000000000000400000000000000000000000000002000000000",
      "type": "0x2",
      "effectiveGasPrice": "0xb2d05e13"
    }
  ],
  "libraries": [],
  "pending": [],
  "returns": {},
  "timestamp": 1691260049,
  "chain": 5,
  "multi": false,
  "commit": "e1e2596"
}