{
  "transactions": [
    {
      "hash": "0x2a04c838bd836942f8fe5e7be07b67a236ec3b341d9497665b3869154fc77117",
      "transactionType": "CALL",
      "contractName": "TronicMain",
      "contractAddress": "0xfEfbE525f9Cd75E026B7bfE2d51f861aE82f00cA",
      "function": "deployMembership(string,string,string,uint256,bool,bool):(uint256,address,address)",
      "arguments": [
        "Membership X ERC721",
        "MX721",
        "https://ipfs.io/ipfs/QmeYWTXaeTRAhurR55nbW5ma4mJdE3hAxFBYxeZC2wnwVK/",
        "10000",
        "false",
        "false"
      ],
      "transaction": {
        "type": "0x02",
        "from": "0xddddf33b5301b9479cdcbcfff22946e9b54ea76d",
        "to": "0xfefbe525f9cd75e026b7bfe2d51f861ae82f00ca",
        "gas": "0xd805a",
        "value": "0x0",
        "data": "0xbe8a7a4300000000000000000000000000000000000000000000000000000000000000c00000000000000000000000000000000000000000000000000000000000000100000000000000000000000000000000000000000000000000000000000000014000000000000000000000000000000000000000000000000000000000000027100000000000000000000000000000000000000000000000000000000000000000000000000000000000000000000000000000000000000000000000000000000000000000000000000000000000000000000000000000000000000000000000134d656d626572736869702058204552433732310000000000000000000000000000000000000000000000000000000000000000000000000000000000000000054d58373231000000000000000000000000000000000000000000000000000000000000000000000000000000000000000000000000000000000000000000004468747470733a2f2f697066732e696f2f697066732f516d655957545861655452416875725235356e6257356d61346d4a64453368417846425978655a4332776e77564b2f00000000000000000000000000000000000000000000000000000000",
        "nonce": "0xe",
        "accessList": []
      },
      "additionalContracts": [
        {
          "transactionType": "CREATE",
          "address": "0x1d2aAb95192632674BA7CBf8c0105D8782fb9897",
          "initCode": "0x3d602d80600a3d3981f3363d3d373d3d3d363d73b5c837fd932fbed9ef38203aad6f07dc5a35272c5af43d82803e903d91602b57fd5bf3"
        },
        {
          "transactionType": "CREATE",
          "address": "0x9Eb6A0742c70A0Fc5288fB897eAb8A0aC1B651d4",
          "initCode": "0x3d602d80600a3d3981f3363d3d373d3d3d363d73db02312ef6d6ec9c24fc77a18d1f91a7ef796a075af43d82803e903d91602b57fd5bf3"
        }
      ],
      "isFixedGasLimit": false
    },
    {
      "hash": "0xce60f3c750d280c6e0db01e4ccbcebda31602356422c55db5c48cd796c907efa",
      "transactionType": "CALL",
      "contractName": "TronicMain",
      "contractAddress": "0xfEfbE525f9Cd75E026B7bfE2d51f861aE82f00cA",
      "function": "deployMembership(string,string,string,uint256,bool,bool):(uint256,address,address)",
      "arguments": [
        "Membership Y ERC721",
        "MY721",
        "https://ipfs.io/ipfs/QmVDAzpqk83MEhZQp7xK3yeVrrcfg5gPa7uS5JZH9cQtf2/",
        "10000",
        "false",
        "false"
      ],
      "transaction": {
        "type": "0x02",
        "from": "0xddddf33b5301b9479cdcbcfff22946e9b54ea76d",
        "to": "0xfefbe525f9cd75e026b7bfe2d51f861ae82f00ca",
        "gas": "0xc6412",
        "value": "0x0",
        "data": "0xbe8a7a4300000000000000000000000000000000000000000000000000000000000000c00000000000000000000000000000000000000000000000000000000000000100000000000000000000000000000000000000000000000000000000000000014000000000000000000000000000000000000000000000000000000000000027100000000000000000000000000000000000000000000000000000000000000000000000000000000000000000000000000000000000000000000000000000000000000000000000000000000000000000000000000000000000000000000000134d656d626572736869702059204552433732310000000000000000000000000000000000000000000000000000000000000000000000000000000000000000054d59373231000000000000000000000000000000000000000000000000000000000000000000000000000000000000000000000000000000000000000000004468747470733a2f2f697066732e696f2f697066732f516d5644417a70716b38334d45685a517037784b33796556727263666735675061377553354a5a483963517466322f00000000000000000000000000000000000000000000000000000000",
        "nonce": "0xf",
        "accessList": []
      },
      "additionalContracts": [
        {
          "transactionType": "CREATE",
          "address": "0xc5a11d5FF21C987908F95495BF12B404E551F225",
          "initCode": "0x3d602d80600a3d3981f3363d3d373d3d3d363d73b5c837fd932fbed9ef38203aad6f07dc5a35272c5af43d82803e903d91602b57fd5bf3"
        },
        {
          "transactionType": "CREATE",
          "address": "0x2AF8B8bE90A38E5Fb6c94A5043c942a4ffe3A658",
          "initCode": "0x3d602d80600a3d3981f3363d3d373d3d3d363d73db02312ef6d6ec9c24fc77a18d1f91a7ef796a075af43d82803e903d91602b57fd5bf3"
        }
      ],
      "isFixedGasLimit": false
    }
  ],
  "receipts": [],
  "libraries": [],
  "pending": [
    "0x2a04c838bd836942f8fe5e7be07b67a236ec3b341d9497665b3869154fc77117",
    "0xce60f3c750d280c6e0db01e4ccbcebda31602356422c55db5c48cd796c907efa"
  ],
  "returns": {},
  "timestamp": 1695758256,
  "chain": 80001,
  "multi": false,
  "commit": "04215ea"
}