{
  "transactions": [
    {
      "hash": "0x2a04c838bd836942f8fe5e7be07b67a236ec3b341d9497665b3869154fc77117",
      "transactionType": "CALL",
      "contractName": "TronicMain",
      "contractAddress": "0xfEfbE525f9Cd75E026B7bfE2d51f861aE82f00cA",
      "function": "deployMembership(string,string,string,uint256,bool,bool):(uint256,address,address)",
      "arguments": [
        "Membership X ERC721",
        "MX721",
        "https://ipfs.io/ipfs/QmeYWTXaeTRAhurR55nbW5ma4mJdE3hAxFBYxeZC2wnwVK/",
        "10000",
        "false",
        "false"
      ],
      "transaction": {
        "type": "0x02",
        "from": "0xddddf33b5301b9479cdcbcfff22946e9b54ea76d",
        "to": "0xfefbe525f9cd75e026b7bfe2d51f861ae82f00ca",
        "gas": "0xd805a",
        "value": "0x0",
        "data": "0xbe8a7a4300000000000000000000000000000000000000000000000000000000000000c00000000000000000000000000000000000000000000000000000000000000100000000000000000000000000000000000000000000000000000000000000014000000000000000000000000000000000000000000000000000000000000027100000000000000000000000000000000000000000000000000000000000000000000000000000000000000000000000000000000000000000000000000000000000000000000000000000000000000000000000000000000000000000000000134d656d626572736869702058204552433732310000000000000000000000000000000000000000000000000000000000000000000000000000000000000000054d58373231000000000000000000000000000000000000000000000000000000000000000000000000000000000000000000000000000000000000000000004468747470733a2f2f697066732e696f2f697066732f516d655957545861655452416875725235356e6257356d61346d4a64453368417846425978655a4332776e77564b2f00000000000000000000000000000000000000000000000000000000",
        "nonce": "0xe",
        "accessList": []
      },
      "additionalContracts": [
        {
          "transactionType": "CREATE",
          "address": "0x1d2aAb95192632674BA7CBf8c0105D8782fb9897",
          "initCode": "0x3d602d80600a3d3981f3363d3d373d3d3d363d73b5c837fd932fbed9ef38203aad6f07dc5a35272c5af43d82803e903d91602b57fd5bf3"
        },
        {
          "transactionType": "CREATE",
          "address": "0x9Eb6A0742c70A0Fc5288fB897eAb8A0aC1B651d4",
          "initCode": "0x3d602d80600a3d3981f3363d3d373d3d3d363d73db02312ef6d6ec9c24fc77a18d1f91a7ef796a075af43d82803e903d91602b57fd5bf3"
        }
      ],
      "isFixedGasLimit": false
    },
    {
      "hash": "0xce60f3c750d280c6e0db01e4ccbcebda31602356422c55db5c48cd796c907efa",
      "transactionType": "CALL",
      "contractName": "TronicMain",
      "contractAddress": "0xfEfbE525f9Cd75E026B7bfE2d51f861aE82f00cA",
      "function": "deployMembership(string,string,string,uint256,bool,bool):(uint256,address,address)",
      "arguments": [
        "Membership Y ERC721",
        "MY721",
        "https://ipfs.io/ipfs/QmVDAzpqk83MEhZQp7xK3yeVrrcfg5gPa7uS5JZH9cQtf2/",
        "10000",
        "false",
        "false"
      ],
      "transaction": {
        "type": "0x02",
        "from": "0xddddf33b5301b9479cdcbcfff22946e9b54ea76d",
        "to": "0xfefbe525f9cd75e026b7bfe2d51f861ae82f00ca",
        "gas": "0xc6412",
        "value": "0x0",
        "data": "0xbe8a7a4300000000000000000000000000000000000000000000000000000000000000c00000000000000000000000000000000000000000000000000000000000000100000000000000000000000000000000000000000000000000000000000000014000000000000000000000000000000000000000000000000000000000000027100000000000000000000000000000000000000000000000000000000000000000000000000000000000000000000000000000000000000000000000000000000000000000000000000000000000000000000000000000000000000000000000134d656d626572736869702059204552433732310000000000000000000000000000000000000000000000000000000000000000000000000000000000000000054d59373231000000000000000000000000000000000000000000000000000000000000000000000000000000000000000000000000000000000000000000004468747470733a2f2f697066732e696f2f697066732f516d5644417a70716b38334d45685a517037784b33796556727263666735675061377553354a5a483963517466322f00000000000000000000000000000000000000000000000000000000",
        "nonce": "0xf",
        "accessList": []
      },
      "additionalContracts": [
        {
          "transactionType": "CREATE",
          "address": "0xc5a11d5FF21C987908F95495BF12B404E551F225",
          "initCode": "0x3d602d80600a3d3981f3363d3d373d3d3d363d73b5c837fd932fbed9ef38203aad6f07dc5a35272c5af43d82803e903d91602b57fd5bf3"
        },
        {
          "transactionType": "CREATE",
          "address": "0x2AF8B8bE90A38E5Fb6c94A5043c942a4ffe3A658",
          "initCode": "0x3d602d80600a3d3981f3363d3d373d3d3d363d73db02312ef6d6ec9c24fc77a18d1f91a7ef796a075af43d82803e903d91602b57fd5bf3"
        }
      ],
      "isFixedGasLimit": false
    }
  ],
  "receipts": [
    {
      "transactionHash": "0x2a04c838bd836942f8fe5e7be07b67a236ec3b341d9497665b3869154fc77117",
      "transactionIndex": "0x1",
      "blockHash": "0x0b35b17cc950ca2e5ecd4076104dc5b1814e3a8f16affcfd04c8d6999ecf9023",
      "blockNumber": "0x26abcc8",
      "from": "0xdddDF33B5301b9479cdcbCfff22946E9B54eA76d",
      "to": "0xfEfbE525f9Cd75E026B7bfE2d51f861aE82f00cA",
      "cumulativeGasUsed": "0xa953d",
      "gasUsed": "0x93b52",
      "contractAddress": null,
      "logs": [
        {
          "address": "0x1d2aAb95192632674BA7CBf8c0105D8782fb9897",
          "topics": [
            "0xc7f505b2f371ae2175ee4913f4499e1f2633a7b5936321eed1cdaeb6115181d2"
          ],
          "data": "0x0000000000000000000000000000000000000000000000000000000000000001",
          "blockHash": "0x0b35b17cc950ca2e5ecd4076104dc5b1814e3a8f16affcfd04c8d6999ecf9023",
          "blockNumber": "0x26abcc8",
          "transactionHash": "0x2a04c838bd836942f8fe5e7be07b67a236ec3b341d9497665b3869154fc77117",
          "transactionIndex": "0x1",
          "logIndex": "0x4",
          "removed": false
        },
        {
          "address": "0x9Eb6A0742c70A0Fc5288fB897eAb8A0aC1B651d4",
          "topics": [
            "0xc7f505b2f371ae2175ee4913f4499e1f2633a7b5936321eed1cdaeb6115181d2"
          ],
          "data": "0x0000000000000000000000000000000000000000000000000000000000000001",
          "blockHash": "0x0b35b17cc950ca2e5ecd4076104dc5b1814e3a8f16affcfd04c8d6999ecf9023",
          "blockNumber": "0x26abcc8",
          "transactionHash": "0x2a04c838bd836942f8fe5e7be07b67a236ec3b341d9497665b3869154fc77117",
          "transactionIndex": "0x1",
          "logIndex": "0x5",
          "removed": false
        },
        {
          "address": "0xfEfbE525f9Cd75E026B7bfE2d51f861aE82f00cA",
          "topics": [
            "0x52350853cf11d8d10dce184f63da36faebfcc34d29fd9f625cde2add90fe4aeb",
            "0x0000000000000000000000000000000000000000000000000000000000000000",
            "0x0000000000000000000000001d2aab95192632674ba7cbf8c0105d8782fb9897",
            "0x0000000000000000000000009eb6a0742c70a0fc5288fb897eab8a0ac1b651d4"
          ],
          "data": "0x",
          "blockHash": "0x0b35b17cc950ca2e5ecd4076104dc5b1814e3a8f16affcfd04c8d6999ecf9023",
          "blockNumber": "0x26abcc8",
          "transactionHash": "0x2a04c838bd836942f8fe5e7be07b67a236ec3b341d9497665b3869154fc77117",
          "transactionIndex": "0x1",
          "logIndex": "0x6",
          "removed": false
        },
        {
          "address": "0x0000000000000000000000000000000000001010",
          "topics": [
            "0x4dfe1bbbcf077ddc3e01291eea2d5c70c2b422b415d95645b9adcfd678cb1d63",
            "0x0000000000000000000000000000000000000000000000000000000000001010",
            "0x000000000000000000000000ddddf33b5301b9479cdcbcfff22946e9b54ea76d",
            "0x000000000000000000000000f903ba9e006193c1527bfbe65fe2123704ea3f99"
          ],
          "data": "0x0000000000000000000000000000000000000000000000000008990377f71ae00000000000000000000000000000000000000000000000000dcb4eee4315a0000000000000000000000000000000000000000000000011675703a54b64d1c2e80000000000000000000000000000000000000000000000000dc2b5eacb1e8520000000000000000000000000000000000000000000001167570c3e4edcc8ddc8",
          "blockHash": "0x0b35b17cc950ca2e5ecd4076104dc5b1814e3a8f16affcfd04c8d6999ecf9023",
          "blockNumber": "0x26abcc8",
          "transactionHash": "0x2a04c838bd836942f8fe5e7be07b67a236ec3b341d9497665b3869154fc77117",
          "transactionIndex": "0x1",
          "logIndex": "0x7",
          "removed": false
        }
      ],
      "status": "0x1",
      "logsBloom": "0x00000000000000400000000000000000000000000000000000000010020000000000004000000020000000000000000000008000000000000000000000000100020000000000000000000000000000900000000000000000000100800000000000000100020000000000000000000800000000000000001480000000000000000500000000000000000800000000400000010000000080000000000000000000200000000000000000000000000000000080000000100000100000008000004000000000000000000001000000000040000000000104000000100000001020000000000000000000000000000000000040000000000000000000000000100000",
      "type": "0x2",
      "effectiveGasPrice": "0xee6b2800"
    },
    {
      "transactionHash": "0xce60f3c750d280c6e0db01e4ccbcebda31602356422c55db5c48cd796c907efa",
      "transactionIndex": "0x0",
      "blockHash": "0x93bdbb513d287768b84a901c7ab381eba98be444e0dc0929d3dd7fd330b536f6",
      "blockNumber": "0x26abcc9",
      "from": "0xdddDF33B5301b9479cdcbCfff22946E9B54eA76d",
      "to": "0xfEfbE525f9Cd75E026B7bfE2d51f861aE82f00cA",
      "cumulativeGasUsed": "0x8f886",
      "gasUsed": "0x8f886",
      "contractAddress": null,
      "logs": [
        {
          "address": "0xc5a11d5FF21C987908F95495BF12B404E551F225",
          "topics": [
            "0xc7f505b2f371ae2175ee4913f4499e1f2633a7b5936321eed1cdaeb6115181d2"
          ],
          "data": "0x0000000000000000000000000000000000000000000000000000000000000001",
          "blockHash": "0x93bdbb513d287768b84a901c7ab381eba98be444e0dc0929d3dd7fd330b536f6",
          "blockNumber": "0x26abcc9",
          "transactionHash": "0xce60f3c750d280c6e0db01e4ccbcebda31602356422c55db5c48cd796c907efa",
          "transactionIndex": "0x0",
          "logIndex": "0x0",
          "removed": false
        },
        {
          "address": "0x2AF8B8bE90A38E5Fb6c94A5043c942a4ffe3A658",
          "topics": [
            "0xc7f505b2f371ae2175ee4913f4499e1f2633a7b5936321eed1cdaeb6115181d2"
          ],
          "data": "0x0000000000000000000000000000000000000000000000000000000000000001",
          "blockHash": "0x93bdbb513d287768b84a901c7ab381eba98be444e0dc0929d3dd7fd330b536f6",
          "blockNumber": "0x26abcc9",
          "transactionHash": "0xce60f3c750d280c6e0db01e4ccbcebda31602356422c55db5c48cd796c907efa",
          "transactionIndex": "0x0",
          "logIndex": "0x1",
          "removed": false
        },
        {
          "address": "0xfEfbE525f9Cd75E026B7bfE2d51f861aE82f00cA",
          "topics": [
            "0x52350853cf11d8d10dce184f63da36faebfcc34d29fd9f625cde2add90fe4aeb",
            "0x0000000000000000000000000000000000000000000000000000000000000001",
            "0x000000000000000000000000c5a11d5ff21c987908f95495bf12b404e551f225",
            "0x0000000000000000000000002af8b8be90a38e5fb6c94a5043c942a4ffe3a658"
          ],
          "data": "0x",
          "blockHash": "0x93bdbb513d287768b84a901c7ab381eba98be444e0dc0929d3dd7fd330b536f6",
          "blockNumber": "0x26abcc9",
          "transactionHash": "0xce60f3c750d280c6e0db01e4ccbcebda31602356422c55db5c48cd796c907efa",
          "transactionIndex": "0x0",
          "logIndex": "0x2",
          "removed": false
        },
        {
          "address": "0x0000000000000000000000000000000000001010",
          "topics": [
            "0x4dfe1bbbcf077ddc3e01291eea2d5c70c2b422b415d95645b9adcfd678cb1d63",
            "0x0000000000000000000000000000000000000000000000000000000000001010",
            "0x000000000000000000000000ddddf33b5301b9479cdcbcfff22946e9b54ea76d",
            "0x000000000000000000000000f903ba9e006193c1527bfbe65fe2123704ea3f99"
          ],
          "data": "0x00000000000000000000000000000000000000000000000000085acdda4767a00000000000000000000000000000000000000000000000000dc2b5eaca8ad000000000000000000000000000000000000000000000001167570fa0c1905d734f0000000000000000000000000000000000000000000000000dba5b1cf04368600000000000000000000000000000000000000000000011675717fb8f6aa4daef",
          "blockHash": "0x93bdbb513d287768b84a901c7ab381eba98be444e0dc0929d3dd7fd330b536f6",
          "blockNumber": "0x26abcc9",
          "transactionHash": "0xce60f3c750d280c6e0db01e4ccbcebda31602356422c55db5c48cd796c907efa",
          "transactionIndex": "0x0",
          "logIndex": "0x3",
          "removed": false
        }
      ],
      "status": "0x1",
      "logsBloom": "0x00000000000000000000000000000000000000000000000000000010020010000000004000000020000000000000000000008000000000000440000000040000000000000000000000000000000000800000000000040000000100000000000000000100000000000000000000001000000000000000000480000410000000000000000000000000000800000000400000000000000080000000080000000000200000000000001000000000000000000000000000000000100000000000004000000000000000000001000008000040000000000104000000100000001040000000000100000000000000000000000040800000000000000000000000100000",
      "type": "0x2",
      "effectiveGasPrice": "0xee6b2800"
    }
  ],
  "libraries": [],
  "pending": [],
  "returns": {},
  "timestamp": 1695758268,
  "chain": 80001,
  "multi": false,
  "commit": "04215ea"
}