{
  "transactions": [
    {
      "hash": "0x6499439e4f29cc251c6335d92f54accc7c2cc1bc82ad0de7615800126d76fc53",
      "transactionType": "CALL",
      "contractName": "TronicToken",
      "contractAddress": "0x9Eb6A0742c70A0Fc5288fB897eAb8A0aC1B651d4",
      "function": "createFungibleType(uint64,string):(uint256)",
      "arguments": [
        "1000000",
        "https://ipfs.io/ipfs/QmdFRfXc7gmqYv61ywsFdWkUuVktccZ1jkH8eNUBsyCBPf/1"
      ],
      "transaction": {
        "type": "0x02",
        "from": "0xddddf33b5301b9479cdcbcfff22946e9b54ea76d",
        "to": "0x9eb6a0742c70a0fc5288fb897eab8a0ac1b651d4",
        "gas": "0x321a0",
        "value": "0x0",
        "data": "0x2dfb9ff000000000000000000000000000000000000000000000000000000000000f42400000000000000000000000000000000000000000000000000000000000000040000000000000000000000000000000000000000000000000000000000000004568747470733a2f2f697066732e696f2f697066732f516d64465266586337676d71597636317977734664576b5575566b7463635a316a6b4838654e55427379434250662f31000000000000000000000000000000000000000000000000000000",
        "nonce": "0x10",
        "accessList": []
      },
      "additionalContracts": [],
      "isFixedGasLimit": false
    },
    {
      "hash": "0x242eae16fdefdcc77a9127b01ddedad6f15af5aebaf3c7c281f36ef76be08aef",
      "transactionType": "CALL",
      "contractName": "TronicToken",
      "contractAddress": "0x9Eb6A0742c70A0Fc5288fB897eAb8A0aC1B651d4",
      "function": "createFungibleType(uint64,string):(uint256)",
      "arguments": [
        "500000",
        "https://ipfs.io/ipfs/QmdFRfXc7gmqYv61ywsFdWkUuVktccZ1jkH8eNUBsyCBPf/2"
      ],
      "transaction": {
        "type": "0x02",
        "from": "0xddddf33b5301b9479cdcbcfff22946e9b54ea76d",
        "to": "0x9eb6a0742c70a0fc5288fb897eab8a0ac1b651d4",
        "gas": "0x321a0",
        "value": "0x0",
        "data": "0x2dfb9ff0000000000000000000000000000000000000000000000000000000000007a1200000000000000000000000000000000000000000000000000000000000000040000000000000000000000000000000000000000000000000000000000000004568747470733a2f2f697066732e696f2f697066732f516d64465266586337676d71597636317977734664576b5575566b7463635a316a6b4838654e55427379434250662f32000000000000000000000000000000000000000000000000000000",
        "nonce": "0x11",
        "accessList": []
      },
      "additionalContracts": [],
      "isFixedGasLimit": false
    },
    {
      "hash": "0x6f9eeae8416d2728fcabcae9af5da38fbb1a02f53daeb4992a4d6aeb5b65e4be",
      "transactionType": "CALL",
      "contractName": "TronicToken",
      "contractAddress": "0x9Eb6A0742c70A0Fc5288fB897eAb8A0aC1B651d4",
      "function": "createFungibleType(uint64,string):(uint256)",
      "arguments": [
        "250000",
        "https://ipfs.io/ipfs/QmdFRfXc7gmqYv61ywsFdWkUuVktccZ1jkH8eNUBsyCBPf/3"
      ],
      "transaction": {
        "type": "0x02",
        "from": "0xddddf33b5301b9479cdcbcfff22946e9b54ea76d",
        "to": "0x9eb6a0742c70a0fc5288fb897eab8a0ac1b651d4",
        "gas": "0x321a0",
        "value": "0x0",
        "data": "0x2dfb9ff0000000000000000000000000000000000000000000000000000000000003d0900000000000000000000000000000000000000000000000000000000000000040000000000000000000000000000000000000000000000000000000000000004568747470733a2f2f697066732e696f2f697066732f516d64465266586337676d71597636317977734664576b5575566b7463635a316a6b4838654e55427379434250662f33000000000000000000000000000000000000000000000000000000",
        "nonce": "0x12",
        "accessList": []
      },
      "additionalContracts": [],
      "isFixedGasLimit": false
    },
    {
      "hash": "0x75420ae394ad9b731306d778c8ebabfa0e8a43ac30e29c4d8fcff7ce6b9696a9",
      "transactionType": "CALL",
      "contractName": "TronicToken",
      "contractAddress": "0x2AF8B8bE90A38E5Fb6c94A5043c942a4ffe3A658",
      "function": "createFungibleType(uint64,string):(uint256)",
      "arguments": [
        "10000000",
        "https://ipfs.io/ipfs/QmUU9wdedSCtrZFs5nPSeAggpoXeJ7WNKvtGJJLwa3czqn/1"
      ],
      "transaction": {
        "type": "0x02",
        "from": "0xddddf33b5301b9479cdcbcfff22946e9b54ea76d",
        "to": "0x2af8b8be90a38e5fb6c94a5043c942a4ffe3a658",
        "gas": "0x321a0",
        "value": "0x0",
        "data": "0x2dfb9ff000000000000000000000000000000000000000000000000000000000009896800000000000000000000000000000000000000000000000000000000000000040000000000000000000000000000000000000000000000000000000000000004568747470733a2f2f697066732e696f2f697066732f516d55553977646564534374725a4673356e505365416767706f58654a37574e4b7674474a4a4c776133637a716e2f31000000000000000000000000000000000000000000000000000000",
        "nonce": "0x13",
        "accessList": []
      },
      "additionalContracts": [],
      "isFixedGasLimit": false
    },
    {
      "hash": "0xece823d5bb3e3a3133b7cff8830510bc2eb96e5acbadf47969c6394f2d997d8c",
      "transactionType": "CALL",
      "contractName": "TronicToken",
      "contractAddress": "0x2AF8B8bE90A38E5Fb6c94A5043c942a4ffe3A658",
      "function": "createFungibleType(uint64,string):(uint256)",
      "arguments": [
        "5000000",
        "https://ipfs.io/ipfs/QmUU9wdedSCtrZFs5nPSeAggpoXeJ7WNKvtGJJLwa3czqn/2"
      ],
      "transaction": {
        "type": "0x02",
        "from": "0xddddf33b5301b9479cdcbcfff22946e9b54ea76d",
        "to": "0x2af8b8be90a38e5fb6c94a5043c942a4ffe3a658",
        "gas": "0x321a0",
        "value": "0x0",
        "data": "0x2dfb9ff000000000000000000000000000000000000000000000000000000000004c4b400000000000000000000000000000000000000000000000000000000000000040000000000000000000000000000000000000000000000000000000000000004568747470733a2f2f697066732e696f2f697066732f516d55553977646564534374725a4673356e505365416767706f58654a37574e4b7674474a4a4c776133637a716e2f32000000000000000000000000000000000000000000000000000000",
        "nonce": "0x14",
        "accessList": []
      },
      "additionalContracts": [],
      "isFixedGasLimit": false
    },
    {
      "hash": "0x02283886742dccfe368e5495f2c8b18ad850bf3f2702bbeab2fb1d0028745c84",
      "transactionType": "CALL",
      "contractName": "TronicToken",
      "contractAddress": "0x2AF8B8bE90A38E5Fb6c94A5043c942a4ffe3A658",
      "function": "createFungibleType(uint64,string):(uint256)",
      "arguments": [
        "2000000",
        "https://ipfs.io/ipfs/QmUU9wdedSCtrZFs5nPSeAggpoXeJ7WNKvtGJJLwa3czqn/3"
      ],
      "transaction": {
        "type": "0x02",
        "from": "0xddddf33b5301b9479cdcbcfff22946e9b54ea76d",
        "to": "0x2af8b8be90a38e5fb6c94a5043c942a4ffe3a658",
        "gas": "0x321a0",
        "value": "0x0",
        "data": "0x2dfb9ff000000000000000000000000000000000000000000000000000000000001e84800000000000000000000000000000000000000000000000000000000000000040000000000000000000000000000000000000000000000000000000000000004568747470733a2f2f697066732e696f2f697066732f516d55553977646564534374725a4673356e505365416767706f58654a37574e4b7674474a4a4c776133637a716e2f33000000000000000000000000000000000000000000000000000000",
        "nonce": "0x15",
        "accessList": []
      },
      "additionalContracts": [],
      "isFixedGasLimit": false
    }
  ],
  "receipts": [
    {
      "transactionHash": "0x6499439e4f29cc251c6335d92f54accc7c2cc1bc82ad0de7615800126d76fc53",
      "transactionIndex": "0x13",
      "blockHash": "0x4b367027f3dc3f54b608e8ff8b580f4d471597048e3cb2c1c43fc106a144bb85",
      "blockNumber": "0x26abd30",
      "from": "0xdddDF33B5301b9479cdcbCfff22946E9B54eA76d",
      "to": "0x9Eb6A0742c70A0Fc5288fB897eAb8A0aC1B651d4",
      "cumulativeGasUsed": "0x2ad1e8",
      "gasUsed": "0x2445e",
      "contractAddress": null,
      "logs": [
        {
          "address": "0x9Eb6A0742c70A0Fc5288fB897eAb8A0aC1B651d4",
          "topics": [
            "0xe28e4991719b1a533e2b60fb5ab59fb3c3d1cbc6af8dc954f782a0bf615d200c",
            "0x0000000000000000000000000000000000000000000000000000000000000000"
          ],
          "data": "0x00000000000000000000000000000000000000000000000000000000000f42400000000000000000000000000000000000000000000000000000000000000040000000000000000000000000000000000000000000000000000000000000004568747470733a2f2f697066732e696f2f697066732f516d64465266586337676d71597636317977734664576b5575566b7463635a316a6b4838654e55427379434250662f31000000000000000000000000000000000000000000000000000000",
          "blockHash": "0x4b367027f3dc3f54b608e8ff8b580f4d471597048e3cb2c1c43fc106a144bb85",
          "blockNumber": "0x26abd30",
          "transactionHash": "0x6499439e4f29cc251c6335d92f54accc7c2cc1bc82ad0de7615800126d76fc53",
          "transactionIndex": "0x13",
          "logIndex": "0x40",
          "removed": false
        },
        {
          "address": "0x0000000000000000000000000000000000001010",
          "topics": [
            "0x4dfe1bbbcf077ddc3e01291eea2d5c70c2b422b415d95645b9adcfd678cb1d63",
            "0x0000000000000000000000000000000000000000000000000000000000001010",
            "0x000000000000000000000000ddddf33b5301b9479cdcbcfff22946e9b54ea76d",
            "0x000000000000000000000000be188d6641e8b680743a4815dfa0f6208038960f"
          ],
          "data": "0x00000000000000000000000000000000000000000000000000010e4128da567e0000000000000000000000000000000000000000000000000dba5b1cefb3e000000000000000000000000000000000000000000000003494f059b2aa2d6d880f0000000000000000000000000000000000000000000000000db94cdbc6d98982000000000000000000000000000000000000000000003494f05ac0eb5647de8d",
          "blockHash": "0x4b367027f3dc3f54b608e8ff8b580f4d471597048e3cb2c1c43fc106a144bb85",
          "blockNumber": "0x26abd30",
          "transactionHash": "0x6499439e4f29cc251c6335d92f54accc7c2cc1bc82ad0de7615800126d76fc53",
          "transactionIndex": "0x13",
          "logIndex": "0x41",
          "removed": false
        }
      ],
      "status": "0x1",
      "logsBloom": "0x00000000000000400000000000000000000000000000000000000000020000000000000000000000000000000000000000008000000000000000000000000100000000000000000000000000000000900000000100000000000100000000004000000000020000000000000000000800000000000000000080000000000000000000000000000000000000000000000000000000000080000002000000000000200000000000000000000000000000000000000000000000000000000000004000000000000000000001000000000040000000000100000000100040000020000000000000000000000000000000000000000000000000000000000000100000",
      "type": "0x2",
      "effectiveGasPrice": "0x77359400"
    },
    {
      "transactionHash": "0x242eae16fdefdcc77a9127b01ddedad6f15af5aebaf3c7c281f36ef76be08aef",
      "transactionIndex": "0x14",
      "blockHash": "0x4b367027f3dc3f54b608e8ff8b580f4d471597048e3cb2c1c43fc106a144bb85",
      "blockNumber": "0x26abd30",
      "from": "0xdddDF33B5301b9479cdcbCfff22946E9B54eA76d",
      "to": "0x9Eb6A0742c70A0Fc5288fB897eAb8A0aC1B651d4",
      "cumulativeGasUsed": "0x2d1646",
      "gasUsed": "0x2445e",
      "contractAddress": null,
      "logs": [
        {
          "address": "0x9Eb6A0742c70A0Fc5288fB897eAb8A0aC1B651d4",
          "topics": [
            "0xe28e4991719b1a533e2b60fb5ab59fb3c3d1cbc6af8dc954f782a0bf615d200c",
            "0x0000000000000000000000000000000000000000000000000000000000000001"
          ],
          "data": "0x000000000000000000000000000000000000000000000000000000000007a1200000000000000000000000000000000000000000000000000000000000000040000000000000000000000000000000000000000000000000000000000000004568747470733a2f2f697066732e696f2f697066732f516d64465266586337676d71597636317977734664576b5575566b7463635a316a6b4838654e55427379434250662f32000000000000000000000000000000000000000000000000000000",
          "blockHash": "0x4b367027f3dc3f54b608e8ff8b580f4d471597048e3cb2c1c43fc106a144bb85",
          "blockNumber": "0x26abd30",
          "transactionHash": "0x242eae16fdefdcc77a9127b01ddedad6f15af5aebaf3c7c281f36ef76be08aef",
          "transactionIndex": "0x14",
          "logIndex": "0x42",
          "removed": false
        },
        {
          "address": "0x0000000000000000000000000000000000001010",
          "topics": [
            "0x4dfe1bbbcf077ddc3e01291eea2d5c70c2b422b415d95645b9adcfd678cb1d63",
            "0x0000000000000000000000000000000000000000000000000000000000001010",
            "0x000000000000000000000000ddddf33b5301b9479cdcbcfff22946e9b54ea76d",
            "0x000000000000000000000000be188d6641e8b680743a4815dfa0f6208038960f"
          ],
          "data": "0x00000000000000000000000000000000000000000000000000010e4128da567e0000000000000000000000000000000000000000000000000db94cdbc6b78800000000000000000000000000000000000000000000003494f05ac0eb5647de8d0000000000000000000000000000000000000000000000000db83e9a9ddd3182000000000000000000000000000000000000000000003494f05bcf2c7f22350b",
          "blockHash": "0x4b367027f3dc3f54b608e8ff8b580f4d471597048e3cb2c1c43fc106a144bb85",
          "blockNumber": "0x26abd30",
          "transactionHash": "0x242eae16fdefdcc77a9127b01ddedad6f15af5aebaf3c7c281f36ef76be08aef",
          "transactionIndex": "0x14",
          "logIndex": "0x43",
          "removed": false
        }
      ],
      "status": "0x1",
      "logsBloom": "0x00000000000000400000000000000000000000000000000000000000020000000000000000000000000000000000000000008000000000000000000000040100000000000000000000000000000000900000000100040000000100000000004000000000000000000000000000000000000000000000000080000000000000000000000000000000000000000000000000000000000080000002000000000000200000000000000000000000000000000000000000000000000000000000004000000000000000000001000000000040000000000100000000100040000040000000000000000000000000000000000000000000000000000000000000100000",
      "type": "0x2",
      "effectiveGasPrice": "0x77359400"
    },
    {
      "transactionHash": "0x6f9eeae8416d2728fcabcae9af5da38fbb1a02f53daeb4992a4d6aeb5b65e4be",
      "transactionIndex": "0x15",
      "blockHash": "0x4b367027f3dc3f54b608e8ff8b580f4d471597048e3cb2c1c43fc106a144bb85",
      "blockNumber": "0x26abd30",
      "from": "0xdddDF33B5301b9479cdcbCfff22946E9B54eA76d",
      "to": "0x9Eb6A0742c70A0Fc5288fB897eAb8A0aC1B651d4",
      "cumulativeGasUsed": "0x2f5aa4",
      "gasUsed": "0x2445e",
      "contractAddress": null,
      "logs": [
        {
          "address": "0x9Eb6A0742c70A0Fc5288fB897eAb8A0aC1B651d4",
          "topics": [
            "0xe28e4991719b1a533e2b60fb5ab59fb3c3d1cbc6af8dc954f782a0bf615d200c",
            "0x0000000000000000000000000000000000000000000000000000000000000002"
          ],
          "data": "0x000000000000000000000000000000000000000000000000000000000003d0900000000000000000000000000000000000000000000000000000000000000040000000000000000000000000000000000000000000000000000000000000004568747470733a2f2f697066732e696f2f697066732f516d64465266586337676d71597636317977734664576b5575566b7463635a316a6b4838654e55427379434250662f33000000000000000000000000000000000000000000000000000000",
          "blockHash": "0x4b367027f3dc3f54b608e8ff8b580f4d471597048e3cb2c1c43fc106a144bb85",
          "blockNumber": "0x26abd30",
          "transactionHash": "0x6f9eeae8416d2728fcabcae9af5da38fbb1a02f53daeb4992a4d6aeb5b65e4be",
          "transactionIndex": "0x15",
          "logIndex": "0x44",
          "removed": false
        },
        {
          "address": "0x0000000000000000000000000000000000001010",
          "topics": [
            "0x4dfe1bbbcf077ddc3e01291eea2d5c70c2b422b415d95645b9adcfd678cb1d63",
            "0x0000000000000000000000000000000000000000000000000000000000001010",
            "0x000000000000000000000000ddddf33b5301b9479cdcbcfff22946e9b54ea76d",
            "0x000000000000000000000000be188d6641e8b680743a4815dfa0f6208038960f"
          ],
          "data": "0x00000000000000000000000000000000000000000000000000010e4128da567e0000000000000000000000000000000000000000000000000db83e9a9dbb3000000000000000000000000000000000000000000000003494f05bcf2c7f22350b0000000000000000000000000000000000000000000000000db7305974e0d982000000000000000000000000000000000000000000003494f05cdd6da7fc8b89",
          "blockHash": "0x4b367027f3dc3f54b608e8ff8b580f4d471597048e3cb2c1c43fc106a144bb85",
          "blockNumber": "0x26abd30",
          "transactionHash": "0x6f9eeae8416d2728fcabcae9af5da38fbb1a02f53daeb4992a4d6aeb5b65e4be",
          "transactionIndex": "0x15",
          "logIndex": "0x45",
          "removed": false
        }
      ],
      "status": "0x1",
      "logsBloom": "0x04000000000000400000000000000000000000000000000000000000020000000000000000000000000000000000000000008000000000000000000000000100000000000000000000000000000000900000000100000000000100000000004000000000000000000000000000000000000000000000000080000000000000000000000000000000000000000000000000000000000080000002000000000000200000000000000000000100000000000000000000000000000000000000004000000000000000000001000000000040000000000100000000100040000000000000000000000000000000000000000000000000008000000000000000100000",
      "type": "0x2",
      "effectiveGasPrice": "0x77359400"
    },
    {
      "transactionHash": "0x75420ae394ad9b731306d778c8ebabfa0e8a43ac30e29c4d8fcff7ce6b9696a9",
      "transactionIndex": "0x16",
      "blockHash": "0x4b367027f3dc3f54b608e8ff8b580f4d471597048e3cb2c1c43fc106a144bb85",
      "blockNumber": "0x26abd30",
      "from": "0xdddDF33B5301b9479cdcbCfff22946E9B54eA76d",
      "to": "0x2AF8B8bE90A38E5Fb6c94A5043c942a4ffe3A658",
      "cumulativeGasUsed": "0x319f02",
      "gasUsed": "0x2445e",
      "contractAddress": null,
      "logs": [
        {
          "address": "0x2AF8B8bE90A38E5Fb6c94A5043c942a4ffe3A658",
          "topics": [
            "0xe28e4991719b1a533e2b60fb5ab59fb3c3d1cbc6af8dc954f782a0bf615d200c",
            "0x0000000000000000000000000000000000000000000000000000000000000000"
          ],
          "data": "0x00000000000000000000000000000000000000000000000000000000009896800000000000000000000000000000000000000000000000000000000000000040000000000000000000000000000000000000000000000000000000000000004568747470733a2f2f697066732e696f2f697066732f516d55553977646564534374725a4673356e505365416767706f58654a37574e4b7674474a4a4c776133637a716e2f31000000000000000000000000000000000000000000000000000000",
          "blockHash": "0x4b367027f3dc3f54b608e8ff8b580f4d471597048e3cb2c1c43fc106a144bb85",
          "blockNumber": "0x26abd30",
          "transactionHash": "0x75420ae394ad9b731306d778c8ebabfa0e8a43ac30e29c4d8fcff7ce6b9696a9",
          "transactionIndex": "0x16",
          "logIndex": "0x46",
          "removed": false
        },
        {
          "address": "0x0000000000000000000000000000000000001010",
          "topics": [
            "0x4dfe1bbbcf077ddc3e01291eea2d5c70c2b422b415d95645b9adcfd678cb1d63",
            "0x0000000000000000000000000000000000000000000000000000000000001010",
            "0x000000000000000000000000ddddf33b5301b9479cdcbcfff22946e9b54ea76d",
            "0x000000000000000000000000be188d6641e8b680743a4815dfa0f6208038960f"
          ],
          "data": "0x00000000000000000000000000000000000000000000000000010e4128da567e0000000000000000000000000000000000000000000000000db7305974bed800000000000000000000000000000000000000000000003494f05cdd6da7fc8b890000000000000000000000000000000000000000000000000db622184be48182000000000000000000000000000000000000000000003494f05debaed0d6e207",
          "blockHash": "0x4b367027f3dc3f54b608e8ff8b580f4d471597048e3cb2c1c43fc106a144bb85",
          "blockNumber": "0x26abd30",
          "transactionHash": "0x75420ae394ad9b731306d778c8ebabfa0e8a43ac30e29c4d8fcff7ce6b9696a9",
          "transactionIndex": "0x16",
          "logIndex": "0x47",
          "removed": false
        }
      ],
      "status": "0x1",
      "logsBloom": "0x00000000000000000000000000000000000000000000000000000000020000000000000000000000000000000000000000008000000000000000000000000000000000000000000000000000000000800000000100000000000100000000004000000000020000000000000000000800000000000000000080000400000000000000000000000000000000000000000000000000000080000002000000000000200000000000000000000000000000000000000000000000000000000000004000000000000000000001000000000040000000000100000000100040000020000000000100000000000000000000000000800000000000000000000000100000",
      "type": "0x2",
      "effectiveGasPrice": "0x77359400"
    },
    {
      "transactionHash": "0xece823d5bb3e3a3133b7cff8830510bc2eb96e5acbadf47969c6394f2d997d8c",
      "transactionIndex": "0x17",
      "blockHash": "0x4b367027f3dc3f54b608e8ff8b580f4d471597048e3cb2c1c43fc106a144bb85",
      "blockNumber": "0x26abd30",
      "from": "0xdddDF33B5301b9479cdcbCfff22946E9B54eA76d",
      "to": "0x2AF8B8bE90A38E5Fb6c94A5043c942a4ffe3A658",
      "cumulativeGasUsed": "0x33e360",
      "gasUsed": "0x2445e",
      "contractAddress": null,
      "logs": [
        {
          "address": "0x2AF8B8bE90A38E5Fb6c94A5043c942a4ffe3A658",
          "topics": [
            "0xe28e4991719b1a533e2b60fb5ab59fb3c3d1cbc6af8dc954f782a0bf615d200c",
            "0x0000000000000000000000000000000000000000000000000000000000000001"
          ],
          "data": "0x00000000000000000000000000000000000000000000000000000000004c4b400000000000000000000000000000000000000000000000000000000000000040000000000000000000000000000000000000000000000000000000000000004568747470733a2f2f697066732e696f2f697066732f516d55553977646564534374725a4673356e505365416767706f58654a37574e4b7674474a4a4c776133637a716e2f32000000000000000000000000000000000000000000000000000000",
          "blockHash": "0x4b367027f3dc3f54b608e8ff8b580f4d471597048e3cb2c1c43fc106a144bb85",
          "blockNumber": "0x26abd30",
          "transactionHash": "0xece823d5bb3e3a3133b7cff8830510bc2eb96e5acbadf47969c6394f2d997d8c",
          "transactionIndex": "0x17",
          "logIndex": "0x48",
          "removed": false
        },
        {
          "address": "0x0000000000000000000000000000000000001010",
          "topics": [
            "0x4dfe1bbbcf077ddc3e01291eea2d5c70c2b422b415d95645b9adcfd678cb1d63",
            "0x0000000000000000000000000000000000000000000000000000000000001010",
            "0x000000000000000000000000ddddf33b5301b9479cdcbcfff22946e9b54ea76d",
            "0x000000000000000000000000be188d6641e8b680743a4815dfa0f6208038960f"
          ],
          "data": "0x00000000000000000000000000000000000000000000000000010e4128da567e0000000000000000000000000000000000000000000000000db622184bc28000000000000000000000000000000000000000000000003494f05debaed0d6e2070000000000000000000000000000000000000000000000000db513d722e82982000000000000000000000000000000000000000000003494f05ef9eff9b13885",
          "blockHash": "0x4b367027f3dc3f54b608e8ff8b580f4d471597048e3cb2c1c43fc106a144bb85",
          "blockNumber": "0x26abd30",
          "transactionHash": "0xece823d5bb3e3a3133b7cff8830510bc2eb96e5acbadf47969c6394f2d997d8c",
          "transactionIndex": "0x17",
          "logIndex": "0x49",
          "removed": false
        }
      ],
      "status": "0x1",
      "logsBloom": "0x00000000000000000000000000000000000000000000000000000000020000000000000000000000000000000000000000008000000000000000000000040000000000000000000000000000000000800000000100040000000100000000004000000000000000000000000000000000000000000000000080000400000000000000000000000000000000000000000000000000000080000002000000000000200000000000000000000000000000000000000000000000000000000000004000000000000000000001000000000040000000000100000000100040000040000000000100000000000000000000000000800000000000000000000000100000",
      "type": "0x2",
      "effectiveGasPrice": "0x77359400"
    },
    {
      "transactionHash": "0x02283886742dccfe368e5495f2c8b18ad850bf3f2702bbeab2fb1d0028745c84",
      "transactionIndex": "0x18",
      "blockHash": "0x4b367027f3dc3f54b608e8ff8b580f4d471597048e3cb2c1c43fc106a144bb85",
      "blockNumber": "0x26abd30",
      "from": "0xdddDF33B5301b9479cdcbCfff22946E9B54eA76d",
      "to": "0x2AF8B8bE90A38E5Fb6c94A5043c942a4ffe3A658",
      "cumulativeGasUsed": "0x3627be",
      "gasUsed": "0x2445e",
      "contractAddress": null,
      "logs": [
        {
          "address": "0x2AF8B8bE90A38E5Fb6c94A5043c942a4ffe3A658",
          "topics": [
            "0xe28e4991719b1a533e2b60fb5ab59fb3c3d1cbc6af8dc954f782a0bf615d200c",
            "0x0000000000000000000000000000000000000000000000000000000000000002"
          ],
          "data": "0x00000000000000000000000000000000000000000000000000000000001e84800000000000000000000000000000000000000000000000000000000000000040000000000000000000000000000000000000000000000000000000000000004568747470733a2f2f697066732e696f2f697066732f516d55553977646564534374725a4673356e505365416767706f58654a37574e4b7674474a4a4c776133637a716e2f33000000000000000000000000000000000000000000000000000000",
          "blockHash": "0x4b367027f3dc3f54b608e8ff8b580f4d471597048e3cb2c1c43fc106a144bb85",
          "blockNumber": "0x26abd30",
          "transactionHash": "0x02283886742dccfe368e5495f2c8b18ad850bf3f2702bbeab2fb1d0028745c84",
          "transactionIndex": "0x18",
          "logIndex": "0x4a",
          "removed": false
        },
        {
          "address": "0x0000000000000000000000000000000000001010",
          "topics": [
            "0x4dfe1bbbcf077ddc3e01291eea2d5c70c2b422b415d95645b9adcfd678cb1d63",
            "0x0000000000000000000000000000000000000000000000000000000000001010",
            "0x000000000000000000000000ddddf33b5301b9479cdcbcfff22946e9b54ea76d",
            "0x000000000000000000000000be188d6641e8b680743a4815dfa0f6208038960f"
          ],
          "data": "0x00000000000000000000000000000000000000000000000000010e4128da567e0000000000000000000000000000000000000000000000000db513d722c62800000000000000000000000000000000000000000000003494f05ef9eff9b138850000000000000000000000000000000000000000000000000db40595f9ebd182000000000000000000000000000000000000000000003494f0600831228b8f03",
          "blockHash": "0x4b367027f3dc3f54b608e8ff8b580f4d471597048e3cb2c1c43fc106a144bb85",
          "blockNumber": "0x26abd30",
          "transactionHash": "0x02283886742dccfe368e5495f2c8b18ad850bf3f2702bbeab2fb1d0028745c84",
          "transactionIndex": "0x18",
          "logIndex": "0x4b",
          "removed": false
        }
      ],
      "status": "0x1",
      "logsBloom": "0x04000000000000000000000000000000000000000000000000000000020000000000000000000000000000000000000000008000000000000000000000000000000000000000000000000000000000800000000100000000000100000000004000000000000000000000000000000000000000000000000080000400000000000000000000000000000000000000000000000000000080000002000000000000200000000000000000000100000000000000000000000000000000000000004000000000000000000001000000000040000000000100000000100040000000000000000100000000000000000000000000800000008000000000000000100000",
      "type": "0x2",
      "effectiveGasPrice": "0x77359400"
    }
  ],
  "libraries": [],
  "pending": [],
  "returns": {},
  "timestamp": 1695758498,
  "chain": 80001,
  "multi": false,
  "commit": "04215ea"
}