{
  "transactions": [
    {
      "hash": "0x965ad73a954fa32753ce07006a2e07fa15fa83450dff2b3879d68c46657ceac0",
      "transactionType": "CALL",
      "contractName": "TronicToken",
      "contractAddress": "0xd93937E53d87973435AF7277B8C171CA9BC68769",
      "function": "createFungibleType(uint64,string):(uint256)",
      "arguments": [
        "1000000",
        "https://ipfs.io/ipfs/QmdFRfXc7gmqYv61ywsFdWkUuVktccZ1jkH8eNUBsyCBPf/1"
      ],
      "transaction": {
        "type": "0x02",
        "from": "0x27870dba1e03cfdd24f5658b255c0baac970a19d",
        "to": "0xd93937e53d87973435af7277b8c171ca9bc68769",
        "gas": "0x321a0",
        "value": "0x0",
        "data": "0x2dfb9ff000000000000000000000000000000000000000000000000000000000000f42400000000000000000000000000000000000000000000000000000000000000040000000000000000000000000000000000000000000000000000000000000004568747470733a2f2f697066732e696f2f697066732f516d64465266586337676d71597636317977734664576b5575566b7463635a316a6b4838654e55427379434250662f31000000000000000000000000000000000000000000000000000000",
        "nonce": "0x2",
        "accessList": []
      },
      "additionalContracts": [],
      "isFixedGasLimit": false
    },
    {
      "hash": "0x65d9519c5c6c79c5eeed07b7b364bf5be4432e76bba0de6856e660be502396ad",
      "transactionType": "CALL",
      "contractName": "TronicToken",
      "contractAddress": "0xd93937E53d87973435AF7277B8C171CA9BC68769",
      "function": "createFungibleType(uint64,string):(uint256)",
      "arguments": [
        "500000",
        "https://ipfs.io/ipfs/QmdFRfXc7gmqYv61ywsFdWkUuVktccZ1jkH8eNUBsyCBPf/2"
      ],
      "transaction": {
        "type": "0x02",
        "from": "0x27870dba1e03cfdd24f5658b255c0baac970a19d",
        "to": "0xd93937e53d87973435af7277b8c171ca9bc68769",
        "gas": "0x321a0",
        "value": "0x0",
        "data": "0x2dfb9ff0000000000000000000000000000000000000000000000000000000000007a1200000000000000000000000000000000000000000000000000000000000000040000000000000000000000000000000000000000000000000000000000000004568747470733a2f2f697066732e696f2f697066732f516d64465266586337676d71597636317977734664576b5575566b7463635a316a6b4838654e55427379434250662f32000000000000000000000000000000000000000000000000000000",
        "nonce": "0x3",
        "accessList": []
      },
      "additionalContracts": [],
      "isFixedGasLimit": false
    },
    {
      "hash": "0x8eb305e3f34e2df8cba8e444bf74097234594b83338677a44dfe47658bd7ff9a",
      "transactionType": "CALL",
      "contractName": "TronicToken",
      "contractAddress": "0xd93937E53d87973435AF7277B8C171CA9BC68769",
      "function": "createFungibleType(uint64,string):(uint256)",
      "arguments": [
        "250000",
        "https://ipfs.io/ipfs/QmdFRfXc7gmqYv61ywsFdWkUuVktccZ1jkH8eNUBsyCBPf/3"
      ],
      "transaction": {
        "type": "0x02",
        "from": "0x27870dba1e03cfdd24f5658b255c0baac970a19d",
        "to": "0xd93937e53d87973435af7277b8c171ca9bc68769",
        "gas": "0x321a0",
        "value": "0x0",
        "data": "0x2dfb9ff0000000000000000000000000000000000000000000000000000000000003d0900000000000000000000000000000000000000000000000000000000000000040000000000000000000000000000000000000000000000000000000000000004568747470733a2f2f697066732e696f2f697066732f516d64465266586337676d71597636317977734664576b5575566b7463635a316a6b4838654e55427379434250662f33000000000000000000000000000000000000000000000000000000",
        "nonce": "0x4",
        "accessList": []
      },
      "additionalContracts": [],
      "isFixedGasLimit": false
    },
    {
      "hash": "0x9cd86254ad716bd61ff663414146610d9de93ce9197f44bfa20b0f9c6263c0a0",
      "transactionType": "CALL",
      "contractName": "TronicToken",
      "contractAddress": "0xdC4f015d90454600CfB735b8f1f80Bdf1468A900",
      "function": "createFungibleType(uint64,string):(uint256)",
      "arguments": [
        "10000000",
        "https://ipfs.io/ipfs/QmUU9wdedSCtrZFs5nPSeAggpoXeJ7WNKvtGJJLwa3czqn/1"
      ],
      "transaction": {
        "type": "0x02",
        "from": "0x27870dba1e03cfdd24f5658b255c0baac970a19d",
        "to": "0xdc4f015d90454600cfb735b8f1f80bdf1468a900",
        "gas": "0x321a0",
        "value": "0x0",
        "data": "0x2dfb9ff000000000000000000000000000000000000000000000000000000000009896800000000000000000000000000000000000000000000000000000000000000040000000000000000000000000000000000000000000000000000000000000004568747470733a2f2f697066732e696f2f697066732f516d55553977646564534374725a4673356e505365416767706f58654a37574e4b7674474a4a4c776133637a716e2f31000000000000000000000000000000000000000000000000000000",
        "nonce": "0x5",
        "accessList": []
      },
      "additionalContracts": [],
      "isFixedGasLimit": false
    },
    {
      "hash": "0x54761ba214b50f6f1b0dc99e910ebc4f28d5f25b7ccce5cbd3506ce70ceda986",
      "transactionType": "CALL",
      "contractName": "TronicToken",
      "contractAddress": "0xdC4f015d90454600CfB735b8f1f80Bdf1468A900",
      "function": "createFungibleType(uint64,string):(uint256)",
      "arguments": [
        "5000000",
        "https://ipfs.io/ipfs/QmUU9wdedSCtrZFs5nPSeAggpoXeJ7WNKvtGJJLwa3czqn/2"
      ],
      "transaction": {
        "type": "0x02",
        "from": "0x27870dba1e03cfdd24f5658b255c0baac970a19d",
        "to": "0xdc4f015d90454600cfb735b8f1f80bdf1468a900",
        "gas": "0x321a0",
        "value": "0x0",
        "data": "0x2dfb9ff000000000000000000000000000000000000000000000000000000000004c4b400000000000000000000000000000000000000000000000000000000000000040000000000000000000000000000000000000000000000000000000000000004568747470733a2f2f697066732e696f2f697066732f516d55553977646564534374725a4673356e505365416767706f58654a37574e4b7674474a4a4c776133637a716e2f32000000000000000000000000000000000000000000000000000000",
        "nonce": "0x6",
        "accessList": []
      },
      "additionalContracts": [],
      "isFixedGasLimit": false
    },
    {
      "hash": "0x97b4511e26d32670fb7cac5c81e1f3d2f78adb3aa593789821e0e2fbcf1b8f82",
      "transactionType": "CALL",
      "contractName": "TronicToken",
      "contractAddress": "0xdC4f015d90454600CfB735b8f1f80Bdf1468A900",
      "function": "createFungibleType(uint64,string):(uint256)",
      "arguments": [
        "2000000",
        "https://ipfs.io/ipfs/QmUU9wdedSCtrZFs5nPSeAggpoXeJ7WNKvtGJJLwa3czqn/3"
      ],
      "transaction": {
        "type": "0x02",
        "from": "0x27870dba1e03cfdd24f5658b255c0baac970a19d",
        "to": "0xdc4f015d90454600cfb735b8f1f80bdf1468a900",
        "gas": "0x321a0",
        "value": "0x0",
        "data": "0x2dfb9ff000000000000000000000000000000000000000000000000000000000001e84800000000000000000000000000000000000000000000000000000000000000040000000000000000000000000000000000000000000000000000000000000004568747470733a2f2f697066732e696f2f697066732f516d55553977646564534374725a4673356e505365416767706f58654a37574e4b7674474a4a4c776133637a716e2f33000000000000000000000000000000000000000000000000000000",
        "nonce": "0x7",
        "accessList": []
      },
      "additionalContracts": [],
      "isFixedGasLimit": false
    }
  ],
  "receipts": [
    {
      "transactionHash": "0x965ad73a954fa32753ce07006a2e07fa15fa83450dff2b3879d68c46657ceac0",
      "transactionIndex": "0x10",
      "blockHash": "0xbaf2e17d8c537e74c48027a565d2581b1f9fbf9aa93388f85a835a6c10fa4448",
      "blockNumber": "0x260e35b",
      "from": "0x27870DBa1e03CFDD24F5658b255c0BAaC970A19D",
      "to": "0xd93937E53d87973435AF7277B8C171CA9BC68769",
      "cumulativeGasUsed": "0x4c6eb5",
      "gasUsed": "0x2445e",
      "contractAddress": null,
      "logs": [
        {
          "address": "0xd93937E53d87973435AF7277B8C171CA9BC68769",
          "topics": [
            "0xe28e4991719b1a533e2b60fb5ab59fb3c3d1cbc6af8dc954f782a0bf615d200c",
            "0x0000000000000000000000000000000000000000000000000000000000000000"
          ],
          "data": "0x00000000000000000000000000000000000000000000000000000000000f42400000000000000000000000000000000000000000000000000000000000000040000000000000000000000000000000000000000000000000000000000000004568747470733a2f2f697066732e696f2f697066732f516d64465266586337676d71597636317977734664576b5575566b7463635a316a6b4838654e55427379434250662f31000000000000000000000000000000000000000000000000000000",
          "blockHash": "0xbaf2e17d8c537e74c48027a565d2581b1f9fbf9aa93388f85a835a6c10fa4448",
          "blockNumber": "0x260e35b",
          "transactionHash": "0x965ad73a954fa32753ce07006a2e07fa15fa83450dff2b3879d68c46657ceac0",
          "transactionIndex": "0x10",
          "logIndex": "0x44",
          "removed": false
        },
        {
          "address": "0x0000000000000000000000000000000000001010",
          "topics": [
            "0x4dfe1bbbcf077ddc3e01291eea2d5c70c2b422b415d95645b9adcfd678cb1d63",
            "0x0000000000000000000000000000000000000000000000000000000000001010",
            "0x00000000000000000000000027870dba1e03cfdd24f5658b255c0baac970a19d",
            "0x000000000000000000000000c275dc8be39f50d12f66b6a63629c39da5bae5bd"
          ],
          "data": "0x00000000000000000000000000000000000000000000000000010e4128bf221600000000000000000000000000000000000000000000000006e7e8111a3ca8000000000000000000000000000000000000000000000012df9556dde00d6fef7000000000000000000000000000000000000000000000000006e6d9cff17d85ea0000000000000000000000000000000000000000000012df9557ec21362f1186",
          "blockHash": "0xbaf2e17d8c537e74c48027a565d2581b1f9fbf9aa93388f85a835a6c10fa4448",
          "blockNumber": "0x260e35b",
          "transactionHash": "0x965ad73a954fa32753ce07006a2e07fa15fa83450dff2b3879d68c46657ceac0",
          "transactionIndex": "0x10",
          "logIndex": "0x45",
          "removed": false
        }
      ],
      "status": "0x1",
      "logsBloom": "0x00000000000000000000000000000000000000000000000000000000000000000000000000000000000000000000000000008000002000000000000000000000000000000000000000000000000000800000000100020040040100000000000001000000020000000000000000000800000000000000000080000000000000000000000000000000000000000000000000000000000000000002000002000000200002000000000000000000000000000000000000000000000040000000004000000000000000000001000000000000000000000100000000180000000020000000000000000000000000000000000000000000000000000000000000100000",
      "type": "0x2",
      "effectiveGasPrice": "0x77359400"
    },
    {
      "transactionHash": "0x65d9519c5c6c79c5eeed07b7b364bf5be4432e76bba0de6856e660be502396ad",
      "transactionIndex": "0x11",
      "blockHash": "0xbaf2e17d8c537e74c48027a565d2581b1f9fbf9aa93388f85a835a6c10fa4448",
      "blockNumber": "0x260e35b",
      "from": "0x27870DBa1e03CFDD24F5658b255c0BAaC970A19D",
      "to": "0xd93937E53d87973435AF7277B8C171CA9BC68769",
      "cumulativeGasUsed": "0x4eb313",
      "gasUsed": "0x2445e",
      "contractAddress": null,
      "logs": [
        {
          "address": "0xd93937E53d87973435AF7277B8C171CA9BC68769",
          "topics": [
            "0xe28e4991719b1a533e2b60fb5ab59fb3c3d1cbc6af8dc954f782a0bf615d200c",
            "0x0000000000000000000000000000000000000000000000000000000000000001"
          ],
          "data": "0x000000000000000000000000000000000000000000000000000000000007a1200000000000000000000000000000000000000000000000000000000000000040000000000000000000000000000000000000000000000000000000000000004568747470733a2f2f697066732e696f2f697066732f516d64465266586337676d71597636317977734664576b5575566b7463635a316a6b4838654e55427379434250662f32000000000000000000000000000000000000000000000000000000",
          "blockHash": "0xbaf2e17d8c537e74c48027a565d2581b1f9fbf9aa93388f85a835a6c10fa4448",
          "blockNumber": "0x260e35b",
          "transactionHash": "0x65d9519c5c6c79c5eeed07b7b364bf5be4432e76bba0de6856e660be502396ad",
          "transactionIndex": "0x11",
          "logIndex": "0x46",
          "removed": false
        },
        {
          "address": "0x0000000000000000000000000000000000001010",
          "topics": [
            "0x4dfe1bbbcf077ddc3e01291eea2d5c70c2b422b415d95645b9adcfd678cb1d63",
            "0x0000000000000000000000000000000000000000000000000000000000001010",
            "0x00000000000000000000000027870dba1e03cfdd24f5658b255c0baac970a19d",
            "0x000000000000000000000000c275dc8be39f50d12f66b6a63629c39da5bae5bd"
          ],
          "data": "0x00000000000000000000000000000000000000000000000000010e4128bf221600000000000000000000000000000000000000000000000006e6d9cff14050000000000000000000000000000000000000000000000012df9557ec21362f118600000000000000000000000000000000000000000000000006e5cb8ec8812dea0000000000000000000000000000000000000000000012df9558fa625eee339c",
          "blockHash": "0xbaf2e17d8c537e74c48027a565d2581b1f9fbf9aa93388f85a835a6c10fa4448",
          "blockNumber": "0x260e35b",
          "transactionHash": "0x65d9519c5c6c79c5eeed07b7b364bf5be4432e76bba0de6856e660be502396ad",
          "transactionIndex": "0x11",
          "logIndex": "0x47",
          "removed": false
        }
      ],
      "status": "0x1",
      "logsBloom": "0x00000000000000000000000000000000000000000000000000000000000000000000000000000000000000000000000000008000002000000000000000040000000000000000000000000000000000800000000100060040040100000000000001000000000000000000000000000000000000000000000080000000000000000000000000000000000000000000000000000000000000000002000002000000200002000000000000000000000000000000000000000000000040000000004000000000000000000001000000000000000000000100000000180000000040000000000000000000000000000000000000000000000000000000000000100000",
      "type": "0x2",
      "effectiveGasPrice": "0x77359400"
    },
    {
      "transactionHash": "0x8eb305e3f34e2df8cba8e444bf74097234594b83338677a44dfe47658bd7ff9a",
      "transactionIndex": "0x12",
      "blockHash": "0xbaf2e17d8c537e74c48027a565d2581b1f9fbf9aa93388f85a835a6c10fa4448",
      "blockNumber": "0x260e35b",
      "from": "0x27870DBa1e03CFDD24F5658b255c0BAaC970A19D",
      "to": "0xd93937E53d87973435AF7277B8C171CA9BC68769",
      "cumulativeGasUsed": "0x50f771",
      "gasUsed": "0x2445e",
      "contractAddress": null,
      "logs": [
        {
          "address": "0xd93937E53d87973435AF7277B8C171CA9BC68769",
          "topics": [
            "0xe28e4991719b1a533e2b60fb5ab59fb3c3d1cbc6af8dc954f782a0bf615d200c",
            "0x0000000000000000000000000000000000000000000000000000000000000002"
          ],
          "data": "0x000000000000000000000000000000000000000000000000000000000003d0900000000000000000000000000000000000000000000000000000000000000040000000000000000000000000000000000000000000000000000000000000004568747470733a2f2f697066732e696f2f697066732f516d64465266586337676d71597636317977734664576b5575566b7463635a316a6b4838654e55427379434250662f33000000000000000000000000000000000000000000000000000000",
          "blockHash": "0xbaf2e17d8c537e74c48027a565d2581b1f9fbf9aa93388f85a835a6c10fa4448",
          "blockNumber": "0x260e35b",
          "transactionHash": "0x8eb305e3f34e2df8cba8e444bf74097234594b83338677a44dfe47658bd7ff9a",
          "transactionIndex": "0x12",
          "logIndex": "0x48",
          "removed": false
        },
        {
          "address": "0x0000000000000000000000000000000000001010",
          "topics": [
            "0x4dfe1bbbcf077ddc3e01291eea2d5c70c2b422b415d95645b9adcfd678cb1d63",
            "0x0000000000000000000000000000000000000000000000000000000000001010",
            "0x00000000000000000000000027870dba1e03cfdd24f5658b255c0baac970a19d",
            "0x000000000000000000000000c275dc8be39f50d12f66b6a63629c39da5bae5bd"
          ],
          "data": "0x00000000000000000000000000000000000000000000000000010e4128bf221600000000000000000000000000000000000000000000000006e5cb8ec843f8000000000000000000000000000000000000000000000012df9558fa625eee339c00000000000000000000000000000000000000000000000006e4bd4d9f84d5ea0000000000000000000000000000000000000000000012df955a08a387ad55b2",
          "blockHash": "0xbaf2e17d8c537e74c48027a565d2581b1f9fbf9aa93388f85a835a6c10fa4448",
          "blockNumber": "0x260e35b",
          "transactionHash": "0x8eb305e3f34e2df8cba8e444bf74097234594b83338677a44dfe47658bd7ff9a",
          "transactionIndex": "0x12",
          "logIndex": "0x49",
          "removed": false
        }
      ],
      "status": "0x1",
      "logsBloom": "0x04000000000000000000000000000000000000000000000000000000000000000000000000000000000000000000000000008000002000000000000000000000000000000000000000000000000000800000000100020040040100000000000001000000000000000000000000000000000000000000000080000000000000000000000000000000000000000000000000000000000000000002000002000000200002000000000000000100000000000000000000000000000040000000004000000000000000000001000000000000000000000100000000180000000000000000000000000000000000000000000000000000008000000000000000100000",
      "type": "0x2",
      "effectiveGasPrice": "0x77359400"
    },
    {
      "transactionHash": "0x9cd86254ad716bd61ff663414146610d9de93ce9197f44bfa20b0f9c6263c0a0",
      "transactionIndex": "0x13",
      "blockHash": "0xbaf2e17d8c537e74c48027a565d2581b1f9fbf9aa93388f85a835a6c10fa4448",
      "blockNumber": "0x260e35b",
      "from": "0x27870DBa1e03CFDD24F5658b255c0BAaC970A19D",
      "to": "0xdC4f015d90454600CfB735b8f1f80Bdf1468A900",
      "cumulativeGasUsed": "0x533bcf",
      "gasUsed": "0x2445e",
      "contractAddress": null,
      "logs": [
        {
          "address": "0xdC4f015d90454600CfB735b8f1f80Bdf1468A900",
          "topics": [
            "0xe28e4991719b1a533e2b60fb5ab59fb3c3d1cbc6af8dc954f782a0bf615d200c",
            "0x0000000000000000000000000000000000000000000000000000000000000000"
          ],
          "data": "0x00000000000000000000000000000000000000000000000000000000009896800000000000000000000000000000000000000000000000000000000000000040000000000000000000000000000000000000000000000000000000000000004568747470733a2f2f697066732e696f2f697066732f516d55553977646564534374725a4673356e505365416767706f58654a37574e4b7674474a4a4c776133637a716e2f31000000000000000000000000000000000000000000000000000000",
          "blockHash": "0xbaf2e17d8c537e74c48027a565d2581b1f9fbf9aa93388f85a835a6c10fa4448",
          "blockNumber": "0x260e35b",
          "transactionHash": "0x9cd86254ad716bd61ff663414146610d9de93ce9197f44bfa20b0f9c6263c0a0",
          "transactionIndex": "0x13",
          "logIndex": "0x4a",
          "removed": false
        },
        {
          "address": "0x0000000000000000000000000000000000001010",
          "topics": [
            "0x4dfe1bbbcf077ddc3e01291eea2d5c70c2b422b415d95645b9adcfd678cb1d63",
            "0x0000000000000000000000000000000000000000000000000000000000001010",
            "0x00000000000000000000000027870dba1e03cfdd24f5658b255c0baac970a19d",
            "0x000000000000000000000000c275dc8be39f50d12f66b6a63629c39da5bae5bd"
          ],
          "data": "0x00000000000000000000000000000000000000000000000000010e4128bf221600000000000000000000000000000000000000000000000006e4bd4d9f47a0000000000000000000000000000000000000000000000012df955a08a387ad55b200000000000000000000000000000000000000000000000006e3af0c76887dea0000000000000000000000000000000000000000000012df955b16e4b06c77c8",
          "blockHash": "0xbaf2e17d8c537e74c48027a565d2581b1f9fbf9aa93388f85a835a6c10fa4448",
          "blockNumber": "0x260e35b",
          "transactionHash": "0x9cd86254ad716bd61ff663414146610d9de93ce9197f44bfa20b0f9c6263c0a0",
          "transactionIndex": "0x13",
          "logIndex": "0x4b",
          "removed": false
        }
      ],
      "status": "0x1",
      "logsBloom": "0x00000000000000000000000000000000000000000000000000000000000000000000000000000000000000000000000000008000002000000000000000000000000000000000000000000000000000800000000100020000040100001000000001000000020000000000000000000800000000000000000080000000000000000000000000000020000000000000040000000000000000000002000002000000200000000000000000000000000000000000000000000000000040000000004000000000000000000001000000000000000000000100000000100000000020000000000000000000000000000000000000000000000000000000000000100000",
      "type": "0x2",
      "effectiveGasPrice": "0x77359400"
    },
    {
      "transactionHash": "0x54761ba214b50f6f1b0dc99e910ebc4f28d5f25b7ccce5cbd3506ce70ceda986",
      "transactionIndex": "0x14",
      "blockHash": "0xbaf2e17d8c537e74c48027a565d2581b1f9fbf9aa93388f85a835a6c10fa4448",
      "blockNumber": "0x260e35b",
      "from": "0x27870DBa1e03CFDD24F5658b255c0BAaC970A19D",
      "to": "0xdC4f015d90454600CfB735b8f1f80Bdf1468A900",
      "cumulativeGasUsed": "0x55802d",
      "gasUsed": "0x2445e",
      "contractAddress": null,
      "logs": [
        {
          "address": "0xdC4f015d90454600CfB735b8f1f80Bdf1468A900",
          "topics": [
            "0xe28e4991719b1a533e2b60fb5ab59fb3c3d1cbc6af8dc954f782a0bf615d200c",
            "0x0000000000000000000000000000000000000000000000000000000000000001"
          ],
          "data": "0x00000000000000000000000000000000000000000000000000000000004c4b400000000000000000000000000000000000000000000000000000000000000040000000000000000000000000000000000000000000000000000000000000004568747470733a2f2f697066732e696f2f697066732f516d55553977646564534374725a4673356e505365416767706f58654a37574e4b7674474a4a4c776133637a716e2f32000000000000000000000000000000000000000000000000000000",
          "blockHash": "0xbaf2e17d8c537e74c48027a565d2581b1f9fbf9aa93388f85a835a6c10fa4448",
          "blockNumber": "0x260e35b",
          "transactionHash": "0x54761ba214b50f6f1b0dc99e910ebc4f28d5f25b7ccce5cbd3506ce70ceda986",
          "transactionIndex": "0x14",
          "logIndex": "0x4c",
          "removed": false
        },
        {
          "address": "0x0000000000000000000000000000000000001010",
          "topics": [
            "0x4dfe1bbbcf077ddc3e01291eea2d5c70c2b422b415d95645b9adcfd678cb1d63",
            "0x0000000000000000000000000000000000000000000000000000000000001010",
            "0x00000000000000000000000027870dba1e03cfdd24f5658b255c0baac970a19d",
            "0x000000000000000000000000c275dc8be39f50d12f66b6a63629c39da5bae5bd"
          ],
          "data": "0x00000000000000000000000000000000000000000000000000010e4128bf221600000000000000000000000000000000000000000000000006e3af0c764b48000000000000000000000000000000000000000000000012df955b16e4b06c77c800000000000000000000000000000000000000000000000006e2a0cb4d8c25ea0000000000000000000000000000000000000000000012df955c2525d92b99de",
          "blockHash": "0xbaf2e17d8c537e74c48027a565d2581b1f9fbf9aa93388f85a835a6c10fa4448",
          "blockNumber": "0x260e35b",
          "transactionHash": "0x54761ba214b50f6f1b0dc99e910ebc4f28d5f25b7ccce5cbd3506ce70ceda986",
          "transactionIndex": "0x14",
          "logIndex": "0x4d",
          "removed": false
        }
      ],
      "status": "0x1",
      "logsBloom": "0x00000000000000000000000000000000000000000000000000000000000000000000000000000000000000000000000000008000002000000000000000040000000000000000000000000000000000800000000100060000040100001000000001000000000000000000000000000000000000000000000080000000000000000000000000000020000000000000040000000000000000000002000002000000200000000000000000000000000000000000000000000000000040000000004000000000000000000001000000000000000000000100000000100000000040000000000000000000000000000000000000000000000000000000000000100000",
      "type": "0x2",
      "effectiveGasPrice": "0x77359400"
    },
    {
      "transactionHash": "0x97b4511e26d32670fb7cac5c81e1f3d2f78adb3aa593789821e0e2fbcf1b8f82",
      "transactionIndex": "0x15",
      "blockHash": "0xbaf2e17d8c537e74c48027a565d2581b1f9fbf9aa93388f85a835a6c10fa4448",
      "blockNumber": "0x260e35b",
      "from": "0x27870DBa1e03CFDD24F5658b255c0BAaC970A19D",
      "to": "0xdC4f015d90454600CfB735b8f1f80Bdf1468A900",
      "cumulativeGasUsed": "0x57c48b",
      "gasUsed": "0x2445e",
      "contractAddress": null,
      "logs": [
        {
          "address": "0xdC4f015d90454600CfB735b8f1f80Bdf1468A900",
          "topics": [
            "0xe28e4991719b1a533e2b60fb5ab59fb3c3d1cbc6af8dc954f782a0bf615d200c",
            "0x0000000000000000000000000000000000000000000000000000000000000002"
          ],
          "data": "0x00000000000000000000000000000000000000000000000000000000001e84800000000000000000000000000000000000000000000000000000000000000040000000000000000000000000000000000000000000000000000000000000004568747470733a2f2f697066732e696f2f697066732f516d55553977646564534374725a4673356e505365416767706f58654a37574e4b7674474a4a4c776133637a716e2f33000000000000000000000000000000000000000000000000000000",
          "blockHash": "0xbaf2e17d8c537e74c48027a565d2581b1f9fbf9aa93388f85a835a6c10fa4448",
          "blockNumber": "0x260e35b",
          "transactionHash": "0x97b4511e26d32670fb7cac5c81e1f3d2f78adb3aa593789821e0e2fbcf1b8f82",
          "transactionIndex": "0x15",
          "logIndex": "0x4e",
          "removed": false
        },
        {
          "address": "0x0000000000000000000000000000000000001010",
          "topics": [
            "0x4dfe1bbbcf077ddc3e01291eea2d5c70c2b422b415d95645b9adcfd678cb1d63",
            "0x0000000000000000000000000000000000000000000000000000000000001010",
            "0x00000000000000000000000027870dba1e03cfdd24f5658b255c0baac970a19d",
            "0x000000000000000000000000c275dc8be39f50d12f66b6a63629c39da5bae5bd"
          ],
          "data": "0x00000000000000000000000000000000000000000000000000010e4128bf221600000000000000000000000000000000000000000000000006e2a0cb4d4ef0000000000000000000000000000000000000000000000012df955c2525d92b99de00000000000000000000000000000000000000000000000006e1928a248fcdea0000000000000000000000000000000000000000000012df955d336701eabbf4",
          "blockHash": "0xbaf2e17d8c537e74c48027a565d2581b1f9fbf9aa93388f85a835a6c10fa4448",
          "blockNumber": "0x260e35b",
          "transactionHash": "0x97b4511e26d32670fb7cac5c81e1f3d2f78adb3aa593789821e0e2fbcf1b8f82",
          "transactionIndex": "0x15",
          "logIndex": "0x4f",
          "removed": false
        }
      ],
      "status": "0x1",
      "logsBloom": "0x04000000000000000000000000000000000000000000000000000000000000000000000000000000000000000000000000008000002000000000000000000000000000000000000000000000000000800000000100020000040100001000000001000000000000000000000000000000000000000000000080000000000000000000000000000020000000000000040000000000000000000002000002000000200000000000000000000100000000000000000000000000000040000000004000000000000000000001000000000000000000000100000000100000000000000000000000000000000000000000000000000000008000000000000000100000",
      "type": "0x2",
      "effectiveGasPrice": "0x77359400"
    }
  ],
  "libraries": [],
  "pending": [],
  "returns": {},
  "timestamp": 1694202433,
  "chain": 80001,
  "multi": false,
  "commit": "88459b2"
}